{
  "contractName": "Masonry",
  "abi": [
    {
      "anonymous": false,
      "inputs": [
        {
          "indexed": true,
          "internalType": "address",
          "name": "executor",
          "type": "address"
        },
        {
          "indexed": false,
          "internalType": "uint256",
          "name": "at",
          "type": "uint256"
        }
      ],
      "name": "Initialized",
      "type": "event"
    },
    {
      "anonymous": false,
      "inputs": [
        {
          "indexed": true,
          "internalType": "address",
          "name": "user",
          "type": "address"
        },
        {
          "indexed": false,
          "internalType": "uint256",
          "name": "reward",
          "type": "uint256"
        }
      ],
      "name": "RewardAdded",
      "type": "event"
    },
    {
      "anonymous": false,
      "inputs": [
        {
          "indexed": true,
          "internalType": "address",
          "name": "user",
          "type": "address"
        },
        {
          "indexed": false,
          "internalType": "uint256",
          "name": "reward",
          "type": "uint256"
        }
      ],
      "name": "RewardPaid",
      "type": "event"
    },
    {
      "anonymous": false,
      "inputs": [
        {
          "indexed": true,
          "internalType": "address",
          "name": "user",
          "type": "address"
        },
        {
          "indexed": false,
          "internalType": "uint256",
          "name": "amount",
          "type": "uint256"
        }
      ],
      "name": "Staked",
      "type": "event"
    },
    {
      "anonymous": false,
      "inputs": [
        {
          "indexed": true,
          "internalType": "address",
          "name": "user",
          "type": "address"
        },
        {
          "indexed": false,
          "internalType": "uint256",
          "name": "amount",
          "type": "uint256"
        }
      ],
      "name": "Withdrawn",
      "type": "event"
    },
    {
      "inputs": [
        {
          "internalType": "address",
          "name": "account",
          "type": "address"
        }
      ],
      "name": "balanceOf",
      "outputs": [
        {
          "internalType": "uint256",
          "name": "",
          "type": "uint256"
        }
      ],
      "stateMutability": "view",
      "type": "function"
    },
    {
      "inputs": [],
      "name": "initialized",
      "outputs": [
        {
          "internalType": "bool",
          "name": "",
          "type": "bool"
        }
      ],
      "stateMutability": "view",
      "type": "function"
    },
    {
      "inputs": [
        {
          "internalType": "uint256",
          "name": "",
          "type": "uint256"
        }
      ],
      "name": "masonryHistory",
      "outputs": [
        {
          "internalType": "uint256",
          "name": "time",
          "type": "uint256"
        },
        {
          "internalType": "uint256",
          "name": "rewardReceived",
          "type": "uint256"
        },
        {
          "internalType": "uint256",
          "name": "rewardPerShare",
          "type": "uint256"
        }
      ],
      "stateMutability": "view",
      "type": "function"
    },
    {
      "inputs": [
        {
          "internalType": "address",
          "name": "",
          "type": "address"
        }
      ],
      "name": "masons",
      "outputs": [
        {
          "internalType": "uint256",
          "name": "lastSnapshotIndex",
          "type": "uint256"
        },
        {
          "internalType": "uint256",
          "name": "rewardEarned",
          "type": "uint256"
        },
        {
          "internalType": "uint256",
          "name": "epochTimerStart",
          "type": "uint256"
        }
      ],
      "stateMutability": "view",
      "type": "function"
    },
    {
      "inputs": [],
      "name": "operator",
      "outputs": [
        {
          "internalType": "address",
          "name": "",
          "type": "address"
        }
      ],
      "stateMutability": "view",
      "type": "function"
    },
    {
      "inputs": [],
      "name": "rewardLockupEpochs",
      "outputs": [
        {
          "internalType": "uint256",
          "name": "",
          "type": "uint256"
        }
      ],
      "stateMutability": "view",
      "type": "function"
    },
    {
      "inputs": [],
      "name": "share",
      "outputs": [
        {
          "internalType": "contract IERC20",
          "name": "",
          "type": "address"
        }
      ],
      "stateMutability": "view",
      "type": "function"
    },
    {
      "inputs": [],
      "name": "tomb",
      "outputs": [
        {
          "internalType": "contract IERC20",
          "name": "",
          "type": "address"
        }
      ],
      "stateMutability": "view",
      "type": "function"
    },
    {
      "inputs": [],
      "name": "totalSupply",
      "outputs": [
        {
          "internalType": "uint256",
          "name": "",
          "type": "uint256"
        }
      ],
      "stateMutability": "view",
      "type": "function"
    },
    {
      "inputs": [],
      "name": "treasury",
      "outputs": [
        {
          "internalType": "contract ITreasury",
          "name": "",
          "type": "address"
        }
      ],
      "stateMutability": "view",
      "type": "function"
    },
    {
      "inputs": [],
      "name": "withdrawLockupEpochs",
      "outputs": [
        {
          "internalType": "uint256",
          "name": "",
          "type": "uint256"
        }
      ],
      "stateMutability": "view",
      "type": "function"
    },
    {
      "inputs": [
        {
          "internalType": "contract IERC20",
          "name": "_tomb",
          "type": "address"
        },
        {
          "internalType": "contract IERC20",
          "name": "_share",
          "type": "address"
        },
        {
          "internalType": "contract ITreasury",
          "name": "_treasury",
          "type": "address"
        }
      ],
      "name": "initialize",
      "outputs": [],
      "stateMutability": "nonpayable",
      "type": "function"
    },
    {
      "inputs": [
        {
          "internalType": "address",
          "name": "_operator",
          "type": "address"
        }
      ],
      "name": "setOperator",
      "outputs": [],
      "stateMutability": "nonpayable",
      "type": "function"
    },
    {
      "inputs": [
        {
          "internalType": "uint256",
          "name": "_withdrawLockupEpochs",
          "type": "uint256"
        },
        {
          "internalType": "uint256",
          "name": "_rewardLockupEpochs",
          "type": "uint256"
        }
      ],
      "name": "setLockUp",
      "outputs": [],
      "stateMutability": "nonpayable",
      "type": "function"
    },
    {
      "inputs": [],
      "name": "latestSnapshotIndex",
      "outputs": [
        {
          "internalType": "uint256",
          "name": "",
          "type": "uint256"
        }
      ],
      "stateMutability": "view",
      "type": "function"
    },
    {
      "inputs": [
        {
          "internalType": "address",
          "name": "mason",
          "type": "address"
        }
      ],
      "name": "getLastSnapshotIndexOf",
      "outputs": [
        {
          "internalType": "uint256",
          "name": "",
          "type": "uint256"
        }
      ],
      "stateMutability": "view",
      "type": "function"
    },
    {
      "inputs": [
        {
          "internalType": "address",
          "name": "mason",
          "type": "address"
        }
      ],
      "name": "canWithdraw",
      "outputs": [
        {
          "internalType": "bool",
          "name": "",
          "type": "bool"
        }
      ],
      "stateMutability": "view",
      "type": "function"
    },
    {
      "inputs": [
        {
          "internalType": "address",
          "name": "mason",
          "type": "address"
        }
      ],
      "name": "canClaimReward",
      "outputs": [
        {
          "internalType": "bool",
          "name": "",
          "type": "bool"
        }
      ],
      "stateMutability": "view",
      "type": "function"
    },
    {
      "inputs": [],
      "name": "epoch",
      "outputs": [
        {
          "internalType": "uint256",
          "name": "",
          "type": "uint256"
        }
      ],
      "stateMutability": "view",
      "type": "function"
    },
    {
      "inputs": [],
      "name": "nextEpochPoint",
      "outputs": [
        {
          "internalType": "uint256",
          "name": "",
          "type": "uint256"
        }
      ],
      "stateMutability": "view",
      "type": "function"
    },
    {
      "inputs": [],
      "name": "getTombPrice",
      "outputs": [
        {
          "internalType": "uint256",
          "name": "",
          "type": "uint256"
        }
      ],
      "stateMutability": "view",
      "type": "function"
    },
    {
      "inputs": [],
      "name": "rewardPerShare",
      "outputs": [
        {
          "internalType": "uint256",
          "name": "",
          "type": "uint256"
        }
      ],
      "stateMutability": "view",
      "type": "function"
    },
    {
      "inputs": [
        {
          "internalType": "address",
          "name": "mason",
          "type": "address"
        }
      ],
      "name": "earned",
      "outputs": [
        {
          "internalType": "uint256",
          "name": "",
          "type": "uint256"
        }
      ],
      "stateMutability": "view",
      "type": "function"
    },
    {
      "inputs": [
        {
          "internalType": "uint256",
          "name": "amount",
          "type": "uint256"
        }
      ],
      "name": "stake",
      "outputs": [],
      "stateMutability": "nonpayable",
      "type": "function"
    },
    {
      "inputs": [
        {
          "internalType": "uint256",
          "name": "amount",
          "type": "uint256"
        }
      ],
      "name": "withdraw",
      "outputs": [],
      "stateMutability": "nonpayable",
      "type": "function"
    },
    {
      "inputs": [],
      "name": "exit",
      "outputs": [],
      "stateMutability": "nonpayable",
      "type": "function"
    },
    {
      "inputs": [],
      "name": "claimReward",
      "outputs": [],
      "stateMutability": "nonpayable",
      "type": "function"
    },
    {
      "inputs": [
        {
          "internalType": "uint256",
          "name": "amount",
          "type": "uint256"
        }
      ],
      "name": "allocateSeigniorage",
      "outputs": [],
      "stateMutability": "nonpayable",
      "type": "function"
    },
    {
      "inputs": [
        {
          "internalType": "contract IERC20",
          "name": "_token",
          "type": "address"
        },
        {
          "internalType": "uint256",
          "name": "_amount",
          "type": "uint256"
        },
        {
          "internalType": "address",
          "name": "_to",
          "type": "address"
        }
      ],
      "name": "governanceRecoverUnsupported",
      "outputs": [],
      "stateMutability": "nonpayable",
      "type": "function"
    }
  ],
  "bytecode": "0x60806040526000600460146101000a81548160ff02191690831515021790555034801561002b57600080fd5b506135a48061003b6000396000f3fe608060405234801561001057600080fd5b50600436106101ce5760003560e01c806361d027b311610104578063a8d5fd65116100a2578063c0c53b8b11610071578063c0c53b8b1461071f578063c5967c26146107a3578063e0f6dc9e146107c1578063e9fad8ee14610827576101ce565b8063a8d5fd6514610669578063b3ab15fb1461069d578063b88a802f146106e1578063c040f23a146106eb576101ce565b80638cd9a27f116100de5780638cd9a27f1461059f578063900cf0cf146105ef57806397ffe1d71461060d578063a694fc3a1461063b576101ce565b806361d027b3146104bb57806370a08231146104ef578063714b465814610547576101ce565b80631e85cd65116101715780633f9e3f041161014b5780633f9e3f04146103dd578063446a2ec8146103fb57806354575af414610419578063570ca73514610487576101ce565b80631e85cd65146103595780632e1a7d4d146103775780632ffaaa09146103a5576101ce565b806309bb4f92116101ad57806309bb4f92146102a3578063158ef93e146102c157806318160ddd146102e157806319262d30146102ff576101ce565b80628cc262146101d3578063022ba18d1461022b578063046335d014610249575b600080fd5b610215600480360360208110156101e957600080fd5b81019080803573ffffffffffffffffffffffffffffffffffffffff169060200190929190505050610831565b6040518082815260200191505060405180910390f35b6102336108f7565b6040518082815260200191505060405180910390f35b61028b6004803603602081101561025f57600080fd5b81019080803573ffffffffffffffffffffffffffffffffffffffff1690602001909291905050506108fd565b60405180821515815260200191505060405180910390f35b6102ab610a02565b6040518082815260200191505060405180910390f35b6102c9610aac565b60405180821515815260200191505060405180910390f35b6102e9610abf565b6040518082815260200191505060405180910390f35b6103416004803603602081101561031557600080fd5b81019080803573ffffffffffffffffffffffffffffffffffffffff169060200190929190505050610ac9565b60405180821515815260200191505060405180910390f35b610361610bce565b6040518082815260200191505060405180910390f35b6103a36004803603602081101561038d57600080fd5b8101908080359060200190929190505050610bd4565b005b6103db600480360360408110156103bb57600080fd5b81019080803590602001909291908035906020019092919050505061111a565b005b6103e5611238565b6040518082815260200191505060405180910390f35b610403611258565b6040518082815260200191505060405180910390f35b6104856004803603606081101561042f57600080fd5b81019080803573ffffffffffffffffffffffffffffffffffffffff16906020019092919080359060200190929190803573ffffffffffffffffffffffffffffffffffffffff16906020019092919050505061126b565b005b61048f6114c7565b604051808273ffffffffffffffffffffffffffffffffffffffff16815260200191505060405180910390f35b6104c36114ed565b604051808273ffffffffffffffffffffffffffffffffffffffff16815260200191505060405180910390f35b6105316004803603602081101561050557600080fd5b81019080803573ffffffffffffffffffffffffffffffffffffffff169060200190929190505050611513565b6040518082815260200191505060405180910390f35b6105896004803603602081101561055d57600080fd5b81019080803573ffffffffffffffffffffffffffffffffffffffff16906020019092919050505061155c565b6040518082815260200191505060405180910390f35b6105cb600480360360208110156105b557600080fd5b81019080803590602001909291905050506115a8565b60405180848152602001838152602001828152602001935050505060405180910390f35b6105f76115df565b6040518082815260200191505060405180910390f35b6106396004803603602081101561062357600080fd5b8101908080359060200190929190505050611689565b005b6106676004803603602081101561065157600080fd5b8101908080359060200190929190505050611b01565b005b610671611f76565b604051808273ffffffffffffffffffffffffffffffffffffffff16815260200191505060405180910390f35b6106df600480360360208110156106b357600080fd5b81019080803573ffffffffffffffffffffffffffffffffffffffff169060200190929190505050611f9a565b005b6106e9612084565b005b6106f3612540565b604051808273ffffffffffffffffffffffffffffffffffffffff16815260200191505060405180910390f35b6107a16004803603606081101561073557600080fd5b81019080803573ffffffffffffffffffffffffffffffffffffffff169060200190929190803573ffffffffffffffffffffffffffffffffffffffff169060200190929190803573ffffffffffffffffffffffffffffffffffffffff169060200190929190505050612566565b005b6107ab6127de565b6040518082815260200191505060405180910390f35b610803600480360360208110156107d757600080fd5b81019080803573ffffffffffffffffffffffffffffffffffffffff169060200190929190505050612888565b60405180848152602001838152602001828152602001935050505060405180910390f35b61082f6128b2565b005b60008061083c6128c5565b604001519050600061084d8461291d565b6040015190506108ee600760008673ffffffffffffffffffffffffffffffffffffffff1673ffffffffffffffffffffffffffffffffffffffff168152602001908152602001600020600101546108e0670de0b6b3a76400006108d26108bb868861297890919063ffffffff16565b6108c48a611513565b6129fb90919063ffffffff16565b612a8190919063ffffffff16565b612b0a90919063ffffffff16565b92505050919050565b600a5481565b6000600660009054906101000a900473ffffffffffffffffffffffffffffffffffffffff1673ffffffffffffffffffffffffffffffffffffffff1663900cf0cf6040518163ffffffff1660e01b815260040160206040518083038186803b15801561096757600080fd5b505afa15801561097b573d6000803e3d6000fd5b505050506040513d602081101561099157600080fd5b81019080805190602001909291905050506109f9600a54600760008673ffffffffffffffffffffffffffffffffffffffff1673ffffffffffffffffffffffffffffffffffffffff16815260200190815260200160002060020154612b0a90919063ffffffff16565b11159050919050565b6000600660009054906101000a900473ffffffffffffffffffffffffffffffffffffffff1673ffffffffffffffffffffffffffffffffffffffff166309bb4f926040518163ffffffff1660e01b815260040160206040518083038186803b158015610a6c57600080fd5b505afa158015610a80573d6000803e3d6000fd5b505050506040513d6020811015610a9657600080fd5b8101908080519060200190929190505050905090565b600460149054906101000a900460ff1681565b6000600154905090565b6000600660009054906101000a900473ffffffffffffffffffffffffffffffffffffffff1673ffffffffffffffffffffffffffffffffffffffff1663900cf0cf6040518163ffffffff1660e01b815260040160206040518083038186803b158015610b3357600080fd5b505afa158015610b47573d6000803e3d6000fd5b505050506040513d6020811015610b5d57600080fd5b8101908080519060200190929190505050610bc5600954600760008673ffffffffffffffffffffffffffffffffffffffff1673ffffffffffffffffffffffffffffffffffffffff16815260200190815260200160002060020154612b0a90919063ffffffff16565b11159050919050565b60095481565b610bdc612b92565b15610c32576040517f08c379a00000000000000000000000000000000000000000000000000000000081526004018080602001828103825260268152602001806135496026913960400191505060405180910390fd5b610c3a612bf7565b15610c90576040517f08c379a00000000000000000000000000000000000000000000000000000000081526004018080602001828103825260268152602001806135496026913960400191505060405180910390fd5b6000610c9b33611513565b11610cf1576040517f08c379a00000000000000000000000000000000000000000000000000000000081526004018080602001828103825260218152602001806134dd6021913960400191505060405180910390fd5b33600073ffffffffffffffffffffffffffffffffffffffff168173ffffffffffffffffffffffffffffffffffffffff1614610e1e57610d2e6133ab565b600760008373ffffffffffffffffffffffffffffffffffffffff1673ffffffffffffffffffffffffffffffffffffffff16815260200190815260200160002060405180606001604052908160008201548152602001600182015481526020016002820154815250509050610da182610831565b816020018181525050610db2611238565b81600001818152505080600760008473ffffffffffffffffffffffffffffffffffffffff1673ffffffffffffffffffffffffffffffffffffffff168152602001908152602001600020600082015181600001556020820151816001015560408201518160020155905050505b60008211610e94576040517f08c379a000000000000000000000000000000000000000000000000000000000815260040180806020018281038252601a8152602001807f4d61736f6e72793a2043616e6e6f74207769746864726177203000000000000081525060200191505060405180910390fd5b600660009054906101000a900473ffffffffffffffffffffffffffffffffffffffff1673ffffffffffffffffffffffffffffffffffffffff1663900cf0cf6040518163ffffffff1660e01b815260040160206040518083038186803b158015610efc57600080fd5b505afa158015610f10573d6000803e3d6000fd5b505050506040513d6020811015610f2657600080fd5b8101908080519060200190929190505050610f8e600954600760003373ffffffffffffffffffffffffffffffffffffffff1673ffffffffffffffffffffffffffffffffffffffff16815260200190815260200160002060020154612b0a90919063ffffffff16565b1115610fe5576040517f08c379a00000000000000000000000000000000000000000000000000000000081526004018080602001828103825260218152602001806134fe6021913960400191505060405180910390fd5b610fed612084565b610ff682612c5c565b3373ffffffffffffffffffffffffffffffffffffffff167f7084f5476618d8e60b11ef0d7d3f06914655adb8793e28ff7f018d4c76d505d5836040518082815260200191505060405180910390a25060016003600043815260200190815260200160002060003273ffffffffffffffffffffffffffffffffffffffff1673ffffffffffffffffffffffffffffffffffffffff16815260200190815260200160002060006101000a81548160ff02191690831515021790555060016003600043815260200190815260200160002060003373ffffffffffffffffffffffffffffffffffffffff1673ffffffffffffffffffffffffffffffffffffffff16815260200190815260200160002060006101000a81548160ff02191690831515021790555050565b3373ffffffffffffffffffffffffffffffffffffffff16600460009054906101000a900473ffffffffffffffffffffffffffffffffffffffff1673ffffffffffffffffffffffffffffffffffffffff16146111c0576040517f08c379a00000000000000000000000000000000000000000000000000000000081526004018080602001828103825260238152602001806134766023913960400191505060405180910390fd5b8082101580156111d1575060388211155b611226576040517f08c379a00000000000000000000000000000000000000000000000000000000081526004018080602001828103825260238152602001806134ba6023913960400191505060405180910390fd5b8160098190555080600a819055505050565b6000611253600160088054905061297890919063ffffffff16565b905090565b60006112626128c5565b60400151905090565b3373ffffffffffffffffffffffffffffffffffffffff16600460009054906101000a900473ffffffffffffffffffffffffffffffffffffffff1673ffffffffffffffffffffffffffffffffffffffff1614611311576040517f08c379a00000000000000000000000000000000000000000000000000000000081526004018080602001828103825260238152602001806134766023913960400191505060405180910390fd5b600560009054906101000a900473ffffffffffffffffffffffffffffffffffffffff1673ffffffffffffffffffffffffffffffffffffffff168373ffffffffffffffffffffffffffffffffffffffff1614156113d5576040517f08c379a00000000000000000000000000000000000000000000000000000000081526004018080602001828103825260048152602001807f746f6d620000000000000000000000000000000000000000000000000000000081525060200191505060405180910390fd5b60008054906101000a900473ffffffffffffffffffffffffffffffffffffffff1673ffffffffffffffffffffffffffffffffffffffff168373ffffffffffffffffffffffffffffffffffffffff161415611497576040517f08c379a00000000000000000000000000000000000000000000000000000000081526004018080602001828103825260058152602001807f736861726500000000000000000000000000000000000000000000000000000081525060200191505060405180910390fd5b6114c281838573ffffffffffffffffffffffffffffffffffffffff16612db99092919063ffffffff16565b505050565b600460009054906101000a900473ffffffffffffffffffffffffffffffffffffffff1681565b600660009054906101000a900473ffffffffffffffffffffffffffffffffffffffff1681565b6000600260008373ffffffffffffffffffffffffffffffffffffffff1673ffffffffffffffffffffffffffffffffffffffff168152602001908152602001600020549050919050565b6000600760008373ffffffffffffffffffffffffffffffffffffffff1673ffffffffffffffffffffffffffffffffffffffff168152602001908152602001600020600001549050919050565b600881815481106115b557fe5b90600052602060002090600302016000915090508060000154908060010154908060020154905083565b6000600660009054906101000a900473ffffffffffffffffffffffffffffffffffffffff1673ffffffffffffffffffffffffffffffffffffffff1663900cf0cf6040518163ffffffff1660e01b815260040160206040518083038186803b15801561164957600080fd5b505afa15801561165d573d6000803e3d6000fd5b505050506040513d602081101561167357600080fd5b8101908080519060200190929190505050905090565b611691612b92565b156116e7576040517f08c379a00000000000000000000000000000000000000000000000000000000081526004018080602001828103825260268152602001806135496026913960400191505060405180910390fd5b6116ef612bf7565b15611745576040517f08c379a00000000000000000000000000000000000000000000000000000000081526004018080602001828103825260268152602001806135496026913960400191505060405180910390fd5b3373ffffffffffffffffffffffffffffffffffffffff16600460009054906101000a900473ffffffffffffffffffffffffffffffffffffffff1673ffffffffffffffffffffffffffffffffffffffff16146117eb576040517f08c379a00000000000000000000000000000000000000000000000000000000081526004018080602001828103825260238152602001806134766023913960400191505060405180910390fd5b60008111611861576040517f08c379a000000000000000000000000000000000000000000000000000000000815260040180806020018281038252601a8152602001807f4d61736f6e72793a2043616e6e6f7420616c6c6f63617465203000000000000081525060200191505060405180910390fd5b600061186b610abf565b116118c1576040517f08c379a000000000000000000000000000000000000000000000000000000000815260040180806020018281038252602e8152602001806133ee602e913960400191505060405180910390fd5b60006118cb6128c5565b604001519050600061191961190a6118e1610abf565b6118fc670de0b6b3a7640000876129fb90919063ffffffff16565b612a8190919063ffffffff16565b83612b0a90919063ffffffff16565b90506119236133cc565b6040518060600160405280438152602001858152602001838152509050600881908060018154018082558091505060019003906000526020600020906003020160009091909190915060008201518160000155602082015181600101556040820151816002015550506119db333086600560009054906101000a900473ffffffffffffffffffffffffffffffffffffffff1673ffffffffffffffffffffffffffffffffffffffff16612e5b909392919063ffffffff16565b3373ffffffffffffffffffffffffffffffffffffffff167fac24935fd910bc682b5ccb1a07b718cadf8cf2f6d1404c4f3ddc3662dae40e29856040518082815260200191505060405180910390a250505060016003600043815260200190815260200160002060003273ffffffffffffffffffffffffffffffffffffffff1673ffffffffffffffffffffffffffffffffffffffff16815260200190815260200160002060006101000a81548160ff02191690831515021790555060016003600043815260200190815260200160002060003373ffffffffffffffffffffffffffffffffffffffff1673ffffffffffffffffffffffffffffffffffffffff16815260200190815260200160002060006101000a81548160ff02191690831515021790555050565b611b09612b92565b15611b5f576040517f08c379a00000000000000000000000000000000000000000000000000000000081526004018080602001828103825260268152602001806135496026913960400191505060405180910390fd5b611b67612bf7565b15611bbd576040517f08c379a00000000000000000000000000000000000000000000000000000000081526004018080602001828103825260268152602001806135496026913960400191505060405180910390fd5b33600073ffffffffffffffffffffffffffffffffffffffff168173ffffffffffffffffffffffffffffffffffffffff1614611cea57611bfa6133ab565b600760008373ffffffffffffffffffffffffffffffffffffffff1673ffffffffffffffffffffffffffffffffffffffff16815260200190815260200160002060405180606001604052908160008201548152602001600182015481526020016002820154815250509050611c6d82610831565b816020018181525050611c7e611238565b81600001818152505080600760008473ffffffffffffffffffffffffffffffffffffffff1673ffffffffffffffffffffffffffffffffffffffff168152602001908152602001600020600082015181600001556020820151816001015560408201518160020155905050505b60008211611d60576040517f08c379a00000000000000000000000000000000000000000000000000000000081526004018080602001828103825260178152602001807f4d61736f6e72793a2043616e6e6f74207374616b65203000000000000000000081525060200191505060405180910390fd5b611d6982612f1c565b600660009054906101000a900473ffffffffffffffffffffffffffffffffffffffff1673ffffffffffffffffffffffffffffffffffffffff1663900cf0cf6040518163ffffffff1660e01b815260040160206040518083038186803b158015611dd157600080fd5b505afa158015611de5573d6000803e3d6000fd5b505050506040513d6020811015611dfb57600080fd5b8101908080519060200190929190505050600760003373ffffffffffffffffffffffffffffffffffffffff1673ffffffffffffffffffffffffffffffffffffffff168152602001908152602001600020600201819055503373ffffffffffffffffffffffffffffffffffffffff167f9e71bc8eea02a63969f509818f2dafb9254532904319f9dbda79b67bd34a5f3d836040518082815260200191505060405180910390a25060016003600043815260200190815260200160002060003273ffffffffffffffffffffffffffffffffffffffff1673ffffffffffffffffffffffffffffffffffffffff16815260200190815260200160002060006101000a81548160ff02191690831515021790555060016003600043815260200190815260200160002060003373ffffffffffffffffffffffffffffffffffffffff1673ffffffffffffffffffffffffffffffffffffffff16815260200190815260200160002060006101000a81548160ff02191690831515021790555050565b60008054906101000a900473ffffffffffffffffffffffffffffffffffffffff1681565b3373ffffffffffffffffffffffffffffffffffffffff16600460009054906101000a900473ffffffffffffffffffffffffffffffffffffffff1673ffffffffffffffffffffffffffffffffffffffff1614612040576040517f08c379a00000000000000000000000000000000000000000000000000000000081526004018080602001828103825260238152602001806134766023913960400191505060405180910390fd5b80600460006101000a81548173ffffffffffffffffffffffffffffffffffffffff021916908373ffffffffffffffffffffffffffffffffffffffff16021790555050565b33600073ffffffffffffffffffffffffffffffffffffffff168173ffffffffffffffffffffffffffffffffffffffff16146121b1576120c16133ab565b600760008373ffffffffffffffffffffffffffffffffffffffff1673ffffffffffffffffffffffffffffffffffffffff1681526020019081526020016000206040518060600160405290816000820154815260200160018201548152602001600282015481525050905061213482610831565b816020018181525050612145611238565b81600001818152505080600760008473ffffffffffffffffffffffffffffffffffffffff1673ffffffffffffffffffffffffffffffffffffffff168152602001908152602001600020600082015181600001556020820151816001015560408201518160020155905050505b6000600760003373ffffffffffffffffffffffffffffffffffffffff1673ffffffffffffffffffffffffffffffffffffffff168152602001908152602001600020600101549050600081111561253c57600660009054906101000a900473ffffffffffffffffffffffffffffffffffffffff1673ffffffffffffffffffffffffffffffffffffffff1663900cf0cf6040518163ffffffff1660e01b815260040160206040518083038186803b15801561226957600080fd5b505afa15801561227d573d6000803e3d6000fd5b505050506040513d602081101561229357600080fd5b81019080805190602001909291905050506122fb600a54600760003373ffffffffffffffffffffffffffffffffffffffff1673ffffffffffffffffffffffffffffffffffffffff16815260200190815260200160002060020154612b0a90919063ffffffff16565b111561236f576040517f08c379a000000000000000000000000000000000000000000000000000000000815260040180806020018281038252601f8152602001807f4d61736f6e72793a207374696c6c20696e20726577617264206c6f636b75700081525060200191505060405180910390fd5b600660009054906101000a900473ffffffffffffffffffffffffffffffffffffffff1673ffffffffffffffffffffffffffffffffffffffff1663900cf0cf6040518163ffffffff1660e01b815260040160206040518083038186803b1580156123d757600080fd5b505afa1580156123eb573d6000803e3d6000fd5b505050506040513d602081101561240157600080fd5b8101908080519060200190929190505050600760003373ffffffffffffffffffffffffffffffffffffffff1673ffffffffffffffffffffffffffffffffffffffff168152602001908152602001600020600201819055506000600760003373ffffffffffffffffffffffffffffffffffffffff1673ffffffffffffffffffffffffffffffffffffffff168152602001908152602001600020600101819055506124ed3382600560009054906101000a900473ffffffffffffffffffffffffffffffffffffffff1673ffffffffffffffffffffffffffffffffffffffff16612db99092919063ffffffff16565b3373ffffffffffffffffffffffffffffffffffffffff167fe2403640ba68fed3a2f88b7557551d1993f84b99bb10ff833f0cf8db0c5e0486826040518082815260200191505060405180910390a25b5050565b600560009054906101000a900473ffffffffffffffffffffffffffffffffffffffff1681565b600460149054906101000a900460ff16156125e9576040517f08c379a000000000000000000000000000000000000000000000000000000000815260040180806020018281038252601c8152602001807f4d61736f6e72793a20616c726561647920696e697469616c697a65640000000081525060200191505060405180910390fd5b82600560006101000a81548173ffffffffffffffffffffffffffffffffffffffff021916908373ffffffffffffffffffffffffffffffffffffffff160217905550816000806101000a81548173ffffffffffffffffffffffffffffffffffffffff021916908373ffffffffffffffffffffffffffffffffffffffff16021790555080600660006101000a81548173ffffffffffffffffffffffffffffffffffffffff021916908373ffffffffffffffffffffffffffffffffffffffff1602179055506126b36133cc565b604051806060016040528043815260200160008152602001600081525090506008819080600181540180825580915050600190039060005260206000209060030201600090919091909150600082015181600001556020820151816001015560408201518160020155505060066009819055506003600a819055506001600460146101000a81548160ff02191690831515021790555033600460006101000a81548173ffffffffffffffffffffffffffffffffffffffff021916908373ffffffffffffffffffffffffffffffffffffffff1602179055503373ffffffffffffffffffffffffffffffffffffffff167f25ff68dd81b34665b5ba7e553ee5511bf6812e12adb4a7e2c0d9e26b3099ce79436040518082815260200191505060405180910390a250505050565b6000600660009054906101000a900473ffffffffffffffffffffffffffffffffffffffff1673ffffffffffffffffffffffffffffffffffffffff1663c5967c266040518163ffffffff1660e01b815260040160206040518083038186803b15801561284857600080fd5b505afa15801561285c573d6000803e3d6000fd5b505050506040513d602081101561287257600080fd5b8101908080519060200190929190505050905090565b60076020528060005260406000206000915090508060000154908060010154908060020154905083565b6128c36128be33611513565b610bd4565b565b6128cd6133cc565b60086128d7611238565b815481106128e157fe5b90600052602060002090600302016040518060600160405290816000820154815260200160018201548152602001600282015481525050905090565b6129256133cc565b60086129308361155c565b8154811061293a57fe5b906000526020600020906003020160405180606001604052908160008201548152602001600182015481526020016002820154815250509050919050565b6000828211156129f0576040517f08c379a000000000000000000000000000000000000000000000000000000000815260040180806020018281038252601e8152602001807f536166654d6174683a207375627472616374696f6e206f766572666c6f77000081525060200191505060405180910390fd5b818303905092915050565b600080831415612a0e5760009050612a7b565b6000828402905082848281612a1f57fe5b0414612a76576040517f08c379a00000000000000000000000000000000000000000000000000000000081526004018080602001828103825260218152602001806134996021913960400191505060405180910390fd5b809150505b92915050565b6000808211612af8576040517f08c379a000000000000000000000000000000000000000000000000000000000815260040180806020018281038252601a8152602001807f536166654d6174683a206469766973696f6e206279207a65726f00000000000081525060200191505060405180910390fd5b818381612b0157fe5b04905092915050565b600080828401905083811015612b88576040517f08c379a000000000000000000000000000000000000000000000000000000000815260040180806020018281038252601b8152602001807f536166654d6174683a206164646974696f6e206f766572666c6f77000000000081525060200191505060405180910390fd5b8091505092915050565b60006003600043815260200190815260200160002060003273ffffffffffffffffffffffffffffffffffffffff1673ffffffffffffffffffffffffffffffffffffffff16815260200190815260200160002060009054906101000a900460ff16905090565b60006003600043815260200190815260200160002060003373ffffffffffffffffffffffffffffffffffffffff1673ffffffffffffffffffffffffffffffffffffffff16815260200190815260200160002060009054906101000a900460ff16905090565b6000600260003373ffffffffffffffffffffffffffffffffffffffff1673ffffffffffffffffffffffffffffffffffffffff16815260200190815260200160002054905081811015612cf9576040517f08c379a00000000000000000000000000000000000000000000000000000000081526004018080602001828103825260348152602001806134426034913960400191505060405180910390fd5b612d0e8260015461297890919063ffffffff16565b600181905550612d27828261297890919063ffffffff16565b600260003373ffffffffffffffffffffffffffffffffffffffff1673ffffffffffffffffffffffffffffffffffffffff16815260200190815260200160002081905550612db5338360008054906101000a900473ffffffffffffffffffffffffffffffffffffffff1673ffffffffffffffffffffffffffffffffffffffff16612db99092919063ffffffff16565b5050565b612e568363a9059cbb60e01b8484604051602401808373ffffffffffffffffffffffffffffffffffffffff16815260200182815260200192505050604051602081830303815290604052907bffffffffffffffffffffffffffffffffffffffffffffffffffffffff19166020820180517bffffffffffffffffffffffffffffffffffffffffffffffffffffffff838183161783525050505061301c565b505050565b612f16846323b872dd60e01b858585604051602401808473ffffffffffffffffffffffffffffffffffffffff1681526020018373ffffffffffffffffffffffffffffffffffffffff1681526020018281526020019350505050604051602081830303815290604052907bffffffffffffffffffffffffffffffffffffffffffffffffffffffff19166020820180517bffffffffffffffffffffffffffffffffffffffffffffffffffffffff838183161783525050505061301c565b50505050565b612f3181600154612b0a90919063ffffffff16565b600181905550612f8981600260003373ffffffffffffffffffffffffffffffffffffffff1673ffffffffffffffffffffffffffffffffffffffff16815260200190815260200160002054612b0a90919063ffffffff16565b600260003373ffffffffffffffffffffffffffffffffffffffff1673ffffffffffffffffffffffffffffffffffffffff1681526020019081526020016000208190555061301933308360008054906101000a900473ffffffffffffffffffffffffffffffffffffffff1673ffffffffffffffffffffffffffffffffffffffff16612e5b909392919063ffffffff16565b50565b606061307e826040518060400160405280602081526020017f5361666545524332303a206c6f772d6c6576656c2063616c6c206661696c65648152508573ffffffffffffffffffffffffffffffffffffffff1661310b9092919063ffffffff16565b90506000815111156131065780806020019051602081101561309f57600080fd5b8101908080519060200190929190505050613105576040517f08c379a000000000000000000000000000000000000000000000000000000000815260040180806020018281038252602a81526020018061351f602a913960400191505060405180910390fd5b5b505050565b606061311a8484600085613123565b90509392505050565b60608247101561317e576040517f08c379a000000000000000000000000000000000000000000000000000000000815260040180806020018281038252602681526020018061341c6026913960400191505060405180910390fd5b613187856132cc565b6131f9576040517f08c379a000000000000000000000000000000000000000000000000000000000815260040180806020018281038252601d8152602001807f416464726573733a2063616c6c20746f206e6f6e2d636f6e747261637400000081525060200191505060405180910390fd5b600060608673ffffffffffffffffffffffffffffffffffffffff1685876040518082805190602001908083835b602083106132495780518252602082019150602081019050602083039250613226565b6001836020036101000a03801982511681845116808217855250505050505090500191505060006040518083038185875af1925050503d80600081146132ab576040519150601f19603f3d011682016040523d82523d6000602084013e6132b0565b606091505b50915091506132c08282866132df565b92505050949350505050565b600080823b905060008111915050919050565b606083156132ef578290506133a4565b6000835111156133025782518084602001fd5b816040517f08c379a00000000000000000000000000000000000000000000000000000000081526004018080602001828103825283818151815260200191508051906020019080838360005b8381101561336957808201518184015260208101905061334e565b50505050905090810190601f1680156133965780820380516001836020036101000a031916815260200191505b509250505060405180910390fd5b9392505050565b60405180606001604052806000815260200160008152602001600081525090565b6040518060600160405280600081526020016000815260200160008152509056fe4d61736f6e72793a2043616e6e6f7420616c6c6f63617465207768656e20746f74616c537570706c792069732030416464726573733a20696e73756666696369656e742062616c616e636520666f722063616c6c4d61736f6e72793a20776974686472617720726571756573742067726561746572207468616e207374616b656420616d6f756e744d61736f6e72793a2063616c6c6572206973206e6f7420746865206f70657261746f72536166654d6174683a206d756c7469706c69636174696f6e206f766572666c6f775f77697468647261774c6f636b757045706f6368733a206f7574206f662072616e67654d61736f6e72793a20546865206d61736f6e20646f6573206e6f742065786973744d61736f6e72793a207374696c6c20696e207769746864726177206c6f636b75705361666545524332303a204552433230206f7065726174696f6e20646964206e6f742073756363656564436f6e747261637447756172643a206f6e6520626c6f636b2c206f6e652066756e6374696f6ea2646970667358221220daedba1567b639d48e30301bfcde409e22556580cad4d664376942f23b53b07664736f6c634300060c0033",
  "immutableReferences": {},
  "source": "// SPDX-License-Identifier: MIT\n\npragma solidity 0.6.12;\n\nimport \"@openzeppelin/contracts/token/ERC20/IERC20.sol\";\nimport \"@openzeppelin/contracts/token/ERC20/SafeERC20.sol\";\n\nimport \"./utils/ContractGuard.sol\";\nimport \"./interfaces/IBasisAsset.sol\";\nimport \"./interfaces/ITreasury.sol\";\n\ncontract ShareWrapper {\n    using SafeMath for uint256;\n    using SafeERC20 for IERC20;\n\n    IERC20 public share;\n\n    uint256 private _totalSupply;\n    mapping(address => uint256) private _balances;\n\n    function totalSupply() public view returns (uint256) {\n        return _totalSupply;\n    }\n\n    function balanceOf(address account) public view returns (uint256) {\n        return _balances[account];\n    }\n\n    function stake(uint256 amount) public virtual {\n        _totalSupply = _totalSupply.add(amount);\n        _balances[msg.sender] = _balances[msg.sender].add(amount);\n        share.safeTransferFrom(msg.sender, address(this), amount);\n    }\n\n    function withdraw(uint256 amount) public virtual {\n        uint256 masonShare = _balances[msg.sender];\n        require(masonShare >= amount, \"Masonry: withdraw request greater than staked amount\");\n        _totalSupply = _totalSupply.sub(amount);\n        _balances[msg.sender] = masonShare.sub(amount);\n        share.safeTransfer(msg.sender, amount);\n    }\n}\n\ncontract Masonry is ShareWrapper, ContractGuard {\n    using SafeERC20 for IERC20;\n    using Address for address;\n    using SafeMath for uint256;\n\n    /* ========== DATA STRUCTURES ========== */\n\n    struct Masonseat {\n        uint256 lastSnapshotIndex;\n        uint256 rewardEarned;\n        uint256 epochTimerStart;\n    }\n\n    struct MasonrySnapshot {\n        uint256 time;\n        uint256 rewardReceived;\n        uint256 rewardPerShare;\n    }\n\n    /* ========== STATE VARIABLES ========== */\n\n    // governance\n    address public operator;\n\n    // flags\n    bool public initialized = false;\n\n    IERC20 public tomb;\n    ITreasury public treasury;\n\n    mapping(address => Masonseat) public masons;\n    MasonrySnapshot[] public masonryHistory;\n\n    uint256 public withdrawLockupEpochs;\n    uint256 public rewardLockupEpochs;\n\n    /* ========== EVENTS ========== */\n\n    event Initialized(address indexed executor, uint256 at);\n    event Staked(address indexed user, uint256 amount);\n    event Withdrawn(address indexed user, uint256 amount);\n    event RewardPaid(address indexed user, uint256 reward);\n    event RewardAdded(address indexed user, uint256 reward);\n\n    /* ========== Modifiers =============== */\n\n    modifier onlyOperator() {\n        require(operator == msg.sender, \"Masonry: caller is not the operator\");\n        _;\n    }\n\n    modifier masonExists {\n        require(balanceOf(msg.sender) > 0, \"Masonry: The mason does not exist\");\n        _;\n    }\n\n    modifier updateReward(address mason) {\n        if (mason != address(0)) {\n            Masonseat memory seat = masons[mason];\n            seat.rewardEarned = earned(mason);\n            seat.lastSnapshotIndex = latestSnapshotIndex();\n            masons[mason] = seat;\n        }\n        _;\n    }\n\n    modifier notInitialized {\n        require(!initialized, \"Masonry: already initialized\");\n        _;\n    }\n\n    /* ========== GOVERNANCE ========== */\n\n    function initialize(\n        IERC20 _tomb,\n        IERC20 _share,\n        ITreasury _treasury\n    ) public notInitialized {\n        tomb = _tomb;\n        share = _share;\n        treasury = _treasury;\n\n        MasonrySnapshot memory genesisSnapshot = MasonrySnapshot({time : block.number, rewardReceived : 0, rewardPerShare : 0});\n        masonryHistory.push(genesisSnapshot);\n\n        withdrawLockupEpochs = 6; // Lock for 6 epochs (36h) before release withdraw\n        rewardLockupEpochs = 3; // Lock for 3 epochs (18h) before release claimReward\n\n        initialized = true;\n        operator = msg.sender;\n        emit Initialized(msg.sender, block.number);\n    }\n\n    function setOperator(address _operator) external onlyOperator {\n        operator = _operator;\n    }\n\n    function setLockUp(uint256 _withdrawLockupEpochs, uint256 _rewardLockupEpochs) external onlyOperator {\n        require(_withdrawLockupEpochs >= _rewardLockupEpochs && _withdrawLockupEpochs <= 56, \"_withdrawLockupEpochs: out of range\"); // <= 2 week\n        withdrawLockupEpochs = _withdrawLockupEpochs;\n        rewardLockupEpochs = _rewardLockupEpochs;\n    }\n\n    /* ========== VIEW FUNCTIONS ========== */\n\n    // =========== Snapshot getters\n\n    function latestSnapshotIndex() public view returns (uint256) {\n        return masonryHistory.length.sub(1);\n    }\n\n    function getLatestSnapshot() internal view returns (MasonrySnapshot memory) {\n        return masonryHistory[latestSnapshotIndex()];\n    }\n\n    function getLastSnapshotIndexOf(address mason) public view returns (uint256) {\n        return masons[mason].lastSnapshotIndex;\n    }\n\n    function getLastSnapshotOf(address mason) internal view returns (MasonrySnapshot memory) {\n        return masonryHistory[getLastSnapshotIndexOf(mason)];\n    }\n\n    function canWithdraw(address mason) external view returns (bool) {\n        return masons[mason].epochTimerStart.add(withdrawLockupEpochs) <= treasury.epoch();\n    }\n\n    function canClaimReward(address mason) external view returns (bool) {\n        return masons[mason].epochTimerStart.add(rewardLockupEpochs) <= treasury.epoch();\n    }\n\n    function epoch() external view returns (uint256) {\n        return treasury.epoch();\n    }\n\n    function nextEpochPoint() external view returns (uint256) {\n        return treasury.nextEpochPoint();\n    }\n\n    function getTombPrice() external view returns (uint256) {\n        return treasury.getTombPrice();\n    }\n\n    // =========== Mason getters\n\n    function rewardPerShare() public view returns (uint256) {\n        return getLatestSnapshot().rewardPerShare;\n    }\n\n    function earned(address mason) public view returns (uint256) {\n        uint256 latestRPS = getLatestSnapshot().rewardPerShare;\n        uint256 storedRPS = getLastSnapshotOf(mason).rewardPerShare;\n\n        return balanceOf(mason).mul(latestRPS.sub(storedRPS)).div(1e18).add(masons[mason].rewardEarned);\n    }\n\n    /* ========== MUTATIVE FUNCTIONS ========== */\n\n    function stake(uint256 amount) public override onlyOneBlock updateReward(msg.sender) {\n        require(amount > 0, \"Masonry: Cannot stake 0\");\n        super.stake(amount);\n        masons[msg.sender].epochTimerStart = treasury.epoch(); // reset timer\n        emit Staked(msg.sender, amount);\n    }\n\n    function withdraw(uint256 amount) public override onlyOneBlock masonExists updateReward(msg.sender) {\n        require(amount > 0, \"Masonry: Cannot withdraw 0\");\n        require(masons[msg.sender].epochTimerStart.add(withdrawLockupEpochs) <= treasury.epoch(), \"Masonry: still in withdraw lockup\");\n        claimReward();\n        super.withdraw(amount);\n        emit Withdrawn(msg.sender, amount);\n    }\n\n    function exit() external {\n        withdraw(balanceOf(msg.sender));\n    }\n\n    function claimReward() public updateReward(msg.sender) {\n        uint256 reward = masons[msg.sender].rewardEarned;\n        if (reward > 0) {\n            require(masons[msg.sender].epochTimerStart.add(rewardLockupEpochs) <= treasury.epoch(), \"Masonry: still in reward lockup\");\n            masons[msg.sender].epochTimerStart = treasury.epoch(); // reset timer\n            masons[msg.sender].rewardEarned = 0;\n            tomb.safeTransfer(msg.sender, reward);\n            emit RewardPaid(msg.sender, reward);\n        }\n    }\n\n    function allocateSeigniorage(uint256 amount) external onlyOneBlock onlyOperator {\n        require(amount > 0, \"Masonry: Cannot allocate 0\");\n        require(totalSupply() > 0, \"Masonry: Cannot allocate when totalSupply is 0\");\n\n        // Create & add new snapshot\n        uint256 prevRPS = getLatestSnapshot().rewardPerShare;\n        uint256 nextRPS = prevRPS.add(amount.mul(1e18).div(totalSupply()));\n\n        MasonrySnapshot memory newSnapshot = MasonrySnapshot({\n            time: block.number,\n            rewardReceived: amount,\n            rewardPerShare: nextRPS\n        });\n        masonryHistory.push(newSnapshot);\n\n        tomb.safeTransferFrom(msg.sender, address(this), amount);\n        emit RewardAdded(msg.sender, amount);\n    }\n\n    function governanceRecoverUnsupported(IERC20 _token, uint256 _amount, address _to) external onlyOperator {\n        // do not allow to drain core tokens\n        require(address(_token) != address(tomb), \"tomb\");\n        require(address(_token) != address(share), \"share\");\n        _token.safeTransfer(_to, _amount);\n    }\n}\n",
  "sourcePath": "D:\\5xDEFI\\tomb-contract\\contracts\\Masonry.sol",
  "compiler": {
    "name": "solc",
    "version": "0.6.12+commit.27d51765.Emscripten.clang"
  },
  "schemaVersion": "3.4.3",
  "updatedAt": "2022-03-04T03:11:57.362Z",
  "devdoc": {
    "kind": "dev",
    "methods": {},
    "version": 1
  },
  "userdoc": {
    "kind": "user",
    "methods": {},
    "version": 1
  }
}