{
  "contractName": "SZombRewardPool",
  "abi": [
    {
      "inputs": [
        {
          "internalType": "address",
          "name": "_tshare",
          "type": "address"
        },
        {
          "internalType": "uint256",
          "name": "_poolStartTime",
          "type": "uint256"
        }
      ],
      "stateMutability": "nonpayable",
      "type": "constructor"
    },
    {
      "anonymous": false,
      "inputs": [
        {
          "indexed": true,
          "internalType": "address",
          "name": "user",
          "type": "address"
        },
        {
          "indexed": true,
          "internalType": "uint256",
          "name": "pid",
          "type": "uint256"
        },
        {
          "indexed": false,
          "internalType": "uint256",
          "name": "amount",
          "type": "uint256"
        }
      ],
      "name": "Deposit",
      "type": "event"
    },
    {
      "anonymous": false,
      "inputs": [
        {
          "indexed": true,
          "internalType": "address",
          "name": "user",
          "type": "address"
        },
        {
          "indexed": true,
          "internalType": "uint256",
          "name": "pid",
          "type": "uint256"
        },
        {
          "indexed": false,
          "internalType": "uint256",
          "name": "amount",
          "type": "uint256"
        }
      ],
      "name": "EmergencyWithdraw",
      "type": "event"
    },
    {
      "anonymous": false,
      "inputs": [
        {
          "indexed": true,
          "internalType": "address",
          "name": "user",
          "type": "address"
        },
        {
          "indexed": false,
          "internalType": "uint256",
          "name": "amount",
          "type": "uint256"
        }
      ],
      "name": "RewardPaid",
      "type": "event"
    },
    {
      "anonymous": false,
      "inputs": [
        {
          "indexed": true,
          "internalType": "address",
          "name": "user",
          "type": "address"
        },
        {
          "indexed": true,
          "internalType": "uint256",
          "name": "pid",
          "type": "uint256"
        },
        {
          "indexed": false,
          "internalType": "uint256",
          "name": "amount",
          "type": "uint256"
        }
      ],
      "name": "Withdraw",
      "type": "event"
    },
    {
      "inputs": [],
      "name": "TOTAL_REWARDS",
      "outputs": [
        {
          "internalType": "uint256",
          "name": "",
          "type": "uint256"
        }
      ],
      "stateMutability": "view",
      "type": "function"
    },
    {
      "inputs": [],
      "name": "operator",
      "outputs": [
        {
          "internalType": "address",
          "name": "",
          "type": "address"
        }
      ],
      "stateMutability": "view",
      "type": "function"
    },
    {
      "inputs": [],
      "name": "poolEndTime",
      "outputs": [
        {
          "internalType": "uint256",
          "name": "",
          "type": "uint256"
        }
      ],
      "stateMutability": "view",
      "type": "function"
    },
    {
      "inputs": [
        {
          "internalType": "uint256",
          "name": "",
          "type": "uint256"
        }
      ],
      "name": "poolInfo",
      "outputs": [
        {
          "internalType": "contract IERC20",
          "name": "token",
          "type": "address"
        },
        {
          "internalType": "uint256",
          "name": "allocPoint",
          "type": "uint256"
        },
        {
          "internalType": "uint256",
          "name": "lastRewardTime",
          "type": "uint256"
        },
        {
          "internalType": "uint256",
          "name": "accTSharePerShare",
          "type": "uint256"
        },
        {
          "internalType": "bool",
          "name": "isStarted",
          "type": "bool"
        }
      ],
      "stateMutability": "view",
      "type": "function"
    },
    {
      "inputs": [],
      "name": "poolStartTime",
      "outputs": [
        {
          "internalType": "uint256",
          "name": "",
          "type": "uint256"
        }
      ],
      "stateMutability": "view",
      "type": "function"
    },
    {
      "inputs": [],
      "name": "runningTime",
      "outputs": [
        {
          "internalType": "uint256",
          "name": "",
          "type": "uint256"
        }
      ],
      "stateMutability": "view",
      "type": "function"
    },
    {
      "inputs": [],
      "name": "tSharePerSecond",
      "outputs": [
        {
          "internalType": "uint256",
          "name": "",
          "type": "uint256"
        }
      ],
      "stateMutability": "view",
      "type": "function"
    },
    {
      "inputs": [],
      "name": "totalAllocPoint",
      "outputs": [
        {
          "internalType": "uint256",
          "name": "",
          "type": "uint256"
        }
      ],
      "stateMutability": "view",
      "type": "function"
    },
    {
      "inputs": [],
      "name": "tshare",
      "outputs": [
        {
          "internalType": "contract IERC20",
          "name": "",
          "type": "address"
        }
      ],
      "stateMutability": "view",
      "type": "function"
    },
    {
      "inputs": [
        {
          "internalType": "uint256",
          "name": "",
          "type": "uint256"
        },
        {
          "internalType": "address",
          "name": "",
          "type": "address"
        }
      ],
      "name": "userInfo",
      "outputs": [
        {
          "internalType": "uint256",
          "name": "amount",
          "type": "uint256"
        },
        {
          "internalType": "uint256",
          "name": "rewardDebt",
          "type": "uint256"
        }
      ],
      "stateMutability": "view",
      "type": "function"
    },
    {
      "inputs": [
        {
          "internalType": "uint256",
          "name": "_allocPoint",
          "type": "uint256"
        },
        {
          "internalType": "contract IERC20",
          "name": "_token",
          "type": "address"
        },
        {
          "internalType": "bool",
          "name": "_withUpdate",
          "type": "bool"
        },
        {
          "internalType": "uint256",
          "name": "_lastRewardTime",
          "type": "uint256"
        }
      ],
      "name": "add",
      "outputs": [],
      "stateMutability": "nonpayable",
      "type": "function"
    },
    {
      "inputs": [
        {
          "internalType": "uint256",
          "name": "_pid",
          "type": "uint256"
        },
        {
          "internalType": "uint256",
          "name": "_allocPoint",
          "type": "uint256"
        }
      ],
      "name": "set",
      "outputs": [],
      "stateMutability": "nonpayable",
      "type": "function"
    },
    {
      "inputs": [
        {
          "internalType": "uint256",
          "name": "_fromTime",
          "type": "uint256"
        },
        {
          "internalType": "uint256",
          "name": "_toTime",
          "type": "uint256"
        }
      ],
      "name": "getGeneratedReward",
      "outputs": [
        {
          "internalType": "uint256",
          "name": "",
          "type": "uint256"
        }
      ],
      "stateMutability": "view",
      "type": "function"
    },
    {
      "inputs": [
        {
          "internalType": "uint256",
          "name": "_pid",
          "type": "uint256"
        },
        {
          "internalType": "address",
          "name": "_user",
          "type": "address"
        }
      ],
      "name": "pendingShare",
      "outputs": [
        {
          "internalType": "uint256",
          "name": "",
          "type": "uint256"
        }
      ],
      "stateMutability": "view",
      "type": "function"
    },
    {
      "inputs": [],
      "name": "massUpdatePools",
      "outputs": [],
      "stateMutability": "nonpayable",
      "type": "function"
    },
    {
      "inputs": [
        {
          "internalType": "uint256",
          "name": "_pid",
          "type": "uint256"
        }
      ],
      "name": "updatePool",
      "outputs": [],
      "stateMutability": "nonpayable",
      "type": "function"
    },
    {
      "inputs": [
        {
          "internalType": "uint256",
          "name": "_pid",
          "type": "uint256"
        },
        {
          "internalType": "uint256",
          "name": "_amount",
          "type": "uint256"
        }
      ],
      "name": "deposit",
      "outputs": [],
      "stateMutability": "nonpayable",
      "type": "function"
    },
    {
      "inputs": [
        {
          "internalType": "uint256",
          "name": "_pid",
          "type": "uint256"
        },
        {
          "internalType": "uint256",
          "name": "_amount",
          "type": "uint256"
        }
      ],
      "name": "withdraw",
      "outputs": [],
      "stateMutability": "nonpayable",
      "type": "function"
    },
    {
      "inputs": [
        {
          "internalType": "uint256",
          "name": "_pid",
          "type": "uint256"
        }
      ],
      "name": "emergencyWithdraw",
      "outputs": [],
      "stateMutability": "nonpayable",
      "type": "function"
    },
    {
      "inputs": [
        {
          "internalType": "address",
          "name": "_operator",
          "type": "address"
        }
      ],
      "name": "setOperator",
      "outputs": [],
      "stateMutability": "nonpayable",
      "type": "function"
    },
    {
      "inputs": [
        {
          "internalType": "contract IERC20",
          "name": "_token",
          "type": "address"
        },
        {
          "internalType": "uint256",
          "name": "amount",
          "type": "uint256"
        },
        {
          "internalType": "address",
          "name": "to",
          "type": "address"
        }
      ],
      "name": "governanceRecoverUnsupported",
      "outputs": [],
      "stateMutability": "nonpayable",
      "type": "function"
    }
  ],
  "bytecode": "0x608060405260006004556606b3f88f6fe4006007556301e1338060085534801561002857600080fd5b506040516125ea3803806125ea8339818101604052604081101561004b57600080fd5b8101908080519060200190929190805190602001909291905050508042106100db576040517f08c379a00000000000000000000000000000000000000000000000000000000081526004018080602001828103825260048152602001807f6c6174650000000000000000000000000000000000000000000000000000000081525060200191505060405180910390fd5b600073ffffffffffffffffffffffffffffffffffffffff168273ffffffffffffffffffffffffffffffffffffffff16146101515781600160006101000a81548173ffffffffffffffffffffffffffffffffffffffff021916908373ffffffffffffffffffffffffffffffffffffffff1602179055505b8060058190555060085460055401600681905550336000806101000a81548173ffffffffffffffffffffffffffffffffffffffff021916908373ffffffffffffffffffffffffffffffffffffffff1602179055505050612434806101b66000396000f3fe608060405234801561001057600080fd5b50600436106101375760003560e01c80635f96dc11116100b857806396805e541161007c57806396805e54146104755780639e63d261146104d9578063b3ab15fb146104f7578063cf4b55cb1461053b578063e2bbb1581461059d578063ee6822a7146105d557610137565b80635f96dc11146103a8578063630b5ba1146103c65780636e271dd5146103d057806393f1a40b146103ee578063943f013d1461045757610137565b8063441a3e70116100ff578063441a3e701461027257806351eb05a6146102aa5780635312ea8e146102d857806354575af414610306578063570ca7351461037457610137565b806309cf60911461013c5780631526fe271461015a57806317caf6f1146101d05780631ab06ee5146101ee578063231f0c6a14610226575b600080fd5b610144610609565b6040518082815260200191505060405180910390f35b6101866004803603602081101561017057600080fd5b8101908080359060200190929190505050610617565b604051808673ffffffffffffffffffffffffffffffffffffffff16815260200185815260200184815260200183815260200182151581526020019550505050505060405180910390f35b6101d8610687565b6040518082815260200191505060405180910390f35b6102246004803603604081101561020457600080fd5b81019080803590602001909291908035906020019092919050505061068d565b005b61025c6004803603604081101561023c57600080fd5b8101908080359060200190929190803590602001909291905050506107af565b6040518082815260200191505060405180910390f35b6102a86004803603604081101561028857600080fd5b8101908080359060200190929190803590602001909291905050506108c2565b005b6102d6600480360360208110156102c057600080fd5b8101908080359060200190929190505050610b7a565b005b610304600480360360208110156102ee57600080fd5b8101908080359060200190929190505050610d89565b005b6103726004803603606081101561031c57600080fd5b81019080803573ffffffffffffffffffffffffffffffffffffffff16906020019092919080359060200190929190803573ffffffffffffffffffffffffffffffffffffffff169060200190929190505050610ebd565b005b61037c61116d565b604051808273ffffffffffffffffffffffffffffffffffffffff16815260200191505060405180910390f35b6103b0611191565b6040518082815260200191505060405180910390f35b6103ce611197565b005b6103d86111c4565b6040518082815260200191505060405180910390f35b61043a6004803603604081101561040457600080fd5b8101908080359060200190929190803573ffffffffffffffffffffffffffffffffffffffff1690602001909291905050506111ca565b604051808381526020018281526020019250505060405180910390f35b61045f6111fb565b6040518082815260200191505060405180910390f35b6104d76004803603608081101561048b57600080fd5b8101908080359060200190929190803573ffffffffffffffffffffffffffffffffffffffff16906020019092919080351515906020019092919080359060200190929190505050611201565b005b6104e1611438565b6040518082815260200191505060405180910390f35b6105396004803603602081101561050d57600080fd5b81019080803573ffffffffffffffffffffffffffffffffffffffff16906020019092919050505061143e565b005b6105876004803603604081101561055157600080fd5b8101908080359060200190929190803573ffffffffffffffffffffffffffffffffffffffff169060200190929190505050611525565b6040518082815260200191505060405180910390f35b6105d3600480360360408110156105b357600080fd5b81019080803590602001909291908035906020019092919050505061175d565b005b6105dd6119ab565b604051808273ffffffffffffffffffffffffffffffffffffffff16815260200191505060405180910390f35b690c99805fe37d3e30000081565b6002818154811061062457fe5b90600052602060002090600502016000915090508060000160009054906101000a900473ffffffffffffffffffffffffffffffffffffffff16908060010154908060020154908060030154908060040160009054906101000a900460ff16905085565b60045481565b3373ffffffffffffffffffffffffffffffffffffffff1660008054906101000a900473ffffffffffffffffffffffffffffffffffffffff1673ffffffffffffffffffffffffffffffffffffffff1614610731576040517f08c379a000000000000000000000000000000000000000000000000000000000815260040180806020018281038252602c815260200180612362602c913960400191505060405180910390fd5b610739611197565b60006002838154811061074857fe5b906000526020600020906005020190508060040160009054906101000a900460ff16156107a15761079a8261078c83600101546004546119d190919063ffffffff16565b611a5490919063ffffffff16565b6004819055505b818160010181905550505050565b60008183106107c157600090506108bc565b60065482106108475760065483106107dc57600090506108bc565b6005548311610817576108106007546108026005546006546119d190919063ffffffff16565b611adc90919063ffffffff16565b90506108bc565b610840600754610832856006546119d190919063ffffffff16565b611adc90919063ffffffff16565b90506108bc565b600554821161085957600090506108bc565b60055483116108925761088b60075461087d600554856119d190919063ffffffff16565b611adc90919063ffffffff16565b90506108bc565b6108b96007546108ab85856119d190919063ffffffff16565b611adc90919063ffffffff16565b90505b92915050565b60003390506000600284815481106108d657fe5b9060005260206000209060050201905060006003600086815260200190815260200160002060008473ffffffffffffffffffffffffffffffffffffffff1673ffffffffffffffffffffffffffffffffffffffff168152602001908152602001600020905083816000015410156109b4576040517f08c379a00000000000000000000000000000000000000000000000000000000081526004018080602001828103825260128152602001807f77697468647261773a206e6f7420676f6f64000000000000000000000000000081525060200191505060405180910390fd5b6109bd85610b7a565b6000610a0a82600101546109fc670de0b6b3a76400006109ee87600301548760000154611adc90919063ffffffff16565b611b6290919063ffffffff16565b6119d190919063ffffffff16565b90506000811115610a6e57610a1f8482611beb565b8373ffffffffffffffffffffffffffffffffffffffff167fe2403640ba68fed3a2f88b7557551d1993f84b99bb10ff833f0cf8db0c5e0486826040518082815260200191505060405180910390a25b6000851115610ae657610a8e8583600001546119d190919063ffffffff16565b8260000181905550610ae584868560000160009054906101000a900473ffffffffffffffffffffffffffffffffffffffff1673ffffffffffffffffffffffffffffffffffffffff16611d6a9092919063ffffffff16565b5b610b1b670de0b6b3a7640000610b0d85600301548560000154611adc90919063ffffffff16565b611b6290919063ffffffff16565b8260010181905550858473ffffffffffffffffffffffffffffffffffffffff167ff279e6a1f5e320cca91135676d9cb6e44ca8a08c0b88342bcdb1144f6511b568876040518082815260200191505060405180910390a3505050505050565b600060028281548110610b8957fe5b9060005260206000209060050201905080600201544211610baa5750610d86565b60008160000160009054906101000a900473ffffffffffffffffffffffffffffffffffffffff1673ffffffffffffffffffffffffffffffffffffffff166370a08231306040518263ffffffff1660e01b8152600401808273ffffffffffffffffffffffffffffffffffffffff16815260200191505060206040518083038186803b158015610c3757600080fd5b505afa158015610c4b573d6000803e3d6000fd5b505050506040513d6020811015610c6157600080fd5b810190808051906020019092919050505090506000811415610c8d574282600201819055505050610d86565b8160040160009054906101000a900460ff16610ce05760018260040160006101000a81548160ff021916908315150217905550610cd98260010154600454611a5490919063ffffffff16565b6004819055505b60006004541115610d7a576000610cfb8360020154426107af565b90506000610d2a600454610d1c866001015485611adc90919063ffffffff16565b611b6290919063ffffffff16565b9050610d6f610d5c84610d4e670de0b6b3a764000085611adc90919063ffffffff16565b611b6290919063ffffffff16565b8560030154611a5490919063ffffffff16565b846003018190555050505b42826002018190555050505b50565b600060028281548110610d9857fe5b9060005260206000209060050201905060006003600084815260200190815260200160002060003373ffffffffffffffffffffffffffffffffffffffff1673ffffffffffffffffffffffffffffffffffffffff16815260200190815260200160002090506000816000015490506000826000018190555060008260010181905550610e6833828560000160009054906101000a900473ffffffffffffffffffffffffffffffffffffffff1673ffffffffffffffffffffffffffffffffffffffff16611d6a9092919063ffffffff16565b833373ffffffffffffffffffffffffffffffffffffffff167fbb757047c2b5f3974fe26b7c10f732e7bce710b0952a71082702781e62ae0595836040518082815260200191505060405180910390a350505050565b3373ffffffffffffffffffffffffffffffffffffffff1660008054906101000a900473ffffffffffffffffffffffffffffffffffffffff1673ffffffffffffffffffffffffffffffffffffffff1614610f61576040517f08c379a000000000000000000000000000000000000000000000000000000000815260040180806020018281038252602c815260200180612362602c913960400191505060405180910390fd5b6276a7006006540142101561113d57600160009054906101000a900473ffffffffffffffffffffffffffffffffffffffff1673ffffffffffffffffffffffffffffffffffffffff168373ffffffffffffffffffffffffffffffffffffffff161415611034576040517f08c379a00000000000000000000000000000000000000000000000000000000081526004018080602001828103825260068152602001807f747368617265000000000000000000000000000000000000000000000000000081525060200191505060405180910390fd5b6000600280549050905060005b8181101561113a5760006002828154811061105857fe5b906000526020600020906005020190508060000160009054906101000a900473ffffffffffffffffffffffffffffffffffffffff1673ffffffffffffffffffffffffffffffffffffffff168673ffffffffffffffffffffffffffffffffffffffff16141561112e576040517f08c379a000000000000000000000000000000000000000000000000000000000815260040180806020018281038252600a8152602001807f706f6f6c2e746f6b656e0000000000000000000000000000000000000000000081525060200191505060405180910390fd5b50806001019050611041565b50505b61116881838573ffffffffffffffffffffffffffffffffffffffff16611d6a9092919063ffffffff16565b505050565b60008054906101000a900473ffffffffffffffffffffffffffffffffffffffff1681565b60055481565b6000600280549050905060005b818110156111c0576111b581610b7a565b8060010190506111a4565b5050565b60065481565b6003602052816000526040600020602052806000526040600020600091509150508060000154908060010154905082565b60085481565b3373ffffffffffffffffffffffffffffffffffffffff1660008054906101000a900473ffffffffffffffffffffffffffffffffffffffff1673ffffffffffffffffffffffffffffffffffffffff16146112a5576040517f08c379a000000000000000000000000000000000000000000000000000000000815260040180806020018281038252602c815260200180612362602c913960400191505060405180910390fd5b6112ae83611e0c565b81156112bd576112bc611197565b5b6005544210156112f05760008114156112da5760055490506112eb565b6005548110156112ea5760055490505b5b611308565b60008114806112fe57504281105b15611307574290505b5b60006005548211158061131b5750428211155b905060026040518060a001604052808673ffffffffffffffffffffffffffffffffffffffff16815260200187815260200184815260200160008152602001831515815250908060018154018082558091505060019003906000526020600020906005020160009091909190915060008201518160000160006101000a81548173ffffffffffffffffffffffffffffffffffffffff021916908373ffffffffffffffffffffffffffffffffffffffff16021790555060208201518160010155604082015181600201556060820151816003015560808201518160040160006101000a81548160ff021916908315150217905550505080156114315761142a85600454611a5490919063ffffffff16565b6004819055505b5050505050565b60075481565b3373ffffffffffffffffffffffffffffffffffffffff1660008054906101000a900473ffffffffffffffffffffffffffffffffffffffff1673ffffffffffffffffffffffffffffffffffffffff16146114e2576040517f08c379a000000000000000000000000000000000000000000000000000000000815260040180806020018281038252602c815260200180612362602c913960400191505060405180910390fd5b806000806101000a81548173ffffffffffffffffffffffffffffffffffffffff021916908373ffffffffffffffffffffffffffffffffffffffff16021790555050565b6000806002848154811061153557fe5b9060005260206000209060050201905060006003600086815260200190815260200160002060008573ffffffffffffffffffffffffffffffffffffffff1673ffffffffffffffffffffffffffffffffffffffff168152602001908152602001600020905060008260030154905060008360000160009054906101000a900473ffffffffffffffffffffffffffffffffffffffff1673ffffffffffffffffffffffffffffffffffffffff166370a08231306040518263ffffffff1660e01b8152600401808273ffffffffffffffffffffffffffffffffffffffff16815260200191505060206040518083038186803b15801561162f57600080fd5b505afa158015611643573d6000803e3d6000fd5b505050506040513d602081101561165957600080fd5b81019080805190602001909291905050509050836002015442118015611680575060008114155b1561170a5760006116958560020154426107af565b905060006116c46004546116b6886001015485611adc90919063ffffffff16565b611b6290919063ffffffff16565b90506117056116f6846116e8670de0b6b3a764000085611adc90919063ffffffff16565b611b6290919063ffffffff16565b85611a5490919063ffffffff16565b935050505b6117518360010154611743670de0b6b3a7640000611735868860000154611adc90919063ffffffff16565b611b6290919063ffffffff16565b6119d190919063ffffffff16565b94505050505092915050565b600033905060006002848154811061177157fe5b9060005260206000209060050201905060006003600086815260200190815260200160002060008473ffffffffffffffffffffffffffffffffffffffff1673ffffffffffffffffffffffffffffffffffffffff16815260200190815260200160002090506117de85610b7a565b60008160000154111561189e576000611838826001015461182a670de0b6b3a764000061181c87600301548760000154611adc90919063ffffffff16565b611b6290919063ffffffff16565b6119d190919063ffffffff16565b9050600081111561189c5761184d8482611beb565b8373ffffffffffffffffffffffffffffffffffffffff167fe2403640ba68fed3a2f88b7557551d1993f84b99bb10ff833f0cf8db0c5e0486826040518082815260200191505060405180910390a25b505b6000841115611918576118f88330868560000160009054906101000a900473ffffffffffffffffffffffffffffffffffffffff1673ffffffffffffffffffffffffffffffffffffffff16611f11909392919063ffffffff16565b61190f848260000154611a5490919063ffffffff16565b81600001819055505b61194d670de0b6b3a764000061193f84600301548460000154611adc90919063ffffffff16565b611b6290919063ffffffff16565b8160010181905550848373ffffffffffffffffffffffffffffffffffffffff167f90890809c654f11d6e72a28fa60149770a0d11ec6c92319d6ceb2bb0a4ea1a15866040518082815260200191505060405180910390a35050505050565b600160009054906101000a900473ffffffffffffffffffffffffffffffffffffffff1681565b600082821115611a49576040517f08c379a000000000000000000000000000000000000000000000000000000000815260040180806020018281038252601e8152602001807f536166654d6174683a207375627472616374696f6e206f766572666c6f77000081525060200191505060405180910390fd5b818303905092915050565b600080828401905083811015611ad2576040517f08c379a000000000000000000000000000000000000000000000000000000000815260040180806020018281038252601b8152602001807f536166654d6174683a206164646974696f6e206f766572666c6f77000000000081525060200191505060405180910390fd5b8091505092915050565b600080831415611aef5760009050611b5c565b6000828402905082848281611b0057fe5b0414611b57576040517f08c379a00000000000000000000000000000000000000000000000000000000081526004018080602001828103825260218152602001806123b46021913960400191505060405180910390fd5b809150505b92915050565b6000808211611bd9576040517f08c379a000000000000000000000000000000000000000000000000000000000815260040180806020018281038252601a8152602001807f536166654d6174683a206469766973696f6e206279207a65726f00000000000081525060200191505060405180910390fd5b818381611be257fe5b04905092915050565b6000600160009054906101000a900473ffffffffffffffffffffffffffffffffffffffff1673ffffffffffffffffffffffffffffffffffffffff166370a08231306040518263ffffffff1660e01b8152600401808273ffffffffffffffffffffffffffffffffffffffff16815260200191505060206040518083038186803b158015611c7657600080fd5b505afa158015611c8a573d6000803e3d6000fd5b505050506040513d6020811015611ca057600080fd5b810190808051906020019092919050505090506000811115611d655780821115611d1657611d118382600160009054906101000a900473ffffffffffffffffffffffffffffffffffffffff1673ffffffffffffffffffffffffffffffffffffffff16611d6a9092919063ffffffff16565b611d64565b611d638383600160009054906101000a900473ffffffffffffffffffffffffffffffffffffffff1673ffffffffffffffffffffffffffffffffffffffff16611d6a9092919063ffffffff16565b5b5b505050565b611e078363a9059cbb60e01b8484604051602401808373ffffffffffffffffffffffffffffffffffffffff16815260200182815260200192505050604051602081830303815290604052907bffffffffffffffffffffffffffffffffffffffffffffffffffffffff19166020820180517bffffffffffffffffffffffffffffffffffffffffffffffffffffffff8381831617835250505050611fd2565b505050565b6000600280549050905060005b81811015611f0c578273ffffffffffffffffffffffffffffffffffffffff1660028281548110611e4557fe5b906000526020600020906005020160000160009054906101000a900473ffffffffffffffffffffffffffffffffffffffff1673ffffffffffffffffffffffffffffffffffffffff161415611f01576040517f08c379a00000000000000000000000000000000000000000000000000000000081526004018080602001828103825260208152602001807f545368617265526577617264506f6f6c3a206578697374696e6720706f6f6c3f81525060200191505060405180910390fd5b806001019050611e19565b505050565b611fcc846323b872dd60e01b858585604051602401808473ffffffffffffffffffffffffffffffffffffffff1681526020018373ffffffffffffffffffffffffffffffffffffffff1681526020018281526020019350505050604051602081830303815290604052907bffffffffffffffffffffffffffffffffffffffffffffffffffffffff19166020820180517bffffffffffffffffffffffffffffffffffffffffffffffffffffffff8381831617835250505050611fd2565b50505050565b6060612034826040518060400160405280602081526020017f5361666545524332303a206c6f772d6c6576656c2063616c6c206661696c65648152508573ffffffffffffffffffffffffffffffffffffffff166120c19092919063ffffffff16565b90506000815111156120bc5780806020019051602081101561205557600080fd5b81019080805190602001909291905050506120bb576040517f08c379a000000000000000000000000000000000000000000000000000000000815260040180806020018281038252602a8152602001806123d5602a913960400191505060405180910390fd5b5b505050565b60606120d084846000856120d9565b90509392505050565b606082471015612134576040517f08c379a000000000000000000000000000000000000000000000000000000000815260040180806020018281038252602681526020018061238e6026913960400191505060405180910390fd5b61213d85612282565b6121af576040517f08c379a000000000000000000000000000000000000000000000000000000000815260040180806020018281038252601d8152602001807f416464726573733a2063616c6c20746f206e6f6e2d636f6e747261637400000081525060200191505060405180910390fd5b600060608673ffffffffffffffffffffffffffffffffffffffff1685876040518082805190602001908083835b602083106121ff57805182526020820191506020810190506020830392506121dc565b6001836020036101000a03801982511681845116808217855250505050505090500191505060006040518083038185875af1925050503d8060008114612261576040519150601f19603f3d011682016040523d82523d6000602084013e612266565b606091505b5091509150612276828286612295565b92505050949350505050565b600080823b905060008111915050919050565b606083156122a55782905061235a565b6000835111156122b85782518084602001fd5b816040517f08c379a00000000000000000000000000000000000000000000000000000000081526004018080602001828103825283818151815260200191508051906020019080838360005b8381101561231f578082015181840152602081019050612304565b50505050905090810190601f16801561234c5780820380516001836020036101000a031916815260200191505b509250505060405180910390fd5b939250505056fe545368617265526577617264506f6f6c3a2063616c6c6572206973206e6f7420746865206f70657261746f72416464726573733a20696e73756666696369656e742062616c616e636520666f722063616c6c536166654d6174683a206d756c7469706c69636174696f6e206f766572666c6f775361666545524332303a204552433230206f7065726174696f6e20646964206e6f742073756363656564a2646970667358221220ad78e08a2390054f94fafd5d556bfde3860d9a20e25beaccda4ebc7a12ce9b6d64736f6c634300060c0033",
  "immutableReferences": {},
  "source": "// SPDX-License-Identifier: MIT\n\npragma solidity 0.6.12;\n\nimport \"@openzeppelin/contracts/token/ERC20/IERC20.sol\";\nimport \"@openzeppelin/contracts/token/ERC20/SafeERC20.sol\";\nimport \"@openzeppelin/contracts/math/SafeMath.sol\";\n\n// Note that this pool has no minter key of tSHARE (rewards).\n// Instead, the governance will call tSHARE distributeReward method and send reward to this pool at the beginning.\ncontract SZombRewardPool {\n    using SafeMath for uint256;\n    using SafeERC20 for IERC20;\n\n    // governance\n    address public operator;\n\n    // Info of each user.\n    struct UserInfo {\n        uint256 amount; // How many LP tokens the user has provided.\n        uint256 rewardDebt; // Reward debt. See explanation below.\n    }\n\n    // Info of each pool.\n    struct PoolInfo {\n        IERC20 token; // Address of LP token contract.\n        uint256 allocPoint; // How many allocation points assigned to this pool. tSHAREs to distribute per block.\n        uint256 lastRewardTime; // Last time that tSHAREs distribution occurs.\n        uint256 accTSharePerShare; // Accumulated tSHAREs per share, times 1e18. See below.\n        bool isStarted; // if lastRewardTime has passed\n    }\n\n    IERC20 public tshare;\n\n    // Info of each pool.\n    PoolInfo[] public poolInfo;\n\n    // Info of each user that stakes LP tokens.\n    mapping(uint256 => mapping(address => UserInfo)) public userInfo;\n\n    // Total allocation points. Must be the sum of all allocation points in all pools.\n    uint256 public totalAllocPoint = 0;\n\n    // The time when tSHARE mining starts.\n    uint256 public poolStartTime;\n\n    // The time when tSHARE mining ends.\n    uint256 public poolEndTime;\n\n    uint256 public tSharePerSecond = 0.00188673 ether; // 59500 tshare / (365 days * 24h * 60min * 60s)\n    uint256 public runningTime = 365 days; // 365 days\n    uint256 public constant TOTAL_REWARDS = 59500 ether;\n\n    event Deposit(address indexed user, uint256 indexed pid, uint256 amount);\n    event Withdraw(address indexed user, uint256 indexed pid, uint256 amount);\n    event EmergencyWithdraw(address indexed user, uint256 indexed pid, uint256 amount);\n    event RewardPaid(address indexed user, uint256 amount);\n\n    constructor(\n        address _tshare,\n        uint256 _poolStartTime\n    ) public {\n        require(block.timestamp < _poolStartTime, \"late\");\n        if (_tshare != address(0)) tshare = IERC20(_tshare);\n        poolStartTime = _poolStartTime;\n        poolEndTime = poolStartTime + runningTime;\n        operator = msg.sender;\n    }\n\n    modifier onlyOperator() {\n        require(operator == msg.sender, \"TShareRewardPool: caller is not the operator\");\n        _;\n    }\n\n    function checkPoolDuplicate(IERC20 _token) internal view {\n        uint256 length = poolInfo.length;\n        for (uint256 pid = 0; pid < length; ++pid) {\n            require(poolInfo[pid].token != _token, \"TShareRewardPool: existing pool?\");\n        }\n    }\n\n    // Add a new lp to the pool. Can only be called by the owner.\n    function add(\n        uint256 _allocPoint,\n        IERC20 _token,\n        bool _withUpdate,\n        uint256 _lastRewardTime\n    ) public onlyOperator {\n        checkPoolDuplicate(_token);\n        if (_withUpdate) {\n            massUpdatePools();\n        }\n        if (block.timestamp < poolStartTime) {\n            // chef is sleeping\n            if (_lastRewardTime == 0) {\n                _lastRewardTime = poolStartTime;\n            } else {\n                if (_lastRewardTime < poolStartTime) {\n                    _lastRewardTime = poolStartTime;\n                }\n            }\n        } else {\n            // chef is cooking\n            if (_lastRewardTime == 0 || _lastRewardTime < block.timestamp) {\n                _lastRewardTime = block.timestamp;\n            }\n        }\n        bool _isStarted =\n        (_lastRewardTime <= poolStartTime) ||\n        (_lastRewardTime <= block.timestamp);\n        poolInfo.push(PoolInfo({\n            token : _token,\n            allocPoint : _allocPoint,\n            lastRewardTime : _lastRewardTime,\n            accTSharePerShare : 0,\n            isStarted : _isStarted\n            }));\n        if (_isStarted) {\n            totalAllocPoint = totalAllocPoint.add(_allocPoint);\n        }\n    }\n\n    // Update the given pool's tSHARE allocation point. Can only be called by the owner.\n    function set(uint256 _pid, uint256 _allocPoint) public onlyOperator {\n        massUpdatePools();\n        PoolInfo storage pool = poolInfo[_pid];\n        if (pool.isStarted) {\n            totalAllocPoint = totalAllocPoint.sub(pool.allocPoint).add(\n                _allocPoint\n            );\n        }\n        pool.allocPoint = _allocPoint;\n    }\n\n    // Return accumulate rewards over the given _from to _to block.\n    function getGeneratedReward(uint256 _fromTime, uint256 _toTime) public view returns (uint256) {\n        if (_fromTime >= _toTime) return 0;\n        if (_toTime >= poolEndTime) {\n            if (_fromTime >= poolEndTime) return 0;\n            if (_fromTime <= poolStartTime) return poolEndTime.sub(poolStartTime).mul(tSharePerSecond);\n            return poolEndTime.sub(_fromTime).mul(tSharePerSecond);\n        } else {\n            if (_toTime <= poolStartTime) return 0;\n            if (_fromTime <= poolStartTime) return _toTime.sub(poolStartTime).mul(tSharePerSecond);\n            return _toTime.sub(_fromTime).mul(tSharePerSecond);\n        }\n    }\n\n    // View function to see pending tSHAREs on frontend.\n    function pendingShare(uint256 _pid, address _user) external view returns (uint256) {\n        PoolInfo storage pool = poolInfo[_pid];\n        UserInfo storage user = userInfo[_pid][_user];\n        uint256 accTSharePerShare = pool.accTSharePerShare;\n        uint256 tokenSupply = pool.token.balanceOf(address(this));\n        if (block.timestamp > pool.lastRewardTime && tokenSupply != 0) {\n            uint256 _generatedReward = getGeneratedReward(pool.lastRewardTime, block.timestamp);\n            uint256 _tshareReward = _generatedReward.mul(pool.allocPoint).div(totalAllocPoint);\n            accTSharePerShare = accTSharePerShare.add(_tshareReward.mul(1e18).div(tokenSupply));\n        }\n        return user.amount.mul(accTSharePerShare).div(1e18).sub(user.rewardDebt);\n    }\n\n    // Update reward variables for all pools. Be careful of gas spending!\n    function massUpdatePools() public {\n        uint256 length = poolInfo.length;\n        for (uint256 pid = 0; pid < length; ++pid) {\n            updatePool(pid);\n        }\n    }\n\n    // Update reward variables of the given pool to be up-to-date.\n    function updatePool(uint256 _pid) public {\n        PoolInfo storage pool = poolInfo[_pid];\n        if (block.timestamp <= pool.lastRewardTime) {\n            return;\n        }\n        uint256 tokenSupply = pool.token.balanceOf(address(this));\n        if (tokenSupply == 0) {\n            pool.lastRewardTime = block.timestamp;\n            return;\n        }\n        if (!pool.isStarted) {\n            pool.isStarted = true;\n            totalAllocPoint = totalAllocPoint.add(pool.allocPoint);\n        }\n        if (totalAllocPoint > 0) {\n            uint256 _generatedReward = getGeneratedReward(pool.lastRewardTime, block.timestamp);\n            uint256 _tshareReward = _generatedReward.mul(pool.allocPoint).div(totalAllocPoint);\n            pool.accTSharePerShare = pool.accTSharePerShare.add(_tshareReward.mul(1e18).div(tokenSupply));\n        }\n        pool.lastRewardTime = block.timestamp;\n    }\n\n    // Deposit LP tokens.\n    function deposit(uint256 _pid, uint256 _amount) public {\n        address _sender = msg.sender;\n        PoolInfo storage pool = poolInfo[_pid];\n        UserInfo storage user = userInfo[_pid][_sender];\n        updatePool(_pid);\n        if (user.amount > 0) {\n            uint256 _pending = user.amount.mul(pool.accTSharePerShare).div(1e18).sub(user.rewardDebt);\n            if (_pending > 0) {\n                safeTShareTransfer(_sender, _pending);\n                emit RewardPaid(_sender, _pending);\n            }\n        }\n        if (_amount > 0) {\n            pool.token.safeTransferFrom(_sender, address(this), _amount);\n            user.amount = user.amount.add(_amount);\n        }\n        user.rewardDebt = user.amount.mul(pool.accTSharePerShare).div(1e18);\n        emit Deposit(_sender, _pid, _amount);\n    }\n\n    // Withdraw LP tokens.\n    function withdraw(uint256 _pid, uint256 _amount) public {\n        address _sender = msg.sender;\n        PoolInfo storage pool = poolInfo[_pid];\n        UserInfo storage user = userInfo[_pid][_sender];\n        require(user.amount >= _amount, \"withdraw: not good\");\n        updatePool(_pid);\n        uint256 _pending = user.amount.mul(pool.accTSharePerShare).div(1e18).sub(user.rewardDebt);\n        if (_pending > 0) {\n            safeTShareTransfer(_sender, _pending);\n            emit RewardPaid(_sender, _pending);\n        }\n        if (_amount > 0) {\n            user.amount = user.amount.sub(_amount);\n            pool.token.safeTransfer(_sender, _amount);\n        }\n        user.rewardDebt = user.amount.mul(pool.accTSharePerShare).div(1e18);\n        emit Withdraw(_sender, _pid, _amount);\n    }\n\n    // Withdraw without caring about rewards. EMERGENCY ONLY.\n    function emergencyWithdraw(uint256 _pid) public {\n        PoolInfo storage pool = poolInfo[_pid];\n        UserInfo storage user = userInfo[_pid][msg.sender];\n        uint256 _amount = user.amount;\n        user.amount = 0;\n        user.rewardDebt = 0;\n        pool.token.safeTransfer(msg.sender, _amount);\n        emit EmergencyWithdraw(msg.sender, _pid, _amount);\n    }\n\n    // Safe tshare transfer function, just in case if rounding error causes pool to not have enough tSHAREs.\n    function safeTShareTransfer(address _to, uint256 _amount) internal {\n        uint256 _tshareBal = tshare.balanceOf(address(this));\n        if (_tshareBal > 0) {\n            if (_amount > _tshareBal) {\n                tshare.safeTransfer(_to, _tshareBal);\n            } else {\n                tshare.safeTransfer(_to, _amount);\n            }\n        }\n    }\n\n    function setOperator(address _operator) external onlyOperator {\n        operator = _operator;\n    }\n\n    function governanceRecoverUnsupported(IERC20 _token, uint256 amount, address to) external onlyOperator {\n        if (block.timestamp < poolEndTime + 90 days) {\n            // do not allow to drain core token (tSHARE or lps) if less than 90 days after pool ends\n            require(_token != tshare, \"tshare\");\n            uint256 length = poolInfo.length;\n            for (uint256 pid = 0; pid < length; ++pid) {\n                PoolInfo storage pool = poolInfo[pid];\n                require(_token != pool.token, \"pool.token\");\n            }\n        }\n        _token.safeTransfer(to, amount);\n    }\n}\n",
  "sourcePath": "D:\\5xDEFI\\tomb-contract\\contracts\\distribution\\SZombRewardPool.sol",
  "compiler": {
    "name": "solc",
    "version": "0.6.12+commit.27d51765.Emscripten.clang"
  },
  "schemaVersion": "3.4.3",
  "updatedAt": "2022-03-04T03:11:57.529Z",
  "devdoc": {
    "kind": "dev",
    "methods": {},
    "version": 1
  },
  "userdoc": {
    "kind": "user",
    "methods": {},
    "version": 1
  }
}