{
  "contractName": "TaxOfficeV2",
  "abi": [
    {
      "anonymous": false,
      "inputs": [
        {
          "indexed": true,
          "internalType": "address",
          "name": "previousOperator",
          "type": "address"
        },
        {
          "indexed": true,
          "internalType": "address",
          "name": "newOperator",
          "type": "address"
        }
      ],
      "name": "OperatorTransferred",
      "type": "event"
    },
    {
      "anonymous": false,
      "inputs": [
        {
          "indexed": true,
          "internalType": "address",
          "name": "previousOwner",
          "type": "address"
        },
        {
          "indexed": true,
          "internalType": "address",
          "name": "newOwner",
          "type": "address"
        }
      ],
      "name": "OwnershipTransferred",
      "type": "event"
    },
    {
      "inputs": [],
      "name": "isOperator",
      "outputs": [
        {
          "internalType": "bool",
          "name": "",
          "type": "bool"
        }
      ],
      "stateMutability": "view",
      "type": "function"
    },
    {
      "inputs": [],
      "name": "operator",
      "outputs": [
        {
          "internalType": "address",
          "name": "",
          "type": "address"
        }
      ],
      "stateMutability": "view",
      "type": "function"
    },
    {
      "inputs": [],
      "name": "owner",
      "outputs": [
        {
          "internalType": "address",
          "name": "",
          "type": "address"
        }
      ],
      "stateMutability": "view",
      "type": "function"
    },
    {
      "inputs": [],
      "name": "renounceOwnership",
      "outputs": [],
      "stateMutability": "nonpayable",
      "type": "function"
    },
    {
      "inputs": [
        {
          "internalType": "address",
          "name": "",
          "type": "address"
        }
      ],
      "name": "taxExclusionEnabled",
      "outputs": [
        {
          "internalType": "bool",
          "name": "",
          "type": "bool"
        }
      ],
      "stateMutability": "view",
      "type": "function"
    },
    {
      "inputs": [],
      "name": "tomb",
      "outputs": [
        {
          "internalType": "address",
          "name": "",
          "type": "address"
        }
      ],
      "stateMutability": "view",
      "type": "function"
    },
    {
      "inputs": [
        {
          "internalType": "address",
          "name": "newOperator_",
          "type": "address"
        }
      ],
      "name": "transferOperator",
      "outputs": [],
      "stateMutability": "nonpayable",
      "type": "function"
    },
    {
      "inputs": [
        {
          "internalType": "address",
          "name": "newOwner",
          "type": "address"
        }
      ],
      "name": "transferOwnership",
      "outputs": [],
      "stateMutability": "nonpayable",
      "type": "function"
    },
    {
      "inputs": [],
      "name": "uniRouter",
      "outputs": [
        {
          "internalType": "address",
          "name": "",
          "type": "address"
        }
      ],
      "stateMutability": "view",
      "type": "function"
    },
    {
      "inputs": [],
      "name": "wftm",
      "outputs": [
        {
          "internalType": "address",
          "name": "",
          "type": "address"
        }
      ],
      "stateMutability": "view",
      "type": "function"
    },
    {
      "inputs": [
        {
          "internalType": "uint8",
          "name": "_index",
          "type": "uint8"
        },
        {
          "internalType": "uint256",
          "name": "_value",
          "type": "uint256"
        }
      ],
      "name": "setTaxTiersTwap",
      "outputs": [
        {
          "internalType": "bool",
          "name": "",
          "type": "bool"
        }
      ],
      "stateMutability": "nonpayable",
      "type": "function"
    },
    {
      "inputs": [
        {
          "internalType": "uint8",
          "name": "_index",
          "type": "uint8"
        },
        {
          "internalType": "uint256",
          "name": "_value",
          "type": "uint256"
        }
      ],
      "name": "setTaxTiersRate",
      "outputs": [
        {
          "internalType": "bool",
          "name": "",
          "type": "bool"
        }
      ],
      "stateMutability": "nonpayable",
      "type": "function"
    },
    {
      "inputs": [],
      "name": "enableAutoCalculateTax",
      "outputs": [],
      "stateMutability": "nonpayable",
      "type": "function"
    },
    {
      "inputs": [],
      "name": "disableAutoCalculateTax",
      "outputs": [],
      "stateMutability": "nonpayable",
      "type": "function"
    },
    {
      "inputs": [
        {
          "internalType": "uint256",
          "name": "_taxRate",
          "type": "uint256"
        }
      ],
      "name": "setTaxRate",
      "outputs": [],
      "stateMutability": "nonpayable",
      "type": "function"
    },
    {
      "inputs": [
        {
          "internalType": "uint256",
          "name": "_burnThreshold",
          "type": "uint256"
        }
      ],
      "name": "setBurnThreshold",
      "outputs": [],
      "stateMutability": "nonpayable",
      "type": "function"
    },
    {
      "inputs": [
        {
          "internalType": "address",
          "name": "_taxCollectorAddress",
          "type": "address"
        }
      ],
      "name": "setTaxCollectorAddress",
      "outputs": [],
      "stateMutability": "nonpayable",
      "type": "function"
    },
    {
      "inputs": [
        {
          "internalType": "address",
          "name": "_address",
          "type": "address"
        }
      ],
      "name": "excludeAddressFromTax",
      "outputs": [
        {
          "internalType": "bool",
          "name": "",
          "type": "bool"
        }
      ],
      "stateMutability": "nonpayable",
      "type": "function"
    },
    {
      "inputs": [
        {
          "internalType": "address",
          "name": "_address",
          "type": "address"
        }
      ],
      "name": "includeAddressInTax",
      "outputs": [
        {
          "internalType": "bool",
          "name": "",
          "type": "bool"
        }
      ],
      "stateMutability": "nonpayable",
      "type": "function"
    },
    {
      "inputs": [],
      "name": "taxRate",
      "outputs": [
        {
          "internalType": "uint256",
          "name": "",
          "type": "uint256"
        }
      ],
      "stateMutability": "view",
      "type": "function"
    },
    {
      "inputs": [
        {
          "internalType": "address",
          "name": "token",
          "type": "address"
        },
        {
          "internalType": "uint256",
          "name": "amtTomb",
          "type": "uint256"
        },
        {
          "internalType": "uint256",
          "name": "amtToken",
          "type": "uint256"
        },
        {
          "internalType": "uint256",
          "name": "amtTombMin",
          "type": "uint256"
        },
        {
          "internalType": "uint256",
          "name": "amtTokenMin",
          "type": "uint256"
        }
      ],
      "name": "addLiquidityTaxFree",
      "outputs": [
        {
          "internalType": "uint256",
          "name": "",
          "type": "uint256"
        },
        {
          "internalType": "uint256",
          "name": "",
          "type": "uint256"
        },
        {
          "internalType": "uint256",
          "name": "",
          "type": "uint256"
        }
      ],
      "stateMutability": "nonpayable",
      "type": "function"
    },
    {
      "inputs": [
        {
          "internalType": "uint256",
          "name": "amtTomb",
          "type": "uint256"
        },
        {
          "internalType": "uint256",
          "name": "amtTombMin",
          "type": "uint256"
        },
        {
          "internalType": "uint256",
          "name": "amtFtmMin",
          "type": "uint256"
        }
      ],
      "name": "addLiquidityETHTaxFree",
      "outputs": [
        {
          "internalType": "uint256",
          "name": "",
          "type": "uint256"
        },
        {
          "internalType": "uint256",
          "name": "",
          "type": "uint256"
        },
        {
          "internalType": "uint256",
          "name": "",
          "type": "uint256"
        }
      ],
      "stateMutability": "payable",
      "type": "function"
    },
    {
      "inputs": [
        {
          "internalType": "address",
          "name": "_tombOracle",
          "type": "address"
        }
      ],
      "name": "setTaxableTombOracle",
      "outputs": [],
      "stateMutability": "nonpayable",
      "type": "function"
    },
    {
      "inputs": [
        {
          "internalType": "address",
          "name": "_newTaxOffice",
          "type": "address"
        }
      ],
      "name": "transferTaxOffice",
      "outputs": [],
      "stateMutability": "nonpayable",
      "type": "function"
    },
    {
      "inputs": [
        {
          "internalType": "address",
          "name": "_sender",
          "type": "address"
        },
        {
          "internalType": "address",
          "name": "_recipient",
          "type": "address"
        },
        {
          "internalType": "uint256",
          "name": "_amt",
          "type": "uint256"
        }
      ],
      "name": "taxFreeTransferFrom",
      "outputs": [],
      "stateMutability": "nonpayable",
      "type": "function"
    },
    {
      "inputs": [
        {
          "internalType": "address",
          "name": "_address",
          "type": "address"
        },
        {
          "internalType": "bool",
          "name": "_excluded",
          "type": "bool"
        }
      ],
      "name": "setTaxExclusionForAddress",
      "outputs": [],
      "stateMutability": "nonpayable",
      "type": "function"
    }
  ],
  "bytecode": "0x608060405273bd0baf4eecaf06d875b5c2f52ce7dbb97fb91891600260006101000a81548173ffffffffffffffffffffffffffffffffffffffff021916908373ffffffffffffffffffffffffffffffffffffffff16021790555073ce0f6fd6f7970ad2a8eeea94731f3215de23f441600360006101000a81548173ffffffffffffffffffffffffffffffffffffffff021916908373ffffffffffffffffffffffffffffffffffffffff160217905550737e2bd2a890b579ac12684000233869c7e3c882ed600460006101000a81548173ffffffffffffffffffffffffffffffffffffffff021916908373ffffffffffffffffffffffffffffffffffffffff1602179055503480156200011057600080fd5b506000620001236200029460201b60201c565b9050806000806101000a81548173ffffffffffffffffffffffffffffffffffffffff021916908373ffffffffffffffffffffffffffffffffffffffff1602179055508073ffffffffffffffffffffffffffffffffffffffff16600073ffffffffffffffffffffffffffffffffffffffff167f8be0079c531659141344cd1fd0a4f28419497f9722a3daafe3b4186f6b6457e060405160405180910390a350620001d16200029460201b60201c565b600160006101000a81548173ffffffffffffffffffffffffffffffffffffffff021916908373ffffffffffffffffffffffffffffffffffffffff160217905550600160009054906101000a900473ffffffffffffffffffffffffffffffffffffffff1673ffffffffffffffffffffffffffffffffffffffff16600073ffffffffffffffffffffffffffffffffffffffff167f74da04524d50c64947f5dd5381ef1a4dca5cba8ed1d816243f9e48aa0b5617ed60405160405180910390a36200029c565b600033905090565b61309a80620002ac6000396000f3fe6080604052600436106101815760003560e01c80639d6b5f21116100d1578063d1d31a371161008a578063f1efacf911610064578063f1efacf9146107f7578063f2fde38b14610892578063f4f45b46146108e3578063ff87fc7c1461092457610181565b8063d1d31a37146106da578063e1d8752e1461072b578063e69abb7e146107a657610181565b80639d6b5f211461051d578063a0e47bf614610558578063b87c5a4a14610599578063be94f86b146105f7578063c040f23a1461065e578063c6d69a301461069f57610181565b806366206ce91161013e57806373baccc01161011857806373baccc0146103f0578063771a3a1d146104545780637fcd79c71461047f5780638da5cb5b146104dc57610181565b806366206ce91461032a57806369356d4714610388578063715018a6146103d957610181565b806313762bdc1461018657806319db099d146101ed57806329605e77146102545780634456eda2146102a5578063570ca735146102d257806365bbacd914610313575b600080fd5b34801561019257600080fd5b506101d5600480360360208110156101a957600080fd5b81019080803573ffffffffffffffffffffffffffffffffffffffff16906020019092919050505061093b565b60405180821515815260200191505060405180910390f35b3480156101f957600080fd5b5061023c6004803603602081101561021057600080fd5b81019080803573ffffffffffffffffffffffffffffffffffffffff16906020019092919050505061095b565b60405180821515815260200191505060405180910390f35b34801561026057600080fd5b506102a36004803603602081101561027757600080fd5b81019080803573ffffffffffffffffffffffffffffffffffffffff169060200190929190505050610a13565b005b3480156102b157600080fd5b506102ba610ace565b60405180821515815260200191505060405180910390f35b3480156102de57600080fd5b506102e7610b2d565b604051808273ffffffffffffffffffffffffffffffffffffffff16815260200191505060405180910390f35b34801561031f57600080fd5b50610328610b57565b005b34801561033657600080fd5b506103706004803603604081101561034d57600080fd5b81019080803560ff16906020019092919080359060200190929190505050610c81565b60405180821515815260200191505060405180910390f35b34801561039457600080fd5b506103d7600480360360208110156103ab57600080fd5b81019080803573ffffffffffffffffffffffffffffffffffffffff169060200190929190505050610dec565b005b3480156103e557600080fd5b506103ee610f38565b005b6104306004803603606081101561040657600080fd5b810190808035906020019092919080359060200190929190803590602001909291905050506110a5565b60405180848152602001838152602001828152602001935050505060405180910390f35b34801561046057600080fd5b506104696114da565b6040518082815260200191505060405180910390f35b34801561048b57600080fd5b506104da600480360360408110156104a257600080fd5b81019080803573ffffffffffffffffffffffffffffffffffffffff169060200190929190803515159060200190929190505050611584565b005b3480156104e857600080fd5b506104f1611685565b604051808273ffffffffffffffffffffffffffffffffffffffff16815260200191505060405180910390f35b34801561052957600080fd5b506105566004803603602081101561054057600080fd5b81019080803590602001909291905050506116ae565b005b34801561056457600080fd5b5061056d6117e4565b604051808273ffffffffffffffffffffffffffffffffffffffff16815260200191505060405180910390f35b3480156105a557600080fd5b506105df600480360360408110156105bc57600080fd5b81019080803560ff1690602001909291908035906020019092919050505061180a565b60405180821515815260200191505060405180910390f35b34801561060357600080fd5b506106466004803603602081101561061a57600080fd5b81019080803573ffffffffffffffffffffffffffffffffffffffff169060200190929190505050611975565b60405180821515815260200191505060405180910390f35b34801561066a57600080fd5b50610673611a2d565b604051808273ffffffffffffffffffffffffffffffffffffffff16815260200191505060405180910390f35b3480156106ab57600080fd5b506106d8600480360360208110156106c257600080fd5b8101908080359060200190929190505050611a53565b005b3480156106e657600080fd5b50610729600480360360208110156106fd57600080fd5b81019080803573ffffffffffffffffffffffffffffffffffffffff169060200190929190505050611b89565b005b34801561073757600080fd5b506107a46004803603606081101561074e57600080fd5b81019080803573ffffffffffffffffffffffffffffffffffffffff169060200190929190803573ffffffffffffffffffffffffffffffffffffffff16906020019092919080359060200190929190505050611cd5565b005b3480156107b257600080fd5b506107f5600480360360208110156107c957600080fd5b81019080803573ffffffffffffffffffffffffffffffffffffffff169060200190929190505050611e7d565b005b34801561080357600080fd5b5061086e600480360360a081101561081a57600080fd5b81019080803573ffffffffffffffffffffffffffffffffffffffff16906020019092919080359060200190929190803590602001909291908035906020019092919080359060200190929190505050611fc9565b60405180848152602001838152602001828152602001935050505060405180910390f35b34801561089e57600080fd5b506108e1600480360360208110156108b557600080fd5b81019080803573ffffffffffffffffffffffffffffffffffffffff1690602001909291905050506125f7565b005b3480156108ef57600080fd5b506108f86127e9565b604051808273ffffffffffffffffffffffffffffffffffffffff16815260200191505060405180910390f35b34801561093057600080fd5b5061093961280f565b005b60056020528060005260406000206000915054906101000a900460ff1681565b60003373ffffffffffffffffffffffffffffffffffffffff16600160009054906101000a900473ffffffffffffffffffffffffffffffffffffffff1673ffffffffffffffffffffffffffffffffffffffff1614610a03576040517f08c379a00000000000000000000000000000000000000000000000000000000081526004018080602001828103825260248152602001806130416024913960400191505060405180910390fd5b610a0c82612939565b9050919050565b610a1b612ad9565b73ffffffffffffffffffffffffffffffffffffffff16610a39611685565b73ffffffffffffffffffffffffffffffffffffffff1614610ac2576040517f08c379a00000000000000000000000000000000000000000000000000000000081526004018080602001828103825260208152602001807f4f776e61626c653a2063616c6c6572206973206e6f7420746865206f776e657281525060200191505060405180910390fd5b610acb81612ae1565b50565b6000600160009054906101000a900473ffffffffffffffffffffffffffffffffffffffff1673ffffffffffffffffffffffffffffffffffffffff16610b11612ad9565b73ffffffffffffffffffffffffffffffffffffffff1614905090565b6000600160009054906101000a900473ffffffffffffffffffffffffffffffffffffffff16905090565b3373ffffffffffffffffffffffffffffffffffffffff16600160009054906101000a900473ffffffffffffffffffffffffffffffffffffffff1673ffffffffffffffffffffffffffffffffffffffff1614610bfd576040517f08c379a00000000000000000000000000000000000000000000000000000000081526004018080602001828103825260248152602001806130416024913960400191505060405180910390fd5b600260009054906101000a900473ffffffffffffffffffffffffffffffffffffffff1673ffffffffffffffffffffffffffffffffffffffff166365bbacd96040518163ffffffff1660e01b8152600401600060405180830381600087803b158015610c6757600080fd5b505af1158015610c7b573d6000803e3d6000fd5b50505050565b60003373ffffffffffffffffffffffffffffffffffffffff16600160009054906101000a900473ffffffffffffffffffffffffffffffffffffffff1673ffffffffffffffffffffffffffffffffffffffff1614610d29576040517f08c379a00000000000000000000000000000000000000000000000000000000081526004018080602001828103825260248152602001806130416024913960400191505060405180910390fd5b600260009054906101000a900473ffffffffffffffffffffffffffffffffffffffff1673ffffffffffffffffffffffffffffffffffffffff166366206ce984846040518363ffffffff1660e01b8152600401808360ff16815260200182815260200192505050602060405180830381600087803b158015610da957600080fd5b505af1158015610dbd573d6000803e3d6000fd5b505050506040513d6020811015610dd357600080fd5b8101908080519060200190929190505050905092915050565b3373ffffffffffffffffffffffffffffffffffffffff16600160009054906101000a900473ffffffffffffffffffffffffffffffffffffffff1673ffffffffffffffffffffffffffffffffffffffff1614610e92576040517f08c379a00000000000000000000000000000000000000000000000000000000081526004018080602001828103825260248152602001806130416024913960400191505060405180910390fd5b600260009054906101000a900473ffffffffffffffffffffffffffffffffffffffff1673ffffffffffffffffffffffffffffffffffffffff166369356d47826040518263ffffffff1660e01b8152600401808273ffffffffffffffffffffffffffffffffffffffff168152602001915050600060405180830381600087803b158015610f1d57600080fd5b505af1158015610f31573d6000803e3d6000fd5b5050505050565b610f40612ad9565b73ffffffffffffffffffffffffffffffffffffffff16610f5e611685565b73ffffffffffffffffffffffffffffffffffffffff1614610fe7576040517f08c379a00000000000000000000000000000000000000000000000000000000081526004018080602001828103825260208152602001807f4f776e61626c653a2063616c6c6572206973206e6f7420746865206f776e657281525060200191505060405180910390fd5b600073ffffffffffffffffffffffffffffffffffffffff1660008054906101000a900473ffffffffffffffffffffffffffffffffffffffff1673ffffffffffffffffffffffffffffffffffffffff167f8be0079c531659141344cd1fd0a4f28419497f9722a3daafe3b4186f6b6457e060405160405180910390a360008060006101000a81548173ffffffffffffffffffffffffffffffffffffffff021916908373ffffffffffffffffffffffffffffffffffffffff160217905550565b60008060008086141580156110bb575060003414155b61112d576040517f08c379a00000000000000000000000000000000000000000000000000000000081526004018080602001828103825260128152602001807f616d6f756e74732063616e27742062652030000000000000000000000000000081525060200191505060405180910390fd5b61113633612c06565b50600260009054906101000a900473ffffffffffffffffffffffffffffffffffffffff1673ffffffffffffffffffffffffffffffffffffffff166323b872dd3330896040518463ffffffff1660e01b8152600401808473ffffffffffffffffffffffffffffffffffffffff1681526020018373ffffffffffffffffffffffffffffffffffffffff1681526020018281526020019350505050602060405180830381600087803b1580156111e857600080fd5b505af11580156111fc573d6000803e3d6000fd5b505050506040513d602081101561121257600080fd5b810190808051906020019092919050505050611272600260009054906101000a900473ffffffffffffffffffffffffffffffffffffffff16600460009054906101000a900473ffffffffffffffffffffffffffffffffffffffff16612da5565b61127b33612939565b506000806000600460009054906101000a900473ffffffffffffffffffffffffffffffffffffffff1673ffffffffffffffffffffffffffffffffffffffff1663f305d71934600260009054906101000a900473ffffffffffffffffffffffffffffffffffffffff168c8c8c33426040518863ffffffff1660e01b8152600401808773ffffffffffffffffffffffffffffffffffffffff1681526020018681526020018581526020018481526020018373ffffffffffffffffffffffffffffffffffffffff16815260200182815260200196505050505050506060604051808303818588803b15801561136c57600080fd5b505af1158015611380573d6000803e3d6000fd5b50505050506040513d606081101561139757600080fd5b8101908080519060200190929190805190602001909291908051906020019092919050505080935081945082955050505060006113dd848b612f3f90919063ffffffff16565b11156114c557600260009054906101000a900473ffffffffffffffffffffffffffffffffffffffff1673ffffffffffffffffffffffffffffffffffffffff1663a9059cbb33611435868d612f3f90919063ffffffff16565b6040518363ffffffff1660e01b8152600401808373ffffffffffffffffffffffffffffffffffffffff16815260200182815260200192505050602060405180830381600087803b15801561148857600080fd5b505af115801561149c573d6000803e3d6000fd5b505050506040513d60208110156114b257600080fd5b8101908080519060200190929190505050505b82828295509550955050505093509350939050565b6000600260009054906101000a900473ffffffffffffffffffffffffffffffffffffffff1673ffffffffffffffffffffffffffffffffffffffff1663771a3a1d6040518163ffffffff1660e01b815260040160206040518083038186803b15801561154457600080fd5b505afa158015611558573d6000803e3d6000fd5b505050506040513d602081101561156e57600080fd5b8101908080519060200190929190505050905090565b3373ffffffffffffffffffffffffffffffffffffffff16600160009054906101000a900473ffffffffffffffffffffffffffffffffffffffff1673ffffffffffffffffffffffffffffffffffffffff161461162a576040517f08c379a00000000000000000000000000000000000000000000000000000000081526004018080602001828103825260248152602001806130416024913960400191505060405180910390fd5b80600560008473ffffffffffffffffffffffffffffffffffffffff1673ffffffffffffffffffffffffffffffffffffffff16815260200190815260200160002060006101000a81548160ff0219169083151502179055505050565b60008060009054906101000a900473ffffffffffffffffffffffffffffffffffffffff16905090565b3373ffffffffffffffffffffffffffffffffffffffff16600160009054906101000a900473ffffffffffffffffffffffffffffffffffffffff1673ffffffffffffffffffffffffffffffffffffffff1614611754576040517f08c379a00000000000000000000000000000000000000000000000000000000081526004018080602001828103825260248152602001806130416024913960400191505060405180910390fd5b600260009054906101000a900473ffffffffffffffffffffffffffffffffffffffff1673ffffffffffffffffffffffffffffffffffffffff16639d6b5f21826040518263ffffffff1660e01b815260040180828152602001915050600060405180830381600087803b1580156117c957600080fd5b505af11580156117dd573d6000803e3d6000fd5b5050505050565b600460009054906101000a900473ffffffffffffffffffffffffffffffffffffffff1681565b60003373ffffffffffffffffffffffffffffffffffffffff16600160009054906101000a900473ffffffffffffffffffffffffffffffffffffffff1673ffffffffffffffffffffffffffffffffffffffff16146118b2576040517f08c379a00000000000000000000000000000000000000000000000000000000081526004018080602001828103825260248152602001806130416024913960400191505060405180910390fd5b600260009054906101000a900473ffffffffffffffffffffffffffffffffffffffff1673ffffffffffffffffffffffffffffffffffffffff1663b87c5a4a84846040518363ffffffff1660e01b8152600401808360ff16815260200182815260200192505050602060405180830381600087803b15801561193257600080fd5b505af1158015611946573d6000803e3d6000fd5b505050506040513d602081101561195c57600080fd5b8101908080519060200190929190505050905092915050565b60003373ffffffffffffffffffffffffffffffffffffffff16600160009054906101000a900473ffffffffffffffffffffffffffffffffffffffff1673ffffffffffffffffffffffffffffffffffffffff1614611a1d576040517f08c379a00000000000000000000000000000000000000000000000000000000081526004018080602001828103825260248152602001806130416024913960400191505060405180910390fd5b611a2682612c06565b9050919050565b600260009054906101000a900473ffffffffffffffffffffffffffffffffffffffff1681565b3373ffffffffffffffffffffffffffffffffffffffff16600160009054906101000a900473ffffffffffffffffffffffffffffffffffffffff1673ffffffffffffffffffffffffffffffffffffffff1614611af9576040517f08c379a00000000000000000000000000000000000000000000000000000000081526004018080602001828103825260248152602001806130416024913960400191505060405180910390fd5b600260009054906101000a900473ffffffffffffffffffffffffffffffffffffffff1673ffffffffffffffffffffffffffffffffffffffff1663c6d69a30826040518263ffffffff1660e01b815260040180828152602001915050600060405180830381600087803b158015611b6e57600080fd5b505af1158015611b82573d6000803e3d6000fd5b5050505050565b3373ffffffffffffffffffffffffffffffffffffffff16600160009054906101000a900473ffffffffffffffffffffffffffffffffffffffff1673ffffffffffffffffffffffffffffffffffffffff1614611c2f576040517f08c379a00000000000000000000000000000000000000000000000000000000081526004018080602001828103825260248152602001806130416024913960400191505060405180910390fd5b600260009054906101000a900473ffffffffffffffffffffffffffffffffffffffff1673ffffffffffffffffffffffffffffffffffffffff16633f07d76a826040518263ffffffff1660e01b8152600401808273ffffffffffffffffffffffffffffffffffffffff168152602001915050600060405180830381600087803b158015611cba57600080fd5b505af1158015611cce573d6000803e3d6000fd5b5050505050565b600560003373ffffffffffffffffffffffffffffffffffffffff1673ffffffffffffffffffffffffffffffffffffffff16815260200190815260200160002060009054906101000a900460ff16611d77576040517f08c379a000000000000000000000000000000000000000000000000000000000815260040180806020018281038252602b815260200180612fe9602b913960400191505060405180910390fd5b611d8083612c06565b50600260009054906101000a900473ffffffffffffffffffffffffffffffffffffffff1673ffffffffffffffffffffffffffffffffffffffff166323b872dd8484846040518463ffffffff1660e01b8152600401808473ffffffffffffffffffffffffffffffffffffffff1681526020018373ffffffffffffffffffffffffffffffffffffffff1681526020018281526020019350505050602060405180830381600087803b158015611e3257600080fd5b505af1158015611e46573d6000803e3d6000fd5b505050506040513d6020811015611e5c57600080fd5b810190808051906020019092919050505050611e7783612939565b50505050565b3373ffffffffffffffffffffffffffffffffffffffff16600160009054906101000a900473ffffffffffffffffffffffffffffffffffffffff1673ffffffffffffffffffffffffffffffffffffffff1614611f23576040517f08c379a00000000000000000000000000000000000000000000000000000000081526004018080602001828103825260248152602001806130416024913960400191505060405180910390fd5b600260009054906101000a900473ffffffffffffffffffffffffffffffffffffffff1673ffffffffffffffffffffffffffffffffffffffff166375be5ae1826040518263ffffffff1660e01b8152600401808273ffffffffffffffffffffffffffffffffffffffff168152602001915050600060405180830381600087803b158015611fae57600080fd5b505af1158015611fc2573d6000803e3d6000fd5b5050505050565b6000806000808714158015611fdf575060008614155b612051576040517f08c379a00000000000000000000000000000000000000000000000000000000081526004018080602001828103825260128152602001807f616d6f756e74732063616e27742062652030000000000000000000000000000081525060200191505060405180910390fd5b61205a33612c06565b50600260009054906101000a900473ffffffffffffffffffffffffffffffffffffffff1673ffffffffffffffffffffffffffffffffffffffff166323b872dd33308a6040518463ffffffff1660e01b8152600401808473ffffffffffffffffffffffffffffffffffffffff1681526020018373ffffffffffffffffffffffffffffffffffffffff1681526020018281526020019350505050602060405180830381600087803b15801561210c57600080fd5b505af1158015612120573d6000803e3d6000fd5b505050506040513d602081101561213657600080fd5b8101908080519060200190929190505050508773ffffffffffffffffffffffffffffffffffffffff166323b872dd3330896040518463ffffffff1660e01b8152600401808473ffffffffffffffffffffffffffffffffffffffff1681526020018373ffffffffffffffffffffffffffffffffffffffff1681526020018281526020019350505050602060405180830381600087803b1580156121d757600080fd5b505af11580156121eb573d6000803e3d6000fd5b505050506040513d602081101561220157600080fd5b810190808051906020019092919050505050612261600260009054906101000a900473ffffffffffffffffffffffffffffffffffffffff16600460009054906101000a900473ffffffffffffffffffffffffffffffffffffffff16612da5565b61228d88600460009054906101000a900473ffffffffffffffffffffffffffffffffffffffff16612da5565b61229633612939565b506000806000600460009054906101000a900473ffffffffffffffffffffffffffffffffffffffff1673ffffffffffffffffffffffffffffffffffffffff1663e8e33700600260009054906101000a900473ffffffffffffffffffffffffffffffffffffffff168d8d8d8d8d33426040518963ffffffff1660e01b8152600401808973ffffffffffffffffffffffffffffffffffffffff1681526020018873ffffffffffffffffffffffffffffffffffffffff1681526020018781526020018681526020018581526020018481526020018373ffffffffffffffffffffffffffffffffffffffff16815260200182815260200198505050505050505050606060405180830381600087803b1580156123ad57600080fd5b505af11580156123c1573d6000803e3d6000fd5b505050506040513d60608110156123d757600080fd5b81019080805190602001909291908051906020019092919080519060200190929190505050809350819450829550505050600061241d848c612f3f90919063ffffffff16565b111561250557600260009054906101000a900473ffffffffffffffffffffffffffffffffffffffff1673ffffffffffffffffffffffffffffffffffffffff1663a9059cbb33612475868e612f3f90919063ffffffff16565b6040518363ffffffff1660e01b8152600401808373ffffffffffffffffffffffffffffffffffffffff16815260200182815260200192505050602060405180830381600087803b1580156124c857600080fd5b505af11580156124dc573d6000803e3d6000fd5b505050506040513d60208110156124f257600080fd5b8101908080519060200190929190505050505b600061251a838b612f3f90919063ffffffff16565b11156125e0578a73ffffffffffffffffffffffffffffffffffffffff1663a9059cbb33612550858d612f3f90919063ffffffff16565b6040518363ffffffff1660e01b8152600401808373ffffffffffffffffffffffffffffffffffffffff16815260200182815260200192505050602060405180830381600087803b1580156125a357600080fd5b505af11580156125b7573d6000803e3d6000fd5b505050506040513d60208110156125cd57600080fd5b8101908080519060200190929190505050505b828282955095509550505050955095509592505050565b6125ff612ad9565b73ffffffffffffffffffffffffffffffffffffffff1661261d611685565b73ffffffffffffffffffffffffffffffffffffffff16146126a6576040517f08c379a00000000000000000000000000000000000000000000000000000000081526004018080602001828103825260208152602001807f4f776e61626c653a2063616c6c6572206973206e6f7420746865206f776e657281525060200191505060405180910390fd5b600073ffffffffffffffffffffffffffffffffffffffff168173ffffffffffffffffffffffffffffffffffffffff16141561272c576040517f08c379a0000000000000000000000000000000000000000000000000000000008152600401808060200182810382526026815260200180612fc36026913960400191505060405180910390fd5b8073ffffffffffffffffffffffffffffffffffffffff1660008054906101000a900473ffffffffffffffffffffffffffffffffffffffff1673ffffffffffffffffffffffffffffffffffffffff167f8be0079c531659141344cd1fd0a4f28419497f9722a3daafe3b4186f6b6457e060405160405180910390a3806000806101000a81548173ffffffffffffffffffffffffffffffffffffffff021916908373ffffffffffffffffffffffffffffffffffffffff16021790555050565b600360009054906101000a900473ffffffffffffffffffffffffffffffffffffffff1681565b3373ffffffffffffffffffffffffffffffffffffffff16600160009054906101000a900473ffffffffffffffffffffffffffffffffffffffff1673ffffffffffffffffffffffffffffffffffffffff16146128b5576040517f08c379a00000000000000000000000000000000000000000000000000000000081526004018080602001828103825260248152602001806130416024913960400191505060405180910390fd5b600260009054906101000a900473ffffffffffffffffffffffffffffffffffffffff1673ffffffffffffffffffffffffffffffffffffffff1663ff87fc7c6040518163ffffffff1660e01b8152600401600060405180830381600087803b15801561291f57600080fd5b505af1158015612933573d6000803e3d6000fd5b50505050565b6000600260009054906101000a900473ffffffffffffffffffffffffffffffffffffffff1673ffffffffffffffffffffffffffffffffffffffff1663ebca1bd9836040518263ffffffff1660e01b8152600401808273ffffffffffffffffffffffffffffffffffffffff168152602001915050602060405180830381600087803b1580156129c657600080fd5b505af11580156129da573d6000803e3d6000fd5b505050506040513d60208110156129f057600080fd5b810190808051906020019092919050505015612ad357600260009054906101000a900473ffffffffffffffffffffffffffffffffffffffff1673ffffffffffffffffffffffffffffffffffffffff166393995d4b836040518263ffffffff1660e01b8152600401808273ffffffffffffffffffffffffffffffffffffffff168152602001915050602060405180830381600087803b158015612a9157600080fd5b505af1158015612aa5573d6000803e3d6000fd5b505050506040513d6020811015612abb57600080fd5b81019080805190602001909291905050509050612ad4565b5b919050565b600033905090565b600073ffffffffffffffffffffffffffffffffffffffff168173ffffffffffffffffffffffffffffffffffffffff161415612b67576040517f08c379a000000000000000000000000000000000000000000000000000000000815260040180806020018281038252602d815260200180613014602d913960400191505060405180910390fd5b8073ffffffffffffffffffffffffffffffffffffffff16600073ffffffffffffffffffffffffffffffffffffffff167f74da04524d50c64947f5dd5381ef1a4dca5cba8ed1d816243f9e48aa0b5617ed60405160405180910390a380600160006101000a81548173ffffffffffffffffffffffffffffffffffffffff021916908373ffffffffffffffffffffffffffffffffffffffff16021790555050565b6000600260009054906101000a900473ffffffffffffffffffffffffffffffffffffffff1673ffffffffffffffffffffffffffffffffffffffff1663ebca1bd9836040518263ffffffff1660e01b8152600401808273ffffffffffffffffffffffffffffffffffffffff168152602001915050602060405180830381600087803b158015612c9357600080fd5b505af1158015612ca7573d6000803e3d6000fd5b505050506040513d6020811015612cbd57600080fd5b8101908080519060200190929190505050612d9f57600260009054906101000a900473ffffffffffffffffffffffffffffffffffffffff1673ffffffffffffffffffffffffffffffffffffffff16633758e6ce836040518263ffffffff1660e01b8152600401808273ffffffffffffffffffffffffffffffffffffffff168152602001915050602060405180830381600087803b158015612d5d57600080fd5b505af1158015612d71573d6000803e3d6000fd5b505050506040513d6020811015612d8757600080fd5b81019080805190602001909291905050509050612da0565b5b919050565b60008273ffffffffffffffffffffffffffffffffffffffff1663dd62ed3e30846040518363ffffffff1660e01b8152600401808373ffffffffffffffffffffffffffffffffffffffff1681526020018273ffffffffffffffffffffffffffffffffffffffff1681526020019250505060206040518083038186803b158015612e2c57600080fd5b505afa158015612e40573d6000803e3d6000fd5b505050506040513d6020811015612e5657600080fd5b81019080805190602001909291905050501415612f3b578173ffffffffffffffffffffffffffffffffffffffff1663095ea7b3827fffffffffffffffffffffffffffffffffffffffffffffffffffffffffffffffff6040518363ffffffff1660e01b8152600401808373ffffffffffffffffffffffffffffffffffffffff16815260200182815260200192505050602060405180830381600087803b158015612efe57600080fd5b505af1158015612f12573d6000803e3d6000fd5b505050506040513d6020811015612f2857600080fd5b8101908080519060200190929190505050505b5050565b600082821115612fb7576040517f08c379a000000000000000000000000000000000000000000000000000000000815260040180806020018281038252601e8152602001807f536166654d6174683a207375627472616374696f6e206f766572666c6f77000081525060200191505060405180910390fd5b81830390509291505056fe4f776e61626c653a206e6577206f776e657220697320746865207a65726f206164647265737341646472657373206e6f7420617070726f76656420666f72207461782066726565207472616e73666572736f70657261746f723a207a65726f206164647265737320676976656e20666f72206e6577206f70657261746f726f70657261746f723a2063616c6c6572206973206e6f7420746865206f70657261746f72a2646970667358221220b9d8cde33485b9cfff96f592714fbc9267e14fa7ed6bbe82b63687a11b736ae864736f6c634300060c0033",
  "immutableReferences": {},
  "source": "// SPDX-License-Identifier: MIT\n\npragma solidity 0.6.12;\n\nimport \"@openzeppelin/contracts/math/SafeMath.sol\";\nimport \"./owner/Operator.sol\";\nimport \"./interfaces/ITaxable.sol\";\nimport \"./interfaces/IUniswapV2Router.sol\";\nimport \"./interfaces/IERC20.sol\";\n\ncontract TaxOfficeV2 is Operator {\n    using SafeMath for uint256;\n\n    address public tomb = address(0xbd0BAf4EEcAF06d875B5c2F52CE7DbB97fb91891);\n    address public wftm = address(0xce0f6FD6f7970AD2a8eEea94731f3215De23f441);\n    address public uniRouter = address(0x7E2bd2A890B579AC12684000233869c7E3C882Ed);\n\n    mapping(address => bool) public taxExclusionEnabled;\n\n    function setTaxTiersTwap(uint8 _index, uint256 _value) public onlyOperator returns (bool) {\n        return ITaxable(tomb).setTaxTiersTwap(_index, _value);\n    }\n\n    function setTaxTiersRate(uint8 _index, uint256 _value) public onlyOperator returns (bool) {\n        return ITaxable(tomb).setTaxTiersRate(_index, _value);\n    }\n\n    function enableAutoCalculateTax() public onlyOperator {\n        ITaxable(tomb).enableAutoCalculateTax();\n    }\n\n    function disableAutoCalculateTax() public onlyOperator {\n        ITaxable(tomb).disableAutoCalculateTax();\n    }\n\n    function setTaxRate(uint256 _taxRate) public onlyOperator {\n        ITaxable(tomb).setTaxRate(_taxRate);\n    }\n\n    function setBurnThreshold(uint256 _burnThreshold) public onlyOperator {\n        ITaxable(tomb).setBurnThreshold(_burnThreshold);\n    }\n\n    function setTaxCollectorAddress(address _taxCollectorAddress) public onlyOperator {\n        ITaxable(tomb).setTaxCollectorAddress(_taxCollectorAddress);\n    }\n\n    function excludeAddressFromTax(address _address) external onlyOperator returns (bool) {\n        return _excludeAddressFromTax(_address);\n    }\n\n    function _excludeAddressFromTax(address _address) private returns (bool) {\n        if (!ITaxable(tomb).isAddressExcluded(_address)) {\n            return ITaxable(tomb).excludeAddress(_address);\n        }\n    }\n\n    function includeAddressInTax(address _address) external onlyOperator returns (bool) {\n        return _includeAddressInTax(_address);\n    }\n\n    function _includeAddressInTax(address _address) private returns (bool) {\n        if (ITaxable(tomb).isAddressExcluded(_address)) {\n            return ITaxable(tomb).includeAddress(_address);\n        }\n    }\n\n    function taxRate() external view returns (uint256) {\n        return ITaxable(tomb).taxRate();\n    }\n\n    function addLiquidityTaxFree(\n        address token,\n        uint256 amtTomb,\n        uint256 amtToken,\n        uint256 amtTombMin,\n        uint256 amtTokenMin\n    )\n        external\n        returns (\n            uint256,\n            uint256,\n            uint256\n        )\n    {\n        require(amtTomb != 0 && amtToken != 0, \"amounts can't be 0\");\n        _excludeAddressFromTax(msg.sender);\n\n        IERC20(tomb).transferFrom(msg.sender, address(this), amtTomb);\n        IERC20(token).transferFrom(msg.sender, address(this), amtToken);\n        _approveTokenIfNeeded(tomb, uniRouter);\n        _approveTokenIfNeeded(token, uniRouter);\n\n        _includeAddressInTax(msg.sender);\n\n        uint256 resultAmtTomb;\n        uint256 resultAmtToken;\n        uint256 liquidity;\n        (resultAmtTomb, resultAmtToken, liquidity) = IUniswapV2Router(uniRouter).addLiquidity(\n            tomb,\n            token,\n            amtTomb,\n            amtToken,\n            amtTombMin,\n            amtTokenMin,\n            msg.sender,\n            block.timestamp\n        );\n\n        if(amtTomb.sub(resultAmtTomb) > 0) {\n            IERC20(tomb).transfer(msg.sender, amtTomb.sub(resultAmtTomb));\n        }\n        if(amtToken.sub(resultAmtToken) > 0) {\n            IERC20(token).transfer(msg.sender, amtToken.sub(resultAmtToken));\n        }\n        return (resultAmtTomb, resultAmtToken, liquidity);\n    }\n\n    function addLiquidityETHTaxFree(\n        uint256 amtTomb,\n        uint256 amtTombMin,\n        uint256 amtFtmMin\n    )\n        external\n        payable\n        returns (\n            uint256,\n            uint256,\n            uint256\n        )\n    {\n        require(amtTomb != 0 && msg.value != 0, \"amounts can't be 0\");\n        _excludeAddressFromTax(msg.sender);\n\n        IERC20(tomb).transferFrom(msg.sender, address(this), amtTomb);\n        _approveTokenIfNeeded(tomb, uniRouter);\n\n        _includeAddressInTax(msg.sender);\n\n        uint256 resultAmtTomb;\n        uint256 resultAmtFtm;\n        uint256 liquidity;\n        (resultAmtTomb, resultAmtFtm, liquidity) = IUniswapV2Router(uniRouter).addLiquidityETH{value: msg.value}(\n            tomb,\n            amtTomb,\n            amtTombMin,\n            amtFtmMin,\n            msg.sender,\n            block.timestamp\n        );\n\n        if(amtTomb.sub(resultAmtTomb) > 0) {\n            IERC20(tomb).transfer(msg.sender, amtTomb.sub(resultAmtTomb));\n        }\n        return (resultAmtTomb, resultAmtFtm, liquidity);\n    }\n\n    function setTaxableTombOracle(address _tombOracle) external onlyOperator {\n        ITaxable(tomb).setTombOracle(_tombOracle);\n    }\n\n    function transferTaxOffice(address _newTaxOffice) external onlyOperator {\n        ITaxable(tomb).setTaxOffice(_newTaxOffice);\n    }\n\n    function taxFreeTransferFrom(\n        address _sender,\n        address _recipient,\n        uint256 _amt\n    ) external {\n        require(taxExclusionEnabled[msg.sender], \"Address not approved for tax free transfers\");\n        _excludeAddressFromTax(_sender);\n        IERC20(tomb).transferFrom(_sender, _recipient, _amt);\n        _includeAddressInTax(_sender);\n    }\n\n    function setTaxExclusionForAddress(address _address, bool _excluded) external onlyOperator {\n        taxExclusionEnabled[_address] = _excluded;\n    }\n\n    function _approveTokenIfNeeded(address _token, address _router) private {\n        if (IERC20(_token).allowance(address(this), _router) == 0) {\n            IERC20(_token).approve(_router, type(uint256).max);\n        }\n    }\n}\n",
  "sourcePath": "D:\\5xDEFI\\tomb-contract\\contracts\\TaxOfficeV2.sol",
  "compiler": {
    "name": "solc",
    "version": "0.6.12+commit.27d51765.Emscripten.clang"
  },
  "schemaVersion": "3.4.3",
  "updatedAt": "2022-03-04T03:11:57.464Z",
  "devdoc": {
    "kind": "dev",
    "methods": {
      "owner()": {
        "details": "Returns the address of the current owner."
      },
      "renounceOwnership()": {
        "details": "Leaves the contract without owner. It will not be possible to call `onlyOwner` functions anymore. Can only be called by the current owner. NOTE: Renouncing ownership will leave the contract without an owner, thereby removing any functionality that is only available to the owner."
      },
      "transferOwnership(address)": {
        "details": "Transfers ownership of the contract to a new account (`newOwner`). Can only be called by the current owner."
      }
    },
    "version": 1
  },
  "userdoc": {
    "kind": "user",
    "methods": {},
    "version": 1
  }
}