{
  "contractName": "TombRewardPool",
  "abi": [
    {
      "inputs": [
        {
          "internalType": "address",
          "name": "_tomb",
          "type": "address"
        },
        {
          "internalType": "uint256",
          "name": "_poolStartTime",
          "type": "uint256"
        }
      ],
      "stateMutability": "nonpayable",
      "type": "constructor"
    },
    {
      "anonymous": false,
      "inputs": [
        {
          "indexed": true,
          "internalType": "address",
          "name": "user",
          "type": "address"
        },
        {
          "indexed": true,
          "internalType": "uint256",
          "name": "pid",
          "type": "uint256"
        },
        {
          "indexed": false,
          "internalType": "uint256",
          "name": "amount",
          "type": "uint256"
        }
      ],
      "name": "Deposit",
      "type": "event"
    },
    {
      "anonymous": false,
      "inputs": [
        {
          "indexed": true,
          "internalType": "address",
          "name": "user",
          "type": "address"
        },
        {
          "indexed": true,
          "internalType": "uint256",
          "name": "pid",
          "type": "uint256"
        },
        {
          "indexed": false,
          "internalType": "uint256",
          "name": "amount",
          "type": "uint256"
        }
      ],
      "name": "EmergencyWithdraw",
      "type": "event"
    },
    {
      "anonymous": false,
      "inputs": [
        {
          "indexed": true,
          "internalType": "address",
          "name": "user",
          "type": "address"
        },
        {
          "indexed": false,
          "internalType": "uint256",
          "name": "amount",
          "type": "uint256"
        }
      ],
      "name": "RewardPaid",
      "type": "event"
    },
    {
      "anonymous": false,
      "inputs": [
        {
          "indexed": true,
          "internalType": "address",
          "name": "user",
          "type": "address"
        },
        {
          "indexed": true,
          "internalType": "uint256",
          "name": "pid",
          "type": "uint256"
        },
        {
          "indexed": false,
          "internalType": "uint256",
          "name": "amount",
          "type": "uint256"
        }
      ],
      "name": "Withdraw",
      "type": "event"
    },
    {
      "inputs": [
        {
          "internalType": "uint256",
          "name": "",
          "type": "uint256"
        }
      ],
      "name": "epochEndTimes",
      "outputs": [
        {
          "internalType": "uint256",
          "name": "",
          "type": "uint256"
        }
      ],
      "stateMutability": "view",
      "type": "function"
    },
    {
      "inputs": [
        {
          "internalType": "uint256",
          "name": "",
          "type": "uint256"
        }
      ],
      "name": "epochTombPerSecond",
      "outputs": [
        {
          "internalType": "uint256",
          "name": "",
          "type": "uint256"
        }
      ],
      "stateMutability": "view",
      "type": "function"
    },
    {
      "inputs": [
        {
          "internalType": "uint256",
          "name": "",
          "type": "uint256"
        }
      ],
      "name": "epochTotalRewards",
      "outputs": [
        {
          "internalType": "uint256",
          "name": "",
          "type": "uint256"
        }
      ],
      "stateMutability": "view",
      "type": "function"
    },
    {
      "inputs": [],
      "name": "operator",
      "outputs": [
        {
          "internalType": "address",
          "name": "",
          "type": "address"
        }
      ],
      "stateMutability": "view",
      "type": "function"
    },
    {
      "inputs": [
        {
          "internalType": "uint256",
          "name": "",
          "type": "uint256"
        }
      ],
      "name": "poolInfo",
      "outputs": [
        {
          "internalType": "contract IERC20",
          "name": "token",
          "type": "address"
        },
        {
          "internalType": "uint256",
          "name": "allocPoint",
          "type": "uint256"
        },
        {
          "internalType": "uint256",
          "name": "lastRewardTime",
          "type": "uint256"
        },
        {
          "internalType": "uint256",
          "name": "accTombPerShare",
          "type": "uint256"
        },
        {
          "internalType": "bool",
          "name": "isStarted",
          "type": "bool"
        }
      ],
      "stateMutability": "view",
      "type": "function"
    },
    {
      "inputs": [],
      "name": "poolStartTime",
      "outputs": [
        {
          "internalType": "uint256",
          "name": "",
          "type": "uint256"
        }
      ],
      "stateMutability": "view",
      "type": "function"
    },
    {
      "inputs": [],
      "name": "tomb",
      "outputs": [
        {
          "internalType": "contract IERC20",
          "name": "",
          "type": "address"
        }
      ],
      "stateMutability": "view",
      "type": "function"
    },
    {
      "inputs": [],
      "name": "totalAllocPoint",
      "outputs": [
        {
          "internalType": "uint256",
          "name": "",
          "type": "uint256"
        }
      ],
      "stateMutability": "view",
      "type": "function"
    },
    {
      "inputs": [
        {
          "internalType": "uint256",
          "name": "",
          "type": "uint256"
        },
        {
          "internalType": "address",
          "name": "",
          "type": "address"
        }
      ],
      "name": "userInfo",
      "outputs": [
        {
          "internalType": "uint256",
          "name": "amount",
          "type": "uint256"
        },
        {
          "internalType": "uint256",
          "name": "rewardDebt",
          "type": "uint256"
        }
      ],
      "stateMutability": "view",
      "type": "function"
    },
    {
      "inputs": [
        {
          "internalType": "uint256",
          "name": "_allocPoint",
          "type": "uint256"
        },
        {
          "internalType": "contract IERC20",
          "name": "_token",
          "type": "address"
        },
        {
          "internalType": "bool",
          "name": "_withUpdate",
          "type": "bool"
        },
        {
          "internalType": "uint256",
          "name": "_lastRewardTime",
          "type": "uint256"
        }
      ],
      "name": "add",
      "outputs": [],
      "stateMutability": "nonpayable",
      "type": "function"
    },
    {
      "inputs": [
        {
          "internalType": "uint256",
          "name": "_pid",
          "type": "uint256"
        },
        {
          "internalType": "uint256",
          "name": "_allocPoint",
          "type": "uint256"
        }
      ],
      "name": "set",
      "outputs": [],
      "stateMutability": "nonpayable",
      "type": "function"
    },
    {
      "inputs": [
        {
          "internalType": "uint256",
          "name": "_fromTime",
          "type": "uint256"
        },
        {
          "internalType": "uint256",
          "name": "_toTime",
          "type": "uint256"
        }
      ],
      "name": "getGeneratedReward",
      "outputs": [
        {
          "internalType": "uint256",
          "name": "",
          "type": "uint256"
        }
      ],
      "stateMutability": "view",
      "type": "function"
    },
    {
      "inputs": [
        {
          "internalType": "uint256",
          "name": "_pid",
          "type": "uint256"
        },
        {
          "internalType": "address",
          "name": "_user",
          "type": "address"
        }
      ],
      "name": "pendingTOMB",
      "outputs": [
        {
          "internalType": "uint256",
          "name": "",
          "type": "uint256"
        }
      ],
      "stateMutability": "view",
      "type": "function"
    },
    {
      "inputs": [],
      "name": "massUpdatePools",
      "outputs": [],
      "stateMutability": "nonpayable",
      "type": "function"
    },
    {
      "inputs": [
        {
          "internalType": "uint256",
          "name": "_pid",
          "type": "uint256"
        }
      ],
      "name": "updatePool",
      "outputs": [],
      "stateMutability": "nonpayable",
      "type": "function"
    },
    {
      "inputs": [
        {
          "internalType": "uint256",
          "name": "_pid",
          "type": "uint256"
        },
        {
          "internalType": "uint256",
          "name": "_amount",
          "type": "uint256"
        }
      ],
      "name": "deposit",
      "outputs": [],
      "stateMutability": "nonpayable",
      "type": "function"
    },
    {
      "inputs": [
        {
          "internalType": "uint256",
          "name": "_pid",
          "type": "uint256"
        },
        {
          "internalType": "uint256",
          "name": "_amount",
          "type": "uint256"
        }
      ],
      "name": "withdraw",
      "outputs": [],
      "stateMutability": "nonpayable",
      "type": "function"
    },
    {
      "inputs": [
        {
          "internalType": "uint256",
          "name": "_pid",
          "type": "uint256"
        }
      ],
      "name": "emergencyWithdraw",
      "outputs": [],
      "stateMutability": "nonpayable",
      "type": "function"
    },
    {
      "inputs": [
        {
          "internalType": "address",
          "name": "_operator",
          "type": "address"
        }
      ],
      "name": "setOperator",
      "outputs": [],
      "stateMutability": "nonpayable",
      "type": "function"
    },
    {
      "inputs": [
        {
          "internalType": "contract IERC20",
          "name": "_token",
          "type": "address"
        },
        {
          "internalType": "uint256",
          "name": "amount",
          "type": "uint256"
        },
        {
          "internalType": "address",
          "name": "to",
          "type": "address"
        }
      ],
      "name": "governanceRecoverUnsupported",
      "outputs": [],
      "stateMutability": "nonpayable",
      "type": "function"
    }
  ],
  "bytecode": "0x6080604052600060045560405180604001604052806910f0cf064dd59200000069ffffffffffffffffffff168152602001690cb49b44ba602d80000069ffffffffffffffffffff1681525060069060026200005c92919062000362565b503480156200006a57600080fd5b5060405162002a8238038062002a82833981810160405260408110156200009057600080fd5b81019080805190602001909291908051906020019092919050505080421062000121576040517f08c379a00000000000000000000000000000000000000000000000000000000081526004018080602001828103825260048152602001807f6c6174650000000000000000000000000000000000000000000000000000000081525060200191505060405180910390fd5b600073ffffffffffffffffffffffffffffffffffffffff168273ffffffffffffffffffffffffffffffffffffffff1614620001985781600160006101000a81548173ffffffffffffffffffffffffffffffffffffffff021916908373ffffffffffffffffffffffffffffffffffffffff1602179055505b8060058190555062054600600554016007600060038110620001b657fe5b0181905550620697806007600060038110620001ce57fe5b0154016007600160038110620001e057fe5b01819055506200021b620546006006600081548110620001fc57fe5b9060005260206000200154620002d760201b62001c301790919060201c565b600a6000600381106200022a57fe5b0181905550620002656206978060066001815481106200024657fe5b9060005260206000200154620002d760201b62001c301790919060201c565b600a6001600381106200027457fe5b01819055506000600a6002600381106200028a57fe5b0181905550336000806101000a81548173ffffffffffffffffffffffffffffffffffffffff021916908373ffffffffffffffffffffffffffffffffffffffff1602179055505050620003e1565b60008082116200034f576040517f08c379a000000000000000000000000000000000000000000000000000000000815260040180806020018281038252601a8152602001807f536166654d6174683a206469766973696f6e206279207a65726f00000000000081525060200191505060405180910390fd5b8183816200035957fe5b04905092915050565b828054828255906000526020600020908101928215620003af579160200282015b82811115620003ae578251829069ffffffffffffffffffff1690559160200191906001019062000383565b5b509050620003be9190620003c2565b5090565b5b80821115620003dd576000816000905550600101620003c3565b5090565b61269180620003f16000396000f3fe608060405234801561001057600080fd5b506004361061012c5760003560e01c8063630b5ba1116100ad5780639a25cefc116100715780639a25cefc14610518578063b3ab15fb1461055a578063b89e73c11461059e578063c040f23a146105e0578063e2bbb158146106145761012c565b8063630b5ba11461039d5780637704d44e146103a757806389744bb4146103e957806393f1a40b1461044b57806396805e54146104b45761012c565b806351eb05a6116100f457806351eb05a6146102815780635312ea8e146102af57806354575af4146102dd578063570ca7351461034b5780635f96dc111461037f5761012c565b80631526fe271461013157806317caf6f1146101a75780631ab06ee5146101c5578063231f0c6a146101fd578063441a3e7014610249575b600080fd5b61015d6004803603602081101561014757600080fd5b810190808035906020019092919050505061064c565b604051808673ffffffffffffffffffffffffffffffffffffffff16815260200185815260200184815260200183815260200182151581526020019550505050505060405180910390f35b6101af6106bc565b6040518082815260200191505060405180910390f35b6101fb600480360360408110156101db57600080fd5b8101908080359060200190929190803590602001909291905050506106c2565b005b6102336004803603604081101561021357600080fd5b8101908080359060200190929190803590602001909291905050506107e4565b6040518082815260200191505060405180910390f35b61027f6004803603604081101561025f57600080fd5b810190808035906020019092919080359060200190929190505050610ad5565b005b6102ad6004803603602081101561029757600080fd5b8101908080359060200190929190505050610d8d565b005b6102db600480360360208110156102c557600080fd5b8101908080359060200190929190505050610f9c565b005b610349600480360360608110156102f357600080fd5b81019080803573ffffffffffffffffffffffffffffffffffffffff16906020019092919080359060200190929190803573ffffffffffffffffffffffffffffffffffffffff1690602001909291905050506110d0565b005b61035361138d565b604051808273ffffffffffffffffffffffffffffffffffffffff16815260200191505060405180910390f35b6103876113b1565b6040518082815260200191505060405180910390f35b6103a56113b7565b005b6103d3600480360360208110156103bd57600080fd5b81019080803590602001909291905050506113e4565b6040518082815260200191505060405180910390f35b610435600480360360408110156103ff57600080fd5b8101908080359060200190929190803573ffffffffffffffffffffffffffffffffffffffff1690602001909291905050506113fc565b6040518082815260200191505060405180910390f35b6104976004803603604081101561046157600080fd5b8101908080359060200190929190803573ffffffffffffffffffffffffffffffffffffffff169060200190929190505050611634565b604051808381526020018281526020019250505060405180910390f35b610516600480360360808110156104ca57600080fd5b8101908080359060200190929190803573ffffffffffffffffffffffffffffffffffffffff16906020019092919080351515906020019092919080359060200190929190505050611665565b005b6105446004803603602081101561052e57600080fd5b810190808035906020019092919050505061189c565b6040518082815260200191505060405180910390f35b61059c6004803603602081101561057057600080fd5b81019080803573ffffffffffffffffffffffffffffffffffffffff1690602001909291905050506118bd565b005b6105ca600480360360208110156105b457600080fd5b81019080803590602001909291905050506119a4565b6040518082815260200191505060405180910390f35b6105e86119bc565b604051808273ffffffffffffffffffffffffffffffffffffffff16815260200191505060405180910390f35b61064a6004803603604081101561062a57600080fd5b8101908080359060200190929190803590602001909291905050506119e2565b005b6002818154811061065957fe5b90600052602060002090600502016000915090508060000160009054906101000a900473ffffffffffffffffffffffffffffffffffffffff16908060010154908060020154908060030154908060040160009054906101000a900460ff16905085565b60045481565b3373ffffffffffffffffffffffffffffffffffffffff1660008054906101000a900473ffffffffffffffffffffffffffffffffffffffff1673ffffffffffffffffffffffffffffffffffffffff1614610766576040517f08c379a000000000000000000000000000000000000000000000000000000000815260040180806020018281038252602a8152602001806125c1602a913960400191505060405180910390fd5b61076e6113b7565b60006002838154811061077d57fe5b906000526020600020906005020190508060040160009054906101000a900460ff16156107d6576107cf826107c18360010154600454611cb990919063ffffffff16565b611d3c90919063ffffffff16565b6004819055505b818160010181905550505050565b600080600290505b60018160ff1610610a975760076001820360ff166003811061080a57fe5b01548310610a8b5760076001820360ff166003811061082557fe5b0154841061086b57610863600a8260ff166003811061084057fe5b01546108558686611cb990919063ffffffff16565b611dc490919063ffffffff16565b915050610acf565b60006108b7600a8360ff166003811061088057fe5b01546108a960076001860360ff166003811061089857fe5b015487611cb990919063ffffffff16565b611dc490919063ffffffff16565b905060018260ff1614156109235761091a61090b600a6000600381106108d957fe5b01546108fd8860076000600381106108ed57fe5b0154611cb990919063ffffffff16565b611dc490919063ffffffff16565b82611d3c90919063ffffffff16565b92505050610acf565b6001820391505b60018260ff1610610a2d5760076001830360ff166003811061094857fe5b015485106109b2576109a961099a600a8460ff166003811061096657fe5b015461098c8860078760ff166003811061097c57fe5b0154611cb990919063ffffffff16565b611dc490919063ffffffff16565b82611d3c90919063ffffffff16565b92505050610acf565b610a1f610a10600a8460ff16600381106109c857fe5b0154610a0260076001870360ff16600381106109e057fe5b015460078760ff16600381106109f257fe5b0154611cb990919063ffffffff16565b611dc490919063ffffffff16565b82611d3c90919063ffffffff16565b90508160019003915061092a565b610a82610a73600a600060038110610a4157fe5b0154610a65886007600060038110610a5557fe5b0154611cb990919063ffffffff16565b611dc490919063ffffffff16565b82611d3c90919063ffffffff16565b92505050610acf565b806001900390506107ec565b50610acc600a600060038110610aa957fe5b0154610abe8585611cb990919063ffffffff16565b611dc490919063ffffffff16565b90505b92915050565b6000339050600060028481548110610ae957fe5b9060005260206000209060050201905060006003600086815260200190815260200160002060008473ffffffffffffffffffffffffffffffffffffffff1673ffffffffffffffffffffffffffffffffffffffff16815260200190815260200160002090508381600001541015610bc7576040517f08c379a00000000000000000000000000000000000000000000000000000000081526004018080602001828103825260128152602001807f77697468647261773a206e6f7420676f6f64000000000000000000000000000081525060200191505060405180910390fd5b610bd085610d8d565b6000610c1d8260010154610c0f670de0b6b3a7640000610c0187600301548760000154611dc490919063ffffffff16565b611c3090919063ffffffff16565b611cb990919063ffffffff16565b90506000811115610c8157610c328482611e4a565b8373ffffffffffffffffffffffffffffffffffffffff167fe2403640ba68fed3a2f88b7557551d1993f84b99bb10ff833f0cf8db0c5e0486826040518082815260200191505060405180910390a25b6000851115610cf957610ca1858360000154611cb990919063ffffffff16565b8260000181905550610cf884868560000160009054906101000a900473ffffffffffffffffffffffffffffffffffffffff1673ffffffffffffffffffffffffffffffffffffffff16611fc99092919063ffffffff16565b5b610d2e670de0b6b3a7640000610d2085600301548560000154611dc490919063ffffffff16565b611c3090919063ffffffff16565b8260010181905550858473ffffffffffffffffffffffffffffffffffffffff167ff279e6a1f5e320cca91135676d9cb6e44ca8a08c0b88342bcdb1144f6511b568876040518082815260200191505060405180910390a3505050505050565b600060028281548110610d9c57fe5b9060005260206000209060050201905080600201544211610dbd5750610f99565b60008160000160009054906101000a900473ffffffffffffffffffffffffffffffffffffffff1673ffffffffffffffffffffffffffffffffffffffff166370a08231306040518263ffffffff1660e01b8152600401808273ffffffffffffffffffffffffffffffffffffffff16815260200191505060206040518083038186803b158015610e4a57600080fd5b505afa158015610e5e573d6000803e3d6000fd5b505050506040513d6020811015610e7457600080fd5b810190808051906020019092919050505090506000811415610ea0574282600201819055505050610f99565b8160040160009054906101000a900460ff16610ef35760018260040160006101000a81548160ff021916908315150217905550610eec8260010154600454611d3c90919063ffffffff16565b6004819055505b60006004541115610f8d576000610f0e8360020154426107e4565b90506000610f3d600454610f2f866001015485611dc490919063ffffffff16565b611c3090919063ffffffff16565b9050610f82610f6f84610f61670de0b6b3a764000085611dc490919063ffffffff16565b611c3090919063ffffffff16565b8560030154611d3c90919063ffffffff16565b846003018190555050505b42826002018190555050505b50565b600060028281548110610fab57fe5b9060005260206000209060050201905060006003600084815260200190815260200160002060003373ffffffffffffffffffffffffffffffffffffffff1673ffffffffffffffffffffffffffffffffffffffff1681526020019081526020016000209050600081600001549050600082600001819055506000826001018190555061107b33828560000160009054906101000a900473ffffffffffffffffffffffffffffffffffffffff1673ffffffffffffffffffffffffffffffffffffffff16611fc99092919063ffffffff16565b833373ffffffffffffffffffffffffffffffffffffffff167fbb757047c2b5f3974fe26b7c10f732e7bce710b0952a71082702781e62ae0595836040518082815260200191505060405180910390a350505050565b3373ffffffffffffffffffffffffffffffffffffffff1660008054906101000a900473ffffffffffffffffffffffffffffffffffffffff1673ffffffffffffffffffffffffffffffffffffffff1614611174576040517f08c379a000000000000000000000000000000000000000000000000000000000815260040180806020018281038252602a8152602001806125c1602a913960400191505060405180910390fd5b62278d00600760016003811061118657fe5b01540142101561135d57600160009054906101000a900473ffffffffffffffffffffffffffffffffffffffff1673ffffffffffffffffffffffffffffffffffffffff168373ffffffffffffffffffffffffffffffffffffffff161415611254576040517f08c379a00000000000000000000000000000000000000000000000000000000081526004018080602001828103825260058152602001807f21746f6d6200000000000000000000000000000000000000000000000000000081525060200191505060405180910390fd5b6000600280549050905060005b8181101561135a5760006002828154811061127857fe5b906000526020600020906005020190508060000160009054906101000a900473ffffffffffffffffffffffffffffffffffffffff1673ffffffffffffffffffffffffffffffffffffffff168673ffffffffffffffffffffffffffffffffffffffff16141561134e576040517f08c379a000000000000000000000000000000000000000000000000000000000815260040180806020018281038252600b8152602001807f21706f6f6c2e746f6b656e00000000000000000000000000000000000000000081525060200191505060405180910390fd5b50806001019050611261565b50505b61138881838573ffffffffffffffffffffffffffffffffffffffff16611fc99092919063ffffffff16565b505050565b60008054906101000a900473ffffffffffffffffffffffffffffffffffffffff1681565b60055481565b6000600280549050905060005b818110156113e0576113d581610d8d565b8060010190506113c4565b5050565b600a81600381106113f157fe5b016000915090505481565b6000806002848154811061140c57fe5b9060005260206000209060050201905060006003600086815260200190815260200160002060008573ffffffffffffffffffffffffffffffffffffffff1673ffffffffffffffffffffffffffffffffffffffff168152602001908152602001600020905060008260030154905060008360000160009054906101000a900473ffffffffffffffffffffffffffffffffffffffff1673ffffffffffffffffffffffffffffffffffffffff166370a08231306040518263ffffffff1660e01b8152600401808273ffffffffffffffffffffffffffffffffffffffff16815260200191505060206040518083038186803b15801561150657600080fd5b505afa15801561151a573d6000803e3d6000fd5b505050506040513d602081101561153057600080fd5b81019080805190602001909291905050509050836002015442118015611557575060008114155b156115e157600061156c8560020154426107e4565b9050600061159b60045461158d886001015485611dc490919063ffffffff16565b611c3090919063ffffffff16565b90506115dc6115cd846115bf670de0b6b3a764000085611dc490919063ffffffff16565b611c3090919063ffffffff16565b85611d3c90919063ffffffff16565b935050505b611628836001015461161a670de0b6b3a764000061160c868860000154611dc490919063ffffffff16565b611c3090919063ffffffff16565b611cb990919063ffffffff16565b94505050505092915050565b6003602052816000526040600020602052806000526040600020600091509150508060000154908060010154905082565b3373ffffffffffffffffffffffffffffffffffffffff1660008054906101000a900473ffffffffffffffffffffffffffffffffffffffff1673ffffffffffffffffffffffffffffffffffffffff1614611709576040517f08c379a000000000000000000000000000000000000000000000000000000000815260040180806020018281038252602a8152602001806125c1602a913960400191505060405180910390fd5b6117128361206b565b8115611721576117206113b7565b5b60055442101561175457600081141561173e57600554905061174f565b60055481101561174e5760055490505b5b61176c565b600081148061176257504281105b1561176b574290505b5b60006005548211158061177f5750428211155b905060026040518060a001604052808673ffffffffffffffffffffffffffffffffffffffff16815260200187815260200184815260200160008152602001831515815250908060018154018082558091505060019003906000526020600020906005020160009091909190915060008201518160000160006101000a81548173ffffffffffffffffffffffffffffffffffffffff021916908373ffffffffffffffffffffffffffffffffffffffff16021790555060208201518160010155604082015181600201556060820151816003015560808201518160040160006101000a81548160ff021916908315150217905550505080156118955761188e85600454611d3c90919063ffffffff16565b6004819055505b5050505050565b600681815481106118a957fe5b906000526020600020016000915090505481565b3373ffffffffffffffffffffffffffffffffffffffff1660008054906101000a900473ffffffffffffffffffffffffffffffffffffffff1673ffffffffffffffffffffffffffffffffffffffff1614611961576040517f08c379a000000000000000000000000000000000000000000000000000000000815260040180806020018281038252602a8152602001806125c1602a913960400191505060405180910390fd5b806000806101000a81548173ffffffffffffffffffffffffffffffffffffffff021916908373ffffffffffffffffffffffffffffffffffffffff16021790555050565b600781600381106119b157fe5b016000915090505481565b600160009054906101000a900473ffffffffffffffffffffffffffffffffffffffff1681565b60003390506000600284815481106119f657fe5b9060005260206000209060050201905060006003600086815260200190815260200160002060008473ffffffffffffffffffffffffffffffffffffffff1673ffffffffffffffffffffffffffffffffffffffff1681526020019081526020016000209050611a6385610d8d565b600081600001541115611b23576000611abd8260010154611aaf670de0b6b3a7640000611aa187600301548760000154611dc490919063ffffffff16565b611c3090919063ffffffff16565b611cb990919063ffffffff16565b90506000811115611b2157611ad28482611e4a565b8373ffffffffffffffffffffffffffffffffffffffff167fe2403640ba68fed3a2f88b7557551d1993f84b99bb10ff833f0cf8db0c5e0486826040518082815260200191505060405180910390a25b505b6000841115611b9d57611b7d8330868560000160009054906101000a900473ffffffffffffffffffffffffffffffffffffffff1673ffffffffffffffffffffffffffffffffffffffff16612170909392919063ffffffff16565b611b94848260000154611d3c90919063ffffffff16565b81600001819055505b611bd2670de0b6b3a7640000611bc484600301548460000154611dc490919063ffffffff16565b611c3090919063ffffffff16565b8160010181905550848373ffffffffffffffffffffffffffffffffffffffff167f90890809c654f11d6e72a28fa60149770a0d11ec6c92319d6ceb2bb0a4ea1a15866040518082815260200191505060405180910390a35050505050565b6000808211611ca7576040517f08c379a000000000000000000000000000000000000000000000000000000000815260040180806020018281038252601a8152602001807f536166654d6174683a206469766973696f6e206279207a65726f00000000000081525060200191505060405180910390fd5b818381611cb057fe5b04905092915050565b600082821115611d31576040517f08c379a000000000000000000000000000000000000000000000000000000000815260040180806020018281038252601e8152602001807f536166654d6174683a207375627472616374696f6e206f766572666c6f77000081525060200191505060405180910390fd5b818303905092915050565b600080828401905083811015611dba576040517f08c379a000000000000000000000000000000000000000000000000000000000815260040180806020018281038252601b8152602001807f536166654d6174683a206164646974696f6e206f766572666c6f77000000000081525060200191505060405180910390fd5b8091505092915050565b600080831415611dd75760009050611e44565b6000828402905082848281611de857fe5b0414611e3f576040517f08c379a00000000000000000000000000000000000000000000000000000000081526004018080602001828103825260218152602001806126116021913960400191505060405180910390fd5b809150505b92915050565b6000600160009054906101000a900473ffffffffffffffffffffffffffffffffffffffff1673ffffffffffffffffffffffffffffffffffffffff166370a08231306040518263ffffffff1660e01b8152600401808273ffffffffffffffffffffffffffffffffffffffff16815260200191505060206040518083038186803b158015611ed557600080fd5b505afa158015611ee9573d6000803e3d6000fd5b505050506040513d6020811015611eff57600080fd5b810190808051906020019092919050505090506000811115611fc45780821115611f7557611f708382600160009054906101000a900473ffffffffffffffffffffffffffffffffffffffff1673ffffffffffffffffffffffffffffffffffffffff16611fc99092919063ffffffff16565b611fc3565b611fc28383600160009054906101000a900473ffffffffffffffffffffffffffffffffffffffff1673ffffffffffffffffffffffffffffffffffffffff16611fc99092919063ffffffff16565b5b5b505050565b6120668363a9059cbb60e01b8484604051602401808373ffffffffffffffffffffffffffffffffffffffff16815260200182815260200192505050604051602081830303815290604052907bffffffffffffffffffffffffffffffffffffffffffffffffffffffff19166020820180517bffffffffffffffffffffffffffffffffffffffffffffffffffffffff8381831617835250505050612231565b505050565b6000600280549050905060005b8181101561216b578273ffffffffffffffffffffffffffffffffffffffff16600282815481106120a457fe5b906000526020600020906005020160000160009054906101000a900473ffffffffffffffffffffffffffffffffffffffff1673ffffffffffffffffffffffffffffffffffffffff161415612160576040517f08c379a000000000000000000000000000000000000000000000000000000000815260040180806020018281038252601e8152602001807f546f6d62526577617264506f6f6c3a206578697374696e6720706f6f6c3f000081525060200191505060405180910390fd5b806001019050612078565b505050565b61222b846323b872dd60e01b858585604051602401808473ffffffffffffffffffffffffffffffffffffffff1681526020018373ffffffffffffffffffffffffffffffffffffffff1681526020018281526020019350505050604051602081830303815290604052907bffffffffffffffffffffffffffffffffffffffffffffffffffffffff19166020820180517bffffffffffffffffffffffffffffffffffffffffffffffffffffffff8381831617835250505050612231565b50505050565b6060612293826040518060400160405280602081526020017f5361666545524332303a206c6f772d6c6576656c2063616c6c206661696c65648152508573ffffffffffffffffffffffffffffffffffffffff166123209092919063ffffffff16565b905060008151111561231b578080602001905160208110156122b457600080fd5b810190808051906020019092919050505061231a576040517f08c379a000000000000000000000000000000000000000000000000000000000815260040180806020018281038252602a815260200180612632602a913960400191505060405180910390fd5b5b505050565b606061232f8484600085612338565b90509392505050565b606082471015612393576040517f08c379a00000000000000000000000000000000000000000000000000000000081526004018080602001828103825260268152602001806125eb6026913960400191505060405180910390fd5b61239c856124e1565b61240e576040517f08c379a000000000000000000000000000000000000000000000000000000000815260040180806020018281038252601d8152602001807f416464726573733a2063616c6c20746f206e6f6e2d636f6e747261637400000081525060200191505060405180910390fd5b600060608673ffffffffffffffffffffffffffffffffffffffff1685876040518082805190602001908083835b6020831061245e578051825260208201915060208101905060208303925061243b565b6001836020036101000a03801982511681845116808217855250505050505090500191505060006040518083038185875af1925050503d80600081146124c0576040519150601f19603f3d011682016040523d82523d6000602084013e6124c5565b606091505b50915091506124d58282866124f4565b92505050949350505050565b600080823b905060008111915050919050565b60608315612504578290506125b9565b6000835111156125175782518084602001fd5b816040517f08c379a00000000000000000000000000000000000000000000000000000000081526004018080602001828103825283818151815260200191508051906020019080838360005b8381101561257e578082015181840152602081019050612563565b50505050905090810190601f1680156125ab5780820380516001836020036101000a031916815260200191505b509250505060405180910390fd5b939250505056fe546f6d62526577617264506f6f6c3a2063616c6c6572206973206e6f7420746865206f70657261746f72416464726573733a20696e73756666696369656e742062616c616e636520666f722063616c6c536166654d6174683a206d756c7469706c69636174696f6e206f766572666c6f775361666545524332303a204552433230206f7065726174696f6e20646964206e6f742073756363656564a26469706673582212206bebbadb1377268e3703591494dd664cce28dc469e6a33407a4724c5c814a55f64736f6c634300060c0033",
  "immutableReferences": {},
  "source": "// SPDX-License-Identifier: MIT\n\npragma solidity 0.6.12;\n\nimport \"@openzeppelin/contracts/token/ERC20/IERC20.sol\";\nimport \"@openzeppelin/contracts/token/ERC20/SafeERC20.sol\";\nimport \"@openzeppelin/contracts/math/SafeMath.sol\";\n\n// Note that this pool has no minter key of TOMB (rewards).\n// Instead, the governance will call TOMB distributeReward method and send reward to this pool at the beginning.\ncontract TombRewardPool {\n    using SafeMath for uint256;\n    using SafeERC20 for IERC20;\n\n    // governance\n    address public operator;\n\n    // Info of each user.\n    struct UserInfo {\n        uint256 amount; // How many LP tokens the user has provided.\n        uint256 rewardDebt; // Reward debt. See explanation below.\n    }\n\n    // Info of each pool.\n    struct PoolInfo {\n        IERC20 token; // Address of LP token contract.\n        uint256 allocPoint; // How many allocation points assigned to this pool. TOMBs to distribute in the pool.\n        uint256 lastRewardTime; // Last time that TOMBs distribution occurred.\n        uint256 accTombPerShare; // Accumulated TOMBs per share, times 1e18. See below.\n        bool isStarted; // if lastRewardTime has passed\n    }\n\n    IERC20 public tomb;\n\n    // Info of each pool.\n    PoolInfo[] public poolInfo;\n\n    // Info of each user that stakes LP tokens.\n    mapping(uint256 => mapping(address => UserInfo)) public userInfo;\n\n    // Total allocation points. Must be the sum of all allocation points in all pools.\n    uint256 public totalAllocPoint = 0;\n\n    // The time when TOMB mining starts.\n    uint256 public poolStartTime;\n\n    uint256[] public epochTotalRewards = [80000 ether, 60000 ether];\n\n    // Time when each epoch ends.\n    uint256[3] public epochEndTimes;\n\n    // Reward per second for each of 2 epochs (last item is equal to 0 - for sanity).\n    uint256[3] public epochTombPerSecond;\n\n    event Deposit(address indexed user, uint256 indexed pid, uint256 amount);\n    event Withdraw(address indexed user, uint256 indexed pid, uint256 amount);\n    event EmergencyWithdraw(address indexed user, uint256 indexed pid, uint256 amount);\n    event RewardPaid(address indexed user, uint256 amount);\n\n    constructor(address _tomb, uint256 _poolStartTime) public {\n        require(block.timestamp < _poolStartTime, \"late\");\n        if (_tomb != address(0)) tomb = IERC20(_tomb);\n\n        poolStartTime = _poolStartTime;\n\n        epochEndTimes[0] = poolStartTime + 4 days; // Day 2-5\n        epochEndTimes[1] = epochEndTimes[0] + 5 days; // Day 6-10\n\n        epochTombPerSecond[0] = epochTotalRewards[0].div(4 days);\n        epochTombPerSecond[1] = epochTotalRewards[1].div(5 days);\n\n        epochTombPerSecond[2] = 0;\n        operator = msg.sender;\n    }\n\n    modifier onlyOperator() {\n        require(operator == msg.sender, \"TombRewardPool: caller is not the operator\");\n        _;\n    }\n\n    function checkPoolDuplicate(IERC20 _token) internal view {\n        uint256 length = poolInfo.length;\n        for (uint256 pid = 0; pid < length; ++pid) {\n            require(poolInfo[pid].token != _token, \"TombRewardPool: existing pool?\");\n        }\n    }\n\n    // Add a new token to the pool. Can only be called by the owner.\n    function add(\n        uint256 _allocPoint,\n        IERC20 _token,\n        bool _withUpdate,\n        uint256 _lastRewardTime\n    ) public onlyOperator {\n        checkPoolDuplicate(_token);\n        if (_withUpdate) {\n            massUpdatePools();\n        }\n        if (block.timestamp < poolStartTime) {\n            // chef is sleeping\n            if (_lastRewardTime == 0) {\n                _lastRewardTime = poolStartTime;\n            } else {\n                if (_lastRewardTime < poolStartTime) {\n                    _lastRewardTime = poolStartTime;\n                }\n            }\n        } else {\n            // chef is cooking\n            if (_lastRewardTime == 0 || _lastRewardTime < block.timestamp) {\n                _lastRewardTime = block.timestamp;\n            }\n        }\n        bool _isStarted = (_lastRewardTime <= poolStartTime) || (_lastRewardTime <= block.timestamp);\n        poolInfo.push(PoolInfo({token: _token, allocPoint: _allocPoint, lastRewardTime: _lastRewardTime, accTombPerShare: 0, isStarted: _isStarted}));\n        if (_isStarted) {\n            totalAllocPoint = totalAllocPoint.add(_allocPoint);\n        }\n    }\n\n    // Update the given pool's TOMB allocation point. Can only be called by the owner.\n    function set(uint256 _pid, uint256 _allocPoint) public onlyOperator {\n        massUpdatePools();\n        PoolInfo storage pool = poolInfo[_pid];\n        if (pool.isStarted) {\n            totalAllocPoint = totalAllocPoint.sub(pool.allocPoint).add(_allocPoint);\n        }\n        pool.allocPoint = _allocPoint;\n    }\n\n    // Return accumulate rewards over the given _fromTime to _toTime.\n    function getGeneratedReward(uint256 _fromTime, uint256 _toTime) public view returns (uint256) {\n        for (uint8 epochId = 2; epochId >= 1; --epochId) {\n            if (_toTime >= epochEndTimes[epochId - 1]) {\n                if (_fromTime >= epochEndTimes[epochId - 1]) {\n                    return _toTime.sub(_fromTime).mul(epochTombPerSecond[epochId]);\n                }\n\n                uint256 _generatedReward = _toTime.sub(epochEndTimes[epochId - 1]).mul(epochTombPerSecond[epochId]);\n                if (epochId == 1) {\n                    return _generatedReward.add(epochEndTimes[0].sub(_fromTime).mul(epochTombPerSecond[0]));\n                }\n                for (epochId = epochId - 1; epochId >= 1; --epochId) {\n                    if (_fromTime >= epochEndTimes[epochId - 1]) {\n                        return _generatedReward.add(epochEndTimes[epochId].sub(_fromTime).mul(epochTombPerSecond[epochId]));\n                    }\n                    _generatedReward = _generatedReward.add(epochEndTimes[epochId].sub(epochEndTimes[epochId - 1]).mul(epochTombPerSecond[epochId]));\n                }\n                return _generatedReward.add(epochEndTimes[0].sub(_fromTime).mul(epochTombPerSecond[0]));\n            }\n        }\n        return _toTime.sub(_fromTime).mul(epochTombPerSecond[0]);\n    }\n\n    // View function to see pending TOMBs on frontend.\n    function pendingTOMB(uint256 _pid, address _user) external view returns (uint256) {\n        PoolInfo storage pool = poolInfo[_pid];\n        UserInfo storage user = userInfo[_pid][_user];\n        uint256 accTombPerShare = pool.accTombPerShare;\n        uint256 tokenSupply = pool.token.balanceOf(address(this));\n        if (block.timestamp > pool.lastRewardTime && tokenSupply != 0) {\n            uint256 _generatedReward = getGeneratedReward(pool.lastRewardTime, block.timestamp);\n            uint256 _tombReward = _generatedReward.mul(pool.allocPoint).div(totalAllocPoint);\n            accTombPerShare = accTombPerShare.add(_tombReward.mul(1e18).div(tokenSupply));\n        }\n        return user.amount.mul(accTombPerShare).div(1e18).sub(user.rewardDebt);\n    }\n\n    // Update reward variables for all pools. Be careful of gas spending!\n    function massUpdatePools() public {\n        uint256 length = poolInfo.length;\n        for (uint256 pid = 0; pid < length; ++pid) {\n            updatePool(pid);\n        }\n    }\n\n    // Update reward variables of the given pool to be up-to-date.\n    function updatePool(uint256 _pid) public {\n        PoolInfo storage pool = poolInfo[_pid];\n        if (block.timestamp <= pool.lastRewardTime) {\n            return;\n        }\n        uint256 tokenSupply = pool.token.balanceOf(address(this));\n        if (tokenSupply == 0) {\n            pool.lastRewardTime = block.timestamp;\n            return;\n        }\n        if (!pool.isStarted) {\n            pool.isStarted = true;\n            totalAllocPoint = totalAllocPoint.add(pool.allocPoint);\n        }\n        if (totalAllocPoint > 0) {\n            uint256 _generatedReward = getGeneratedReward(pool.lastRewardTime, block.timestamp);\n            uint256 _tombReward = _generatedReward.mul(pool.allocPoint).div(totalAllocPoint);\n            pool.accTombPerShare = pool.accTombPerShare.add(_tombReward.mul(1e18).div(tokenSupply));\n        }\n        pool.lastRewardTime = block.timestamp;\n    }\n\n    // Deposit LP tokens.\n    function deposit(uint256 _pid, uint256 _amount) public {\n        address _sender = msg.sender;\n        PoolInfo storage pool = poolInfo[_pid];\n        UserInfo storage user = userInfo[_pid][_sender];\n        updatePool(_pid);\n        if (user.amount > 0) {\n            uint256 _pending = user.amount.mul(pool.accTombPerShare).div(1e18).sub(user.rewardDebt);\n            if (_pending > 0) {\n                safeTombTransfer(_sender, _pending);\n                emit RewardPaid(_sender, _pending);\n            }\n        }\n        if (_amount > 0) {\n            pool.token.safeTransferFrom(_sender, address(this), _amount);\n            user.amount = user.amount.add(_amount);\n        }\n        user.rewardDebt = user.amount.mul(pool.accTombPerShare).div(1e18);\n        emit Deposit(_sender, _pid, _amount);\n    }\n\n    // Withdraw LP tokens.\n    function withdraw(uint256 _pid, uint256 _amount) public {\n        address _sender = msg.sender;\n        PoolInfo storage pool = poolInfo[_pid];\n        UserInfo storage user = userInfo[_pid][_sender];\n        require(user.amount >= _amount, \"withdraw: not good\");\n        updatePool(_pid);\n        uint256 _pending = user.amount.mul(pool.accTombPerShare).div(1e18).sub(user.rewardDebt);\n        if (_pending > 0) {\n            safeTombTransfer(_sender, _pending);\n            emit RewardPaid(_sender, _pending);\n        }\n        if (_amount > 0) {\n            user.amount = user.amount.sub(_amount);\n            pool.token.safeTransfer(_sender, _amount);\n        }\n        user.rewardDebt = user.amount.mul(pool.accTombPerShare).div(1e18);\n        emit Withdraw(_sender, _pid, _amount);\n    }\n\n    // Withdraw without caring about rewards. EMERGENCY ONLY.\n    function emergencyWithdraw(uint256 _pid) public {\n        PoolInfo storage pool = poolInfo[_pid];\n        UserInfo storage user = userInfo[_pid][msg.sender];\n        uint256 _amount = user.amount;\n        user.amount = 0;\n        user.rewardDebt = 0;\n        pool.token.safeTransfer(msg.sender, _amount);\n        emit EmergencyWithdraw(msg.sender, _pid, _amount);\n    }\n\n    // Safe tomb transfer function, just in case if rounding error causes pool to not have enough TOMBs.\n    function safeTombTransfer(address _to, uint256 _amount) internal {\n        uint256 _tombBal = tomb.balanceOf(address(this));\n        if (_tombBal > 0) {\n            if (_amount > _tombBal) {\n                tomb.safeTransfer(_to, _tombBal);\n            } else {\n                tomb.safeTransfer(_to, _amount);\n            }\n        }\n    }\n\n    function setOperator(address _operator) external onlyOperator {\n        operator = _operator;\n    }\n\n    function governanceRecoverUnsupported(\n        IERC20 _token,\n        uint256 amount,\n        address to\n    ) external onlyOperator {\n        if (block.timestamp < epochEndTimes[1] + 30 days) {\n            // do not allow to drain token if less than 30 days after farming\n            require(_token != tomb, \"!tomb\");\n            uint256 length = poolInfo.length;\n            for (uint256 pid = 0; pid < length; ++pid) {\n                PoolInfo storage pool = poolInfo[pid];\n                require(_token != pool.token, \"!pool.token\");\n            }\n        }\n        _token.safeTransfer(to, amount);\n    }\n}\n",
  "sourcePath": "D:\\5xDEFI\\tomb-contract\\contracts\\distribution\\TombRewardPool.sol",
  "compiler": {
    "name": "solc",
    "version": "0.6.12+commit.27d51765.Emscripten.clang"
  },
  "schemaVersion": "3.4.3",
  "updatedAt": "2022-03-04T03:11:57.547Z",
  "devdoc": {
    "kind": "dev",
    "methods": {},
    "version": 1
  },
  "userdoc": {
    "kind": "user",
    "methods": {},
    "version": 1
  }
}