{
  "contractName": "Treasury",
  "abi": [
    {
      "anonymous": false,
      "inputs": [
        {
          "indexed": true,
          "internalType": "address",
          "name": "from",
          "type": "address"
        },
        {
          "indexed": false,
          "internalType": "uint256",
          "name": "tombAmount",
          "type": "uint256"
        },
        {
          "indexed": false,
          "internalType": "uint256",
          "name": "bondAmount",
          "type": "uint256"
        }
      ],
      "name": "BoughtBonds",
      "type": "event"
    },
    {
      "anonymous": false,
      "inputs": [
        {
          "indexed": true,
          "internalType": "address",
          "name": "from",
          "type": "address"
        },
        {
          "indexed": false,
          "internalType": "uint256",
          "name": "bondAmount",
          "type": "uint256"
        }
      ],
      "name": "BurnedBonds",
      "type": "event"
    },
    {
      "anonymous": false,
      "inputs": [
        {
          "indexed": false,
          "internalType": "uint256",
          "name": "timestamp",
          "type": "uint256"
        },
        {
          "indexed": false,
          "internalType": "uint256",
          "name": "seigniorage",
          "type": "uint256"
        }
      ],
      "name": "DaoFundFunded",
      "type": "event"
    },
    {
      "anonymous": false,
      "inputs": [
        {
          "indexed": false,
          "internalType": "uint256",
          "name": "timestamp",
          "type": "uint256"
        },
        {
          "indexed": false,
          "internalType": "uint256",
          "name": "seigniorage",
          "type": "uint256"
        }
      ],
      "name": "DevFundFunded",
      "type": "event"
    },
    {
      "anonymous": false,
      "inputs": [
        {
          "indexed": true,
          "internalType": "address",
          "name": "executor",
          "type": "address"
        },
        {
          "indexed": false,
          "internalType": "uint256",
          "name": "at",
          "type": "uint256"
        }
      ],
      "name": "Initialized",
      "type": "event"
    },
    {
      "anonymous": false,
      "inputs": [
        {
          "indexed": false,
          "internalType": "uint256",
          "name": "timestamp",
          "type": "uint256"
        },
        {
          "indexed": false,
          "internalType": "uint256",
          "name": "seigniorage",
          "type": "uint256"
        }
      ],
      "name": "MasonryFunded",
      "type": "event"
    },
    {
      "anonymous": false,
      "inputs": [
        {
          "indexed": true,
          "internalType": "address",
          "name": "from",
          "type": "address"
        },
        {
          "indexed": false,
          "internalType": "uint256",
          "name": "tombAmount",
          "type": "uint256"
        },
        {
          "indexed": false,
          "internalType": "uint256",
          "name": "bondAmount",
          "type": "uint256"
        }
      ],
      "name": "RedeemedBonds",
      "type": "event"
    },
    {
      "anonymous": false,
      "inputs": [
        {
          "indexed": false,
          "internalType": "uint256",
          "name": "timestamp",
          "type": "uint256"
        },
        {
          "indexed": false,
          "internalType": "uint256",
          "name": "seigniorage",
          "type": "uint256"
        }
      ],
      "name": "TreasuryFunded",
      "type": "event"
    },
    {
      "inputs": [],
      "name": "PERIOD",
      "outputs": [
        {
          "internalType": "uint256",
          "name": "",
          "type": "uint256"
        }
      ],
      "stateMutability": "view",
      "type": "function"
    },
    {
      "inputs": [],
      "name": "bondDepletionFloorPercent",
      "outputs": [
        {
          "internalType": "uint256",
          "name": "",
          "type": "uint256"
        }
      ],
      "stateMutability": "view",
      "type": "function"
    },
    {
      "inputs": [],
      "name": "bootstrapEpochs",
      "outputs": [
        {
          "internalType": "uint256",
          "name": "",
          "type": "uint256"
        }
      ],
      "stateMutability": "view",
      "type": "function"
    },
    {
      "inputs": [],
      "name": "bootstrapSupplyExpansionPercent",
      "outputs": [
        {
          "internalType": "uint256",
          "name": "",
          "type": "uint256"
        }
      ],
      "stateMutability": "view",
      "type": "function"
    },
    {
      "inputs": [],
      "name": "daoFund",
      "outputs": [
        {
          "internalType": "address",
          "name": "",
          "type": "address"
        }
      ],
      "stateMutability": "view",
      "type": "function"
    },
    {
      "inputs": [],
      "name": "daoFundSharedPercent",
      "outputs": [
        {
          "internalType": "uint256",
          "name": "",
          "type": "uint256"
        }
      ],
      "stateMutability": "view",
      "type": "function"
    },
    {
      "inputs": [],
      "name": "devFund",
      "outputs": [
        {
          "internalType": "address",
          "name": "",
          "type": "address"
        }
      ],
      "stateMutability": "view",
      "type": "function"
    },
    {
      "inputs": [],
      "name": "devFundSharedPercent",
      "outputs": [
        {
          "internalType": "uint256",
          "name": "",
          "type": "uint256"
        }
      ],
      "stateMutability": "view",
      "type": "function"
    },
    {
      "inputs": [],
      "name": "discountPercent",
      "outputs": [
        {
          "internalType": "uint256",
          "name": "",
          "type": "uint256"
        }
      ],
      "stateMutability": "view",
      "type": "function"
    },
    {
      "inputs": [],
      "name": "epoch",
      "outputs": [
        {
          "internalType": "uint256",
          "name": "",
          "type": "uint256"
        }
      ],
      "stateMutability": "view",
      "type": "function"
    },
    {
      "inputs": [],
      "name": "epochSupplyContractionLeft",
      "outputs": [
        {
          "internalType": "uint256",
          "name": "",
          "type": "uint256"
        }
      ],
      "stateMutability": "view",
      "type": "function"
    },
    {
      "inputs": [
        {
          "internalType": "uint256",
          "name": "",
          "type": "uint256"
        }
      ],
      "name": "excludedFromTotalSupply",
      "outputs": [
        {
          "internalType": "address",
          "name": "",
          "type": "address"
        }
      ],
      "stateMutability": "view",
      "type": "function"
    },
    {
      "inputs": [],
      "name": "initialized",
      "outputs": [
        {
          "internalType": "bool",
          "name": "",
          "type": "bool"
        }
      ],
      "stateMutability": "view",
      "type": "function"
    },
    {
      "inputs": [],
      "name": "masonry",
      "outputs": [
        {
          "internalType": "address",
          "name": "",
          "type": "address"
        }
      ],
      "stateMutability": "view",
      "type": "function"
    },
    {
      "inputs": [],
      "name": "maxDebtRatioPercent",
      "outputs": [
        {
          "internalType": "uint256",
          "name": "",
          "type": "uint256"
        }
      ],
      "stateMutability": "view",
      "type": "function"
    },
    {
      "inputs": [],
      "name": "maxDiscountRate",
      "outputs": [
        {
          "internalType": "uint256",
          "name": "",
          "type": "uint256"
        }
      ],
      "stateMutability": "view",
      "type": "function"
    },
    {
      "inputs": [
        {
          "internalType": "uint256",
          "name": "",
          "type": "uint256"
        }
      ],
      "name": "maxExpansionTiers",
      "outputs": [
        {
          "internalType": "uint256",
          "name": "",
          "type": "uint256"
        }
      ],
      "stateMutability": "view",
      "type": "function"
    },
    {
      "inputs": [],
      "name": "maxPremiumRate",
      "outputs": [
        {
          "internalType": "uint256",
          "name": "",
          "type": "uint256"
        }
      ],
      "stateMutability": "view",
      "type": "function"
    },
    {
      "inputs": [],
      "name": "maxSupplyContractionPercent",
      "outputs": [
        {
          "internalType": "uint256",
          "name": "",
          "type": "uint256"
        }
      ],
      "stateMutability": "view",
      "type": "function"
    },
    {
      "inputs": [],
      "name": "maxSupplyExpansionPercent",
      "outputs": [
        {
          "internalType": "uint256",
          "name": "",
          "type": "uint256"
        }
      ],
      "stateMutability": "view",
      "type": "function"
    },
    {
      "inputs": [],
      "name": "mintingFactorForPayingDebt",
      "outputs": [
        {
          "internalType": "uint256",
          "name": "",
          "type": "uint256"
        }
      ],
      "stateMutability": "view",
      "type": "function"
    },
    {
      "inputs": [],
      "name": "operator",
      "outputs": [
        {
          "internalType": "address",
          "name": "",
          "type": "address"
        }
      ],
      "stateMutability": "view",
      "type": "function"
    },
    {
      "inputs": [],
      "name": "premiumPercent",
      "outputs": [
        {
          "internalType": "uint256",
          "name": "",
          "type": "uint256"
        }
      ],
      "stateMutability": "view",
      "type": "function"
    },
    {
      "inputs": [],
      "name": "premiumThreshold",
      "outputs": [
        {
          "internalType": "uint256",
          "name": "",
          "type": "uint256"
        }
      ],
      "stateMutability": "view",
      "type": "function"
    },
    {
      "inputs": [],
      "name": "previousEpochTombPrice",
      "outputs": [
        {
          "internalType": "uint256",
          "name": "",
          "type": "uint256"
        }
      ],
      "stateMutability": "view",
      "type": "function"
    },
    {
      "inputs": [],
      "name": "seigniorageExpansionFloorPercent",
      "outputs": [
        {
          "internalType": "uint256",
          "name": "",
          "type": "uint256"
        }
      ],
      "stateMutability": "view",
      "type": "function"
    },
    {
      "inputs": [],
      "name": "seigniorageSaved",
      "outputs": [
        {
          "internalType": "uint256",
          "name": "",
          "type": "uint256"
        }
      ],
      "stateMutability": "view",
      "type": "function"
    },
    {
      "inputs": [],
      "name": "startTime",
      "outputs": [
        {
          "internalType": "uint256",
          "name": "",
          "type": "uint256"
        }
      ],
      "stateMutability": "view",
      "type": "function"
    },
    {
      "inputs": [
        {
          "internalType": "uint256",
          "name": "",
          "type": "uint256"
        }
      ],
      "name": "supplyTiers",
      "outputs": [
        {
          "internalType": "uint256",
          "name": "",
          "type": "uint256"
        }
      ],
      "stateMutability": "view",
      "type": "function"
    },
    {
      "inputs": [],
      "name": "tbond",
      "outputs": [
        {
          "internalType": "address",
          "name": "",
          "type": "address"
        }
      ],
      "stateMutability": "view",
      "type": "function"
    },
    {
      "inputs": [],
      "name": "tomb",
      "outputs": [
        {
          "internalType": "address",
          "name": "",
          "type": "address"
        }
      ],
      "stateMutability": "view",
      "type": "function"
    },
    {
      "inputs": [],
      "name": "tombOracle",
      "outputs": [
        {
          "internalType": "address",
          "name": "",
          "type": "address"
        }
      ],
      "stateMutability": "view",
      "type": "function"
    },
    {
      "inputs": [],
      "name": "tombPriceCeiling",
      "outputs": [
        {
          "internalType": "uint256",
          "name": "",
          "type": "uint256"
        }
      ],
      "stateMutability": "view",
      "type": "function"
    },
    {
      "inputs": [],
      "name": "tombPriceOne",
      "outputs": [
        {
          "internalType": "uint256",
          "name": "",
          "type": "uint256"
        }
      ],
      "stateMutability": "view",
      "type": "function"
    },
    {
      "inputs": [],
      "name": "tshare",
      "outputs": [
        {
          "internalType": "address",
          "name": "",
          "type": "address"
        }
      ],
      "stateMutability": "view",
      "type": "function"
    },
    {
      "inputs": [],
      "name": "isInitialized",
      "outputs": [
        {
          "internalType": "bool",
          "name": "",
          "type": "bool"
        }
      ],
      "stateMutability": "view",
      "type": "function"
    },
    {
      "inputs": [],
      "name": "nextEpochPoint",
      "outputs": [
        {
          "internalType": "uint256",
          "name": "",
          "type": "uint256"
        }
      ],
      "stateMutability": "view",
      "type": "function"
    },
    {
      "inputs": [],
      "name": "getTombPrice",
      "outputs": [
        {
          "internalType": "uint256",
          "name": "tombPrice",
          "type": "uint256"
        }
      ],
      "stateMutability": "view",
      "type": "function"
    },
    {
      "inputs": [],
      "name": "getTombUpdatedPrice",
      "outputs": [
        {
          "internalType": "uint256",
          "name": "_tombPrice",
          "type": "uint256"
        }
      ],
      "stateMutability": "view",
      "type": "function"
    },
    {
      "inputs": [],
      "name": "getReserve",
      "outputs": [
        {
          "internalType": "uint256",
          "name": "",
          "type": "uint256"
        }
      ],
      "stateMutability": "view",
      "type": "function"
    },
    {
      "inputs": [],
      "name": "getBurnableTombLeft",
      "outputs": [
        {
          "internalType": "uint256",
          "name": "_burnableTombLeft",
          "type": "uint256"
        }
      ],
      "stateMutability": "view",
      "type": "function"
    },
    {
      "inputs": [],
      "name": "getRedeemableBonds",
      "outputs": [
        {
          "internalType": "uint256",
          "name": "_redeemableBonds",
          "type": "uint256"
        }
      ],
      "stateMutability": "view",
      "type": "function"
    },
    {
      "inputs": [],
      "name": "getBondDiscountRate",
      "outputs": [
        {
          "internalType": "uint256",
          "name": "_rate",
          "type": "uint256"
        }
      ],
      "stateMutability": "view",
      "type": "function"
    },
    {
      "inputs": [],
      "name": "getBondPremiumRate",
      "outputs": [
        {
          "internalType": "uint256",
          "name": "_rate",
          "type": "uint256"
        }
      ],
      "stateMutability": "view",
      "type": "function"
    },
    {
      "inputs": [
        {
          "internalType": "address",
          "name": "_tomb",
          "type": "address"
        },
        {
          "internalType": "address",
          "name": "_tbond",
          "type": "address"
        },
        {
          "internalType": "address",
          "name": "_tshare",
          "type": "address"
        },
        {
          "internalType": "address",
          "name": "_tombOracle",
          "type": "address"
        },
        {
          "internalType": "address",
          "name": "_masonry",
          "type": "address"
        },
        {
          "internalType": "address",
          "name": "_genesisPool",
          "type": "address"
        },
        {
          "internalType": "uint256",
          "name": "_startTime",
          "type": "uint256"
        }
      ],
      "name": "initialize",
      "outputs": [],
      "stateMutability": "nonpayable",
      "type": "function"
    },
    {
      "inputs": [
        {
          "internalType": "address",
          "name": "_operator",
          "type": "address"
        }
      ],
      "name": "setOperator",
      "outputs": [],
      "stateMutability": "nonpayable",
      "type": "function"
    },
    {
      "inputs": [
        {
          "internalType": "address",
          "name": "_masonry",
          "type": "address"
        }
      ],
      "name": "setMasonry",
      "outputs": [],
      "stateMutability": "nonpayable",
      "type": "function"
    },
    {
      "inputs": [
        {
          "internalType": "address",
          "name": "_tombOracle",
          "type": "address"
        }
      ],
      "name": "setTombOracle",
      "outputs": [],
      "stateMutability": "nonpayable",
      "type": "function"
    },
    {
      "inputs": [
        {
          "internalType": "uint256",
          "name": "_tombPriceCeiling",
          "type": "uint256"
        }
      ],
      "name": "setTombPriceCeiling",
      "outputs": [],
      "stateMutability": "nonpayable",
      "type": "function"
    },
    {
      "inputs": [
        {
          "internalType": "uint256",
          "name": "_maxSupplyExpansionPercent",
          "type": "uint256"
        }
      ],
      "name": "setMaxSupplyExpansionPercents",
      "outputs": [],
      "stateMutability": "nonpayable",
      "type": "function"
    },
    {
      "inputs": [
        {
          "internalType": "uint8",
          "name": "_index",
          "type": "uint8"
        },
        {
          "internalType": "uint256",
          "name": "_value",
          "type": "uint256"
        }
      ],
      "name": "setSupplyTiersEntry",
      "outputs": [
        {
          "internalType": "bool",
          "name": "",
          "type": "bool"
        }
      ],
      "stateMutability": "nonpayable",
      "type": "function"
    },
    {
      "inputs": [
        {
          "internalType": "uint8",
          "name": "_index",
          "type": "uint8"
        },
        {
          "internalType": "uint256",
          "name": "_value",
          "type": "uint256"
        }
      ],
      "name": "setMaxExpansionTiersEntry",
      "outputs": [
        {
          "internalType": "bool",
          "name": "",
          "type": "bool"
        }
      ],
      "stateMutability": "nonpayable",
      "type": "function"
    },
    {
      "inputs": [
        {
          "internalType": "uint256",
          "name": "_bondDepletionFloorPercent",
          "type": "uint256"
        }
      ],
      "name": "setBondDepletionFloorPercent",
      "outputs": [],
      "stateMutability": "nonpayable",
      "type": "function"
    },
    {
      "inputs": [
        {
          "internalType": "uint256",
          "name": "_maxSupplyContractionPercent",
          "type": "uint256"
        }
      ],
      "name": "setMaxSupplyContractionPercent",
      "outputs": [],
      "stateMutability": "nonpayable",
      "type": "function"
    },
    {
      "inputs": [
        {
          "internalType": "uint256",
          "name": "_maxDebtRatioPercent",
          "type": "uint256"
        }
      ],
      "name": "setMaxDebtRatioPercent",
      "outputs": [],
      "stateMutability": "nonpayable",
      "type": "function"
    },
    {
      "inputs": [
        {
          "internalType": "uint256",
          "name": "_bootstrapEpochs",
          "type": "uint256"
        },
        {
          "internalType": "uint256",
          "name": "_bootstrapSupplyExpansionPercent",
          "type": "uint256"
        }
      ],
      "name": "setBootstrap",
      "outputs": [],
      "stateMutability": "nonpayable",
      "type": "function"
    },
    {
      "inputs": [
        {
          "internalType": "address",
          "name": "_daoFund",
          "type": "address"
        },
        {
          "internalType": "uint256",
          "name": "_daoFundSharedPercent",
          "type": "uint256"
        },
        {
          "internalType": "address",
          "name": "_devFund",
          "type": "address"
        },
        {
          "internalType": "uint256",
          "name": "_devFundSharedPercent",
          "type": "uint256"
        }
      ],
      "name": "setExtraFunds",
      "outputs": [],
      "stateMutability": "nonpayable",
      "type": "function"
    },
    {
      "inputs": [
        {
          "internalType": "uint256",
          "name": "_maxDiscountRate",
          "type": "uint256"
        }
      ],
      "name": "setMaxDiscountRate",
      "outputs": [],
      "stateMutability": "nonpayable",
      "type": "function"
    },
    {
      "inputs": [
        {
          "internalType": "uint256",
          "name": "_maxPremiumRate",
          "type": "uint256"
        }
      ],
      "name": "setMaxPremiumRate",
      "outputs": [],
      "stateMutability": "nonpayable",
      "type": "function"
    },
    {
      "inputs": [
        {
          "internalType": "uint256",
          "name": "_discountPercent",
          "type": "uint256"
        }
      ],
      "name": "setDiscountPercent",
      "outputs": [],
      "stateMutability": "nonpayable",
      "type": "function"
    },
    {
      "inputs": [
        {
          "internalType": "uint256",
          "name": "_premiumThreshold",
          "type": "uint256"
        }
      ],
      "name": "setPremiumThreshold",
      "outputs": [],
      "stateMutability": "nonpayable",
      "type": "function"
    },
    {
      "inputs": [
        {
          "internalType": "uint256",
          "name": "_premiumPercent",
          "type": "uint256"
        }
      ],
      "name": "setPremiumPercent",
      "outputs": [],
      "stateMutability": "nonpayable",
      "type": "function"
    },
    {
      "inputs": [
        {
          "internalType": "uint256",
          "name": "_mintingFactorForPayingDebt",
          "type": "uint256"
        }
      ],
      "name": "setMintingFactorForPayingDebt",
      "outputs": [],
      "stateMutability": "nonpayable",
      "type": "function"
    },
    {
      "inputs": [],
      "name": "getTombCirculatingSupply",
      "outputs": [
        {
          "internalType": "uint256",
          "name": "",
          "type": "uint256"
        }
      ],
      "stateMutability": "view",
      "type": "function"
    },
    {
      "inputs": [
        {
          "internalType": "uint256",
          "name": "_tombAmount",
          "type": "uint256"
        },
        {
          "internalType": "uint256",
          "name": "targetPrice",
          "type": "uint256"
        }
      ],
      "name": "buyBonds",
      "outputs": [],
      "stateMutability": "nonpayable",
      "type": "function"
    },
    {
      "inputs": [
        {
          "internalType": "uint256",
          "name": "_bondAmount",
          "type": "uint256"
        },
        {
          "internalType": "uint256",
          "name": "targetPrice",
          "type": "uint256"
        }
      ],
      "name": "redeemBonds",
      "outputs": [],
      "stateMutability": "nonpayable",
      "type": "function"
    },
    {
      "inputs": [],
      "name": "allocateSeigniorage",
      "outputs": [],
      "stateMutability": "nonpayable",
      "type": "function"
    },
    {
      "inputs": [
        {
          "internalType": "contract IERC20",
          "name": "_token",
          "type": "address"
        },
        {
          "internalType": "uint256",
          "name": "_amount",
          "type": "uint256"
        },
        {
          "internalType": "address",
          "name": "_to",
          "type": "address"
        }
      ],
      "name": "governanceRecoverUnsupported",
      "outputs": [],
      "stateMutability": "nonpayable",
      "type": "function"
    },
    {
      "inputs": [
        {
          "internalType": "address",
          "name": "_operator",
          "type": "address"
        }
      ],
      "name": "masonrySetOperator",
      "outputs": [],
      "stateMutability": "nonpayable",
      "type": "function"
    },
    {
      "inputs": [
        {
          "internalType": "uint256",
          "name": "_withdrawLockupEpochs",
          "type": "uint256"
        },
        {
          "internalType": "uint256",
          "name": "_rewardLockupEpochs",
          "type": "uint256"
        }
      ],
      "name": "masonrySetLockUp",
      "outputs": [],
      "stateMutability": "nonpayable",
      "type": "function"
    },
    {
      "inputs": [
        {
          "internalType": "uint256",
          "name": "amount",
          "type": "uint256"
        }
      ],
      "name": "masonryAllocateSeigniorage",
      "outputs": [],
      "stateMutability": "nonpayable",
      "type": "function"
    },
    {
      "inputs": [
        {
          "internalType": "address",
          "name": "_token",
          "type": "address"
        },
        {
          "internalType": "uint256",
          "name": "_amount",
          "type": "uint256"
        },
        {
          "internalType": "address",
          "name": "_to",
          "type": "address"
        }
      ],
      "name": "masonryGovernanceRecoverUnsupported",
      "outputs": [],
      "stateMutability": "nonpayable",
      "type": "function"
    }
  ],
  "bytecode": "0x60806040526000600160146101000a81548160ff0219169083151502179055506000600355600060045534801561003557600080fd5b5061775580620000466000396000f3fe608060405234801561001057600080fd5b50600436106104285760003560e01c806381d11eaf1161022b578063b981cdf311610130578063d4b14944116100b8578063e90b245411610087578063e90b2454146110ed578063ee6822a71461110b578063f14698de1461113f578063f77411031461115d578063fcb6f0081461119157610428565b8063d4b149441461101c578063d5d3b26c1461106d578063d98f2495146110b1578063da3ed419146110cf57610428565b8063c5967c26116100ff578063c5967c2614610f76578063c5cc772d14610f94578063c8412d0214610fb2578063c8f987f314610fd0578063cecce38e14610fee57610428565b8063b981cdf314610e68578063bcc81f1914610e9c578063be266d5414610f14578063c040f23a14610f4257610428565b8063951357d4116101b3578063a204452b11610182578063a204452b14610d9c578063b3406cfc14610dca578063b3ab15fb14610de8578063b4d1d79514610e2c578063b8a878f914610e4a57610428565b8063951357d414610c7c57806398b762a114610cea5780639982002514610d18578063a0487eea14610d5a57610428565b80638c664db6116101fa5780638c664db614610b735780638d934f7414610ba1578063900cf0cf14610bd557806391bbfed514610bf3578063940e606414610c2b57610428565b806381d11eaf14610ac157806382cad83814610adf578063874106cc14610b375780638a6426e714610b5557610428565b806340af7ba51161033157806359bf5d39116102b957806363f96cf41161028857806363f96cf4146109d557806372c054f914610a09578063734f709614610a2757806375be5ae114610a5f57806378e9792514610aa357610428565b806359bf5d391461094b5780635a0fc79c146109695780635b7561791461098757806362ac58e41461099157610428565b806354575af41161030057806354575af41461082557806354f04a111461089357806355ebdeef146108cb578063570ca735146108e9578063591663e11461091d57610428565b806340af7ba5146107775780634294cf8e146107a55780634390d2a8146107c3578063499f3f19146107f757610428565b8063154ec2db116103b457806329ef19191161038357806329ef1919146106cf5780632e9c7b65146106ed578063392e53cd1461070b5780633ed9ae251461072b5780634013a08e1461075957610428565b8063154ec2db14610645578063158ef93e1461067357806319a983491461069357806322f832cd146106b157610428565b80630cac939c116103fb5780630cac939c146104c55780630cf60175146104e35780630db7eb0b14610501578063118ebbf91461051f5780631460e3901461055757610428565b806303be7e761461042d57806304e5c7b11461044b57806309bb4f92146104795780630b5bcec714610497575b600080fd5b6104356111af565b6040518082815260200191505060405180910390f35b6104776004803603602081101561046157600080fd5b81019080803590602001909291905050506111b5565b005b61048161131a565b6040518082815260200191505060405180910390f35b6104c3600480360360208110156104ad57600080fd5b810190808035906020019092919050505061147b565b005b6104cd611593565b6040518082815260200191505060405180910390f35b6104eb6116f2565b6040518082815260200191505060405180910390f35b6105096117ce565b6040518082815260200191505060405180910390f35b6105556004803603604081101561053557600080fd5b8101908080359060200190929190803590602001909291905050506118a2565b005b610643600480360360e081101561056d57600080fd5b81019080803573ffffffffffffffffffffffffffffffffffffffff169060200190929190803573ffffffffffffffffffffffffffffffffffffffff169060200190929190803573ffffffffffffffffffffffffffffffffffffffff169060200190929190803573ffffffffffffffffffffffffffffffffffffffff169060200190929190803573ffffffffffffffffffffffffffffffffffffffff169060200190929190803573ffffffffffffffffffffffffffffffffffffffff169060200190929190803590602001909291905050506122fa565b005b6106716004803603602081101561065b57600080fd5b81019080803590602001909291905050506128d4565b005b61067b6129fc565b60405180821515815260200191505060405180910390f35b61069b612a0f565b6040518082815260200191505060405180910390f35b6106b9612a15565b6040518082815260200191505060405180910390f35b6106d7612a1b565b6040518082815260200191505060405180910390f35b6106f5612a21565b6040518082815260200191505060405180910390f35b610713612a27565b60405180821515815260200191505060405180910390f35b6107576004803603602081101561074157600080fd5b8101908080359060200190929190505050612a3e565b005b610761612b9a565b6040518082815260200191505060405180910390f35b6107a36004803603602081101561078d57600080fd5b8101908080359060200190929190505050612ba0565b005b6107ad612cc8565b6040518082815260200191505060405180910390f35b6107cb612cce565b604051808273ffffffffffffffffffffffffffffffffffffffff16815260200191505060405180910390f35b6108236004803603602081101561080d57600080fd5b8101908080359060200190929190505050612cf4565b005b6108916004803603606081101561083b57600080fd5b81019080803573ffffffffffffffffffffffffffffffffffffffff16906020019092919080359060200190929190803573ffffffffffffffffffffffffffffffffffffffff169060200190929190505050612e0d565b005b6108c9600480360360408110156108a957600080fd5b81019080803590602001909291908035906020019092919050505061312f565b005b6108d3613ca2565b6040518082815260200191505060405180910390f35b6108f1613ca8565b604051808273ffffffffffffffffffffffffffffffffffffffff16815260200191505060405180910390f35b6109496004803603602081101561093357600080fd5b8101908080359060200190929190505050613cce565b005b610953613e04565b6040518082815260200191505060405180910390f35b610971613e0e565b6040518082815260200191505060405180910390f35b61098f613e14565b005b6109d3600480360360208110156109a757600080fd5b81019080803573ffffffffffffffffffffffffffffffffffffffff1690602001909291905050506148a6565b005b6109dd6149f2565b604051808273ffffffffffffffffffffffffffffffffffffffff16815260200191505060405180910390f35b610a11614a18565b6040518082815260200191505060405180910390f35b610a5d60048036036040811015610a3d57600080fd5b810190808035906020019092919080359060200190929190505050614b43565b005b610aa160048036036020811015610a7557600080fd5b81019080803573ffffffffffffffffffffffffffffffffffffffff169060200190929190505050614c82565b005b610aab614d6c565b6040518082815260200191505060405180910390f35b610ac9614d72565b6040518082815260200191505060405180910390f35b610b0b60048036036020811015610af557600080fd5b8101908080359060200190929190505050614d78565b604051808273ffffffffffffffffffffffffffffffffffffffff16815260200191505060405180910390f35b610b3f614db4565b6040518082815260200191505060405180910390f35b610b5d614dba565b6040518082815260200191505060405180910390f35b610b9f60048036036020811015610b8957600080fd5b8101908080359060200190929190505050614f92565b005b610ba96150c8565b604051808273ffffffffffffffffffffffffffffffffffffffff16815260200191505060405180910390f35b610bdd6150ee565b6040518082815260200191505060405180910390f35b610c2960048036036040811015610c0957600080fd5b8101908080359060200190929190803590602001909291905050506150f4565b005b610c6460048036036040811015610c4157600080fd5b81019080803560ff1690602001909291908035906020019092919050505061528b565b60405180821515815260200191505060405180910390f35b610ce860048036036060811015610c9257600080fd5b81019080803573ffffffffffffffffffffffffffffffffffffffff16906020019092919080359060200190929190803573ffffffffffffffffffffffffffffffffffffffff16906020019092919050505061549e565b005b610d1660048036036020811015610d0057600080fd5b8101908080359060200190929190505050615612565b005b610d4460048036036020811015610d2e57600080fd5b81019080803590602001909291905050506156c2565b6040518082815260200191505060405180910390f35b610d8660048036036020811015610d7057600080fd5b81019080803590602001909291905050506156e3565b6040518082815260200191505060405180910390f35b610dc860048036036020811015610db257600080fd5b8101908080359060200190929190505050615704565b005b610dd26157b4565b6040518082815260200191505060405180910390f35b610e2a60048036036020811015610dfe57600080fd5b81019080803573ffffffffffffffffffffffffffffffffffffffff1690602001909291905050506157ba565b005b610e346158a4565b6040518082815260200191505060405180910390f35b610e526158aa565b6040518082815260200191505060405180910390f35b610e706158b0565b604051808273ffffffffffffffffffffffffffffffffffffffff16815260200191505060405180910390f35b610f1260048036036080811015610eb257600080fd5b81019080803573ffffffffffffffffffffffffffffffffffffffff16906020019092919080359060200190929190803573ffffffffffffffffffffffffffffffffffffffff169060200190929190803590602001909291905050506158d6565b005b610f4060048036036020811015610f2a57600080fd5b8101908080359060200190929190505050615c48565b005b610f4a615d7e565b604051808273ffffffffffffffffffffffffffffffffffffffff16815260200191505060405180910390f35b610f7e615da4565b6040518082815260200191505060405180910390f35b610f9c615dd6565b6040518082815260200191505060405180910390f35b610fba615f37565b6040518082815260200191505060405180910390f35b610fd8615f3d565b6040518082815260200191505060405180910390f35b61101a6004803603602081101561100457600080fd5b8101908080359060200190929190505050615f43565b005b6110556004803603604081101561103257600080fd5b81019080803560ff16906020019092919080359060200190929190505050616078565b60405180821515815260200191505060405180910390f35b6110af6004803603602081101561108357600080fd5b81019080803573ffffffffffffffffffffffffffffffffffffffff1690602001909291905050506162a4565b005b6110b961638e565b6040518082815260200191505060405180910390f35b6110d7616394565b6040518082815260200191505060405180910390f35b6110f561639a565b6040518082815260200191505060405180910390f35b6111136163a0565b604051808273ffffffffffffffffffffffffffffffffffffffff16815260200191505060405180910390f35b6111476163c6565b6040518082815260200191505060405180910390f35b6111656163cc565b604051808273ffffffffffffffffffffffffffffffffffffffff16815260200191505060405180910390f35b6111996163f2565b6040518082815260200191505060405180910390f35b60215481565b3373ffffffffffffffffffffffffffffffffffffffff16600160009054906101000a900473ffffffffffffffffffffffffffffffffffffffff1673ffffffffffffffffffffffffffffffffffffffff161461125b576040517f08c379a00000000000000000000000000000000000000000000000000000000081526004018080602001828103825260248152602001806175ec6024913960400191505060405180910390fd5b600c548110156112b6576040517f08c379a000000000000000000000000000000000000000000000000000000000815260040180806020018281038252602a815260200180617424602a913960400191505060405180910390fd5b6096811115611310576040517f08c379a00000000000000000000000000000000000000000000000000000000081526004018080602001828103825260248152602001806174b26024913960400191505060405180910390fd5b80601b8190555050565b6000600a60009054906101000a900473ffffffffffffffffffffffffffffffffffffffff1673ffffffffffffffffffffffffffffffffffffffff16633ddac953600660009054906101000a900473ffffffffffffffffffffffffffffffffffffffff16670de0b6b3a76400006040518363ffffffff1660e01b8152600401808373ffffffffffffffffffffffffffffffffffffffff1681526020018281526020019250505060206040518083038186803b1580156113d757600080fd5b505afa92505050801561140b57506040513d60208110156113f757600080fd5b810190808051906020019092919050505060015b611460576040517f08c379a000000000000000000000000000000000000000000000000000000000815260040180806020018281038252603681526020018061747c6036913960400191505060405180910390fd5b8071ffffffffffffffffffffffffffffffffffff1691505090565b3373ffffffffffffffffffffffffffffffffffffffff16600160009054906101000a900473ffffffffffffffffffffffffffffffffffffffff1673ffffffffffffffffffffffffffffffffffffffff1614611521576040517f08c379a00000000000000000000000000000000000000000000000000000000081526004018080602001828103825260248152602001806175ec6024913960400191505060405180910390fd5b600a811015801561153457506103e88111155b611589576040517f08c379a000000000000000000000000000000000000000000000000000000000815260040180806020018281038252602881526020018061759b6028913960400191505060405180910390fd5b8060108190555050565b60008061159e61131a565b9050600b5481116116ee5760006115b3614dba565b905060006115e06127106115d2601454856163f890919063ffffffff16565b61647e90919063ffffffff16565b90506000600760009054906101000a900473ffffffffffffffffffffffffffffffffffffffff1673ffffffffffffffffffffffffffffffffffffffff166318160ddd6040518163ffffffff1660e01b815260040160206040518083038186803b15801561164c57600080fd5b505afa158015611660573d6000803e3d6000fd5b505050506040513d602081101561167657600080fd5b81019080805190602001909291905050509050808211156116ea5760006116a6828461650790919063ffffffff16565b905060006116d7670de0b6b3a76400006116c988856163f890919063ffffffff16565b61647e90919063ffffffff16565b90506116e56004548261658a565b965050505b5050505b5090565b6000806116fd61131a565b9050600b5481116117ca576000601a54141561171d57600b5491506117c9565b600061174e82611740670de0b6b3a7640000600b546163f890919063ffffffff16565b61647e90919063ffffffff16565b9050600061178f612710611781601a54611773600b548761650790919063ffffffff16565b6163f890919063ffffffff16565b61647e90919063ffffffff16565b90506117a681600b546165a390919063ffffffff16565b935060006018541180156117bb575060185484115b156117c65760185493505b50505b5b5090565b6000806117d961131a565b9050600c5481111561189e5760006118116064611803601b54600b546163f890919063ffffffff16565b61647e90919063ffffffff16565b905080821061189657600061185961271061184b601c5461183d600b548861650790919063ffffffff16565b6163f890919063ffffffff16565b61647e90919063ffffffff16565b905061187081600b546165a390919063ffffffff16565b93506000601954118015611885575060195484115b156118905760195493505b5061189c565b600b5492505b505b5090565b6118aa61662b565b15611900576040517f08c379a000000000000000000000000000000000000000000000000000000000815260040180806020018281038252602681526020018061763a6026913960400191505060405180910390fd5b61190861668f565b1561195e576040517f08c379a000000000000000000000000000000000000000000000000000000000815260040180806020018281038252602681526020018061763a6026913960400191505060405180910390fd5b6002544210156119d6576040517f08c379a00000000000000000000000000000000000000000000000000000000081526004018080602001828103825260198152602001807f54726561737572793a206e6f742073746172746564207965740000000000000081525060200191505060405180910390fd5b3073ffffffffffffffffffffffffffffffffffffffff16600660009054906101000a900473ffffffffffffffffffffffffffffffffffffffff1673ffffffffffffffffffffffffffffffffffffffff1663570ca7356040518163ffffffff1660e01b815260040160206040518083038186803b158015611a5557600080fd5b505afa158015611a69573d6000803e3d6000fd5b505050506040513d6020811015611a7f57600080fd5b810190808051906020019092919050505073ffffffffffffffffffffffffffffffffffffffff16148015611b8057503073ffffffffffffffffffffffffffffffffffffffff16600760009054906101000a900473ffffffffffffffffffffffffffffffffffffffff1673ffffffffffffffffffffffffffffffffffffffff1663570ca7356040518163ffffffff1660e01b815260040160206040518083038186803b158015611b2d57600080fd5b505afa158015611b41573d6000803e3d6000fd5b505050506040513d6020811015611b5757600080fd5b810190808051906020019092919050505073ffffffffffffffffffffffffffffffffffffffff16145b8015611c5957503073ffffffffffffffffffffffffffffffffffffffff16600860009054906101000a900473ffffffffffffffffffffffffffffffffffffffff1673ffffffffffffffffffffffffffffffffffffffff1663570ca7356040518163ffffffff1660e01b815260040160206040518083038186803b158015611c0657600080fd5b505afa158015611c1a573d6000803e3d6000fd5b505050506040513d6020811015611c3057600080fd5b810190808051906020019092919050505073ffffffffffffffffffffffffffffffffffffffff16145b8015611d3257503073ffffffffffffffffffffffffffffffffffffffff16600960009054906101000a900473ffffffffffffffffffffffffffffffffffffffff1673ffffffffffffffffffffffffffffffffffffffff1663570ca7356040518163ffffffff1660e01b815260040160206040518083038186803b158015611cdf57600080fd5b505afa158015611cf3573d6000803e3d6000fd5b505050506040513d6020811015611d0957600080fd5b810190808051906020019092919050505073ffffffffffffffffffffffffffffffffffffffff16145b611da4576040517f08c379a000000000000000000000000000000000000000000000000000000000815260040180806020018281038252601e8152602001807f54726561737572793a206e656564206d6f7265207065726d697373696f6e000081525060200191505060405180910390fd5b60008211611dfd576040517f08c379a000000000000000000000000000000000000000000000000000000000815260040180806020018281038252602e81526020018061744e602e913960400191505060405180910390fd5b6000611e0761131a565b9050818114611e7e576040517f08c379a000000000000000000000000000000000000000000000000000000000815260040180806020018281038252601a8152602001807f54726561737572793a20544f4d42207072696365206d6f76656400000000000081525060200191505060405180910390fd5b600c548111611ed8576040517f08c379a00000000000000000000000000000000000000000000000000000000081526004018080602001828103825260328152602001806176966032913960400191505060405180910390fd5b6000611ee26117ce565b905060008111611f5a576040517f08c379a000000000000000000000000000000000000000000000000000000000815260040180806020018281038252601b8152602001807f54726561737572793a20696e76616c696420626f6e642072617465000000000081525060200191505060405180910390fd5b6000611f89670de0b6b3a7640000611f7b84886163f890919063ffffffff16565b61647e90919063ffffffff16565b905080600660009054906101000a900473ffffffffffffffffffffffffffffffffffffffff1673ffffffffffffffffffffffffffffffffffffffff166370a08231306040518263ffffffff1660e01b8152600401808273ffffffffffffffffffffffffffffffffffffffff16815260200191505060206040518083038186803b15801561201557600080fd5b505afa158015612029573d6000803e3d6000fd5b505050506040513d602081101561203f57600080fd5b810190808051906020019092919050505010156120a7576040517f08c379a00000000000000000000000000000000000000000000000000000000081526004018080602001828103825260258152602001806174fc6025913960400191505060405180910390fd5b6120c76120b6600d548361658a565b600d5461650790919063ffffffff16565b600d81905550600760009054906101000a900473ffffffffffffffffffffffffffffffffffffffff1673ffffffffffffffffffffffffffffffffffffffff166379cc679033876040518363ffffffff1660e01b8152600401808373ffffffffffffffffffffffffffffffffffffffff16815260200182815260200192505050600060405180830381600087803b15801561216057600080fd5b505af1158015612174573d6000803e3d6000fd5b505050506121c53382600660009054906101000a900473ffffffffffffffffffffffffffffffffffffffff1673ffffffffffffffffffffffffffffffffffffffff166166f39092919063ffffffff16565b6121cd616795565b3373ffffffffffffffffffffffffffffffffffffffff167f51e0d16595cabc591e64da08e45bb223577e5b9a39cd947b4ddc3472b2dd88788287604051808381526020018281526020019250505060405180910390a2505050600160008043815260200190815260200160002060003273ffffffffffffffffffffffffffffffffffffffff1673ffffffffffffffffffffffffffffffffffffffff16815260200190815260200160002060006101000a81548160ff021916908315150217905550600160008043815260200190815260200160002060003373ffffffffffffffffffffffffffffffffffffffff1673ffffffffffffffffffffffffffffffffffffffff16815260200190815260200160002060006101000a81548160ff0219169083151502179055505050565b600160149054906101000a900460ff161561237d576040517f08c379a000000000000000000000000000000000000000000000000000000000815260040180806020018281038252601d8152602001807f54726561737572793a20616c726561647920696e697469616c697a656400000081525060200191505060405180910390fd5b86600660006101000a81548173ffffffffffffffffffffffffffffffffffffffff021916908373ffffffffffffffffffffffffffffffffffffffff16021790555085600760006101000a81548173ffffffffffffffffffffffffffffffffffffffff021916908373ffffffffffffffffffffffffffffffffffffffff16021790555084600860006101000a81548173ffffffffffffffffffffffffffffffffffffffff021916908373ffffffffffffffffffffffffffffffffffffffff16021790555083600a60006101000a81548173ffffffffffffffffffffffffffffffffffffffff021916908373ffffffffffffffffffffffffffffffffffffffff16021790555082600960006101000a81548173ffffffffffffffffffffffffffffffffffffffff021916908373ffffffffffffffffffffffffffffffffffffffff16021790555080600281905550670de0b6b3a7640000600b8190555061250160646124f36065600b546163f890919063ffffffff16565b61647e90919063ffffffff16565b600c819055506005829080600181540180825580915050600190039060005260206000200160009091909190916101000a81548173ffffffffffffffffffffffffffffffffffffffff021916908373ffffffffffffffffffffffffffffffffffffffff16021790555060405180610120016040528060006affffffffffffffffffffff1681526020016969e10de76676d08000006affffffffffffffffffffff16815260200169d3c21bcecceda10000006affffffffffffffffffffff1681526020016a013da329b63364718000006affffffffffffffffffffff1681526020016a01a784379d99db420000006affffffffffffffffffffff1681526020016a0422ca8b0a00a4250000006affffffffffffffffffffff1681526020016a084595161401484a0000006affffffffffffffffffffff1681526020016a108b2a2c280290940000006affffffffffffffffffffff1681526020016a295be96e640669720000006affffffffffffffffffffff16815250600e906009612686929190617357565b506040518061012001604052806101c261ffff16815260200161019061ffff16815260200161015e61ffff16815260200161012c61ffff16815260200160fa61ffff16815260200160c861ffff168152602001609661ffff168152602001607d61ffff168152602001606461ffff16815250600f9060096127089291906173b3565b50610190601081905550612710601181905550610dac60128190555061012c601381905550610dac601481905550606e601b81905550611b58601c81905550600c6015819055506101c2601681905550600660009054906101000a900473ffffffffffffffffffffffffffffffffffffffff1673ffffffffffffffffffffffffffffffffffffffff166370a08231306040518263ffffffff1660e01b8152600401808273ffffffffffffffffffffffffffffffffffffffff16815260200191505060206040518083038186803b1580156127e157600080fd5b505afa1580156127f5573d6000803e3d6000fd5b505050506040513d602081101561280b57600080fd5b8101908080519060200190929190505050600d8190555060018060146101000a81548160ff02191690831515021790555033600160006101000a81548173ffffffffffffffffffffffffffffffffffffffff021916908373ffffffffffffffffffffffffffffffffffffffff1602179055503373ffffffffffffffffffffffffffffffffffffffff167f25ff68dd81b34665b5ba7e553ee5511bf6812e12adb4a7e2c0d9e26b3099ce79436040518082815260200191505060405180910390a250505050505050565b3373ffffffffffffffffffffffffffffffffffffffff16600160009054906101000a900473ffffffffffffffffffffffffffffffffffffffff1673ffffffffffffffffffffffffffffffffffffffff161461297a576040517f08c379a00000000000000000000000000000000000000000000000000000000081526004018080602001828103825260248152602001806175ec6024913960400191505060405180910390fd5b614e208111156129f2576040517f08c379a000000000000000000000000000000000000000000000000000000000815260040180806020018281038252601d8152602001807f5f646973636f756e7450657263656e74206973206f766572203230302500000081525060200191505060405180910390fd5b80601a8190555050565b600160149054906101000a900460ff1681565b600c5481565b60125481565b601a5481565b60195481565b6000600160149054906101000a900460ff16905090565b3373ffffffffffffffffffffffffffffffffffffffff16600160009054906101000a900473ffffffffffffffffffffffffffffffffffffffff1673ffffffffffffffffffffffffffffffffffffffff1614612ae4576040517f08c379a00000000000000000000000000000000000000000000000000000000081526004018080602001828103825260248152602001806175ec6024913960400191505060405180910390fd5b600b548110158015612b1e5750612b1a6064612b0c6078600b546163f890919063ffffffff16565b61647e90919063ffffffff16565b8111155b612b90576040517f08c379a000000000000000000000000000000000000000000000000000000000815260040180806020018281038252600c8152602001807f6f7574206f662072616e6765000000000000000000000000000000000000000081525060200191505060405180910390fd5b80600c8190555050565b601d5481565b3373ffffffffffffffffffffffffffffffffffffffff16600160009054906101000a900473ffffffffffffffffffffffffffffffffffffffff1673ffffffffffffffffffffffffffffffffffffffff1614612c46576040517f08c379a00000000000000000000000000000000000000000000000000000000081526004018080602001828103825260248152602001806175ec6024913960400191505060405180910390fd5b614e20811115612cbe576040517f08c379a000000000000000000000000000000000000000000000000000000000815260040180806020018281038252601c8152602001807f5f7072656d69756d50657263656e74206973206f76657220323030250000000081525060200191505060405180910390fd5b80601c8190555050565b600b5481565b602060009054906101000a900473ffffffffffffffffffffffffffffffffffffffff1681565b3373ffffffffffffffffffffffffffffffffffffffff16600160009054906101000a900473ffffffffffffffffffffffffffffffffffffffff1673ffffffffffffffffffffffffffffffffffffffff1614612d9a576040517f08c379a00000000000000000000000000000000000000000000000000000000081526004018080602001828103825260248152602001806175ec6024913960400191505060405180910390fd5b6127108110158015612dae5750614e208111155b612e03576040517f08c379a00000000000000000000000000000000000000000000000000000000081526004018080602001828103825260298152602001806175726029913960400191505060405180910390fd5b80601d8190555050565b3373ffffffffffffffffffffffffffffffffffffffff16600160009054906101000a900473ffffffffffffffffffffffffffffffffffffffff1673ffffffffffffffffffffffffffffffffffffffff1614612eb3576040517f08c379a00000000000000000000000000000000000000000000000000000000081526004018080602001828103825260248152602001806175ec6024913960400191505060405180910390fd5b600660009054906101000a900473ffffffffffffffffffffffffffffffffffffffff1673ffffffffffffffffffffffffffffffffffffffff168373ffffffffffffffffffffffffffffffffffffffff161415612f77576040517f08c379a00000000000000000000000000000000000000000000000000000000081526004018080602001828103825260048152602001807f746f6d620000000000000000000000000000000000000000000000000000000081525060200191505060405180910390fd5b600760009054906101000a900473ffffffffffffffffffffffffffffffffffffffff1673ffffffffffffffffffffffffffffffffffffffff168373ffffffffffffffffffffffffffffffffffffffff16141561303b576040517f08c379a00000000000000000000000000000000000000000000000000000000081526004018080602001828103825260048152602001807f626f6e640000000000000000000000000000000000000000000000000000000081525060200191505060405180910390fd5b600860009054906101000a900473ffffffffffffffffffffffffffffffffffffffff1673ffffffffffffffffffffffffffffffffffffffff168373ffffffffffffffffffffffffffffffffffffffff1614156130ff576040517f08c379a00000000000000000000000000000000000000000000000000000000081526004018080602001828103825260058152602001807f736861726500000000000000000000000000000000000000000000000000000081525060200191505060405180910390fd5b61312a81838573ffffffffffffffffffffffffffffffffffffffff166166f39092919063ffffffff16565b505050565b61313761662b565b1561318d576040517f08c379a000000000000000000000000000000000000000000000000000000000815260040180806020018281038252602681526020018061763a6026913960400191505060405180910390fd5b61319561668f565b156131eb576040517f08c379a000000000000000000000000000000000000000000000000000000000815260040180806020018281038252602681526020018061763a6026913960400191505060405180910390fd5b600254421015613263576040517f08c379a00000000000000000000000000000000000000000000000000000000081526004018080602001828103825260198152602001807f54726561737572793a206e6f742073746172746564207965740000000000000081525060200191505060405180910390fd5b3073ffffffffffffffffffffffffffffffffffffffff16600660009054906101000a900473ffffffffffffffffffffffffffffffffffffffff1673ffffffffffffffffffffffffffffffffffffffff1663570ca7356040518163ffffffff1660e01b815260040160206040518083038186803b1580156132e257600080fd5b505afa1580156132f6573d6000803e3d6000fd5b505050506040513d602081101561330c57600080fd5b810190808051906020019092919050505073ffffffffffffffffffffffffffffffffffffffff1614801561340d57503073ffffffffffffffffffffffffffffffffffffffff16600760009054906101000a900473ffffffffffffffffffffffffffffffffffffffff1673ffffffffffffffffffffffffffffffffffffffff1663570ca7356040518163ffffffff1660e01b815260040160206040518083038186803b1580156133ba57600080fd5b505afa1580156133ce573d6000803e3d6000fd5b505050506040513d60208110156133e457600080fd5b810190808051906020019092919050505073ffffffffffffffffffffffffffffffffffffffff16145b80156134e657503073ffffffffffffffffffffffffffffffffffffffff16600860009054906101000a900473ffffffffffffffffffffffffffffffffffffffff1673ffffffffffffffffffffffffffffffffffffffff1663570ca7356040518163ffffffff1660e01b815260040160206040518083038186803b15801561349357600080fd5b505afa1580156134a7573d6000803e3d6000fd5b505050506040513d60208110156134bd57600080fd5b810190808051906020019092919050505073ffffffffffffffffffffffffffffffffffffffff16145b80156135bf57503073ffffffffffffffffffffffffffffffffffffffff16600960009054906101000a900473ffffffffffffffffffffffffffffffffffffffff1673ffffffffffffffffffffffffffffffffffffffff1663570ca7356040518163ffffffff1660e01b815260040160206040518083038186803b15801561356c57600080fd5b505afa158015613580573d6000803e3d6000fd5b505050506040513d602081101561359657600080fd5b810190808051906020019092919050505073ffffffffffffffffffffffffffffffffffffffff16145b613631576040517f08c379a000000000000000000000000000000000000000000000000000000000815260040180806020018281038252601e8152602001807f54726561737572793a206e656564206d6f7265207065726d697373696f6e000081525060200191505060405180910390fd5b6000821161368a576040517f08c379a00000000000000000000000000000000000000000000000000000000081526004018080602001828103825260308152602001806175426030913960400191505060405180910390fd5b600061369461131a565b905081811461370b576040517f08c379a000000000000000000000000000000000000000000000000000000000815260040180806020018281038252601a8152602001807f54726561737572793a20544f4d42207072696365206d6f76656400000000000081525060200191505060405180910390fd5b600b548110613765576040517f08c379a00000000000000000000000000000000000000000000000000000000081526004018080602001828103825260328152602001806176966032913960400191505060405180910390fd5b6004548311156137c0576040517f08c379a000000000000000000000000000000000000000000000000000000000815260040180806020018281038252602a8152602001806176c8602a913960400191505060405180910390fd5b60006137ca6116f2565b905060008111613842576040517f08c379a000000000000000000000000000000000000000000000000000000000815260040180806020018281038252601b8152602001807f54726561737572793a20696e76616c696420626f6e642072617465000000000081525060200191505060405180910390fd5b6000613871670de0b6b3a764000061386384886163f890919063ffffffff16565b61647e90919063ffffffff16565b9050600061387d614dba565b9050600061393683600760009054906101000a900473ffffffffffffffffffffffffffffffffffffffff1673ffffffffffffffffffffffffffffffffffffffff166318160ddd6040518163ffffffff1660e01b815260040160206040518083038186803b1580156138ed57600080fd5b505afa158015613901573d6000803e3d6000fd5b505050506040513d602081101561391757600080fd5b81019080805190602001909291905050506165a390919063ffffffff16565b9050613961612710613953601454856163f890919063ffffffff16565b61647e90919063ffffffff16565b8111156139d6576040517f08c379a00000000000000000000000000000000000000000000000000000000081526004018080602001828103825260138152602001807f6f766572206d6178206465627420726174696f0000000000000000000000000081525060200191505060405180910390fd5b600660009054906101000a900473ffffffffffffffffffffffffffffffffffffffff1673ffffffffffffffffffffffffffffffffffffffff166379cc679033896040518363ffffffff1660e01b8152600401808373ffffffffffffffffffffffffffffffffffffffff16815260200182815260200192505050600060405180830381600087803b158015613a6957600080fd5b505af1158015613a7d573d6000803e3d6000fd5b50505050600760009054906101000a900473ffffffffffffffffffffffffffffffffffffffff1673ffffffffffffffffffffffffffffffffffffffff166340c10f1933856040518363ffffffff1660e01b8152600401808373ffffffffffffffffffffffffffffffffffffffff16815260200182815260200192505050602060405180830381600087803b158015613b1457600080fd5b505af1158015613b28573d6000803e3d6000fd5b505050506040513d6020811015613b3e57600080fd5b810190808051906020019092919050505050613b658760045461650790919063ffffffff16565b600481905550613b73616795565b3373ffffffffffffffffffffffffffffffffffffffff167f73017f1b70789e2e66759eeb3c7ec11f59e6eedb55d921cfaec5410dd42a47998885604051808381526020018281526020019250505060405180910390a25050505050600160008043815260200190815260200160002060003273ffffffffffffffffffffffffffffffffffffffff1673ffffffffffffffffffffffffffffffffffffffff16815260200190815260200160002060006101000a81548160ff021916908315150217905550600160008043815260200190815260200160002060003373ffffffffffffffffffffffffffffffffffffffff1673ffffffffffffffffffffffffffffffffffffffff16815260200190815260200160002060006101000a81548160ff0219169083151502179055505050565b601f5481565b600160009054906101000a900473ffffffffffffffffffffffffffffffffffffffff1681565b3373ffffffffffffffffffffffffffffffffffffffff16600160009054906101000a900473ffffffffffffffffffffffffffffffffffffffff1673ffffffffffffffffffffffffffffffffffffffff1614613d74576040517f08c379a00000000000000000000000000000000000000000000000000000000081526004018080602001828103825260248152602001806175ec6024913960400191505060405180910390fd5b6103e88110158015613d8857506127108111155b613dfa576040517f08c379a000000000000000000000000000000000000000000000000000000000815260040180806020018281038252600c8152602001807f6f7574206f662072616e6765000000000000000000000000000000000000000081525060200191505060405180910390fd5b8060148190555050565b6000600d54905090565b600d5481565b613e1c61662b565b15613e72576040517f08c379a000000000000000000000000000000000000000000000000000000000815260040180806020018281038252602681526020018061763a6026913960400191505060405180910390fd5b613e7a61668f565b15613ed0576040517f08c379a000000000000000000000000000000000000000000000000000000000815260040180806020018281038252602681526020018061763a6026913960400191505060405180910390fd5b600254421015613f48576040517f08c379a00000000000000000000000000000000000000000000000000000000081526004018080602001828103825260198152602001807f54726561737572793a206e6f742073746172746564207965740000000000000081525060200191505060405180910390fd5b613f50615da4565b421015613fc5576040517f08c379a00000000000000000000000000000000000000000000000000000000081526004018080602001828103825260188152602001807f54726561737572793a206e6f74206f70656e656420796574000000000000000081525060200191505060405180910390fd5b3073ffffffffffffffffffffffffffffffffffffffff16600660009054906101000a900473ffffffffffffffffffffffffffffffffffffffff1673ffffffffffffffffffffffffffffffffffffffff1663570ca7356040518163ffffffff1660e01b815260040160206040518083038186803b15801561404457600080fd5b505afa158015614058573d6000803e3d6000fd5b505050506040513d602081101561406e57600080fd5b810190808051906020019092919050505073ffffffffffffffffffffffffffffffffffffffff1614801561416f57503073ffffffffffffffffffffffffffffffffffffffff16600760009054906101000a900473ffffffffffffffffffffffffffffffffffffffff1673ffffffffffffffffffffffffffffffffffffffff1663570ca7356040518163ffffffff1660e01b815260040160206040518083038186803b15801561411c57600080fd5b505afa158015614130573d6000803e3d6000fd5b505050506040513d602081101561414657600080fd5b810190808051906020019092919050505073ffffffffffffffffffffffffffffffffffffffff16145b801561424857503073ffffffffffffffffffffffffffffffffffffffff16600860009054906101000a900473ffffffffffffffffffffffffffffffffffffffff1673ffffffffffffffffffffffffffffffffffffffff1663570ca7356040518163ffffffff1660e01b815260040160206040518083038186803b1580156141f557600080fd5b505afa158015614209573d6000803e3d6000fd5b505050506040513d602081101561421f57600080fd5b810190808051906020019092919050505073ffffffffffffffffffffffffffffffffffffffff16145b801561432157503073ffffffffffffffffffffffffffffffffffffffff16600960009054906101000a900473ffffffffffffffffffffffffffffffffffffffff1673ffffffffffffffffffffffffffffffffffffffff1663570ca7356040518163ffffffff1660e01b815260040160206040518083038186803b1580156142ce57600080fd5b505afa1580156142e2573d6000803e3d6000fd5b505050506040513d60208110156142f857600080fd5b810190808051906020019092919050505073ffffffffffffffffffffffffffffffffffffffff16145b614393576040517f08c379a000000000000000000000000000000000000000000000000000000000815260040180806020018281038252601e8152602001807f54726561737572793a206e656564206d6f7265207065726d697373696f6e000081525060200191505060405180910390fd5b61439b616795565b6143a361131a565b60178190555060006143c7600d546143b9614dba565b61650790919063ffffffff16565b9050601554600354101561440b576144066144016127106143f3601654856163f890919063ffffffff16565b61647e90919063ffffffff16565b61681c565b614769565b600c546017541115614768576000600760009054906101000a900473ffffffffffffffffffffffffffffffffffffffff1673ffffffffffffffffffffffffffffffffffffffff166318160ddd6040518163ffffffff1660e01b815260040160206040518083038186803b15801561448157600080fd5b505afa158015614495573d6000803e3d6000fd5b505050506040513d60208110156144ab57600080fd5b8101908080519060200190929190505050905060006144d7600b5460175461650790919063ffffffff16565b905060008060006144ff655af3107a40006144f188616d92565b6163f890919063ffffffff16565b90508084111561450d578093505b614536612710614528601154886163f890919063ffffffff16565b61647e90919063ffffffff16565b600d54106145725761456b670de0b6b3a764000061455d86896163f890919063ffffffff16565b61647e90919063ffffffff16565b915061461c565b60006145a1670de0b6b3a7640000614593878a6163f890919063ffffffff16565b61647e90919063ffffffff16565b90506145cc6127106145be601254846163f890919063ffffffff16565b61647e90919063ffffffff16565b92506145e1838261650790919063ffffffff16565b93506000601d54111561461a57614617612710614609601d54876163f890919063ffffffff16565b61647e90919063ffffffff16565b93505b505b600082111561462f5761462e8261681c565b5b60008311156147625761464d83600d546165a390919063ffffffff16565b600d81905550600660009054906101000a900473ffffffffffffffffffffffffffffffffffffffff1673ffffffffffffffffffffffffffffffffffffffff166340c10f1930856040518363ffffffff1660e01b8152600401808373ffffffffffffffffffffffffffffffffffffffff16815260200182815260200192505050602060405180830381600087803b1580156146e657600080fd5b505af11580156146fa573d6000803e3d6000fd5b505050506040513d602081101561471057600080fd5b8101908080519060200190929190505050507ff705142bf09f04297640495ddf7c59b7fd6f51894c5aea9602d631cf05f0efc24284604051808381526020018281526020019250505060405180910390a15b50505050505b5b5061478060016003546165a390919063ffffffff16565b600381905550600c5461479161131a565b116147cb576147c66127106147b86013546147aa614dba565b6163f890919063ffffffff16565b61647e90919063ffffffff16565b6147ce565b60005b600481905550600160008043815260200190815260200160002060003273ffffffffffffffffffffffffffffffffffffffff1673ffffffffffffffffffffffffffffffffffffffff16815260200190815260200160002060006101000a81548160ff021916908315150217905550600160008043815260200190815260200160002060003373ffffffffffffffffffffffffffffffffffffffff1673ffffffffffffffffffffffffffffffffffffffff16815260200190815260200160002060006101000a81548160ff021916908315150217905550565b3373ffffffffffffffffffffffffffffffffffffffff16600160009054906101000a900473ffffffffffffffffffffffffffffffffffffffff1673ffffffffffffffffffffffffffffffffffffffff161461494c576040517f08c379a00000000000000000000000000000000000000000000000000000000081526004018080602001828103825260248152602001806175ec6024913960400191505060405180910390fd5b600960009054906101000a900473ffffffffffffffffffffffffffffffffffffffff1673ffffffffffffffffffffffffffffffffffffffff1663b3ab15fb826040518263ffffffff1660e01b8152600401808273ffffffffffffffffffffffffffffffffffffffff168152602001915050600060405180830381600087803b1580156149d757600080fd5b505af11580156149eb573d6000803e3d6000fd5b5050505050565b600960009054906101000a900473ffffffffffffffffffffffffffffffffffffffff1681565b600080614a2361131a565b9050600c54811115614b3f576000600660009054906101000a900473ffffffffffffffffffffffffffffffffffffffff1673ffffffffffffffffffffffffffffffffffffffff166370a08231306040518263ffffffff1660e01b8152600401808273ffffffffffffffffffffffffffffffffffffffff16815260200191505060206040518083038186803b158015614aba57600080fd5b505afa158015614ace573d6000803e3d6000fd5b505050506040513d6020811015614ae457600080fd5b810190808051906020019092919050505090506000614b016117ce565b90506000811115614b3c57614b3981614b2b670de0b6b3a7640000856163f890919063ffffffff16565b61647e90919063ffffffff16565b93505b50505b5090565b3373ffffffffffffffffffffffffffffffffffffffff16600160009054906101000a900473ffffffffffffffffffffffffffffffffffffffff1673ffffffffffffffffffffffffffffffffffffffff1614614be9576040517f08c379a00000000000000000000000000000000000000000000000000000000081526004018080602001828103825260248152602001806175ec6024913960400191505060405180910390fd5b600960009054906101000a900473ffffffffffffffffffffffffffffffffffffffff1673ffffffffffffffffffffffffffffffffffffffff16632ffaaa0983836040518363ffffffff1660e01b81526004018083815260200182815260200192505050600060405180830381600087803b158015614c6657600080fd5b505af1158015614c7a573d6000803e3d6000fd5b505050505050565b3373ffffffffffffffffffffffffffffffffffffffff16600160009054906101000a900473ffffffffffffffffffffffffffffffffffffffff1673ffffffffffffffffffffffffffffffffffffffff1614614d28576040517f08c379a00000000000000000000000000000000000000000000000000000000081526004018080602001828103825260248152602001806175ec6024913960400191505060405180910390fd5b80600a60006101000a81548173ffffffffffffffffffffffffffffffffffffffff021916908373ffffffffffffffffffffffffffffffffffffffff16021790555050565b60025481565b60115481565b60058181548110614d8557fe5b906000526020600020016000915054906101000a900473ffffffffffffffffffffffffffffffffffffffff1681565b60165481565b600080600660009054906101000a900473ffffffffffffffffffffffffffffffffffffffff16905060008173ffffffffffffffffffffffffffffffffffffffff166318160ddd6040518163ffffffff1660e01b815260040160206040518083038186803b158015614e2a57600080fd5b505afa158015614e3e573d6000803e3d6000fd5b505050506040513d6020811015614e5457600080fd5b810190808051906020019092919050505090506000805b6005805490508160ff161015614f7657614f698473ffffffffffffffffffffffffffffffffffffffff166370a0823160058460ff1681548110614eaa57fe5b9060005260206000200160009054906101000a900473ffffffffffffffffffffffffffffffffffffffff166040518263ffffffff1660e01b8152600401808273ffffffffffffffffffffffffffffffffffffffff16815260200191505060206040518083038186803b158015614f1f57600080fd5b505afa158015614f33573d6000803e3d6000fd5b505050506040513d6020811015614f4957600080fd5b8101908080519060200190929190505050836165a390919063ffffffff16565b9150806001019050614e6b565b50614f8a818361650790919063ffffffff16565b935050505090565b3373ffffffffffffffffffffffffffffffffffffffff16600160009054906101000a900473ffffffffffffffffffffffffffffffffffffffff1673ffffffffffffffffffffffffffffffffffffffff1614615038576040517f08c379a00000000000000000000000000000000000000000000000000000000081526004018080602001828103825260248152602001806175ec6024913960400191505060405180910390fd5b6101f4811015801561504c57506127108111155b6150be576040517f08c379a000000000000000000000000000000000000000000000000000000000815260040180806020018281038252600c8152602001807f6f7574206f662072616e6765000000000000000000000000000000000000000081525060200191505060405180910390fd5b8060118190555050565b601e60009054906101000a900473ffffffffffffffffffffffffffffffffffffffff1681565b60035481565b3373ffffffffffffffffffffffffffffffffffffffff16600160009054906101000a900473ffffffffffffffffffffffffffffffffffffffff1673ffffffffffffffffffffffffffffffffffffffff161461519a576040517f08c379a00000000000000000000000000000000000000000000000000000000081526004018080602001828103825260248152602001806175ec6024913960400191505060405180910390fd5b6078821115615211576040517f08c379a000000000000000000000000000000000000000000000000000000000815260040180806020018281038252601e8152602001807f5f626f6f74737472617045706f6368733a206f7574206f662072616e6765000081525060200191505060405180910390fd5b6064811015801561522457506103e88111155b615279576040517f08c379a000000000000000000000000000000000000000000000000000000000815260040180806020018281038252602e8152602001806176f2602e913960400191505060405180910390fd5b81601581905550806016819055505050565b60003373ffffffffffffffffffffffffffffffffffffffff16600160009054906101000a900473ffffffffffffffffffffffffffffffffffffffff1673ffffffffffffffffffffffffffffffffffffffff1614615333576040517f08c379a00000000000000000000000000000000000000000000000000000000081526004018080602001828103825260248152602001806175ec6024913960400191505060405180910390fd5b60008360ff1610156153ad576040517f08c379a000000000000000000000000000000000000000000000000000000000815260040180806020018281038252601d8152602001807f496e6465782068617320746f20626520686967686572207468616e203000000081525060200191505060405180910390fd5b60098360ff1610615409576040517f08c379a00000000000000000000000000000000000000000000000000000000081526004018080602001828103825260298152602001806175c36029913960400191505060405180910390fd5b60008360ff16111561543f57600e6001840360ff168154811061542857fe5b9060005260206000200154821161543e57600080fd5b5b60088360ff16101561547557600e6001840160ff168154811061545e57fe5b9060005260206000200154821061547457600080fd5b5b81600e8460ff168154811061548657fe5b90600052602060002001819055506001905092915050565b3373ffffffffffffffffffffffffffffffffffffffff16600160009054906101000a900473ffffffffffffffffffffffffffffffffffffffff1673ffffffffffffffffffffffffffffffffffffffff1614615544576040517f08c379a00000000000000000000000000000000000000000000000000000000081526004018080602001828103825260248152602001806175ec6024913960400191505060405180910390fd5b600960009054906101000a900473ffffffffffffffffffffffffffffffffffffffff1673ffffffffffffffffffffffffffffffffffffffff166354575af48484846040518463ffffffff1660e01b8152600401808473ffffffffffffffffffffffffffffffffffffffff1681526020018381526020018273ffffffffffffffffffffffffffffffffffffffff1681526020019350505050600060405180830381600087803b1580156155f557600080fd5b505af1158015615609573d6000803e3d6000fd5b50505050505050565b3373ffffffffffffffffffffffffffffffffffffffff16600160009054906101000a900473ffffffffffffffffffffffffffffffffffffffff1673ffffffffffffffffffffffffffffffffffffffff16146156b8576040517f08c379a00000000000000000000000000000000000000000000000000000000081526004018080602001828103825260248152602001806175ec6024913960400191505060405180910390fd5b8060188190555050565b600e81815481106156cf57fe5b906000526020600020016000915090505481565b600f81815481106156f057fe5b906000526020600020016000915090505481565b3373ffffffffffffffffffffffffffffffffffffffff16600160009054906101000a900473ffffffffffffffffffffffffffffffffffffffff1673ffffffffffffffffffffffffffffffffffffffff16146157aa576040517f08c379a00000000000000000000000000000000000000000000000000000000081526004018080602001828103825260248152602001806175ec6024913960400191505060405180910390fd5b8060198190555050565b60175481565b3373ffffffffffffffffffffffffffffffffffffffff16600160009054906101000a900473ffffffffffffffffffffffffffffffffffffffff1673ffffffffffffffffffffffffffffffffffffffff1614615860576040517f08c379a00000000000000000000000000000000000000000000000000000000081526004018080602001828103825260248152602001806175ec6024913960400191505060405180910390fd5b80600160006101000a81548173ffffffffffffffffffffffffffffffffffffffff021916908373ffffffffffffffffffffffffffffffffffffffff16021790555050565b61546081565b60185481565b600760009054906101000a900473ffffffffffffffffffffffffffffffffffffffff1681565b3373ffffffffffffffffffffffffffffffffffffffff16600160009054906101000a900473ffffffffffffffffffffffffffffffffffffffff1673ffffffffffffffffffffffffffffffffffffffff161461597c576040517f08c379a00000000000000000000000000000000000000000000000000000000081526004018080602001828103825260248152602001806175ec6024913960400191505060405180910390fd5b600073ffffffffffffffffffffffffffffffffffffffff168473ffffffffffffffffffffffffffffffffffffffff161415615a1f576040517f08c379a00000000000000000000000000000000000000000000000000000000081526004018080602001828103825260048152602001807f7a65726f0000000000000000000000000000000000000000000000000000000081525060200191505060405180910390fd5b610bb8831115615a97576040517f08c379a000000000000000000000000000000000000000000000000000000000815260040180806020018281038252600c8152602001807f6f7574206f662072616e6765000000000000000000000000000000000000000081525060200191505060405180910390fd5b600073ffffffffffffffffffffffffffffffffffffffff168273ffffffffffffffffffffffffffffffffffffffff161415615b3a576040517f08c379a00000000000000000000000000000000000000000000000000000000081526004018080602001828103825260048152602001807f7a65726f0000000000000000000000000000000000000000000000000000000081525060200191505060405180910390fd5b6103e8811115615bb2576040517f08c379a000000000000000000000000000000000000000000000000000000000815260040180806020018281038252600c8152602001807f6f7574206f662072616e6765000000000000000000000000000000000000000081525060200191505060405180910390fd5b83601e60006101000a81548173ffffffffffffffffffffffffffffffffffffffff021916908373ffffffffffffffffffffffffffffffffffffffff16021790555082601f8190555081602060006101000a81548173ffffffffffffffffffffffffffffffffffffffff021916908373ffffffffffffffffffffffffffffffffffffffff1602179055508060218190555050505050565b3373ffffffffffffffffffffffffffffffffffffffff16600160009054906101000a900473ffffffffffffffffffffffffffffffffffffffff1673ffffffffffffffffffffffffffffffffffffffff1614615cee576040517f08c379a00000000000000000000000000000000000000000000000000000000081526004018080602001828103825260248152602001806175ec6024913960400191505060405180910390fd5b600960009054906101000a900473ffffffffffffffffffffffffffffffffffffffff1673ffffffffffffffffffffffffffffffffffffffff166397ffe1d7826040518263ffffffff1660e01b815260040180828152602001915050600060405180830381600087803b158015615d6357600080fd5b505af1158015615d77573d6000803e3d6000fd5b5050505050565b600660009054906101000a900473ffffffffffffffffffffffffffffffffffffffff1681565b6000615dd1615dc06154606003546163f890919063ffffffff16565b6002546165a390919063ffffffff16565b905090565b6000600a60009054906101000a900473ffffffffffffffffffffffffffffffffffffffff1673ffffffffffffffffffffffffffffffffffffffff16636808a128600660009054906101000a900473ffffffffffffffffffffffffffffffffffffffff16670de0b6b3a76400006040518363ffffffff1660e01b8152600401808373ffffffffffffffffffffffffffffffffffffffff1681526020018281526020019250505060206040518083038186803b158015615e9357600080fd5b505afa925050508015615ec757506040513d6020811015615eb357600080fd5b810190808051906020019092919050505060015b615f1c576040517f08c379a000000000000000000000000000000000000000000000000000000000815260040180806020018281038252603681526020018061747c6036913960400191505060405180910390fd5b8071ffffffffffffffffffffffffffffffffffff1691505090565b601c5481565b601b5481565b3373ffffffffffffffffffffffffffffffffffffffff16600160009054906101000a900473ffffffffffffffffffffffffffffffffffffffff1673ffffffffffffffffffffffffffffffffffffffff1614615fe9576040517f08c379a00000000000000000000000000000000000000000000000000000000081526004018080602001828103825260248152602001806175ec6024913960400191505060405180910390fd5b60648110158015615ffc57506105dc8111155b61606e576040517f08c379a000000000000000000000000000000000000000000000000000000000815260040180806020018281038252600c8152602001807f6f7574206f662072616e6765000000000000000000000000000000000000000081525060200191505060405180910390fd5b8060138190555050565b60003373ffffffffffffffffffffffffffffffffffffffff16600160009054906101000a900473ffffffffffffffffffffffffffffffffffffffff1673ffffffffffffffffffffffffffffffffffffffff1614616120576040517f08c379a00000000000000000000000000000000000000000000000000000000081526004018080602001828103825260248152602001806175ec6024913960400191505060405180910390fd5b60008360ff16101561619a576040517f08c379a000000000000000000000000000000000000000000000000000000000815260040180806020018281038252601d8152602001807f496e6465782068617320746f20626520686967686572207468616e203000000081525060200191505060405180910390fd5b60098360ff16106161f6576040517f08c379a00000000000000000000000000000000000000000000000000000000081526004018080602001828103825260298152602001806175c36029913960400191505060405180910390fd5b600a821015801561620957506103e88211155b61627b576040517f08c379a00000000000000000000000000000000000000000000000000000000081526004018080602001828103825260148152602001807f5f76616c75653a206f7574206f662072616e676500000000000000000000000081525060200191505060405180910390fd5b81600f8460ff168154811061628c57fe5b90600052602060002001819055506001905092915050565b3373ffffffffffffffffffffffffffffffffffffffff16600160009054906101000a900473ffffffffffffffffffffffffffffffffffffffff1673ffffffffffffffffffffffffffffffffffffffff161461634a576040517f08c379a00000000000000000000000000000000000000000000000000000000081526004018080602001828103825260248152602001806175ec6024913960400191505060405180910390fd5b80600960006101000a81548173ffffffffffffffffffffffffffffffffffffffff021916908373ffffffffffffffffffffffffffffffffffffffff16021790555050565b60105481565b60145481565b60135481565b600860009054906101000a900473ffffffffffffffffffffffffffffffffffffffff1681565b60155481565b600a60009054906101000a900473ffffffffffffffffffffffffffffffffffffffff1681565b60045481565b60008083141561640b5760009050616478565b600082840290508284828161641c57fe5b0414616473576040517f08c379a00000000000000000000000000000000000000000000000000000000081526004018080602001828103825260218152602001806175216021913960400191505060405180910390fd5b809150505b92915050565b60008082116164f5576040517f08c379a000000000000000000000000000000000000000000000000000000000815260040180806020018281038252601a8152602001807f536166654d6174683a206469766973696f6e206279207a65726f00000000000081525060200191505060405180910390fd5b8183816164fe57fe5b04905092915050565b60008282111561657f576040517f08c379a000000000000000000000000000000000000000000000000000000000815260040180806020018281038252601e8152602001807f536166654d6174683a207375627472616374696f6e206f766572666c6f77000081525060200191505060405180910390fd5b818303905092915050565b6000818310616599578161659b565b825b905092915050565b600080828401905083811015616621576040517f08c379a000000000000000000000000000000000000000000000000000000000815260040180806020018281038252601b8152602001807f536166654d6174683a206164646974696f6e206f766572666c6f77000000000081525060200191505060405180910390fd5b8091505092915050565b600080600043815260200190815260200160002060003273ffffffffffffffffffffffffffffffffffffffff1673ffffffffffffffffffffffffffffffffffffffff16815260200190815260200160002060009054906101000a900460ff16905090565b600080600043815260200190815260200160002060003373ffffffffffffffffffffffffffffffffffffffff1673ffffffffffffffffffffffffffffffffffffffff16815260200190815260200160002060009054906101000a900460ff16905090565b6167908363a9059cbb60e01b8484604051602401808373ffffffffffffffffffffffffffffffffffffffff16815260200182815260200192505050604051602081830303815290604052907bffffffffffffffffffffffffffffffffffffffffffffffffffffffff19166020820180517bffffffffffffffffffffffffffffffffffffffffffffffffffffffff8381831617835250505050616e03565b505050565b600a60009054906101000a900473ffffffffffffffffffffffffffffffffffffffff1673ffffffffffffffffffffffffffffffffffffffff1663a2e620456040518163ffffffff1660e01b8152600401600060405180830381600087803b1580156167ff57600080fd5b505af1925050508015616810575060015b6168195761681a565b5b565b600660009054906101000a900473ffffffffffffffffffffffffffffffffffffffff1673ffffffffffffffffffffffffffffffffffffffff166340c10f1930836040518363ffffffff1660e01b8152600401808373ffffffffffffffffffffffffffffffffffffffff16815260200182815260200192505050602060405180830381600087803b1580156168af57600080fd5b505af11580156168c3573d6000803e3d6000fd5b505050506040513d60208110156168d957600080fd5b810190808051906020019092919050505050600080601f541115616a5357616920612710616912601f54856163f890919063ffffffff16565b61647e90919063ffffffff16565b9050600660009054906101000a900473ffffffffffffffffffffffffffffffffffffffff1673ffffffffffffffffffffffffffffffffffffffff1663a9059cbb601e60009054906101000a900473ffffffffffffffffffffffffffffffffffffffff16836040518363ffffffff1660e01b8152600401808373ffffffffffffffffffffffffffffffffffffffff16815260200182815260200192505050602060405180830381600087803b1580156169d757600080fd5b505af11580156169eb573d6000803e3d6000fd5b505050506040513d6020811015616a0157600080fd5b8101908080519060200190929190505050507fcb3f34aaa3445b461e6da5492dc89e5c257a59fa598131f3b6bbc97a3638e4094282604051808381526020018281526020019250505060405180910390a15b6000806021541115616bbb57616a88612710616a7a602154866163f890919063ffffffff16565b61647e90919063ffffffff16565b9050600660009054906101000a900473ffffffffffffffffffffffffffffffffffffffff1673ffffffffffffffffffffffffffffffffffffffff1663a9059cbb602060009054906101000a900473ffffffffffffffffffffffffffffffffffffffff16836040518363ffffffff1660e01b8152600401808373ffffffffffffffffffffffffffffffffffffffff16815260200182815260200192505050602060405180830381600087803b158015616b3f57600080fd5b505af1158015616b53573d6000803e3d6000fd5b505050506040513d6020811015616b6957600080fd5b8101908080519060200190929190505050507fdc8b715b18523e58b7fd0da53259dfa91efd91df4a854d94b136e3333a3b93954282604051808381526020018281526020019250505060405180910390a15b616be081616bd2848661650790919063ffffffff16565b61650790919063ffffffff16565b9250616c52600960009054906101000a900473ffffffffffffffffffffffffffffffffffffffff166000600660009054906101000a900473ffffffffffffffffffffffffffffffffffffffff1673ffffffffffffffffffffffffffffffffffffffff16616ef29092919063ffffffff16565b616cc1600960009054906101000a900473ffffffffffffffffffffffffffffffffffffffff1684600660009054906101000a900473ffffffffffffffffffffffffffffffffffffffff1673ffffffffffffffffffffffffffffffffffffffff16616ef29092919063ffffffff16565b600960009054906101000a900473ffffffffffffffffffffffffffffffffffffffff1673ffffffffffffffffffffffffffffffffffffffff166397ffe1d7846040518263ffffffff1660e01b815260040180828152602001915050600060405180830381600087803b158015616d3657600080fd5b505af1158015616d4a573d6000803e3d6000fd5b505050507fa72fa2f263b243b0f0e1fec5f3d49d33de573d15929b6b730c6b8ab3838c1c4d4284604051808381526020018281526020019250505060405180910390a1505050565b600080600890505b60008160ff1610616df857600e8160ff1681548110616db557fe5b90600052602060002001548310616dec57600f8160ff1681548110616dd657fe5b9060005260206000200154601081905550616df8565b80600190039050616d9a565b506010549050919050565b6060616e65826040518060400160405280602081526020017f5361666545524332303a206c6f772d6c6576656c2063616c6c206661696c65648152508573ffffffffffffffffffffffffffffffffffffffff166170b79092919063ffffffff16565b9050600081511115616eed57808060200190516020811015616e8657600080fd5b8101908080519060200190929190505050616eec576040517f08c379a000000000000000000000000000000000000000000000000000000000815260040180806020018281038252602a815260200180617610602a913960400191505060405180910390fd5b5b505050565b6000811480616fc0575060008373ffffffffffffffffffffffffffffffffffffffff1663dd62ed3e30856040518363ffffffff1660e01b8152600401808373ffffffffffffffffffffffffffffffffffffffff1681526020018273ffffffffffffffffffffffffffffffffffffffff1681526020019250505060206040518083038186803b158015616f8357600080fd5b505afa158015616f97573d6000803e3d6000fd5b505050506040513d6020811015616fad57600080fd5b8101908080519060200190929190505050145b617015576040517f08c379a00000000000000000000000000000000000000000000000000000000081526004018080602001828103825260368152602001806176606036913960400191505060405180910390fd5b6170b28363095ea7b360e01b8484604051602401808373ffffffffffffffffffffffffffffffffffffffff16815260200182815260200192505050604051602081830303815290604052907bffffffffffffffffffffffffffffffffffffffffffffffffffffffff19166020820180517bffffffffffffffffffffffffffffffffffffffffffffffffffffffff8381831617835250505050616e03565b505050565b60606170c684846000856170cf565b90509392505050565b60608247101561712a576040517f08c379a00000000000000000000000000000000000000000000000000000000081526004018080602001828103825260268152602001806174d66026913960400191505060405180910390fd5b61713385617278565b6171a5576040517f08c379a000000000000000000000000000000000000000000000000000000000815260040180806020018281038252601d8152602001807f416464726573733a2063616c6c20746f206e6f6e2d636f6e747261637400000081525060200191505060405180910390fd5b600060608673ffffffffffffffffffffffffffffffffffffffff1685876040518082805190602001908083835b602083106171f557805182526020820191506020810190506020830392506171d2565b6001836020036101000a03801982511681845116808217855250505050505090500191505060006040518083038185875af1925050503d8060008114617257576040519150601f19603f3d011682016040523d82523d6000602084013e61725c565b606091505b509150915061726c82828661728b565b92505050949350505050565b600080823b905060008111915050919050565b6060831561729b57829050617350565b6000835111156172ae5782518084602001fd5b816040517f08c379a00000000000000000000000000000000000000000000000000000000081526004018080602001828103825283818151815260200191508051906020019080838360005b838110156173155780820151818401526020810190506172fa565b50505050905090810190601f1680156173425780820380516001836020036101000a031916815260200191505b509250505060405180910390fd5b9392505050565b8280548282559060005260206000209081019282156173a2579160200282015b828111156173a157825182906affffffffffffffffffffff16905591602001919060010190617377565b5b5090506173af9190617406565b5090565b8280548282559060005260206000209081019282156173f5579160200282015b828111156173f4578251829061ffff169055916020019190600101906173d3565b5b5090506174029190617406565b5090565b5b8082111561741f576000816000905550600101617407565b509056fe5f7072656d69756d5468726573686f6c64206578636565647320746f6d6250726963654365696c696e6754726561737572793a2063616e6e6f742072656465656d20626f6e64732077697468207a65726f20616d6f756e7454726561737572793a206661696c656420746f20636f6e73756c7420544f4d422070726963652066726f6d20746865206f7261636c655f7072656d69756d5468726573686f6c6420697320686967686572207468616e20312e35416464726573733a20696e73756666696369656e742062616c616e636520666f722063616c6c54726561737572793a20747265617375727920686173206e6f206d6f726520627564676574536166654d6174683a206d756c7469706c69636174696f6e206f766572666c6f7754726561737572793a2063616e6e6f7420707572636861736520626f6e64732077697468207a65726f20616d6f756e745f6d696e74696e67466163746f72466f72506179696e67446562743a206f7574206f662072616e67655f6d6178537570706c79457870616e73696f6e50657263656e743a206f7574206f662072616e6765496e6465782068617320746f206265206c6f776572207468616e20636f756e74206f6620746965727354726561737572793a2063616c6c6572206973206e6f7420746865206f70657261746f725361666545524332303a204552433230206f7065726174696f6e20646964206e6f742073756363656564436f6e747261637447756172643a206f6e6520626c6f636b2c206f6e652066756e6374696f6e5361666545524332303a20617070726f76652066726f6d206e6f6e2d7a65726f20746f206e6f6e2d7a65726f20616c6c6f77616e636554726561737572793a20746f6d625072696365206e6f7420656c696769626c6520666f7220626f6e6420707572636861736554726561737572793a206e6f7420656e6f75676820626f6e64206c65667420746f2070757263686173655f626f6f747374726170537570706c79457870616e73696f6e50657263656e743a206f7574206f662072616e6765a2646970667358221220e2d949a0063dd42a2e0099a56de5fa4e34d430c7ac6ecac7ccfb0157d72dc8e464736f6c634300060c0033",
  "immutableReferences": {},
  "source": "// SPDX-License-Identifier: MIT\n\npragma solidity 0.6.12;\n\nimport \"@openzeppelin/contracts/math/Math.sol\";\nimport \"@openzeppelin/contracts/token/ERC20/IERC20.sol\";\nimport \"@openzeppelin/contracts/token/ERC20/SafeERC20.sol\";\nimport \"@openzeppelin/contracts/utils/ReentrancyGuard.sol\";\n\nimport \"./lib/Babylonian.sol\";\nimport \"./owner/Operator.sol\";\nimport \"./utils/ContractGuard.sol\";\nimport \"./interfaces/IBasisAsset.sol\";\nimport \"./interfaces/IOracle.sol\";\nimport \"./interfaces/IMasonry.sol\";\n\ncontract Treasury is ContractGuard {\n    using SafeERC20 for IERC20;\n    using Address for address;\n    using SafeMath for uint256;\n\n    /* ========= CONSTANT VARIABLES ======== */\n\n    uint256 public constant PERIOD = 6 hours;\n\n    /* ========== STATE VARIABLES ========== */\n\n    // governance\n    address public operator;\n\n    // flags\n    bool public initialized = false;\n\n    // epoch\n    uint256 public startTime;\n    uint256 public epoch = 0;\n    uint256 public epochSupplyContractionLeft = 0;\n\n    // exclusions from total supply\n    address[] public excludedFromTotalSupply;\n\n    // core components\n    address public tomb;\n    address public tbond;\n    address public tshare;\n\n    address public masonry;\n    address public tombOracle;\n\n    // price\n    uint256 public tombPriceOne;\n    uint256 public tombPriceCeiling;\n\n    uint256 public seigniorageSaved;\n\n    uint256[] public supplyTiers;\n    uint256[] public maxExpansionTiers;\n\n    uint256 public maxSupplyExpansionPercent;\n    uint256 public bondDepletionFloorPercent;\n    uint256 public seigniorageExpansionFloorPercent;\n    uint256 public maxSupplyContractionPercent;\n    uint256 public maxDebtRatioPercent;\n\n    // 28 first epochs (1 week) with 4.5% expansion regardless of TOMB price\n    uint256 public bootstrapEpochs;\n    uint256 public bootstrapSupplyExpansionPercent;\n\n    /* =================== Added variables =================== */\n    uint256 public previousEpochTombPrice;\n    uint256 public maxDiscountRate; // when purchasing bond\n    uint256 public maxPremiumRate; // when redeeming bond\n    uint256 public discountPercent;\n    uint256 public premiumThreshold;\n    uint256 public premiumPercent;\n    uint256 public mintingFactorForPayingDebt; // print extra TOMB during debt phase\n\n    address public daoFund;\n    uint256 public daoFundSharedPercent;\n\n    address public devFund;\n    uint256 public devFundSharedPercent;\n\n    /* =================== Events =================== */\n\n    event Initialized(address indexed executor, uint256 at);\n    event BurnedBonds(address indexed from, uint256 bondAmount);\n    event RedeemedBonds(address indexed from, uint256 tombAmount, uint256 bondAmount);\n    event BoughtBonds(address indexed from, uint256 tombAmount, uint256 bondAmount);\n    event TreasuryFunded(uint256 timestamp, uint256 seigniorage);\n    event MasonryFunded(uint256 timestamp, uint256 seigniorage);\n    event DaoFundFunded(uint256 timestamp, uint256 seigniorage);\n    event DevFundFunded(uint256 timestamp, uint256 seigniorage);\n\n    /* =================== Modifier =================== */\n\n    modifier onlyOperator() {\n        require(operator == msg.sender, \"Treasury: caller is not the operator\");\n        _;\n    }\n\n    modifier checkCondition {\n        require(now >= startTime, \"Treasury: not started yet\");\n\n        _;\n    }\n\n    modifier checkEpoch {\n        require(now >= nextEpochPoint(), \"Treasury: not opened yet\");\n\n        _;\n\n        epoch = epoch.add(1);\n        epochSupplyContractionLeft = (getTombPrice() > tombPriceCeiling) ? 0 : getTombCirculatingSupply().mul(maxSupplyContractionPercent).div(10000);\n    }\n\n    modifier checkOperator {\n        require(\n            IBasisAsset(tomb).operator() == address(this) &&\n                IBasisAsset(tbond).operator() == address(this) &&\n                IBasisAsset(tshare).operator() == address(this) &&\n                Operator(masonry).operator() == address(this),\n            \"Treasury: need more permission\"\n        );\n\n        _;\n    }\n\n    modifier notInitialized {\n        require(!initialized, \"Treasury: already initialized\");\n\n        _;\n    }\n\n    /* ========== VIEW FUNCTIONS ========== */\n\n    function isInitialized() public view returns (bool) {\n        return initialized;\n    }\n\n    // epoch\n    function nextEpochPoint() public view returns (uint256) {\n        return startTime.add(epoch.mul(PERIOD));\n    }\n\n    // oracle\n    function getTombPrice() public view returns (uint256 tombPrice) {\n        try IOracle(tombOracle).consult(tomb, 1e18) returns (uint144 price) {\n            return uint256(price);\n        } catch {\n            revert(\"Treasury: failed to consult TOMB price from the oracle\");\n        }\n    }\n\n    function getTombUpdatedPrice() public view returns (uint256 _tombPrice) {\n        try IOracle(tombOracle).twap(tomb, 1e18) returns (uint144 price) {\n            return uint256(price);\n        } catch {\n            revert(\"Treasury: failed to consult TOMB price from the oracle\");\n        }\n    }\n\n    // budget\n    function getReserve() public view returns (uint256) {\n        return seigniorageSaved;\n    }\n\n    function getBurnableTombLeft() public view returns (uint256 _burnableTombLeft) {\n        uint256 _tombPrice = getTombPrice();\n        if (_tombPrice <= tombPriceOne) {\n            uint256 _tombSupply = getTombCirculatingSupply();\n            uint256 _bondMaxSupply = _tombSupply.mul(maxDebtRatioPercent).div(10000);\n            uint256 _bondSupply = IERC20(tbond).totalSupply();\n            if (_bondMaxSupply > _bondSupply) {\n                uint256 _maxMintableBond = _bondMaxSupply.sub(_bondSupply);\n                uint256 _maxBurnableTomb = _maxMintableBond.mul(_tombPrice).div(1e18);\n                _burnableTombLeft = Math.min(epochSupplyContractionLeft, _maxBurnableTomb);\n            }\n        }\n    }\n\n    function getRedeemableBonds() public view returns (uint256 _redeemableBonds) {\n        uint256 _tombPrice = getTombPrice();\n        if (_tombPrice > tombPriceCeiling) {\n            uint256 _totalTomb = IERC20(tomb).balanceOf(address(this));\n            uint256 _rate = getBondPremiumRate();\n            if (_rate > 0) {\n                _redeemableBonds = _totalTomb.mul(1e18).div(_rate);\n            }\n        }\n    }\n\n    function getBondDiscountRate() public view returns (uint256 _rate) {\n        uint256 _tombPrice = getTombPrice();\n        if (_tombPrice <= tombPriceOne) {\n            if (discountPercent == 0) {\n                // no discount\n                _rate = tombPriceOne;\n            } else {\n                uint256 _bondAmount = tombPriceOne.mul(1e18).div(_tombPrice); // to burn 1 TOMB\n                uint256 _discountAmount = _bondAmount.sub(tombPriceOne).mul(discountPercent).div(10000);\n                _rate = tombPriceOne.add(_discountAmount);\n                if (maxDiscountRate > 0 && _rate > maxDiscountRate) {\n                    _rate = maxDiscountRate;\n                }\n            }\n        }\n    }\n\n    function getBondPremiumRate() public view returns (uint256 _rate) {\n        uint256 _tombPrice = getTombPrice();\n        if (_tombPrice > tombPriceCeiling) {\n            uint256 _tombPricePremiumThreshold = tombPriceOne.mul(premiumThreshold).div(100);\n            if (_tombPrice >= _tombPricePremiumThreshold) {\n                //Price > 1.10\n                uint256 _premiumAmount = _tombPrice.sub(tombPriceOne).mul(premiumPercent).div(10000);\n                _rate = tombPriceOne.add(_premiumAmount);\n                if (maxPremiumRate > 0 && _rate > maxPremiumRate) {\n                    _rate = maxPremiumRate;\n                }\n            } else {\n                // no premium bonus\n                _rate = tombPriceOne;\n            }\n        }\n    }\n\n    /* ========== GOVERNANCE ========== */\n\n    function initialize(\n        address _tomb,\n        address _tbond,\n        address _tshare,\n        address _tombOracle,\n        address _masonry,\n        address _genesisPool,\n        uint256 _startTime\n    ) public notInitialized {\n        tomb = _tomb;\n        tbond = _tbond;\n        tshare = _tshare;\n        tombOracle = _tombOracle;\n        masonry = _masonry;\n        startTime = _startTime;\n\n        tombPriceOne = 10**18;\n        tombPriceCeiling = tombPriceOne.mul(101).div(100);\n\n        // exclude contracts from total supply\n        excludedFromTotalSupply.push(_genesisPool);\n\n        // Dynamic max expansion percent\n        supplyTiers = [0 ether, 500000 ether, 1000000 ether, 1500000 ether, 2000000 ether, 5000000 ether, 10000000 ether, 20000000 ether, 50000000 ether];\n        maxExpansionTiers = [450, 400, 350, 300, 250, 200, 150, 125, 100];\n\n        maxSupplyExpansionPercent = 400; // Upto 4.0% supply for expansion\n\n        bondDepletionFloorPercent = 10000; // 100% of Bond supply for depletion floor\n        seigniorageExpansionFloorPercent = 3500; // At least 35% of expansion reserved for masonry\n        maxSupplyContractionPercent = 300; // Upto 3.0% supply for contraction (to burn TOMB and mint tBOND)\n        maxDebtRatioPercent = 3500; // Upto 35% supply of tBOND to purchase\n\n        premiumThreshold = 110;\n        premiumPercent = 7000;\n\n        // First 12 epochs with 4.5% expansion\n        bootstrapEpochs = 12;\n        bootstrapSupplyExpansionPercent = 450;\n\n        // set seigniorageSaved to it's balance\n        seigniorageSaved = IERC20(tomb).balanceOf(address(this));\n\n        initialized = true;\n        operator = msg.sender;\n        emit Initialized(msg.sender, block.number);\n    }\n\n    function setOperator(address _operator) external onlyOperator {\n        operator = _operator;\n    }\n\n    function setMasonry(address _masonry) external onlyOperator {\n        masonry = _masonry;\n    }\n\n    function setTombOracle(address _tombOracle) external onlyOperator {\n        tombOracle = _tombOracle;\n    }\n\n    function setTombPriceCeiling(uint256 _tombPriceCeiling) external onlyOperator {\n        require(_tombPriceCeiling >= tombPriceOne && _tombPriceCeiling <= tombPriceOne.mul(120).div(100), \"out of range\"); // [$1.0, $1.2]\n        tombPriceCeiling = _tombPriceCeiling;\n    }\n\n    function setMaxSupplyExpansionPercents(uint256 _maxSupplyExpansionPercent) external onlyOperator {\n        require(_maxSupplyExpansionPercent >= 10 && _maxSupplyExpansionPercent <= 1000, \"_maxSupplyExpansionPercent: out of range\"); // [0.1%, 10%]\n        maxSupplyExpansionPercent = _maxSupplyExpansionPercent;\n    }\n\n    function setSupplyTiersEntry(uint8 _index, uint256 _value) external onlyOperator returns (bool) {\n        require(_index >= 0, \"Index has to be higher than 0\");\n        require(_index < 9, \"Index has to be lower than count of tiers\");\n        if (_index > 0) {\n            require(_value > supplyTiers[_index - 1]);\n        }\n        if (_index < 8) {\n            require(_value < supplyTiers[_index + 1]);\n        }\n        supplyTiers[_index] = _value;\n        return true;\n    }\n\n    function setMaxExpansionTiersEntry(uint8 _index, uint256 _value) external onlyOperator returns (bool) {\n        require(_index >= 0, \"Index has to be higher than 0\");\n        require(_index < 9, \"Index has to be lower than count of tiers\");\n        require(_value >= 10 && _value <= 1000, \"_value: out of range\"); // [0.1%, 10%]\n        maxExpansionTiers[_index] = _value;\n        return true;\n    }\n\n    function setBondDepletionFloorPercent(uint256 _bondDepletionFloorPercent) external onlyOperator {\n        require(_bondDepletionFloorPercent >= 500 && _bondDepletionFloorPercent <= 10000, \"out of range\"); // [5%, 100%]\n        bondDepletionFloorPercent = _bondDepletionFloorPercent;\n    }\n\n    function setMaxSupplyContractionPercent(uint256 _maxSupplyContractionPercent) external onlyOperator {\n        require(_maxSupplyContractionPercent >= 100 && _maxSupplyContractionPercent <= 1500, \"out of range\"); // [0.1%, 15%]\n        maxSupplyContractionPercent = _maxSupplyContractionPercent;\n    }\n\n    function setMaxDebtRatioPercent(uint256 _maxDebtRatioPercent) external onlyOperator {\n        require(_maxDebtRatioPercent >= 1000 && _maxDebtRatioPercent <= 10000, \"out of range\"); // [10%, 100%]\n        maxDebtRatioPercent = _maxDebtRatioPercent;\n    }\n\n    function setBootstrap(uint256 _bootstrapEpochs, uint256 _bootstrapSupplyExpansionPercent) external onlyOperator {\n        require(_bootstrapEpochs <= 120, \"_bootstrapEpochs: out of range\"); // <= 1 month\n        require(_bootstrapSupplyExpansionPercent >= 100 && _bootstrapSupplyExpansionPercent <= 1000, \"_bootstrapSupplyExpansionPercent: out of range\"); // [1%, 10%]\n        bootstrapEpochs = _bootstrapEpochs;\n        bootstrapSupplyExpansionPercent = _bootstrapSupplyExpansionPercent;\n    }\n\n    function setExtraFunds(\n        address _daoFund,\n        uint256 _daoFundSharedPercent,\n        address _devFund,\n        uint256 _devFundSharedPercent\n    ) external onlyOperator {\n        require(_daoFund != address(0), \"zero\");\n        require(_daoFundSharedPercent <= 3000, \"out of range\"); // <= 30%\n        require(_devFund != address(0), \"zero\");\n        require(_devFundSharedPercent <= 1000, \"out of range\"); // <= 10%\n        daoFund = _daoFund;\n        daoFundSharedPercent = _daoFundSharedPercent;\n        devFund = _devFund;\n        devFundSharedPercent = _devFundSharedPercent;\n    }\n\n    function setMaxDiscountRate(uint256 _maxDiscountRate) external onlyOperator {\n        maxDiscountRate = _maxDiscountRate;\n    }\n\n    function setMaxPremiumRate(uint256 _maxPremiumRate) external onlyOperator {\n        maxPremiumRate = _maxPremiumRate;\n    }\n\n    function setDiscountPercent(uint256 _discountPercent) external onlyOperator {\n        require(_discountPercent <= 20000, \"_discountPercent is over 200%\");\n        discountPercent = _discountPercent;\n    }\n\n    function setPremiumThreshold(uint256 _premiumThreshold) external onlyOperator {\n        require(_premiumThreshold >= tombPriceCeiling, \"_premiumThreshold exceeds tombPriceCeiling\");\n        require(_premiumThreshold <= 150, \"_premiumThreshold is higher than 1.5\");\n        premiumThreshold = _premiumThreshold;\n    }\n\n    function setPremiumPercent(uint256 _premiumPercent) external onlyOperator {\n        require(_premiumPercent <= 20000, \"_premiumPercent is over 200%\");\n        premiumPercent = _premiumPercent;\n    }\n\n    function setMintingFactorForPayingDebt(uint256 _mintingFactorForPayingDebt) external onlyOperator {\n        require(_mintingFactorForPayingDebt >= 10000 && _mintingFactorForPayingDebt <= 20000, \"_mintingFactorForPayingDebt: out of range\"); // [100%, 200%]\n        mintingFactorForPayingDebt = _mintingFactorForPayingDebt;\n    }\n\n    /* ========== MUTABLE FUNCTIONS ========== */\n\n    function _updateTombPrice() internal {\n        try IOracle(tombOracle).update() {} catch {}\n    }\n\n    function getTombCirculatingSupply() public view returns (uint256) {\n        IERC20 tombErc20 = IERC20(tomb);\n        uint256 totalSupply = tombErc20.totalSupply();\n        uint256 balanceExcluded = 0;\n        for (uint8 entryId = 0; entryId < excludedFromTotalSupply.length; ++entryId) {\n            balanceExcluded = balanceExcluded.add(tombErc20.balanceOf(excludedFromTotalSupply[entryId]));\n        }\n        return totalSupply.sub(balanceExcluded);\n    }\n\n    function buyBonds(uint256 _tombAmount, uint256 targetPrice) external onlyOneBlock checkCondition checkOperator {\n        require(_tombAmount > 0, \"Treasury: cannot purchase bonds with zero amount\");\n\n        uint256 tombPrice = getTombPrice();\n        require(tombPrice == targetPrice, \"Treasury: TOMB price moved\");\n        require(\n            tombPrice < tombPriceOne, // price < $1\n            \"Treasury: tombPrice not eligible for bond purchase\"\n        );\n\n        require(_tombAmount <= epochSupplyContractionLeft, \"Treasury: not enough bond left to purchase\");\n\n        uint256 _rate = getBondDiscountRate();\n        require(_rate > 0, \"Treasury: invalid bond rate\");\n\n        uint256 _bondAmount = _tombAmount.mul(_rate).div(1e18);\n        uint256 tombSupply = getTombCirculatingSupply();\n        uint256 newBondSupply = IERC20(tbond).totalSupply().add(_bondAmount);\n        require(newBondSupply <= tombSupply.mul(maxDebtRatioPercent).div(10000), \"over max debt ratio\");\n\n        IBasisAsset(tomb).burnFrom(msg.sender, _tombAmount);\n        IBasisAsset(tbond).mint(msg.sender, _bondAmount);\n\n        epochSupplyContractionLeft = epochSupplyContractionLeft.sub(_tombAmount);\n        _updateTombPrice();\n\n        emit BoughtBonds(msg.sender, _tombAmount, _bondAmount);\n    }\n\n    function redeemBonds(uint256 _bondAmount, uint256 targetPrice) external onlyOneBlock checkCondition checkOperator {\n        require(_bondAmount > 0, \"Treasury: cannot redeem bonds with zero amount\");\n\n        uint256 tombPrice = getTombPrice();\n        require(tombPrice == targetPrice, \"Treasury: TOMB price moved\");\n        require(\n            tombPrice > tombPriceCeiling, // price > $1.01\n            \"Treasury: tombPrice not eligible for bond purchase\"\n        );\n\n        uint256 _rate = getBondPremiumRate();\n        require(_rate > 0, \"Treasury: invalid bond rate\");\n\n        uint256 _tombAmount = _bondAmount.mul(_rate).div(1e18);\n        require(IERC20(tomb).balanceOf(address(this)) >= _tombAmount, \"Treasury: treasury has no more budget\");\n\n        seigniorageSaved = seigniorageSaved.sub(Math.min(seigniorageSaved, _tombAmount));\n\n        IBasisAsset(tbond).burnFrom(msg.sender, _bondAmount);\n        IERC20(tomb).safeTransfer(msg.sender, _tombAmount);\n\n        _updateTombPrice();\n\n        emit RedeemedBonds(msg.sender, _tombAmount, _bondAmount);\n    }\n\n    function _sendToMasonry(uint256 _amount) internal {\n        IBasisAsset(tomb).mint(address(this), _amount);\n\n        uint256 _daoFundSharedAmount = 0;\n        if (daoFundSharedPercent > 0) {\n            _daoFundSharedAmount = _amount.mul(daoFundSharedPercent).div(10000);\n            IERC20(tomb).transfer(daoFund, _daoFundSharedAmount);\n            emit DaoFundFunded(now, _daoFundSharedAmount);\n        }\n\n        uint256 _devFundSharedAmount = 0;\n        if (devFundSharedPercent > 0) {\n            _devFundSharedAmount = _amount.mul(devFundSharedPercent).div(10000);\n            IERC20(tomb).transfer(devFund, _devFundSharedAmount);\n            emit DevFundFunded(now, _devFundSharedAmount);\n        }\n\n        _amount = _amount.sub(_daoFundSharedAmount).sub(_devFundSharedAmount);\n\n        IERC20(tomb).safeApprove(masonry, 0);\n        IERC20(tomb).safeApprove(masonry, _amount);\n        IMasonry(masonry).allocateSeigniorage(_amount);\n        emit MasonryFunded(now, _amount);\n    }\n\n    function _calculateMaxSupplyExpansionPercent(uint256 _tombSupply) internal returns (uint256) {\n        for (uint8 tierId = 8; tierId >= 0; --tierId) {\n            if (_tombSupply >= supplyTiers[tierId]) {\n                maxSupplyExpansionPercent = maxExpansionTiers[tierId];\n                break;\n            }\n        }\n        return maxSupplyExpansionPercent;\n    }\n\n    function allocateSeigniorage() external onlyOneBlock checkCondition checkEpoch checkOperator {\n        _updateTombPrice();\n        previousEpochTombPrice = getTombPrice();\n        uint256 tombSupply = getTombCirculatingSupply().sub(seigniorageSaved);\n        if (epoch < bootstrapEpochs) {\n            // 28 first epochs with 4.5% expansion\n            _sendToMasonry(tombSupply.mul(bootstrapSupplyExpansionPercent).div(10000));\n        } else {\n            if (previousEpochTombPrice > tombPriceCeiling) {\n                // Expansion ($TOMB Price > 1 $FTM): there is some seigniorage to be allocated\n                uint256 bondSupply = IERC20(tbond).totalSupply();\n                uint256 _percentage = previousEpochTombPrice.sub(tombPriceOne);\n                uint256 _savedForBond;\n                uint256 _savedForMasonry;\n                uint256 _mse = _calculateMaxSupplyExpansionPercent(tombSupply).mul(1e14);\n                if (_percentage > _mse) {\n                    _percentage = _mse;\n                }\n                if (seigniorageSaved >= bondSupply.mul(bondDepletionFloorPercent).div(10000)) {\n                    // saved enough to pay debt, mint as usual rate\n                    _savedForMasonry = tombSupply.mul(_percentage).div(1e18);\n                } else {\n                    // have not saved enough to pay debt, mint more\n                    uint256 _seigniorage = tombSupply.mul(_percentage).div(1e18);\n                    _savedForMasonry = _seigniorage.mul(seigniorageExpansionFloorPercent).div(10000);\n                    _savedForBond = _seigniorage.sub(_savedForMasonry);\n                    if (mintingFactorForPayingDebt > 0) {\n                        _savedForBond = _savedForBond.mul(mintingFactorForPayingDebt).div(10000);\n                    }\n                }\n                if (_savedForMasonry > 0) {\n                    _sendToMasonry(_savedForMasonry);\n                }\n                if (_savedForBond > 0) {\n                    seigniorageSaved = seigniorageSaved.add(_savedForBond);\n                    IBasisAsset(tomb).mint(address(this), _savedForBond);\n                    emit TreasuryFunded(now, _savedForBond);\n                }\n            }\n        }\n    }\n\n    function governanceRecoverUnsupported(\n        IERC20 _token,\n        uint256 _amount,\n        address _to\n    ) external onlyOperator {\n        // do not allow to drain core tokens\n        require(address(_token) != address(tomb), \"tomb\");\n        require(address(_token) != address(tbond), \"bond\");\n        require(address(_token) != address(tshare), \"share\");\n        _token.safeTransfer(_to, _amount);\n    }\n\n    function masonrySetOperator(address _operator) external onlyOperator {\n        IMasonry(masonry).setOperator(_operator);\n    }\n\n    function masonrySetLockUp(uint256 _withdrawLockupEpochs, uint256 _rewardLockupEpochs) external onlyOperator {\n        IMasonry(masonry).setLockUp(_withdrawLockupEpochs, _rewardLockupEpochs);\n    }\n\n    function masonryAllocateSeigniorage(uint256 amount) external onlyOperator {\n        IMasonry(masonry).allocateSeigniorage(amount);\n    }\n\n    function masonryGovernanceRecoverUnsupported(\n        address _token,\n        uint256 _amount,\n        address _to\n    ) external onlyOperator {\n        IMasonry(masonry).governanceRecoverUnsupported(_token, _amount, _to);\n    }\n}\n",
  "sourcePath": "D:\\5xDEFI\\tomb-contract\\contracts\\Treasury.sol",
  "compiler": {
    "name": "solc",
    "version": "0.6.12+commit.27d51765.Emscripten.clang"
  },
  "schemaVersion": "3.4.3",
  "updatedAt": "2022-03-04T03:11:57.478Z",
  "devdoc": {
    "kind": "dev",
    "methods": {},
    "version": 1
  },
  "userdoc": {
    "kind": "user",
    "methods": {},
    "version": 1
  }
}