{
  "contractName": "TShareSwapper",
  "abi": [
    {
      "inputs": [
        {
          "internalType": "address",
          "name": "_tomb",
          "type": "address"
        },
        {
          "internalType": "address",
          "name": "_tbond",
          "type": "address"
        },
        {
          "internalType": "address",
          "name": "_tshare",
          "type": "address"
        },
        {
          "internalType": "address",
          "name": "_wftmAddress",
          "type": "address"
        },
        {
          "internalType": "address",
          "name": "_tombSpookyLpPair",
          "type": "address"
        },
        {
          "internalType": "address",
          "name": "_tshareSpookyLpPair",
          "type": "address"
        },
        {
          "internalType": "address",
          "name": "_daoAddress",
          "type": "address"
        }
      ],
      "stateMutability": "nonpayable",
      "type": "constructor"
    },
    {
      "anonymous": false,
      "inputs": [
        {
          "indexed": true,
          "internalType": "address",
          "name": "previousOperator",
          "type": "address"
        },
        {
          "indexed": true,
          "internalType": "address",
          "name": "newOperator",
          "type": "address"
        }
      ],
      "name": "OperatorTransferred",
      "type": "event"
    },
    {
      "anonymous": false,
      "inputs": [
        {
          "indexed": true,
          "internalType": "address",
          "name": "previousOwner",
          "type": "address"
        },
        {
          "indexed": true,
          "internalType": "address",
          "name": "newOwner",
          "type": "address"
        }
      ],
      "name": "OwnershipTransferred",
      "type": "event"
    },
    {
      "anonymous": false,
      "inputs": [
        {
          "indexed": true,
          "internalType": "address",
          "name": "sender",
          "type": "address"
        },
        {
          "indexed": false,
          "internalType": "uint256",
          "name": "tbondAmount",
          "type": "uint256"
        },
        {
          "indexed": false,
          "internalType": "uint256",
          "name": "tshareAmount",
          "type": "uint256"
        }
      ],
      "name": "TBondSwapPerformed",
      "type": "event"
    },
    {
      "inputs": [],
      "name": "daoAddress",
      "outputs": [
        {
          "internalType": "address",
          "name": "",
          "type": "address"
        }
      ],
      "stateMutability": "view",
      "type": "function"
    },
    {
      "inputs": [],
      "name": "isOperator",
      "outputs": [
        {
          "internalType": "bool",
          "name": "",
          "type": "bool"
        }
      ],
      "stateMutability": "view",
      "type": "function"
    },
    {
      "inputs": [],
      "name": "operator",
      "outputs": [
        {
          "internalType": "address",
          "name": "",
          "type": "address"
        }
      ],
      "stateMutability": "view",
      "type": "function"
    },
    {
      "inputs": [],
      "name": "owner",
      "outputs": [
        {
          "internalType": "address",
          "name": "",
          "type": "address"
        }
      ],
      "stateMutability": "view",
      "type": "function"
    },
    {
      "inputs": [],
      "name": "renounceOwnership",
      "outputs": [],
      "stateMutability": "nonpayable",
      "type": "function"
    },
    {
      "inputs": [],
      "name": "tbond",
      "outputs": [
        {
          "internalType": "contract IERC20",
          "name": "",
          "type": "address"
        }
      ],
      "stateMutability": "view",
      "type": "function"
    },
    {
      "inputs": [],
      "name": "tomb",
      "outputs": [
        {
          "internalType": "contract IERC20",
          "name": "",
          "type": "address"
        }
      ],
      "stateMutability": "view",
      "type": "function"
    },
    {
      "inputs": [],
      "name": "tombSpookyLpPair",
      "outputs": [
        {
          "internalType": "address",
          "name": "",
          "type": "address"
        }
      ],
      "stateMutability": "view",
      "type": "function"
    },
    {
      "inputs": [
        {
          "internalType": "address",
          "name": "newOperator_",
          "type": "address"
        }
      ],
      "name": "transferOperator",
      "outputs": [],
      "stateMutability": "nonpayable",
      "type": "function"
    },
    {
      "inputs": [
        {
          "internalType": "address",
          "name": "newOwner",
          "type": "address"
        }
      ],
      "name": "transferOwnership",
      "outputs": [],
      "stateMutability": "nonpayable",
      "type": "function"
    },
    {
      "inputs": [],
      "name": "tshare",
      "outputs": [
        {
          "internalType": "contract IERC20",
          "name": "",
          "type": "address"
        }
      ],
      "stateMutability": "view",
      "type": "function"
    },
    {
      "inputs": [],
      "name": "tshareSpookyLpPair",
      "outputs": [
        {
          "internalType": "address",
          "name": "",
          "type": "address"
        }
      ],
      "stateMutability": "view",
      "type": "function"
    },
    {
      "inputs": [],
      "name": "wftmAddress",
      "outputs": [
        {
          "internalType": "address",
          "name": "",
          "type": "address"
        }
      ],
      "stateMutability": "view",
      "type": "function"
    },
    {
      "inputs": [
        {
          "internalType": "uint256",
          "name": "_tbondAmount",
          "type": "uint256"
        }
      ],
      "name": "estimateAmountOfTShare",
      "outputs": [
        {
          "internalType": "uint256",
          "name": "",
          "type": "uint256"
        }
      ],
      "stateMutability": "view",
      "type": "function"
    },
    {
      "inputs": [
        {
          "internalType": "uint256",
          "name": "_tbondAmount",
          "type": "uint256"
        }
      ],
      "name": "swapTBondToTShare",
      "outputs": [],
      "stateMutability": "nonpayable",
      "type": "function"
    },
    {
      "inputs": [
        {
          "internalType": "uint256",
          "name": "_amount",
          "type": "uint256"
        }
      ],
      "name": "withdrawTShare",
      "outputs": [],
      "stateMutability": "nonpayable",
      "type": "function"
    },
    {
      "inputs": [],
      "name": "getTShareBalance",
      "outputs": [
        {
          "internalType": "uint256",
          "name": "",
          "type": "uint256"
        }
      ],
      "stateMutability": "view",
      "type": "function"
    },
    {
      "inputs": [
        {
          "internalType": "address",
          "name": "_user",
          "type": "address"
        }
      ],
      "name": "getTBondBalance",
      "outputs": [
        {
          "internalType": "uint256",
          "name": "",
          "type": "uint256"
        }
      ],
      "stateMutability": "view",
      "type": "function"
    },
    {
      "inputs": [],
      "name": "getTombPrice",
      "outputs": [
        {
          "internalType": "uint256",
          "name": "",
          "type": "uint256"
        }
      ],
      "stateMutability": "view",
      "type": "function"
    },
    {
      "inputs": [],
      "name": "getTSharePrice",
      "outputs": [
        {
          "internalType": "uint256",
          "name": "",
          "type": "uint256"
        }
      ],
      "stateMutability": "view",
      "type": "function"
    },
    {
      "inputs": [],
      "name": "getTShareAmountPerTomb",
      "outputs": [
        {
          "internalType": "uint256",
          "name": "",
          "type": "uint256"
        }
      ],
      "stateMutability": "view",
      "type": "function"
    }
  ],
  "bytecode": "0x60806040523480156200001157600080fd5b506040516200252338038062002523833981810160405260e08110156200003757600080fd5b8101908080519060200190929190805190602001909291908051906020019092919080519060200190929190805190602001909291908051906020019092919080519060200190929190505050600062000096620003d560201b60201c565b9050806000806101000a81548173ffffffffffffffffffffffffffffffffffffffff021916908373ffffffffffffffffffffffffffffffffffffffff1602179055508073ffffffffffffffffffffffffffffffffffffffff16600073ffffffffffffffffffffffffffffffffffffffff167f8be0079c531659141344cd1fd0a4f28419497f9722a3daafe3b4186f6b6457e060405160405180910390a35062000144620003d560201b60201c565b600160006101000a81548173ffffffffffffffffffffffffffffffffffffffff021916908373ffffffffffffffffffffffffffffffffffffffff160217905550600160009054906101000a900473ffffffffffffffffffffffffffffffffffffffff1673ffffffffffffffffffffffffffffffffffffffff16600073ffffffffffffffffffffffffffffffffffffffff167f74da04524d50c64947f5dd5381ef1a4dca5cba8ed1d816243f9e48aa0b5617ed60405160405180910390a386600260006101000a81548173ffffffffffffffffffffffffffffffffffffffff021916908373ffffffffffffffffffffffffffffffffffffffff16021790555085600360006101000a81548173ffffffffffffffffffffffffffffffffffffffff021916908373ffffffffffffffffffffffffffffffffffffffff16021790555084600460006101000a81548173ffffffffffffffffffffffffffffffffffffffff021916908373ffffffffffffffffffffffffffffffffffffffff16021790555083600760006101000a81548173ffffffffffffffffffffffffffffffffffffffff021916908373ffffffffffffffffffffffffffffffffffffffff16021790555082600560006101000a81548173ffffffffffffffffffffffffffffffffffffffff021916908373ffffffffffffffffffffffffffffffffffffffff16021790555081600660006101000a81548173ffffffffffffffffffffffffffffffffffffffff021916908373ffffffffffffffffffffffffffffffffffffffff16021790555080600860006101000a81548173ffffffffffffffffffffffffffffffffffffffff021916908373ffffffffffffffffffffffffffffffffffffffff16021790555050505050505050620003dd565b600033905090565b61213680620003ed6000396000f3fe608060405234801561001057600080fd5b50600436106101375760003560e01c80638da5cb5b116100b8578063bd0ef4ef1161007c578063bd0ef4ef14610406578063c040f23a14610424578063c2ef4c2714610458578063ccc35e721461049a578063ee6822a7146104b8578063f2fde38b146104ec57610137565b80638da5cb5b146102e4578063965d16ab146103185780639e55870714610346578063a599a8681461037a578063b981cdf3146103d257610137565b8063507d8f41116100ff578063507d8f4114610210578063570ca7351461024457806358b9889c14610278578063715018a6146102a65780637edd3da5146102b057610137565b806309bb4f921461013c578063111abf391461015a5780632131c68c1461017857806329605e77146101ac5780634456eda2146101f0575b600080fd5b610144610530565b6040518082815260200191505060405180910390f35b61016261072e565b6040518082815260200191505060405180910390f35b61018061092c565b604051808273ffffffffffffffffffffffffffffffffffffffff16815260200191505060405180910390f35b6101ee600480360360208110156101c257600080fd5b81019080803573ffffffffffffffffffffffffffffffffffffffff169060200190929190505050610952565b005b6101f8610a0d565b60405180821515815260200191505060405180910390f35b610218610a6c565b604051808273ffffffffffffffffffffffffffffffffffffffff16815260200191505060405180910390f35b61024c610a92565b604051808273ffffffffffffffffffffffffffffffffffffffff16815260200191505060405180910390f35b6102a46004803603602081101561028e57600080fd5b8101908080359060200190929190505050610abc565b005b6102ae610c12565b005b6102b8610d7f565b604051808273ffffffffffffffffffffffffffffffffffffffff16815260200191505060405180910390f35b6102ec610da5565b604051808273ffffffffffffffffffffffffffffffffffffffff16815260200191505060405180910390f35b6103446004803603602081101561032e57600080fd5b8101908080359060200190929190505050610dce565b005b61034e61101f565b604051808273ffffffffffffffffffffffffffffffffffffffff16815260200191505060405180910390f35b6103bc6004803603602081101561039057600080fd5b81019080803573ffffffffffffffffffffffffffffffffffffffff169060200190929190505050611045565b6040518082815260200191505060405180910390f35b6103da611112565b604051808273ffffffffffffffffffffffffffffffffffffffff16815260200191505060405180910390f35b61040e611138565b6040518082815260200191505060405180910390f35b61042c611563565b604051808273ffffffffffffffffffffffffffffffffffffffff16815260200191505060405180910390f35b6104846004803603602081101561046e57600080fd5b8101908080359060200190929190505050611589565b6040518082815260200191505060405180910390f35b6104a26115cb565b6040518082815260200191505060405180910390f35b6104c0611696565b604051808273ffffffffffffffffffffffffffffffffffffffff16815260200191505060405180910390f35b61052e6004803603602081101561050257600080fd5b81019080803573ffffffffffffffffffffffffffffffffffffffff1690602001909291905050506116bc565b005b6000610729600260009054906101000a900473ffffffffffffffffffffffffffffffffffffffff1673ffffffffffffffffffffffffffffffffffffffff166370a08231600560009054906101000a900473ffffffffffffffffffffffffffffffffffffffff166040518263ffffffff1660e01b8152600401808273ffffffffffffffffffffffffffffffffffffffff16815260200191505060206040518083038186803b1580156105e057600080fd5b505afa1580156105f4573d6000803e3d6000fd5b505050506040513d602081101561060a57600080fd5b810190808051906020019092919050505061071b670de0b6b3a7640000600760009054906101000a900473ffffffffffffffffffffffffffffffffffffffff1673ffffffffffffffffffffffffffffffffffffffff166370a08231600560009054906101000a900473ffffffffffffffffffffffffffffffffffffffff166040518263ffffffff1660e01b8152600401808273ffffffffffffffffffffffffffffffffffffffff16815260200191505060206040518083038186803b1580156106d257600080fd5b505afa1580156106e6573d6000803e3d6000fd5b505050506040513d60208110156106fc57600080fd5b81019080805190602001909291905050506118ae90919063ffffffff16565b61193490919063ffffffff16565b905090565b6000610927600460009054906101000a900473ffffffffffffffffffffffffffffffffffffffff1673ffffffffffffffffffffffffffffffffffffffff166370a08231600660009054906101000a900473ffffffffffffffffffffffffffffffffffffffff166040518263ffffffff1660e01b8152600401808273ffffffffffffffffffffffffffffffffffffffff16815260200191505060206040518083038186803b1580156107de57600080fd5b505afa1580156107f2573d6000803e3d6000fd5b505050506040513d602081101561080857600080fd5b8101908080519060200190929190505050610919670de0b6b3a7640000600760009054906101000a900473ffffffffffffffffffffffffffffffffffffffff1673ffffffffffffffffffffffffffffffffffffffff166370a08231600660009054906101000a900473ffffffffffffffffffffffffffffffffffffffff166040518263ffffffff1660e01b8152600401808273ffffffffffffffffffffffffffffffffffffffff16815260200191505060206040518083038186803b1580156108d057600080fd5b505afa1580156108e4573d6000803e3d6000fd5b505050506040513d60208110156108fa57600080fd5b81019080805190602001909291905050506118ae90919063ffffffff16565b61193490919063ffffffff16565b905090565b600860009054906101000a900473ffffffffffffffffffffffffffffffffffffffff1681565b61095a6119bd565b73ffffffffffffffffffffffffffffffffffffffff16610978610da5565b73ffffffffffffffffffffffffffffffffffffffff1614610a01576040517f08c379a00000000000000000000000000000000000000000000000000000000081526004018080602001828103825260208152602001807f4f776e61626c653a2063616c6c6572206973206e6f7420746865206f776e657281525060200191505060405180910390fd5b610a0a816119c5565b50565b6000600160009054906101000a900473ffffffffffffffffffffffffffffffffffffffff1673ffffffffffffffffffffffffffffffffffffffff16610a506119bd565b73ffffffffffffffffffffffffffffffffffffffff1614905090565b600660009054906101000a900473ffffffffffffffffffffffffffffffffffffffff1681565b6000600160009054906101000a900473ffffffffffffffffffffffffffffffffffffffff16905090565b3373ffffffffffffffffffffffffffffffffffffffff16600160009054906101000a900473ffffffffffffffffffffffffffffffffffffffff1673ffffffffffffffffffffffffffffffffffffffff1614610b62576040517f08c379a00000000000000000000000000000000000000000000000000000000081526004018080602001828103825260248152602001806120776024913960400191505060405180910390fd5b80610b6b6115cb565b1015610bc2576040517f08c379a000000000000000000000000000000000000000000000000000000000815260040180806020018281038252603c8152602001806120c5603c913960400191505060405180910390fd5b610c0f3382600460009054906101000a900473ffffffffffffffffffffffffffffffffffffffff1673ffffffffffffffffffffffffffffffffffffffff16611aea9092919063ffffffff16565b50565b610c1a6119bd565b73ffffffffffffffffffffffffffffffffffffffff16610c38610da5565b73ffffffffffffffffffffffffffffffffffffffff1614610cc1576040517f08c379a00000000000000000000000000000000000000000000000000000000081526004018080602001828103825260208152602001807f4f776e61626c653a2063616c6c6572206973206e6f7420746865206f776e657281525060200191505060405180910390fd5b600073ffffffffffffffffffffffffffffffffffffffff1660008054906101000a900473ffffffffffffffffffffffffffffffffffffffff1673ffffffffffffffffffffffffffffffffffffffff167f8be0079c531659141344cd1fd0a4f28419497f9722a3daafe3b4186f6b6457e060405160405180910390a360008060006101000a81548173ffffffffffffffffffffffffffffffffffffffff021916908373ffffffffffffffffffffffffffffffffffffffff160217905550565b600760009054906101000a900473ffffffffffffffffffffffffffffffffffffffff1681565b60008060009054906101000a900473ffffffffffffffffffffffffffffffffffffffff16905090565b80610dd833611045565b1015610e4c576040517f08c379a000000000000000000000000000000000000000000000000000000000815260040180806020018281038252601a8152602001807f4e6f7420656e6f7567682054426f6e6420696e2077616c6c657400000000000081525060200191505060405180910390fd5b6000610e56611138565b90506000610e87670de0b6b3a7640000610e7984866118ae90919063ffffffff16565b61193490919063ffffffff16565b905080610e926115cb565b1015610f06576040517f08c379a00000000000000000000000000000000000000000000000000000000081526004018080602001828103825260128152602001807f4e6f7420656e6f756768205453686172652e000000000000000000000000000081525060200191505060405180910390fd5b610f7733600860009054906101000a900473ffffffffffffffffffffffffffffffffffffffff1685600360009054906101000a900473ffffffffffffffffffffffffffffffffffffffff1673ffffffffffffffffffffffffffffffffffffffff16611b8c909392919063ffffffff16565b610fc43382600460009054906101000a900473ffffffffffffffffffffffffffffffffffffffff1673ffffffffffffffffffffffffffffffffffffffff16611aea9092919063ffffffff16565b3373ffffffffffffffffffffffffffffffffffffffff167f037e3bc3a1422168d94ee9404a96070467cb542e3d8b1e896c7052774a7390048483604051808381526020018281526020019250505060405180910390a2505050565b600560009054906101000a900473ffffffffffffffffffffffffffffffffffffffff1681565b6000600360009054906101000a900473ffffffffffffffffffffffffffffffffffffffff1673ffffffffffffffffffffffffffffffffffffffff166370a08231836040518263ffffffff1660e01b8152600401808273ffffffffffffffffffffffffffffffffffffffff16815260200191505060206040518083038186803b1580156110d057600080fd5b505afa1580156110e4573d6000803e3d6000fd5b505050506040513d60208110156110fa57600080fd5b81019080805190602001909291905050509050919050565b600360009054906101000a900473ffffffffffffffffffffffffffffffffffffffff1681565b600080611332600260009054906101000a900473ffffffffffffffffffffffffffffffffffffffff1673ffffffffffffffffffffffffffffffffffffffff166370a08231600560009054906101000a900473ffffffffffffffffffffffffffffffffffffffff166040518263ffffffff1660e01b8152600401808273ffffffffffffffffffffffffffffffffffffffff16815260200191505060206040518083038186803b1580156111e957600080fd5b505afa1580156111fd573d6000803e3d6000fd5b505050506040513d602081101561121357600080fd5b8101908080519060200190929190505050611324670de0b6b3a7640000600760009054906101000a900473ffffffffffffffffffffffffffffffffffffffff1673ffffffffffffffffffffffffffffffffffffffff166370a08231600560009054906101000a900473ffffffffffffffffffffffffffffffffffffffff166040518263ffffffff1660e01b8152600401808273ffffffffffffffffffffffffffffffffffffffff16815260200191505060206040518083038186803b1580156112db57600080fd5b505afa1580156112ef573d6000803e3d6000fd5b505050506040513d602081101561130557600080fd5b81019080805190602001909291905050506118ae90919063ffffffff16565b61193490919063ffffffff16565b9050600061152d600460009054906101000a900473ffffffffffffffffffffffffffffffffffffffff1673ffffffffffffffffffffffffffffffffffffffff166370a08231600660009054906101000a900473ffffffffffffffffffffffffffffffffffffffff166040518263ffffffff1660e01b8152600401808273ffffffffffffffffffffffffffffffffffffffff16815260200191505060206040518083038186803b1580156113e457600080fd5b505afa1580156113f8573d6000803e3d6000fd5b505050506040513d602081101561140e57600080fd5b810190808051906020019092919050505061151f670de0b6b3a7640000600760009054906101000a900473ffffffffffffffffffffffffffffffffffffffff1673ffffffffffffffffffffffffffffffffffffffff166370a08231600660009054906101000a900473ffffffffffffffffffffffffffffffffffffffff166040518263ffffffff1660e01b8152600401808273ffffffffffffffffffffffffffffffffffffffff16815260200191505060206040518083038186803b1580156114d657600080fd5b505afa1580156114ea573d6000803e3d6000fd5b505050506040513d602081101561150057600080fd5b81019080805190602001909291905050506118ae90919063ffffffff16565b61193490919063ffffffff16565b905061155c8161154e670de0b6b3a7640000856118ae90919063ffffffff16565b61193490919063ffffffff16565b9250505090565b600260009054906101000a900473ffffffffffffffffffffffffffffffffffffffff1681565b600080611594611138565b90506115c3670de0b6b3a76400006115b583866118ae90919063ffffffff16565b61193490919063ffffffff16565b915050919050565b6000600460009054906101000a900473ffffffffffffffffffffffffffffffffffffffff1673ffffffffffffffffffffffffffffffffffffffff166370a08231306040518263ffffffff1660e01b8152600401808273ffffffffffffffffffffffffffffffffffffffff16815260200191505060206040518083038186803b15801561165657600080fd5b505afa15801561166a573d6000803e3d6000fd5b505050506040513d602081101561168057600080fd5b8101908080519060200190929190505050905090565b600460009054906101000a900473ffffffffffffffffffffffffffffffffffffffff1681565b6116c46119bd565b73ffffffffffffffffffffffffffffffffffffffff166116e2610da5565b73ffffffffffffffffffffffffffffffffffffffff161461176b576040517f08c379a00000000000000000000000000000000000000000000000000000000081526004018080602001828103825260208152602001807f4f776e61626c653a2063616c6c6572206973206e6f7420746865206f776e657281525060200191505060405180910390fd5b600073ffffffffffffffffffffffffffffffffffffffff168173ffffffffffffffffffffffffffffffffffffffff1614156117f1576040517f08c379a0000000000000000000000000000000000000000000000000000000008152600401808060200182810382526026815260200180611fdd6026913960400191505060405180910390fd5b8073ffffffffffffffffffffffffffffffffffffffff1660008054906101000a900473ffffffffffffffffffffffffffffffffffffffff1673ffffffffffffffffffffffffffffffffffffffff167f8be0079c531659141344cd1fd0a4f28419497f9722a3daafe3b4186f6b6457e060405160405180910390a3806000806101000a81548173ffffffffffffffffffffffffffffffffffffffff021916908373ffffffffffffffffffffffffffffffffffffffff16021790555050565b6000808314156118c1576000905061192e565b60008284029050828482816118d257fe5b0414611929576040517f08c379a00000000000000000000000000000000000000000000000000000000081526004018080602001828103825260218152602001806120566021913960400191505060405180910390fd5b809150505b92915050565b60008082116119ab576040517f08c379a000000000000000000000000000000000000000000000000000000000815260040180806020018281038252601a8152602001807f536166654d6174683a206469766973696f6e206279207a65726f00000000000081525060200191505060405180910390fd5b8183816119b457fe5b04905092915050565b600033905090565b600073ffffffffffffffffffffffffffffffffffffffff168173ffffffffffffffffffffffffffffffffffffffff161415611a4b576040517f08c379a000000000000000000000000000000000000000000000000000000000815260040180806020018281038252602d815260200180612029602d913960400191505060405180910390fd5b8073ffffffffffffffffffffffffffffffffffffffff16600073ffffffffffffffffffffffffffffffffffffffff167f74da04524d50c64947f5dd5381ef1a4dca5cba8ed1d816243f9e48aa0b5617ed60405160405180910390a380600160006101000a81548173ffffffffffffffffffffffffffffffffffffffff021916908373ffffffffffffffffffffffffffffffffffffffff16021790555050565b611b878363a9059cbb60e01b8484604051602401808373ffffffffffffffffffffffffffffffffffffffff16815260200182815260200192505050604051602081830303815290604052907bffffffffffffffffffffffffffffffffffffffffffffffffffffffff19166020820180517bffffffffffffffffffffffffffffffffffffffffffffffffffffffff8381831617835250505050611c4d565b505050565b611c47846323b872dd60e01b858585604051602401808473ffffffffffffffffffffffffffffffffffffffff1681526020018373ffffffffffffffffffffffffffffffffffffffff1681526020018281526020019350505050604051602081830303815290604052907bffffffffffffffffffffffffffffffffffffffffffffffffffffffff19166020820180517bffffffffffffffffffffffffffffffffffffffffffffffffffffffff8381831617835250505050611c4d565b50505050565b6060611caf826040518060400160405280602081526020017f5361666545524332303a206c6f772d6c6576656c2063616c6c206661696c65648152508573ffffffffffffffffffffffffffffffffffffffff16611d3c9092919063ffffffff16565b9050600081511115611d3757808060200190516020811015611cd057600080fd5b8101908080519060200190929190505050611d36576040517f08c379a000000000000000000000000000000000000000000000000000000000815260040180806020018281038252602a81526020018061209b602a913960400191505060405180910390fd5b5b505050565b6060611d4b8484600085611d54565b90509392505050565b606082471015611daf576040517f08c379a00000000000000000000000000000000000000000000000000000000081526004018080602001828103825260268152602001806120036026913960400191505060405180910390fd5b611db885611efd565b611e2a576040517f08c379a000000000000000000000000000000000000000000000000000000000815260040180806020018281038252601d8152602001807f416464726573733a2063616c6c20746f206e6f6e2d636f6e747261637400000081525060200191505060405180910390fd5b600060608673ffffffffffffffffffffffffffffffffffffffff1685876040518082805190602001908083835b60208310611e7a5780518252602082019150602081019050602083039250611e57565b6001836020036101000a03801982511681845116808217855250505050505090500191505060006040518083038185875af1925050503d8060008114611edc576040519150601f19603f3d011682016040523d82523d6000602084013e611ee1565b606091505b5091509150611ef1828286611f10565b92505050949350505050565b600080823b905060008111915050919050565b60608315611f2057829050611fd5565b600083511115611f335782518084602001fd5b816040517f08c379a00000000000000000000000000000000000000000000000000000000081526004018080602001828103825283818151815260200191508051906020019080838360005b83811015611f9a578082015181840152602081019050611f7f565b50505050905090810190601f168015611fc75780820380516001836020036101000a031916815260200191505b509250505060405180910390fd5b939250505056fe4f776e61626c653a206e6577206f776e657220697320746865207a65726f2061646472657373416464726573733a20696e73756666696369656e742062616c616e636520666f722063616c6c6f70657261746f723a207a65726f206164647265737320676976656e20666f72206e6577206f70657261746f72536166654d6174683a206d756c7469706c69636174696f6e206f766572666c6f776f70657261746f723a2063616c6c6572206973206e6f7420746865206f70657261746f725361666545524332303a204552433230206f7065726174696f6e20646964206e6f74207375636365656443686970537761704d656368616e69736d2e77697468647261774669736828293a20496e73756666696369656e7420464953482062616c616e63652ea2646970667358221220cedf6d649397411383bf7b9747e851371a3172f50641e2234a3f98dc7ff7e96b64736f6c634300060c0033",
  "immutableReferences": {},
  "source": "pragma solidity ^0.6.12;\n\nimport \"@openzeppelin/contracts/token/ERC20/IERC20.sol\";\nimport \"@openzeppelin/contracts/math/SafeMath.sol\";\nimport \"@openzeppelin/contracts/token/ERC20/SafeERC20.sol\";\n\nimport \"./owner/Operator.sol\";\n\ncontract TShareSwapper is Operator {\n    using SafeERC20 for IERC20;\n    using SafeMath for uint256;\n\n    IERC20 public tomb;\n    IERC20 public tbond;\n    IERC20 public tshare;\n\n    address public tombSpookyLpPair;\n    address public tshareSpookyLpPair;\n\n    address public wftmAddress;\n\n    address public daoAddress;\n\n    event TBondSwapPerformed(address indexed sender, uint256 tbondAmount, uint256 tshareAmount);\n\n\n    constructor(\n            address _tomb,\n            address _tbond,\n            address _tshare,\n            address _wftmAddress,\n            address _tombSpookyLpPair,\n            address _tshareSpookyLpPair,\n            address _daoAddress\n    ) public {\n        tomb = IERC20(_tomb);\n        tbond = IERC20(_tbond);\n        tshare = IERC20(_tshare);\n        wftmAddress = _wftmAddress; \n        tombSpookyLpPair = _tombSpookyLpPair;\n        tshareSpookyLpPair = _tshareSpookyLpPair;\n        daoAddress = _daoAddress;\n    }\n\n\n    modifier isSwappable() {\n        //TODO: What is a good number here?\n        require(tomb.totalSupply() >= 60 ether, \"ChipSwapMechanismV2.isSwappable(): Insufficient supply.\");\n        _;\n    }\n\n    function estimateAmountOfTShare(uint256 _tbondAmount) external view returns (uint256) {\n        uint256 tshareAmountPerTomb = getTShareAmountPerTomb();\n        return _tbondAmount.mul(tshareAmountPerTomb).div(1e18);\n    }\n\n    function swapTBondToTShare(uint256 _tbondAmount) external {\n        require(getTBondBalance(msg.sender) >= _tbondAmount, \"Not enough TBond in wallet\");\n\n        uint256 tshareAmountPerTomb = getTShareAmountPerTomb();\n        uint256 tshareAmount = _tbondAmount.mul(tshareAmountPerTomb).div(1e18);\n        require(getTShareBalance() >= tshareAmount, \"Not enough TShare.\");\n\n        tbond.safeTransferFrom(msg.sender, daoAddress, _tbondAmount);\n        tshare.safeTransfer(msg.sender, tshareAmount);\n\n        emit TBondSwapPerformed(msg.sender, _tbondAmount, tshareAmount);\n    }\n\n    function withdrawTShare(uint256 _amount) external onlyOperator {\n        require(getTShareBalance() >= _amount, \"ChipSwapMechanism.withdrawFish(): Insufficient FISH balance.\");\n        tshare.safeTransfer(msg.sender, _amount);\n    }\n\n    function getTShareBalance() public view returns (uint256) {\n        return tshare.balanceOf(address(this));\n    }\n\n    function getTBondBalance(address _user) public view returns (uint256) {\n        return tbond.balanceOf(_user);\n    }\n\n    function getTombPrice() public view returns (uint256) {\n        return IERC20(wftmAddress).balanceOf(tombSpookyLpPair)\n            .mul(1e18)\n\t    .div(tomb.balanceOf(tombSpookyLpPair));\n    }\n\n    function getTSharePrice() public view returns (uint256) {\n        return IERC20(wftmAddress).balanceOf(tshareSpookyLpPair)\n            .mul(1e18)\n            .div(tshare.balanceOf(tshareSpookyLpPair));\n    }\n\n    function getTShareAmountPerTomb() public view returns (uint256) {\n        uint256 tombPrice = IERC20(wftmAddress).balanceOf(tombSpookyLpPair)\n            .mul(1e18)\n\t    .div(tomb.balanceOf(tombSpookyLpPair));\n\n        uint256 tsharePrice =\n            IERC20(wftmAddress).balanceOf(tshareSpookyLpPair)\n\t    .mul(1e18)\n            .div(tshare.balanceOf(tshareSpookyLpPair));\n            \n\n        return tombPrice.mul(1e18).div(tsharePrice);\n    }\n\n}\n",
  "sourcePath": "D:\\5xDEFI\\tomb-contract\\contracts\\TShareSwapper.sol",
  "compiler": {
    "name": "solc",
    "version": "0.6.12+commit.27d51765.Emscripten.clang"
  },
  "schemaVersion": "3.4.3",
  "updatedAt": "2022-03-04T03:11:57.455Z",
  "devdoc": {
    "kind": "dev",
    "methods": {
      "owner()": {
        "details": "Returns the address of the current owner."
      },
      "renounceOwnership()": {
        "details": "Leaves the contract without owner. It will not be possible to call `onlyOwner` functions anymore. Can only be called by the current owner. NOTE: Renouncing ownership will leave the contract without an owner, thereby removing any functionality that is only available to the owner."
      },
      "transferOwnership(address)": {
        "details": "Transfers ownership of the contract to a new account (`newOwner`). Can only be called by the current owner."
      }
    },
    "version": 1
  },
  "userdoc": {
    "kind": "user",
    "methods": {},
    "version": 1
  }
}