{
  "contractName": "Zomb",
  "abi": [
    {
      "inputs": [
        {
          "internalType": "uint256",
          "name": "_taxRate",
          "type": "uint256"
        },
        {
          "internalType": "address",
          "name": "_taxCollectorAddress",
          "type": "address"
        }
      ],
      "stateMutability": "nonpayable",
      "type": "constructor"
    },
    {
      "anonymous": false,
      "inputs": [
        {
          "indexed": true,
          "internalType": "address",
          "name": "owner",
          "type": "address"
        },
        {
          "indexed": true,
          "internalType": "address",
          "name": "spender",
          "type": "address"
        },
        {
          "indexed": false,
          "internalType": "uint256",
          "name": "value",
          "type": "uint256"
        }
      ],
      "name": "Approval",
      "type": "event"
    },
    {
      "anonymous": false,
      "inputs": [
        {
          "indexed": true,
          "internalType": "address",
          "name": "previousOperator",
          "type": "address"
        },
        {
          "indexed": true,
          "internalType": "address",
          "name": "newOperator",
          "type": "address"
        }
      ],
      "name": "OperatorTransferred",
      "type": "event"
    },
    {
      "anonymous": false,
      "inputs": [
        {
          "indexed": true,
          "internalType": "address",
          "name": "previousOwner",
          "type": "address"
        },
        {
          "indexed": true,
          "internalType": "address",
          "name": "newOwner",
          "type": "address"
        }
      ],
      "name": "OwnershipTransferred",
      "type": "event"
    },
    {
      "anonymous": false,
      "inputs": [
        {
          "indexed": false,
          "internalType": "address",
          "name": "oldAddress",
          "type": "address"
        },
        {
          "indexed": false,
          "internalType": "address",
          "name": "newAddress",
          "type": "address"
        }
      ],
      "name": "TaxOfficeTransferred",
      "type": "event"
    },
    {
      "anonymous": false,
      "inputs": [
        {
          "indexed": true,
          "internalType": "address",
          "name": "from",
          "type": "address"
        },
        {
          "indexed": true,
          "internalType": "address",
          "name": "to",
          "type": "address"
        },
        {
          "indexed": false,
          "internalType": "uint256",
          "name": "value",
          "type": "uint256"
        }
      ],
      "name": "Transfer",
      "type": "event"
    },
    {
      "inputs": [],
      "name": "INITIAL_AIRDROP_WALLET_DISTRIBUTION",
      "outputs": [
        {
          "internalType": "uint256",
          "name": "",
          "type": "uint256"
        }
      ],
      "stateMutability": "view",
      "type": "function"
    },
    {
      "inputs": [],
      "name": "INITIAL_GENESIS_POOL_DISTRIBUTION",
      "outputs": [
        {
          "internalType": "uint256",
          "name": "",
          "type": "uint256"
        }
      ],
      "stateMutability": "view",
      "type": "function"
    },
    {
      "inputs": [],
      "name": "INITIAL_TOMB_POOL_DISTRIBUTION",
      "outputs": [
        {
          "internalType": "uint256",
          "name": "",
          "type": "uint256"
        }
      ],
      "stateMutability": "view",
      "type": "function"
    },
    {
      "inputs": [
        {
          "internalType": "address",
          "name": "owner",
          "type": "address"
        },
        {
          "internalType": "address",
          "name": "spender",
          "type": "address"
        }
      ],
      "name": "allowance",
      "outputs": [
        {
          "internalType": "uint256",
          "name": "",
          "type": "uint256"
        }
      ],
      "stateMutability": "view",
      "type": "function"
    },
    {
      "inputs": [
        {
          "internalType": "address",
          "name": "spender",
          "type": "address"
        },
        {
          "internalType": "uint256",
          "name": "amount",
          "type": "uint256"
        }
      ],
      "name": "approve",
      "outputs": [
        {
          "internalType": "bool",
          "name": "",
          "type": "bool"
        }
      ],
      "stateMutability": "nonpayable",
      "type": "function"
    },
    {
      "inputs": [],
      "name": "autoCalculateTax",
      "outputs": [
        {
          "internalType": "bool",
          "name": "",
          "type": "bool"
        }
      ],
      "stateMutability": "view",
      "type": "function"
    },
    {
      "inputs": [
        {
          "internalType": "address",
          "name": "account",
          "type": "address"
        }
      ],
      "name": "balanceOf",
      "outputs": [
        {
          "internalType": "uint256",
          "name": "",
          "type": "uint256"
        }
      ],
      "stateMutability": "view",
      "type": "function"
    },
    {
      "inputs": [],
      "name": "burnThreshold",
      "outputs": [
        {
          "internalType": "uint256",
          "name": "",
          "type": "uint256"
        }
      ],
      "stateMutability": "view",
      "type": "function"
    },
    {
      "inputs": [],
      "name": "decimals",
      "outputs": [
        {
          "internalType": "uint8",
          "name": "",
          "type": "uint8"
        }
      ],
      "stateMutability": "view",
      "type": "function"
    },
    {
      "inputs": [
        {
          "internalType": "address",
          "name": "spender",
          "type": "address"
        },
        {
          "internalType": "uint256",
          "name": "subtractedValue",
          "type": "uint256"
        }
      ],
      "name": "decreaseAllowance",
      "outputs": [
        {
          "internalType": "bool",
          "name": "",
          "type": "bool"
        }
      ],
      "stateMutability": "nonpayable",
      "type": "function"
    },
    {
      "inputs": [
        {
          "internalType": "address",
          "name": "",
          "type": "address"
        }
      ],
      "name": "excludedAddresses",
      "outputs": [
        {
          "internalType": "bool",
          "name": "",
          "type": "bool"
        }
      ],
      "stateMutability": "view",
      "type": "function"
    },
    {
      "inputs": [
        {
          "internalType": "address",
          "name": "spender",
          "type": "address"
        },
        {
          "internalType": "uint256",
          "name": "addedValue",
          "type": "uint256"
        }
      ],
      "name": "increaseAllowance",
      "outputs": [
        {
          "internalType": "bool",
          "name": "",
          "type": "bool"
        }
      ],
      "stateMutability": "nonpayable",
      "type": "function"
    },
    {
      "inputs": [],
      "name": "isOperator",
      "outputs": [
        {
          "internalType": "bool",
          "name": "",
          "type": "bool"
        }
      ],
      "stateMutability": "view",
      "type": "function"
    },
    {
      "inputs": [],
      "name": "name",
      "outputs": [
        {
          "internalType": "string",
          "name": "",
          "type": "string"
        }
      ],
      "stateMutability": "view",
      "type": "function"
    },
    {
      "inputs": [],
      "name": "operator",
      "outputs": [
        {
          "internalType": "address",
          "name": "",
          "type": "address"
        }
      ],
      "stateMutability": "view",
      "type": "function"
    },
    {
      "inputs": [],
      "name": "owner",
      "outputs": [
        {
          "internalType": "address",
          "name": "",
          "type": "address"
        }
      ],
      "stateMutability": "view",
      "type": "function"
    },
    {
      "inputs": [],
      "name": "renounceOwnership",
      "outputs": [],
      "stateMutability": "nonpayable",
      "type": "function"
    },
    {
      "inputs": [],
      "name": "rewardPoolDistributed",
      "outputs": [
        {
          "internalType": "bool",
          "name": "",
          "type": "bool"
        }
      ],
      "stateMutability": "view",
      "type": "function"
    },
    {
      "inputs": [],
      "name": "symbol",
      "outputs": [
        {
          "internalType": "string",
          "name": "",
          "type": "string"
        }
      ],
      "stateMutability": "view",
      "type": "function"
    },
    {
      "inputs": [],
      "name": "taxCollectorAddress",
      "outputs": [
        {
          "internalType": "address",
          "name": "",
          "type": "address"
        }
      ],
      "stateMutability": "view",
      "type": "function"
    },
    {
      "inputs": [],
      "name": "taxOffice",
      "outputs": [
        {
          "internalType": "address",
          "name": "",
          "type": "address"
        }
      ],
      "stateMutability": "view",
      "type": "function"
    },
    {
      "inputs": [],
      "name": "taxRate",
      "outputs": [
        {
          "internalType": "uint256",
          "name": "",
          "type": "uint256"
        }
      ],
      "stateMutability": "view",
      "type": "function"
    },
    {
      "inputs": [
        {
          "internalType": "uint256",
          "name": "",
          "type": "uint256"
        }
      ],
      "name": "taxTiersRates",
      "outputs": [
        {
          "internalType": "uint256",
          "name": "",
          "type": "uint256"
        }
      ],
      "stateMutability": "view",
      "type": "function"
    },
    {
      "inputs": [
        {
          "internalType": "uint256",
          "name": "",
          "type": "uint256"
        }
      ],
      "name": "taxTiersTwaps",
      "outputs": [
        {
          "internalType": "uint256",
          "name": "",
          "type": "uint256"
        }
      ],
      "stateMutability": "view",
      "type": "function"
    },
    {
      "inputs": [],
      "name": "tombOracle",
      "outputs": [
        {
          "internalType": "address",
          "name": "",
          "type": "address"
        }
      ],
      "stateMutability": "view",
      "type": "function"
    },
    {
      "inputs": [],
      "name": "totalSupply",
      "outputs": [
        {
          "internalType": "uint256",
          "name": "",
          "type": "uint256"
        }
      ],
      "stateMutability": "view",
      "type": "function"
    },
    {
      "inputs": [
        {
          "internalType": "address",
          "name": "recipient",
          "type": "address"
        },
        {
          "internalType": "uint256",
          "name": "amount",
          "type": "uint256"
        }
      ],
      "name": "transfer",
      "outputs": [
        {
          "internalType": "bool",
          "name": "",
          "type": "bool"
        }
      ],
      "stateMutability": "nonpayable",
      "type": "function"
    },
    {
      "inputs": [
        {
          "internalType": "address",
          "name": "newOperator_",
          "type": "address"
        }
      ],
      "name": "transferOperator",
      "outputs": [],
      "stateMutability": "nonpayable",
      "type": "function"
    },
    {
      "inputs": [
        {
          "internalType": "address",
          "name": "newOwner",
          "type": "address"
        }
      ],
      "name": "transferOwnership",
      "outputs": [],
      "stateMutability": "nonpayable",
      "type": "function"
    },
    {
      "inputs": [],
      "name": "getTaxTiersTwapsCount",
      "outputs": [
        {
          "internalType": "uint256",
          "name": "count",
          "type": "uint256"
        }
      ],
      "stateMutability": "view",
      "type": "function"
    },
    {
      "inputs": [],
      "name": "getTaxTiersRatesCount",
      "outputs": [
        {
          "internalType": "uint256",
          "name": "count",
          "type": "uint256"
        }
      ],
      "stateMutability": "view",
      "type": "function"
    },
    {
      "inputs": [
        {
          "internalType": "address",
          "name": "_address",
          "type": "address"
        }
      ],
      "name": "isAddressExcluded",
      "outputs": [
        {
          "internalType": "bool",
          "name": "",
          "type": "bool"
        }
      ],
      "stateMutability": "view",
      "type": "function"
    },
    {
      "inputs": [
        {
          "internalType": "uint8",
          "name": "_index",
          "type": "uint8"
        },
        {
          "internalType": "uint256",
          "name": "_value",
          "type": "uint256"
        }
      ],
      "name": "setTaxTiersTwap",
      "outputs": [
        {
          "internalType": "bool",
          "name": "",
          "type": "bool"
        }
      ],
      "stateMutability": "nonpayable",
      "type": "function"
    },
    {
      "inputs": [
        {
          "internalType": "uint8",
          "name": "_index",
          "type": "uint8"
        },
        {
          "internalType": "uint256",
          "name": "_value",
          "type": "uint256"
        }
      ],
      "name": "setTaxTiersRate",
      "outputs": [
        {
          "internalType": "bool",
          "name": "",
          "type": "bool"
        }
      ],
      "stateMutability": "nonpayable",
      "type": "function"
    },
    {
      "inputs": [
        {
          "internalType": "uint256",
          "name": "_burnThreshold",
          "type": "uint256"
        }
      ],
      "name": "setBurnThreshold",
      "outputs": [
        {
          "internalType": "bool",
          "name": "",
          "type": "bool"
        }
      ],
      "stateMutability": "nonpayable",
      "type": "function"
    },
    {
      "inputs": [],
      "name": "enableAutoCalculateTax",
      "outputs": [],
      "stateMutability": "nonpayable",
      "type": "function"
    },
    {
      "inputs": [],
      "name": "disableAutoCalculateTax",
      "outputs": [],
      "stateMutability": "nonpayable",
      "type": "function"
    },
    {
      "inputs": [
        {
          "internalType": "address",
          "name": "_tombOracle",
          "type": "address"
        }
      ],
      "name": "setTombOracle",
      "outputs": [],
      "stateMutability": "nonpayable",
      "type": "function"
    },
    {
      "inputs": [
        {
          "internalType": "address",
          "name": "_taxOffice",
          "type": "address"
        }
      ],
      "name": "setTaxOffice",
      "outputs": [],
      "stateMutability": "nonpayable",
      "type": "function"
    },
    {
      "inputs": [
        {
          "internalType": "address",
          "name": "_taxCollectorAddress",
          "type": "address"
        }
      ],
      "name": "setTaxCollectorAddress",
      "outputs": [],
      "stateMutability": "nonpayable",
      "type": "function"
    },
    {
      "inputs": [
        {
          "internalType": "uint256",
          "name": "_taxRate",
          "type": "uint256"
        }
      ],
      "name": "setTaxRate",
      "outputs": [],
      "stateMutability": "nonpayable",
      "type": "function"
    },
    {
      "inputs": [
        {
          "internalType": "address",
          "name": "_address",
          "type": "address"
        }
      ],
      "name": "excludeAddress",
      "outputs": [
        {
          "internalType": "bool",
          "name": "",
          "type": "bool"
        }
      ],
      "stateMutability": "nonpayable",
      "type": "function"
    },
    {
      "inputs": [
        {
          "internalType": "address",
          "name": "_address",
          "type": "address"
        }
      ],
      "name": "includeAddress",
      "outputs": [
        {
          "internalType": "bool",
          "name": "",
          "type": "bool"
        }
      ],
      "stateMutability": "nonpayable",
      "type": "function"
    },
    {
      "inputs": [
        {
          "internalType": "address",
          "name": "recipient_",
          "type": "address"
        },
        {
          "internalType": "uint256",
          "name": "amount_",
          "type": "uint256"
        }
      ],
      "name": "mint",
      "outputs": [
        {
          "internalType": "bool",
          "name": "",
          "type": "bool"
        }
      ],
      "stateMutability": "nonpayable",
      "type": "function"
    },
    {
      "inputs": [
        {
          "internalType": "uint256",
          "name": "amount",
          "type": "uint256"
        }
      ],
      "name": "burn",
      "outputs": [],
      "stateMutability": "nonpayable",
      "type": "function"
    },
    {
      "inputs": [
        {
          "internalType": "address",
          "name": "account",
          "type": "address"
        },
        {
          "internalType": "uint256",
          "name": "amount",
          "type": "uint256"
        }
      ],
      "name": "burnFrom",
      "outputs": [],
      "stateMutability": "nonpayable",
      "type": "function"
    },
    {
      "inputs": [
        {
          "internalType": "address",
          "name": "sender",
          "type": "address"
        },
        {
          "internalType": "address",
          "name": "recipient",
          "type": "address"
        },
        {
          "internalType": "uint256",
          "name": "amount",
          "type": "uint256"
        }
      ],
      "name": "transferFrom",
      "outputs": [
        {
          "internalType": "bool",
          "name": "",
          "type": "bool"
        }
      ],
      "stateMutability": "nonpayable",
      "type": "function"
    },
    {
      "inputs": [
        {
          "internalType": "address",
          "name": "_genesisPool",
          "type": "address"
        }
      ],
      "name": "distributeReward",
      "outputs": [],
      "stateMutability": "nonpayable",
      "type": "function"
    },
    {
      "inputs": [
        {
          "internalType": "contract IERC20",
          "name": "_token",
          "type": "address"
        },
        {
          "internalType": "uint256",
          "name": "_amount",
          "type": "uint256"
        },
        {
          "internalType": "address",
          "name": "_to",
          "type": "address"
        }
      ],
      "name": "governanceRecoverUnsupported",
      "outputs": [],
      "stateMutability": "nonpayable",
      "type": "function"
    }
  ],
  "bytecode": "0x60806040526000600660146101000a81548160ff021916908315150217905550670f43fc2c04ee0000600a55604051806101c00160405280600067ffffffffffffffff1681526020016706f05b59d3b2000067ffffffffffffffff168152602001670853a0d2313c000067ffffffffffffffff1681526020016709b6e64a8ec6000067ffffffffffffffff168152602001670b1a2bc2ec50000067ffffffffffffffff168152602001670c7d713b49da000067ffffffffffffffff168152602001670d2f13f7789f000067ffffffffffffffff168152602001670de0b6b3a764000067ffffffffffffffff168152602001670e92596fd629000067ffffffffffffffff168152602001670f43fc2c04ee000067ffffffffffffffff1681526020016710a741a46278000067ffffffffffffffff16815260200167120a871cc002000067ffffffffffffffff16815260200167136dcc951d8c000067ffffffffffffffff1681526020016714d1120d7b16000067ffffffffffffffff16815250600c90600e6200019092919062000a8f565b50604051806101c001604052806107d061ffff16815260200161076c61ffff16815260200161070861ffff1681526020016106a461ffff16815260200161064061ffff1681526020016105dc61ffff1681526020016105dc61ffff1681526020016105dc61ffff1681526020016105dc61ffff16815260200161057861ffff16815260200161038461ffff16815260200161019061ffff16815260200160c861ffff168152602001606461ffff16815250600d90600e6200025392919062000aed565b503480156200026157600080fd5b506040516200511138038062005111833981810160405260408110156200028757600080fd5b8101908080519060200190929190805190602001909291905050506040518060400160405280600581526020017f5a6f6d62490000000000000000000000000000000000000000000000000000008152506040518060400160405280600581526020017f5a6f6d624900000000000000000000000000000000000000000000000000000081525081600390805190602001906200032692919062000b45565b5080600490805190602001906200033f92919062000b45565b506012600560006101000a81548160ff021916908360ff1602179055505050600062000370620005d060201b60201c565b905080600560016101000a81548173ffffffffffffffffffffffffffffffffffffffff021916908373ffffffffffffffffffffffffffffffffffffffff1602179055508073ffffffffffffffffffffffffffffffffffffffff16600073ffffffffffffffffffffffffffffffffffffffff167f8be0079c531659141344cd1fd0a4f28419497f9722a3daafe3b4186f6b6457e060405160405180910390a3506200041f620005d060201b60201c565b600660006101000a81548173ffffffffffffffffffffffffffffffffffffffff021916908373ffffffffffffffffffffffffffffffffffffffff160217905550600660009054906101000a900473ffffffffffffffffffffffffffffffffffffffff1673ffffffffffffffffffffffffffffffffffffffff16600073ffffffffffffffffffffffffffffffffffffffff167f74da04524d50c64947f5dd5381ef1a4dca5cba8ed1d816243f9e48aa0b5617ed60405160405180910390a3612710821062000554576040517f08c379a000000000000000000000000000000000000000000000000000000000815260040180806020018281038252601b8152602001807f74617820657175616c206f722062696767657220746f2031303025000000000081525060200191505060405180910390fd5b6200056530620005d860201b60201c565b506200058033670de0b6b3a7640000620007bc60201b60201c565b8160098190555080600b60006101000a81548173ffffffffffffffffffffffffffffffffffffffff021916908373ffffffffffffffffffffffffffffffffffffffff160217905550505062000beb565b600033905090565b6000620005ea6200099a60201b60201c565b806200064357503373ffffffffffffffffffffffffffffffffffffffff16600860009054906101000a900473ffffffffffffffffffffffffffffffffffffffff1673ffffffffffffffffffffffffffffffffffffffff16145b6200069a576040517f08c379a000000000000000000000000000000000000000000000000000000000815260040180806020018281038252602c815260200180620050e5602c913960400191505060405180910390fd5b600e60008373ffffffffffffffffffffffffffffffffffffffff1673ffffffffffffffffffffffffffffffffffffffff16815260200190815260200160002060009054906101000a900460ff16156200075b576040517f08c379a00000000000000000000000000000000000000000000000000000000081526004018080602001828103825260198152602001807f616464726573732063616e2774206265206578636c756465640000000000000081525060200191505060405180910390fd5b6001600e60008473ffffffffffffffffffffffffffffffffffffffff1673ffffffffffffffffffffffffffffffffffffffff16815260200190815260200160002060006101000a81548160ff02191690831515021790555060019050919050565b600073ffffffffffffffffffffffffffffffffffffffff168273ffffffffffffffffffffffffffffffffffffffff16141562000860576040517f08c379a000000000000000000000000000000000000000000000000000000000815260040180806020018281038252601f8152602001807f45524332303a206d696e7420746f20746865207a65726f20616464726573730081525060200191505060405180910390fd5b620008746000838362000a0160201b60201c565b620008908160025462000a0660201b6200309a1790919060201c565b600281905550620008ee816000808573ffffffffffffffffffffffffffffffffffffffff1673ffffffffffffffffffffffffffffffffffffffff1681526020019081526020016000205462000a0660201b6200309a1790919060201c565b6000808473ffffffffffffffffffffffffffffffffffffffff1673ffffffffffffffffffffffffffffffffffffffff168152602001908152602001600020819055508173ffffffffffffffffffffffffffffffffffffffff16600073ffffffffffffffffffffffffffffffffffffffff167fddf252ad1be2c89b69c2b068fc378daa952ba7f163c4a11628f55a4df523b3ef836040518082815260200191505060405180910390a35050565b6000600660009054906101000a900473ffffffffffffffffffffffffffffffffffffffff1673ffffffffffffffffffffffffffffffffffffffff16620009e5620005d060201b60201c565b73ffffffffffffffffffffffffffffffffffffffff1614905090565b505050565b60008082840190508381101562000a85576040517f08c379a000000000000000000000000000000000000000000000000000000000815260040180806020018281038252601b8152602001807f536166654d6174683a206164646974696f6e206f766572666c6f77000000000081525060200191505060405180910390fd5b8091505092915050565b82805482825590600052602060002090810192821562000ada579160200282015b8281111562000ad9578251829067ffffffffffffffff1690559160200191906001019062000ab0565b5b50905062000ae9919062000bcc565b5090565b82805482825590600052602060002090810192821562000b32579160200282015b8281111562000b31578251829061ffff1690559160200191906001019062000b0e565b5b50905062000b41919062000bcc565b5090565b828054600181600116156101000203166002900490600052602060002090601f016020900481019282601f1062000b8857805160ff191683800117855562000bb9565b8280016001018555821562000bb9579182015b8281111562000bb857825182559160200191906001019062000b9b565b5b50905062000bc8919062000bcc565b5090565b5b8082111562000be757600081600090555060010162000bcd565b5090565b6144ea8062000bfb6000396000f3fe608060405234801561001057600080fd5b50600436106102bb5760003560e01c806370a0823111610182578063a6431bba116100e9578063dd62ed3e116100a2578063f2fde38b1161007c578063f2fde38b14610e83578063f774110314610ec7578063ff87fc7c14610efb578063ffa8226e14610f05576102bb565b8063dd62ed3e14610d93578063ebca1bd914610e0b578063ee2a953514610e65576102bb565b8063a6431bba14610c04578063a9059cbb14610c22578063b87c5a4a14610c86578063c3bdf61314610cd7578063c6d69a3014610d0b578063cf011b2614610d39576102bb565b80638da5cb5b1161013b5780638da5cb5b14610a2b57806393995d4b14610a5f57806395d89b4114610ab95780639662676c14610b3c5780639d6b5f2114610b5c578063a457c2d714610ba0576102bb565b806370a08231146108f9578063715018a61461095157806375be5ae11461095b578063771a3a1d1461099f57806379cc6790146109bd5780638d3cc81814610a0b576102bb565b806340c10f191161022657806354575af4116101df57806354575af414610776578063570ca735146107e45780635c29908d1461081857806365bbacd91461085a57806366206ce91461086457806369356d47146108b5576102bb565b806340c10f191461064657806342966c68146106aa57806342c6b4f1146106d85780634456eda21461071a5780634e20a02c1461073a5780634f6d38d014610758576102bb565b806329605e771161027857806329605e77146104ab578063313ce567146104ef5780633758e6ce14610510578063395093511461056a5780633e5f13d4146105ce5780633f07d76a14610602576102bb565b806306fdde03146102c0578063092193ab14610343578063095ea7b3146103875780631017bc36146103eb57806318160ddd1461040957806323b872dd14610427575b600080fd5b6102c8610f23565b6040518080602001828103825283818151815260200191508051906020019080838360005b838110156103085780820151818401526020810190506102ed565b50505050905090810190601f1680156103355780820380516001836020036101000a031916815260200191505b509250505060405180910390f35b6103856004803603602081101561035957600080fd5b81019080803573ffffffffffffffffffffffffffffffffffffffff169060200190929190505050610fc5565b005b6103d36004803603604081101561039d57600080fd5b81019080803573ffffffffffffffffffffffffffffffffffffffff169060200190929190803590602001909291905050506111c3565b60405180821515815260200191505060405180910390f35b6103f36111e1565b6040518082815260200191505060405180910390f35b6104116111e6565b6040518082815260200191505060405180910390f35b6104936004803603606081101561043d57600080fd5b81019080803573ffffffffffffffffffffffffffffffffffffffff169060200190929190803573ffffffffffffffffffffffffffffffffffffffff169060200190929190803590602001909291905050506111f0565b60405180821515815260200191505060405180910390f35b6104ed600480360360208110156104c157600080fd5b81019080803573ffffffffffffffffffffffffffffffffffffffff16906020019092919050505061130c565b005b6104f76113c7565b604051808260ff16815260200191505060405180910390f35b6105526004803603602081101561052657600080fd5b81019080803573ffffffffffffffffffffffffffffffffffffffff1690602001909291905050506113de565b60405180821515815260200191505060405180910390f35b6105b66004803603604081101561058057600080fd5b81019080803573ffffffffffffffffffffffffffffffffffffffff169060200190929190803590602001909291905050506115b6565b60405180821515815260200191505060405180910390f35b6105d6611669565b604051808273ffffffffffffffffffffffffffffffffffffffff16815260200191505060405180910390f35b6106446004803603602081101561061857600080fd5b81019080803573ffffffffffffffffffffffffffffffffffffffff16906020019092919050505061168f565b005b6106926004803603604081101561065c57600080fd5b81019080803573ffffffffffffffffffffffffffffffffffffffff1690602001909291908035906020019092919050505061189b565b60405180821515815260200191505060405180910390f35b6106d6600480360360208110156106c057600080fd5b8101908080359060200190929190505050611974565b005b610704600480360360208110156106ee57600080fd5b8101908080359060200190929190505050611980565b6040518082815260200191505060405180910390f35b6107226119a1565b60405180821515815260200191505060405180910390f35b610742611a00565b6040518082815260200191505060405180910390f35b610760611a0e565b6040518082815260200191505060405180910390f35b6107e26004803603606081101561078c57600080fd5b81019080803573ffffffffffffffffffffffffffffffffffffffff16906020019092919080359060200190929190803573ffffffffffffffffffffffffffffffffffffffff169060200190929190505050611a14565b005b6107ec611b6c565b604051808273ffffffffffffffffffffffffffffffffffffffff16815260200191505060405180910390f35b6108446004803603602081101561082e57600080fd5b8101908080359060200190929190505050611b96565b6040518082815260200191505060405180910390f35b610862611bb7565b005b61089d6004803603604081101561087a57600080fd5b81019080803560ff16906020019092919080359060200190929190505050611c97565b60405180821515815260200191505060405180910390f35b6108f7600480360360208110156108cb57600080fd5b81019080803573ffffffffffffffffffffffffffffffffffffffff169060200190929190505050611ee6565b005b61093b6004803603602081101561090f57600080fd5b81019080803573ffffffffffffffffffffffffffffffffffffffff169060200190929190505050612073565b6040518082815260200191505060405180910390f35b6109596120bb565b005b61099d6004803603602081101561097157600080fd5b81019080803573ffffffffffffffffffffffffffffffffffffffff16906020019092919050505061222b565b005b6109a76123aa565b6040518082815260200191505060405180910390f35b610a09600480360360408110156109d357600080fd5b81019080803573ffffffffffffffffffffffffffffffffffffffff169060200190929190803590602001909291905050506123b0565b005b610a13612464565b60405180821515815260200191505060405180910390f35b610a33612477565b604051808273ffffffffffffffffffffffffffffffffffffffff16815260200191505060405180910390f35b610aa160048036036020811015610a7557600080fd5b81019080803573ffffffffffffffffffffffffffffffffffffffff1690602001909291905050506124a1565b60405180821515815260200191505060405180910390f35b610ac1612678565b6040518080602001828103825283818151815260200191508051906020019080838360005b83811015610b01578082015181840152602081019050610ae6565b50505050905090810190601f168015610b2e5780820380516001836020036101000a031916815260200191505b509250505060405180910390f35b610b4461271a565b60405180821515815260200191505060405180910390f35b610b8860048036036020811015610b7257600080fd5b810190808035906020019092919050505061272d565b60405180821515815260200191505060405180910390f35b610bec60048036036040811015610bb657600080fd5b81019080803573ffffffffffffffffffffffffffffffffffffffff169060200190929190803590602001909291905050506127fe565b60405180821515815260200191505060405180910390f35b610c0c6128cb565b6040518082815260200191505060405180910390f35b610c6e60048036036040811015610c3857600080fd5b81019080803573ffffffffffffffffffffffffffffffffffffffff169060200190929190803590602001909291905050506128d8565b60405180821515815260200191505060405180910390f35b610cbf60048036036040811015610c9c57600080fd5b81019080803560ff169060200190929190803590602001909291905050506128f6565b60405180821515815260200191505060405180910390f35b610cdf612ac0565b604051808273ffffffffffffffffffffffffffffffffffffffff16815260200191505060405180910390f35b610d3760048036036020811015610d2157600080fd5b8101908080359060200190929190505050612ae6565b005b610d7b60048036036020811015610d4f57600080fd5b81019080803573ffffffffffffffffffffffffffffffffffffffff169060200190929190505050612c90565b60405180821515815260200191505060405180910390f35b610df560048036036040811015610da957600080fd5b81019080803573ffffffffffffffffffffffffffffffffffffffff169060200190929190803573ffffffffffffffffffffffffffffffffffffffff169060200190929190505050612cb0565b6040518082815260200191505060405180910390f35b610e4d60048036036020811015610e2157600080fd5b81019080803573ffffffffffffffffffffffffffffffffffffffff169060200190929190505050612d37565b60405180821515815260200191505060405180910390f35b610e6d612d8d565b6040518082815260200191505060405180910390f35b610ec560048036036020811015610e9957600080fd5b81019080803573ffffffffffffffffffffffffffffffffffffffff169060200190929190505050612d9a565b005b610ecf612f8f565b604051808273ffffffffffffffffffffffffffffffffffffffff16815260200191505060405180910390f35b610f03612fb5565b005b610f0d613095565b6040518082815260200191505060405180910390f35b606060038054600181600116156101000203166002900480601f016020809104026020016040519081016040528092919081815260200182805460018160011615610100020316600290048015610fbb5780601f10610f9057610100808354040283529160200191610fbb565b820191906000526020600020905b815481529060010190602001808311610f9e57829003601f168201915b5050505050905090565b3373ffffffffffffffffffffffffffffffffffffffff16600660009054906101000a900473ffffffffffffffffffffffffffffffffffffffff1673ffffffffffffffffffffffffffffffffffffffff161461106b576040517f08c379a000000000000000000000000000000000000000000000000000000000815260040180806020018281038252602481526020018061433a6024913960400191505060405180910390fd5b600660149054906101000a900460ff16156110ee576040517f08c379a00000000000000000000000000000000000000000000000000000000081526004018080602001828103825260188152602001807f6f6e6c792063616e2064697374726962757465206f6e6365000000000000000081525060200191505060405180910390fd5b600073ffffffffffffffffffffffffffffffffffffffff168173ffffffffffffffffffffffffffffffffffffffff161415611191576040517f08c379a000000000000000000000000000000000000000000000000000000000815260040180806020018281038252600d8152602001807f215f67656e65736973506f6f6c0000000000000000000000000000000000000081525060200191505060405180910390fd5b6001600660146101000a81548160ff0219169083151502179055506111c0816902544faa778090e00000613122565b50565b60006111d76111d06132e9565b84846132f1565b6001905092915050565b600081565b6000600254905090565b600080600090506000600b60149054906101000a900460ff16156112365760006112186134e8565b905061122381613627565b9250600a5481101561123457600191505b505b600082148061128e5750600e60008773ffffffffffffffffffffffffffffffffffffffff1673ffffffffffffffffffffffffffffffffffffffff16815260200190815260200160002060009054906101000a900460ff165b156112a35761129e868686613776565b6112b1565b6112af86868684613a37565b505b6112ff866112bd6132e9565b6112fa876040518060600160405280602881526020016142c0602891396112eb8c6112e66132e9565b612cb0565b613ad89092919063ffffffff16565b6132f1565b6001925050509392505050565b6113146132e9565b73ffffffffffffffffffffffffffffffffffffffff16611332612477565b73ffffffffffffffffffffffffffffffffffffffff16146113bb576040517f08c379a00000000000000000000000000000000000000000000000000000000081526004018080602001828103825260208152602001807f4f776e61626c653a2063616c6c6572206973206e6f7420746865206f776e657281525060200191505060405180910390fd5b6113c481613b92565b50565b6000600560009054906101000a900460ff16905090565b60006113e86119a1565b8061144057503373ffffffffffffffffffffffffffffffffffffffff16600860009054906101000a900473ffffffffffffffffffffffffffffffffffffffff1673ffffffffffffffffffffffffffffffffffffffff16145b611495576040517f08c379a000000000000000000000000000000000000000000000000000000000815260040180806020018281038252602c815260200180614414602c913960400191505060405180910390fd5b600e60008373ffffffffffffffffffffffffffffffffffffffff1673ffffffffffffffffffffffffffffffffffffffff16815260200190815260200160002060009054906101000a900460ff1615611555576040517f08c379a00000000000000000000000000000000000000000000000000000000081526004018080602001828103825260198152602001807f616464726573732063616e2774206265206578636c756465640000000000000081525060200191505060405180910390fd5b6001600e60008473ffffffffffffffffffffffffffffffffffffffff1673ffffffffffffffffffffffffffffffffffffffff16815260200190815260200160002060006101000a81548160ff02191690831515021790555060019050919050565b600061165f6115c36132e9565b8461165a85600160006115d46132e9565b73ffffffffffffffffffffffffffffffffffffffff1673ffffffffffffffffffffffffffffffffffffffff16815260200190815260200160002060008973ffffffffffffffffffffffffffffffffffffffff1673ffffffffffffffffffffffffffffffffffffffff1681526020019081526020016000205461309a90919063ffffffff16565b6132f1565b6001905092915050565b600860009054906101000a900473ffffffffffffffffffffffffffffffffffffffff1681565b6116976119a1565b806116ef57503373ffffffffffffffffffffffffffffffffffffffff16600860009054906101000a900473ffffffffffffffffffffffffffffffffffffffff1673ffffffffffffffffffffffffffffffffffffffff16145b611744576040517f08c379a000000000000000000000000000000000000000000000000000000000815260040180806020018281038252602c815260200180614414602c913960400191505060405180910390fd5b600073ffffffffffffffffffffffffffffffffffffffff168173ffffffffffffffffffffffffffffffffffffffff1614156117ca576040517f08c379a000000000000000000000000000000000000000000000000000000000815260040180806020018281038252602681526020018061424c6026913960400191505060405180910390fd5b7f75237613d1cfb394eb7979839ecbeacaca4592ef0cf96791979625803948a601600860009054906101000a900473ffffffffffffffffffffffffffffffffffffffff1682604051808373ffffffffffffffffffffffffffffffffffffffff1681526020018273ffffffffffffffffffffffffffffffffffffffff1681526020019250505060405180910390a180600860006101000a81548173ffffffffffffffffffffffffffffffffffffffff021916908373ffffffffffffffffffffffffffffffffffffffff16021790555050565b60003373ffffffffffffffffffffffffffffffffffffffff16600660009054906101000a900473ffffffffffffffffffffffffffffffffffffffff1673ffffffffffffffffffffffffffffffffffffffff1614611943576040517f08c379a000000000000000000000000000000000000000000000000000000000815260040180806020018281038252602481526020018061433a6024913960400191505060405180910390fd5b600061194e84612073565b905061195a8484613122565b600061196585612073565b90508181119250505092915050565b61197d81613cb7565b50565b600c818154811061198d57fe5b906000526020600020016000915090505481565b6000600660009054906101000a900473ffffffffffffffffffffffffffffffffffffffff1673ffffffffffffffffffffffffffffffffffffffff166119e46132e9565b73ffffffffffffffffffffffffffffffffffffffff1614905090565b6902544faa778090e0000081565b600a5481565b3373ffffffffffffffffffffffffffffffffffffffff16600660009054906101000a900473ffffffffffffffffffffffffffffffffffffffff1673ffffffffffffffffffffffffffffffffffffffff1614611aba576040517f08c379a000000000000000000000000000000000000000000000000000000000815260040180806020018281038252602481526020018061433a6024913960400191505060405180910390fd5b8273ffffffffffffffffffffffffffffffffffffffff1663a9059cbb82846040518363ffffffff1660e01b8152600401808373ffffffffffffffffffffffffffffffffffffffff16815260200182815260200192505050602060405180830381600087803b158015611b2b57600080fd5b505af1158015611b3f573d6000803e3d6000fd5b505050506040513d6020811015611b5557600080fd5b810190808051906020019092919050505050505050565b6000600660009054906101000a900473ffffffffffffffffffffffffffffffffffffffff16905090565b600d8181548110611ba357fe5b906000526020600020016000915090505481565b3373ffffffffffffffffffffffffffffffffffffffff16600860009054906101000a900473ffffffffffffffffffffffffffffffffffffffff1673ffffffffffffffffffffffffffffffffffffffff1614611c7a576040517f08c379a000000000000000000000000000000000000000000000000000000000815260040180806020018281038252601c8152602001807f43616c6c6572206973206e6f742074686520746178206f66666963650000000081525060200191505060405180910390fd5b6000600b60146101000a81548160ff021916908315150217905550565b60003373ffffffffffffffffffffffffffffffffffffffff16600860009054906101000a900473ffffffffffffffffffffffffffffffffffffffff1673ffffffffffffffffffffffffffffffffffffffff1614611d5c576040517f08c379a000000000000000000000000000000000000000000000000000000000815260040180806020018281038252601c8152602001807f43616c6c6572206973206e6f742074686520746178206f66666963650000000081525060200191505060405180910390fd5b60008360ff161015611dd6576040517f08c379a000000000000000000000000000000000000000000000000000000000815260040180806020018281038252601d8152602001807f496e6465782068617320746f20626520686967686572207468616e203000000081525060200191505060405180910390fd5b611dde6128cb565b8360ff1610611e38576040517f08c379a000000000000000000000000000000000000000000000000000000000815260040180806020018281038252602a81526020018061435e602a913960400191505060405180910390fd5b60008360ff161115611e6e57600c6001840360ff1681548110611e5757fe5b90600052602060002001548211611e6d57600080fd5b5b611e896001611e7b6128cb565b613ccb90919063ffffffff16565b8360ff161015611ebd57600c6001840160ff1681548110611ea657fe5b90600052602060002001548210611ebc57600080fd5b5b81600c8460ff1681548110611ece57fe5b90600052602060002001819055506001905092915050565b3373ffffffffffffffffffffffffffffffffffffffff16600860009054906101000a900473ffffffffffffffffffffffffffffffffffffffff1673ffffffffffffffffffffffffffffffffffffffff1614611fa9576040517f08c379a000000000000000000000000000000000000000000000000000000000815260040180806020018281038252601c8152602001807f43616c6c6572206973206e6f742074686520746178206f66666963650000000081525060200191505060405180910390fd5b600073ffffffffffffffffffffffffffffffffffffffff168173ffffffffffffffffffffffffffffffffffffffff16141561202f576040517f08c379a000000000000000000000000000000000000000000000000000000000815260040180806020018281038252602e8152602001806142e8602e913960400191505060405180910390fd5b80600b60006101000a81548173ffffffffffffffffffffffffffffffffffffffff021916908373ffffffffffffffffffffffffffffffffffffffff16021790555050565b60008060008373ffffffffffffffffffffffffffffffffffffffff1673ffffffffffffffffffffffffffffffffffffffff168152602001908152602001600020549050919050565b6120c36132e9565b73ffffffffffffffffffffffffffffffffffffffff166120e1612477565b73ffffffffffffffffffffffffffffffffffffffff161461216a576040517f08c379a00000000000000000000000000000000000000000000000000000000081526004018080602001828103825260208152602001807f4f776e61626c653a2063616c6c6572206973206e6f7420746865206f776e657281525060200191505060405180910390fd5b600073ffffffffffffffffffffffffffffffffffffffff16600560019054906101000a900473ffffffffffffffffffffffffffffffffffffffff1673ffffffffffffffffffffffffffffffffffffffff167f8be0079c531659141344cd1fd0a4f28419497f9722a3daafe3b4186f6b6457e060405160405180910390a36000600560016101000a81548173ffffffffffffffffffffffffffffffffffffffff021916908373ffffffffffffffffffffffffffffffffffffffff160217905550565b6122336119a1565b8061228b57503373ffffffffffffffffffffffffffffffffffffffff16600860009054906101000a900473ffffffffffffffffffffffffffffffffffffffff1673ffffffffffffffffffffffffffffffffffffffff16145b6122e0576040517f08c379a000000000000000000000000000000000000000000000000000000000815260040180806020018281038252602c815260200180614414602c913960400191505060405180910390fd5b600073ffffffffffffffffffffffffffffffffffffffff168173ffffffffffffffffffffffffffffffffffffffff161415612366576040517f08c379a00000000000000000000000000000000000000000000000000000000081526004018080602001828103825260228152602001806143a96022913960400191505060405180910390fd5b80600760006101000a81548173ffffffffffffffffffffffffffffffffffffffff021916908373ffffffffffffffffffffffffffffffffffffffff16021790555050565b60095481565b3373ffffffffffffffffffffffffffffffffffffffff16600660009054906101000a900473ffffffffffffffffffffffffffffffffffffffff1673ffffffffffffffffffffffffffffffffffffffff1614612456576040517f08c379a000000000000000000000000000000000000000000000000000000000815260040180806020018281038252602481526020018061433a6024913960400191505060405180910390fd5b6124608282613d4e565b5050565b600b60149054906101000a900460ff1681565b6000600560019054906101000a900473ffffffffffffffffffffffffffffffffffffffff16905090565b60006124ab6119a1565b8061250357503373ffffffffffffffffffffffffffffffffffffffff16600860009054906101000a900473ffffffffffffffffffffffffffffffffffffffff1673ffffffffffffffffffffffffffffffffffffffff16145b612558576040517f08c379a000000000000000000000000000000000000000000000000000000000815260040180806020018281038252602c815260200180614414602c913960400191505060405180910390fd5b600e60008373ffffffffffffffffffffffffffffffffffffffff1673ffffffffffffffffffffffffffffffffffffffff16815260200190815260200160002060009054906101000a900460ff16612617576040517f08c379a00000000000000000000000000000000000000000000000000000000081526004018080602001828103825260198152602001807f616464726573732063616e277420626520696e636c756465640000000000000081525060200191505060405180910390fd5b6000600e60008473ffffffffffffffffffffffffffffffffffffffff1673ffffffffffffffffffffffffffffffffffffffff16815260200190815260200160002060006101000a81548160ff02191690831515021790555060019050919050565b606060048054600181600116156101000203166002900480601f0160208091040260200160405190810160405280929190818152602001828054600181600116156101000203166002900480156127105780601f106126e557610100808354040283529160200191612710565b820191906000526020600020905b8154815290600101906020018083116126f357829003601f168201915b5050505050905090565b600660149054906101000a900460ff1681565b60003373ffffffffffffffffffffffffffffffffffffffff16600860009054906101000a900473ffffffffffffffffffffffffffffffffffffffff1673ffffffffffffffffffffffffffffffffffffffff16146127f2576040517f08c379a000000000000000000000000000000000000000000000000000000000815260040180806020018281038252601c8152602001807f43616c6c6572206973206e6f742074686520746178206f66666963650000000081525060200191505060405180910390fd5b81600a81905550919050565b60006128c161280b6132e9565b846128bc8560405180606001604052806025815260200161449060259139600160006128356132e9565b73ffffffffffffffffffffffffffffffffffffffff1673ffffffffffffffffffffffffffffffffffffffff16815260200190815260200160002060008a73ffffffffffffffffffffffffffffffffffffffff1673ffffffffffffffffffffffffffffffffffffffff16815260200190815260200160002054613ad89092919063ffffffff16565b6132f1565b6001905092915050565b6000600c80549050905090565b60006128ec6128e56132e9565b8484613776565b6001905092915050565b60003373ffffffffffffffffffffffffffffffffffffffff16600860009054906101000a900473ffffffffffffffffffffffffffffffffffffffff1673ffffffffffffffffffffffffffffffffffffffff16146129bb576040517f08c379a000000000000000000000000000000000000000000000000000000000815260040180806020018281038252601c8152602001807f43616c6c6572206973206e6f742074686520746178206f66666963650000000081525060200191505060405180910390fd5b60008360ff161015612a35576040517f08c379a000000000000000000000000000000000000000000000000000000000815260040180806020018281038252601d8152602001807f496e6465782068617320746f20626520686967686572207468616e203000000081525060200191505060405180910390fd5b612a3d612d8d565b8360ff1610612a97576040517f08c379a000000000000000000000000000000000000000000000000000000000815260040180806020018281038252602a81526020018061435e602a913960400191505060405180910390fd5b81600d8460ff1681548110612aa857fe5b90600052602060002001819055506001905092915050565b600b60009054906101000a900473ffffffffffffffffffffffffffffffffffffffff1681565b3373ffffffffffffffffffffffffffffffffffffffff16600860009054906101000a900473ffffffffffffffffffffffffffffffffffffffff1673ffffffffffffffffffffffffffffffffffffffff1614612ba9576040517f08c379a000000000000000000000000000000000000000000000000000000000815260040180806020018281038252601c8152602001807f43616c6c6572206973206e6f742074686520746178206f66666963650000000081525060200191505060405180910390fd5b600b60149054906101000a900460ff1615612c0f576040517f08c379a00000000000000000000000000000000000000000000000000000000081526004018080602001828103825260248152602001806143cb6024913960400191505060405180910390fd5b6127108110612c86576040517f08c379a000000000000000000000000000000000000000000000000000000000815260040180806020018281038252601b8152602001807f74617820657175616c206f722062696767657220746f2031303025000000000081525060200191505060405180910390fd5b8060098190555050565b600e6020528060005260406000206000915054906101000a900460ff1681565b6000600160008473ffffffffffffffffffffffffffffffffffffffff1673ffffffffffffffffffffffffffffffffffffffff16815260200190815260200160002060008373ffffffffffffffffffffffffffffffffffffffff1673ffffffffffffffffffffffffffffffffffffffff16815260200190815260200160002054905092915050565b6000600e60008373ffffffffffffffffffffffffffffffffffffffff1673ffffffffffffffffffffffffffffffffffffffff16815260200190815260200160002060009054906101000a900460ff169050919050565b6000600d80549050905090565b612da26132e9565b73ffffffffffffffffffffffffffffffffffffffff16612dc0612477565b73ffffffffffffffffffffffffffffffffffffffff1614612e49576040517f08c379a00000000000000000000000000000000000000000000000000000000081526004018080602001828103825260208152602001807f4f776e61626c653a2063616c6c6572206973206e6f7420746865206f776e657281525060200191505060405180910390fd5b600073ffffffffffffffffffffffffffffffffffffffff168173ffffffffffffffffffffffffffffffffffffffff161415612ecf576040517f08c379a00000000000000000000000000000000000000000000000000000000081526004018080602001828103825260268152602001806141de6026913960400191505060405180910390fd5b8073ffffffffffffffffffffffffffffffffffffffff16600560019054906101000a900473ffffffffffffffffffffffffffffffffffffffff1673ffffffffffffffffffffffffffffffffffffffff167f8be0079c531659141344cd1fd0a4f28419497f9722a3daafe3b4186f6b6457e060405160405180910390a380600560016101000a81548173ffffffffffffffffffffffffffffffffffffffff021916908373ffffffffffffffffffffffffffffffffffffffff16021790555050565b600760009054906101000a900473ffffffffffffffffffffffffffffffffffffffff1681565b3373ffffffffffffffffffffffffffffffffffffffff16600860009054906101000a900473ffffffffffffffffffffffffffffffffffffffff1673ffffffffffffffffffffffffffffffffffffffff1614613078576040517f08c379a000000000000000000000000000000000000000000000000000000000815260040180806020018281038252601c8152602001807f43616c6c6572206973206e6f742074686520746178206f66666963650000000081525060200191505060405180910390fd5b6001600b60146101000a81548160ff021916908315150217905550565b600081565b600080828401905083811015613118576040517f08c379a000000000000000000000000000000000000000000000000000000000815260040180806020018281038252601b8152602001807f536166654d6174683a206164646974696f6e206f766572666c6f77000000000081525060200191505060405180910390fd5b8091505092915050565b600073ffffffffffffffffffffffffffffffffffffffff168273ffffffffffffffffffffffffffffffffffffffff1614156131c5576040517f08c379a000000000000000000000000000000000000000000000000000000000815260040180806020018281038252601f8152602001807f45524332303a206d696e7420746f20746865207a65726f20616464726573730081525060200191505060405180910390fd5b6131d160008383613db0565b6131e68160025461309a90919063ffffffff16565b60028190555061323d816000808573ffffffffffffffffffffffffffffffffffffffff1673ffffffffffffffffffffffffffffffffffffffff1681526020019081526020016000205461309a90919063ffffffff16565b6000808473ffffffffffffffffffffffffffffffffffffffff1673ffffffffffffffffffffffffffffffffffffffff168152602001908152602001600020819055508173ffffffffffffffffffffffffffffffffffffffff16600073ffffffffffffffffffffffffffffffffffffffff167fddf252ad1be2c89b69c2b068fc378daa952ba7f163c4a11628f55a4df523b3ef836040518082815260200191505060405180910390a35050565b600033905090565b600073ffffffffffffffffffffffffffffffffffffffff168373ffffffffffffffffffffffffffffffffffffffff161415613377576040517f08c379a00000000000000000000000000000000000000000000000000000000081526004018080602001828103825260248152602001806144406024913960400191505060405180910390fd5b600073ffffffffffffffffffffffffffffffffffffffff168273ffffffffffffffffffffffffffffffffffffffff1614156133fd576040517f08c379a00000000000000000000000000000000000000000000000000000000081526004018080602001828103825260228152602001806142046022913960400191505060405180910390fd5b80600160008573ffffffffffffffffffffffffffffffffffffffff1673ffffffffffffffffffffffffffffffffffffffff16815260200190815260200160002060008473ffffffffffffffffffffffffffffffffffffffff1673ffffffffffffffffffffffffffffffffffffffff168152602001908152602001600020819055508173ffffffffffffffffffffffffffffffffffffffff168373ffffffffffffffffffffffffffffffffffffffff167f8c5be1e5ebec7d5bd14f71427d1e84f3dd0314c0f7b2291e5b200ac8c7c3b925836040518082815260200191505060405180910390a3505050565b6000600760009054906101000a900473ffffffffffffffffffffffffffffffffffffffff1673ffffffffffffffffffffffffffffffffffffffff16633ddac95330670de0b6b3a76400006040518363ffffffff1660e01b8152600401808373ffffffffffffffffffffffffffffffffffffffff1681526020018281526020019250505060206040518083038186803b15801561358357600080fd5b505afa9250505080156135b757506040513d60208110156135a357600080fd5b810190808051906020019092919050505060015b61360c576040517f08c379a000000000000000000000000000000000000000000000000000000000815260040180806020018281038252602c815260200180614464602c913960400191505060405180910390fd5b8071ffffffffffffffffffffffffffffffffffff1691505090565b6000600b60149054906101000a900460ff161561377057600061365e600161364d6128cb565b60ff16613db590919063ffffffff16565b90505b60008160ff161061376e57600c8160ff168154811061367c57fe5b9060005260206000200154831061376257612710600d8260ff16815481106136a057fe5b90600052602060002001541061371e576040517f08c379a000000000000000000000000000000000000000000000000000000000815260040180806020018281038252601b8152602001807f74617820657175616c206f722062696767657220746f2031303025000000000081525060200191505060405180910390fd5b600d8160ff168154811061372e57fe5b9060005260206000200154600981905550600d8160ff168154811061374f57fe5b9060005260206000200154915050613771565b80600190039050613661565b505b5b919050565b600073ffffffffffffffffffffffffffffffffffffffff168373ffffffffffffffffffffffffffffffffffffffff1614156137fc576040517f08c379a00000000000000000000000000000000000000000000000000000000081526004018080602001828103825260258152602001806143ef6025913960400191505060405180910390fd5b600073ffffffffffffffffffffffffffffffffffffffff168273ffffffffffffffffffffffffffffffffffffffff161415613882576040517f08c379a00000000000000000000000000000000000000000000000000000000081526004018080602001828103825260238152602001806141996023913960400191505060405180910390fd5b61388d838383613db0565b6138f881604051806060016040528060268152602001614226602691396000808773ffffffffffffffffffffffffffffffffffffffff1673ffffffffffffffffffffffffffffffffffffffff16815260200190815260200160002054613ad89092919063ffffffff16565b6000808573ffffffffffffffffffffffffffffffffffffffff1673ffffffffffffffffffffffffffffffffffffffff1681526020019081526020016000208190555061398b816000808573ffffffffffffffffffffffffffffffffffffffff1673ffffffffffffffffffffffffffffffffffffffff1681526020019081526020016000205461309a90919063ffffffff16565b6000808473ffffffffffffffffffffffffffffffffffffffff1673ffffffffffffffffffffffffffffffffffffffff168152602001908152602001600020819055508173ffffffffffffffffffffffffffffffffffffffff168373ffffffffffffffffffffffffffffffffffffffff167fddf252ad1be2c89b69c2b068fc378daa952ba7f163c4a11628f55a4df523b3ef836040518082815260200191505060405180910390a3505050565b600080613a63612710613a5560095487613dff90919063ffffffff16565b613e8590919063ffffffff16565b90506000613a7a8286613ccb90919063ffffffff16565b90508315613a9157613a8c8783613d4e565b613abf565b613abe87600b60009054906101000a900473ffffffffffffffffffffffffffffffffffffffff1684613776565b5b613aca878783613776565b600192505050949350505050565b6000838311158290613b85576040517f08c379a00000000000000000000000000000000000000000000000000000000081526004018080602001828103825283818151815260200191508051906020019080838360005b83811015613b4a578082015181840152602081019050613b2f565b50505050905090810190601f168015613b775780820380516001836020036101000a031916815260200191505b509250505060405180910390fd5b5082840390509392505050565b600073ffffffffffffffffffffffffffffffffffffffff168173ffffffffffffffffffffffffffffffffffffffff161415613c18576040517f08c379a000000000000000000000000000000000000000000000000000000000815260040180806020018281038252602d815260200180614272602d913960400191505060405180910390fd5b8073ffffffffffffffffffffffffffffffffffffffff16600073ffffffffffffffffffffffffffffffffffffffff167f74da04524d50c64947f5dd5381ef1a4dca5cba8ed1d816243f9e48aa0b5617ed60405160405180910390a380600660006101000a81548173ffffffffffffffffffffffffffffffffffffffff021916908373ffffffffffffffffffffffffffffffffffffffff16021790555050565b613cc8613cc26132e9565b82613f0e565b50565b600082821115613d43576040517f08c379a000000000000000000000000000000000000000000000000000000000815260040180806020018281038252601e8152602001807f536166654d6174683a207375627472616374696f6e206f766572666c6f77000081525060200191505060405180910390fd5b818303905092915050565b6000613d8d8260405180606001604052806024815260200161431660249139613d7e86613d796132e9565b612cb0565b613ad89092919063ffffffff16565b9050613da183613d9b6132e9565b836132f1565b613dab8383613f0e565b505050565b505050565b6000613df783836040518060400160405280601e81526020017f536166654d6174683a207375627472616374696f6e206f766572666c6f7700008152506140d2565b905092915050565b600080831415613e125760009050613e7f565b6000828402905082848281613e2357fe5b0414613e7a576040517f08c379a000000000000000000000000000000000000000000000000000000000815260040180806020018281038252602181526020018061429f6021913960400191505060405180910390fd5b809150505b92915050565b6000808211613efc576040517f08c379a000000000000000000000000000000000000000000000000000000000815260040180806020018281038252601a8152602001807f536166654d6174683a206469766973696f6e206279207a65726f00000000000081525060200191505060405180910390fd5b818381613f0557fe5b04905092915050565b600073ffffffffffffffffffffffffffffffffffffffff168273ffffffffffffffffffffffffffffffffffffffff161415613f94576040517f08c379a00000000000000000000000000000000000000000000000000000000081526004018080602001828103825260218152602001806143886021913960400191505060405180910390fd5b613fa082600083613db0565b61400b816040518060600160405280602281526020016141bc602291396000808673ffffffffffffffffffffffffffffffffffffffff1673ffffffffffffffffffffffffffffffffffffffff16815260200190815260200160002054613ad89092919063ffffffff16565b6000808473ffffffffffffffffffffffffffffffffffffffff1673ffffffffffffffffffffffffffffffffffffffff1681526020019081526020016000208190555061406281600254613ccb90919063ffffffff16565b600281905550600073ffffffffffffffffffffffffffffffffffffffff168273ffffffffffffffffffffffffffffffffffffffff167fddf252ad1be2c89b69c2b068fc378daa952ba7f163c4a11628f55a4df523b3ef836040518082815260200191505060405180910390a35050565b60008360ff168360ff1611158290614185576040517f08c379a00000000000000000000000000000000000000000000000000000000081526004018080602001828103825283818151815260200191508051906020019080838360005b8381101561414a57808201518184015260208101905061412f565b50505050905090810190601f1680156141775780820380516001836020036101000a031916815260200191505b509250505060405180910390fd5b506000838503905080915050939250505056fe45524332303a207472616e7366657220746f20746865207a65726f206164647265737345524332303a206275726e20616d6f756e7420657863656564732062616c616e63654f776e61626c653a206e6577206f776e657220697320746865207a65726f206164647265737345524332303a20617070726f766520746f20746865207a65726f206164647265737345524332303a207472616e7366657220616d6f756e7420657863656564732062616c616e6365746178206f666669636520616464726573732063616e6e6f74206265203020616464726573736f70657261746f723a207a65726f206164647265737320676976656e20666f72206e6577206f70657261746f72536166654d6174683a206d756c7469706c69636174696f6e206f766572666c6f7745524332303a207472616e7366657220616d6f756e74206578636565647320616c6c6f77616e636574617820636f6c6c6563746f722061646472657373206d757374206265206e6f6e2d7a65726f206164647265737345524332303a206275726e20616d6f756e74206578636565647320616c6c6f77616e63656f70657261746f723a2063616c6c6572206973206e6f7420746865206f70657261746f72496e6465782068617320746f206c6f776572207468616e20636f756e74206f662074617820746965727345524332303a206275726e2066726f6d20746865207a65726f20616464726573736f7261636c6520616464726573732063616e6e6f74206265203020616464726573736175746f2063616c63756c617465207461782063616e6e6f7420626520656e61626c656445524332303a207472616e736665722066726f6d20746865207a65726f206164647265737343616c6c6572206973206e6f7420746865206f70657261746f72206f722074686520746178206f666669636545524332303a20617070726f76652066726f6d20746865207a65726f2061646472657373546f6d623a206661696c656420746f20666574636820544f4d422070726963652066726f6d204f7261636c6545524332303a2064656372656173656420616c6c6f77616e63652062656c6f77207a65726fa2646970667358221220525d7916c6d08e69cb0832025405d78eedd93ad3d814f34716f390bb68a2740b64736f6c634300060c003343616c6c6572206973206e6f7420746865206f70657261746f72206f722074686520746178206f6666696365",
  "immutableReferences": {},
  "source": "// SPDX-License-Identifier: MIT\npragma solidity 0.6.12;\n\nimport \"@openzeppelin/contracts/token/ERC20/ERC20Burnable.sol\";\nimport \"@openzeppelin/contracts/math/Math.sol\";\n\nimport \"./lib/SafeMath8.sol\";\nimport \"./owner/Operator.sol\";\nimport \"./interfaces/IOracle.sol\";\n\ncontract Zomb is ERC20Burnable, Operator {\n    using SafeMath8 for uint8;\n    using SafeMath for uint256;\n\n    // Initial distribution for the first 24h genesis pools\n    uint256 public constant INITIAL_GENESIS_POOL_DISTRIBUTION = 11000 ether;\n    // Initial distribution for the day 2-5 TOMB-WFTM LP -> TOMB pool\n    uint256 public constant INITIAL_TOMB_POOL_DISTRIBUTION = 0 ether;\n    // Distribution for airdrops wallet\n    uint256 public constant INITIAL_AIRDROP_WALLET_DISTRIBUTION = 0 ether;\n\n    // Have the rewards been distributed to the pools\n    bool public rewardPoolDistributed = false;\n\n    /* ================= Taxation =============== */\n    // Address of the Oracle\n    address public tombOracle;\n    // Address of the Tax Office\n    address public taxOffice;\n\n    // Current tax rate\n    uint256 public taxRate;\n    // Price threshold below which taxes will get burned\n    uint256 public burnThreshold = 1.10e18;\n    // Address of the tax collector wallet\n    address public taxCollectorAddress;\n\n    // Should the taxes be calculated using the tax tiers\n    bool public autoCalculateTax;\n\n    // Tax Tiers\n    uint256[] public taxTiersTwaps = [0, 5e17, 6e17, 7e17, 8e17, 9e17, 9.5e17, 1e18, 1.05e18, 1.10e18, 1.20e18, 1.30e18, 1.40e18, 1.50e18];\n    uint256[] public taxTiersRates = [2000, 1900, 1800, 1700, 1600, 1500, 1500, 1500, 1500, 1400, 900, 400, 200, 100];\n\n    // Sender addresses excluded from Tax\n    mapping(address => bool) public excludedAddresses;\n\n    event TaxOfficeTransferred(address oldAddress, address newAddress);\n\n    modifier onlyTaxOffice() {\n        require(taxOffice == msg.sender, \"Caller is not the tax office\");\n        _;\n    }\n\n    modifier onlyOperatorOrTaxOffice() {\n        require(isOperator() || taxOffice == msg.sender, \"Caller is not the operator or the tax office\");\n        _;\n    }\n\n    /**\n     * @notice Constructs the TOMB ERC-20 contract.\n     */\n    constructor(uint256 _taxRate, address _taxCollectorAddress) public ERC20(\"ZombI\", \"ZombI\") {\n        // Mints 1 TOMB to contract creator for initial pool setup\n        require(_taxRate < 10000, \"tax equal or bigger to 100%\");\n        //require(_taxCollectorAddress != address(0), \"tax collector address must be non-zero address\");\n\n        excludeAddress(address(this));\n\n        _mint(msg.sender, 1 ether);\n        taxRate = _taxRate;\n        taxCollectorAddress = _taxCollectorAddress;\n    }\n\n    /* ============= Taxation ============= */\n\n    function getTaxTiersTwapsCount() public view returns (uint256 count) {\n        return taxTiersTwaps.length;\n    }\n\n    function getTaxTiersRatesCount() public view returns (uint256 count) {\n        return taxTiersRates.length;\n    }\n\n    function isAddressExcluded(address _address) public view returns (bool) {\n        return excludedAddresses[_address];\n    }\n\n    function setTaxTiersTwap(uint8 _index, uint256 _value) public onlyTaxOffice returns (bool) {\n        require(_index >= 0, \"Index has to be higher than 0\");\n        require(_index < getTaxTiersTwapsCount(), \"Index has to lower than count of tax tiers\");\n        if (_index > 0) {\n            require(_value > taxTiersTwaps[_index - 1]);\n        }\n        if (_index < getTaxTiersTwapsCount().sub(1)) {\n            require(_value < taxTiersTwaps[_index + 1]);\n        }\n        taxTiersTwaps[_index] = _value;\n        return true;\n    }\n\n    function setTaxTiersRate(uint8 _index, uint256 _value) public onlyTaxOffice returns (bool) {\n        require(_index >= 0, \"Index has to be higher than 0\");\n        require(_index < getTaxTiersRatesCount(), \"Index has to lower than count of tax tiers\");\n        taxTiersRates[_index] = _value;\n        return true;\n    }\n\n    function setBurnThreshold(uint256 _burnThreshold) public onlyTaxOffice returns (bool) {\n        burnThreshold = _burnThreshold;\n    }\n\n    function _getTombPrice() internal view returns (uint256 _tombPrice) {\n        try IOracle(tombOracle).consult(address(this), 1e18) returns (uint144 _price) {\n            return uint256(_price);\n        } catch {\n            revert(\"Tomb: failed to fetch TOMB price from Oracle\");\n        }\n    }\n\n    function _updateTaxRate(uint256 _tombPrice) internal returns (uint256){\n        if (autoCalculateTax) {\n            for (uint8 tierId = uint8(getTaxTiersTwapsCount()).sub(1); tierId >= 0; --tierId) {\n                if (_tombPrice >= taxTiersTwaps[tierId]) {\n                    require(taxTiersRates[tierId] < 10000, \"tax equal or bigger to 100%\");\n                    taxRate = taxTiersRates[tierId];\n                    return taxTiersRates[tierId];\n                }\n            }\n        }\n    }\n\n    function enableAutoCalculateTax() public onlyTaxOffice {\n        autoCalculateTax = true;\n    }\n\n    function disableAutoCalculateTax() public onlyTaxOffice {\n        autoCalculateTax = false;\n    }\n\n    function setTombOracle(address _tombOracle) public onlyOperatorOrTaxOffice {\n        require(_tombOracle != address(0), \"oracle address cannot be 0 address\");\n        tombOracle = _tombOracle;\n    }\n\n    function setTaxOffice(address _taxOffice) public onlyOperatorOrTaxOffice {\n        require(_taxOffice != address(0), \"tax office address cannot be 0 address\");\n        emit TaxOfficeTransferred(taxOffice, _taxOffice);\n        taxOffice = _taxOffice;\n    }\n\n    function setTaxCollectorAddress(address _taxCollectorAddress) public onlyTaxOffice {\n        require(_taxCollectorAddress != address(0), \"tax collector address must be non-zero address\");\n        taxCollectorAddress = _taxCollectorAddress;\n    }\n\n    function setTaxRate(uint256 _taxRate) public onlyTaxOffice {\n        require(!autoCalculateTax, \"auto calculate tax cannot be enabled\");\n        require(_taxRate < 10000, \"tax equal or bigger to 100%\");\n        taxRate = _taxRate;\n    }\n\n    function excludeAddress(address _address) public onlyOperatorOrTaxOffice returns (bool) {\n        require(!excludedAddresses[_address], \"address can't be excluded\");\n        excludedAddresses[_address] = true;\n        return true;\n    }\n\n    function includeAddress(address _address) public onlyOperatorOrTaxOffice returns (bool) {\n        require(excludedAddresses[_address], \"address can't be included\");\n        excludedAddresses[_address] = false;\n        return true;\n    }\n\n    /**\n     * @notice Operator mints TOMB to a recipient\n     * @param recipient_ The address of recipient\n     * @param amount_ The amount of TOMB to mint to\n     * @return whether the process has been done\n     */\n    function mint(address recipient_, uint256 amount_) public onlyOperator returns (bool) {\n        uint256 balanceBefore = balanceOf(recipient_);\n        _mint(recipient_, amount_);\n        uint256 balanceAfter = balanceOf(recipient_);\n\n        return balanceAfter > balanceBefore;\n    }\n\n    function burn(uint256 amount) public override {\n        super.burn(amount);\n    }\n\n    function burnFrom(address account, uint256 amount) public override onlyOperator {\n        super.burnFrom(account, amount);\n    }\n\n    function transferFrom(\n        address sender,\n        address recipient,\n        uint256 amount\n    ) public override returns (bool) {\n        uint256 currentTaxRate = 0;\n        bool burnTax = false;\n\n        if (autoCalculateTax) {\n            uint256 currentTombPrice = _getTombPrice();\n            currentTaxRate = _updateTaxRate(currentTombPrice);\n            if (currentTombPrice < burnThreshold) {\n                burnTax = true;\n            }\n        }\n\n\n        if (currentTaxRate == 0 || excludedAddresses[sender]) {\n            _transfer(sender, recipient, amount);\n        } else {\n            _transferWithTax(sender, recipient, amount, burnTax);\n        }\n\n        _approve(sender, _msgSender(), allowance(sender, _msgSender()).sub(amount, \"ERC20: transfer amount exceeds allowance\"));\n        return true;\n    }\n\n    function _transferWithTax(\n        address sender,\n        address recipient,\n        uint256 amount,\n        bool burnTax\n    ) internal returns (bool) {\n        uint256 taxAmount = amount.mul(taxRate).div(10000);\n        uint256 amountAfterTax = amount.sub(taxAmount);\n\n        if(burnTax) {\n            // Burn tax\n            super.burnFrom(sender, taxAmount);\n        } else {\n            // Transfer tax to tax collector\n            _transfer(sender, taxCollectorAddress, taxAmount);\n        }\n\n        // Transfer amount after tax to recipient\n        _transfer(sender, recipient, amountAfterTax);\n\n        return true;\n    }\n\n    /**\n     * @notice distribute to reward pool (only once)\n     */\n    function distributeReward(\n        address _genesisPool\n        //address _tombPool,\n        //address _airdropWallet\n    ) external onlyOperator {\n        require(!rewardPoolDistributed, \"only can distribute once\");\n        require(_genesisPool != address(0), \"!_genesisPool\");\n        //require(_tombPool != address(0), \"!_tombPool\");\n        //require(_airdropWallet != address(0), \"!_airdropWallet\");\n        rewardPoolDistributed = true;\n        _mint(_genesisPool, INITIAL_GENESIS_POOL_DISTRIBUTION);\n        //_mint(_tombPool, INITIAL_TOMB_POOL_DISTRIBUTION);\n        //_mint(_airdropWallet, INITIAL_AIRDROP_WALLET_DISTRIBUTION);\n    }\n\n    function governanceRecoverUnsupported(\n        IERC20 _token,\n        uint256 _amount,\n        address _to\n    ) external onlyOperator {\n        _token.transfer(_to, _amount);\n    }\n}\n",
  "sourcePath": "D:\\5xDEFI\\tomb-contract\\contracts\\Zomb.sol",
  "compiler": {
    "name": "solc",
    "version": "0.6.12+commit.27d51765.Emscripten.clang"
  },
  "schemaVersion": "3.4.3",
  "updatedAt": "2022-03-04T03:11:57.515Z",
  "devdoc": {
    "kind": "dev",
    "methods": {
      "allowance(address,address)": {
        "details": "See {IERC20-allowance}."
      },
      "approve(address,uint256)": {
        "details": "See {IERC20-approve}. Requirements: - `spender` cannot be the zero address."
      },
      "balanceOf(address)": {
        "details": "See {IERC20-balanceOf}."
      },
      "burn(uint256)": {
        "details": "Destroys `amount` tokens from the caller. See {ERC20-_burn}."
      },
      "burnFrom(address,uint256)": {
        "details": "Destroys `amount` tokens from `account`, deducting from the caller's allowance. See {ERC20-_burn} and {ERC20-allowance}. Requirements: - the caller must have allowance for ``accounts``'s tokens of at least `amount`."
      },
      "decimals()": {
        "details": "Returns the number of decimals used to get its user representation. For example, if `decimals` equals `2`, a balance of `505` tokens should be displayed to a user as `5,05` (`505 / 10 ** 2`). Tokens usually opt for a value of 18, imitating the relationship between Ether and Wei. This is the value {ERC20} uses, unless {_setupDecimals} is called. NOTE: This information is only used for _display_ purposes: it in no way affects any of the arithmetic of the contract, including {IERC20-balanceOf} and {IERC20-transfer}."
      },
      "decreaseAllowance(address,uint256)": {
        "details": "Atomically decreases the allowance granted to `spender` by the caller. This is an alternative to {approve} that can be used as a mitigation for problems described in {IERC20-approve}. Emits an {Approval} event indicating the updated allowance. Requirements: - `spender` cannot be the zero address. - `spender` must have allowance for the caller of at least `subtractedValue`."
      },
      "increaseAllowance(address,uint256)": {
        "details": "Atomically increases the allowance granted to `spender` by the caller. This is an alternative to {approve} that can be used as a mitigation for problems described in {IERC20-approve}. Emits an {Approval} event indicating the updated allowance. Requirements: - `spender` cannot be the zero address."
      },
      "mint(address,uint256)": {
        "params": {
          "amount_": "The amount of TOMB to mint to",
          "recipient_": "The address of recipient"
        },
        "returns": {
          "_0": "whether the process has been done"
        }
      },
      "name()": {
        "details": "Returns the name of the token."
      },
      "owner()": {
        "details": "Returns the address of the current owner."
      },
      "renounceOwnership()": {
        "details": "Leaves the contract without owner. It will not be possible to call `onlyOwner` functions anymore. Can only be called by the current owner. NOTE: Renouncing ownership will leave the contract without an owner, thereby removing any functionality that is only available to the owner."
      },
      "symbol()": {
        "details": "Returns the symbol of the token, usually a shorter version of the name."
      },
      "totalSupply()": {
        "details": "See {IERC20-totalSupply}."
      },
      "transfer(address,uint256)": {
        "details": "See {IERC20-transfer}. Requirements: - `recipient` cannot be the zero address. - the caller must have a balance of at least `amount`."
      },
      "transferFrom(address,address,uint256)": {
        "details": "See {IERC20-transferFrom}. Emits an {Approval} event indicating the updated allowance. This is not required by the EIP. See the note at the beginning of {ERC20}. Requirements: - `sender` and `recipient` cannot be the zero address. - `sender` must have a balance of at least `amount`. - the caller must have allowance for ``sender``'s tokens of at least `amount`."
      },
      "transferOwnership(address)": {
        "details": "Transfers ownership of the contract to a new account (`newOwner`). Can only be called by the current owner."
      }
    },
    "version": 1
  },
  "userdoc": {
    "kind": "user",
    "methods": {
      "constructor": "Constructs the TOMB ERC-20 contract.",
      "distributeReward(address)": {
        "notice": "distribute to reward pool (only once)"
      },
      "mint(address,uint256)": {
        "notice": "Operator mints TOMB to a recipient"
      }
    },
    "version": 1
  }
}