{
  "contractName": "ZombGenesisRewardPool",
  "abi": [
    {
      "inputs": [
        {
          "internalType": "address",
          "name": "_tomb",
          "type": "address"
        },
        {
          "internalType": "address",
          "name": "_shiba",
          "type": "address"
        },
        {
          "internalType": "address",
          "name": "_feeAddress",
          "type": "address"
        },
        {
          "internalType": "uint256",
          "name": "_poolStartTime",
          "type": "uint256"
        }
      ],
      "stateMutability": "nonpayable",
      "type": "constructor"
    },
    {
      "anonymous": false,
      "inputs": [
        {
          "indexed": true,
          "internalType": "address",
          "name": "user",
          "type": "address"
        },
        {
          "indexed": true,
          "internalType": "uint256",
          "name": "pid",
          "type": "uint256"
        },
        {
          "indexed": false,
          "internalType": "uint256",
          "name": "amount",
          "type": "uint256"
        }
      ],
      "name": "Deposit",
      "type": "event"
    },
    {
      "anonymous": false,
      "inputs": [
        {
          "indexed": true,
          "internalType": "address",
          "name": "user",
          "type": "address"
        },
        {
          "indexed": true,
          "internalType": "uint256",
          "name": "pid",
          "type": "uint256"
        },
        {
          "indexed": false,
          "internalType": "uint256",
          "name": "amount",
          "type": "uint256"
        }
      ],
      "name": "EmergencyWithdraw",
      "type": "event"
    },
    {
      "anonymous": false,
      "inputs": [
        {
          "indexed": true,
          "internalType": "address",
          "name": "user",
          "type": "address"
        },
        {
          "indexed": false,
          "internalType": "uint256",
          "name": "amount",
          "type": "uint256"
        }
      ],
      "name": "RewardPaid",
      "type": "event"
    },
    {
      "anonymous": false,
      "inputs": [
        {
          "indexed": true,
          "internalType": "address",
          "name": "user",
          "type": "address"
        },
        {
          "indexed": true,
          "internalType": "uint256",
          "name": "pid",
          "type": "uint256"
        },
        {
          "indexed": false,
          "internalType": "uint256",
          "name": "amount",
          "type": "uint256"
        }
      ],
      "name": "Withdraw",
      "type": "event"
    },
    {
      "inputs": [],
      "name": "TOTAL_REWARDS",
      "outputs": [
        {
          "internalType": "uint256",
          "name": "",
          "type": "uint256"
        }
      ],
      "stateMutability": "view",
      "type": "function"
    },
    {
      "inputs": [],
      "name": "feeAddress",
      "outputs": [
        {
          "internalType": "address",
          "name": "",
          "type": "address"
        }
      ],
      "stateMutability": "view",
      "type": "function"
    },
    {
      "inputs": [],
      "name": "operator",
      "outputs": [
        {
          "internalType": "address",
          "name": "",
          "type": "address"
        }
      ],
      "stateMutability": "view",
      "type": "function"
    },
    {
      "inputs": [],
      "name": "poolEndTime",
      "outputs": [
        {
          "internalType": "uint256",
          "name": "",
          "type": "uint256"
        }
      ],
      "stateMutability": "view",
      "type": "function"
    },
    {
      "inputs": [
        {
          "internalType": "uint256",
          "name": "",
          "type": "uint256"
        }
      ],
      "name": "poolInfo",
      "outputs": [
        {
          "internalType": "contract IERC20",
          "name": "token",
          "type": "address"
        },
        {
          "internalType": "uint256",
          "name": "allocPoint",
          "type": "uint256"
        },
        {
          "internalType": "uint256",
          "name": "lastRewardTime",
          "type": "uint256"
        },
        {
          "internalType": "uint256",
          "name": "accTombPerShare",
          "type": "uint256"
        },
        {
          "internalType": "uint256",
          "name": "depositFeeBP",
          "type": "uint256"
        },
        {
          "internalType": "bool",
          "name": "isStarted",
          "type": "bool"
        }
      ],
      "stateMutability": "view",
      "type": "function"
    },
    {
      "inputs": [],
      "name": "poolStartTime",
      "outputs": [
        {
          "internalType": "uint256",
          "name": "",
          "type": "uint256"
        }
      ],
      "stateMutability": "view",
      "type": "function"
    },
    {
      "inputs": [],
      "name": "runningTime",
      "outputs": [
        {
          "internalType": "uint256",
          "name": "",
          "type": "uint256"
        }
      ],
      "stateMutability": "view",
      "type": "function"
    },
    {
      "inputs": [],
      "name": "shiba",
      "outputs": [
        {
          "internalType": "address",
          "name": "",
          "type": "address"
        }
      ],
      "stateMutability": "view",
      "type": "function"
    },
    {
      "inputs": [],
      "name": "tomb",
      "outputs": [
        {
          "internalType": "contract IERC20",
          "name": "",
          "type": "address"
        }
      ],
      "stateMutability": "view",
      "type": "function"
    },
    {
      "inputs": [],
      "name": "tombPerSecond",
      "outputs": [
        {
          "internalType": "uint256",
          "name": "",
          "type": "uint256"
        }
      ],
      "stateMutability": "view",
      "type": "function"
    },
    {
      "inputs": [],
      "name": "totalAllocPoint",
      "outputs": [
        {
          "internalType": "uint256",
          "name": "",
          "type": "uint256"
        }
      ],
      "stateMutability": "view",
      "type": "function"
    },
    {
      "inputs": [
        {
          "internalType": "uint256",
          "name": "",
          "type": "uint256"
        },
        {
          "internalType": "address",
          "name": "",
          "type": "address"
        }
      ],
      "name": "userInfo",
      "outputs": [
        {
          "internalType": "uint256",
          "name": "amount",
          "type": "uint256"
        },
        {
          "internalType": "uint256",
          "name": "rewardDebt",
          "type": "uint256"
        }
      ],
      "stateMutability": "view",
      "type": "function"
    },
    {
      "inputs": [
        {
          "internalType": "uint256",
          "name": "_allocPoint",
          "type": "uint256"
        },
        {
          "internalType": "contract IERC20",
          "name": "_token",
          "type": "address"
        },
        {
          "internalType": "bool",
          "name": "_withUpdate",
          "type": "bool"
        },
        {
          "internalType": "uint256",
          "name": "_lastRewardTime",
          "type": "uint256"
        },
        {
          "internalType": "uint256",
          "name": "_depositFeeBP",
          "type": "uint256"
        }
      ],
      "name": "add",
      "outputs": [],
      "stateMutability": "nonpayable",
      "type": "function"
    },
    {
      "inputs": [
        {
          "internalType": "uint256",
          "name": "_pid",
          "type": "uint256"
        },
        {
          "internalType": "uint256",
          "name": "_allocPoint",
          "type": "uint256"
        },
        {
          "internalType": "uint256",
          "name": "_depositFeeBP",
          "type": "uint256"
        }
      ],
      "name": "set",
      "outputs": [],
      "stateMutability": "nonpayable",
      "type": "function"
    },
    {
      "inputs": [
        {
          "internalType": "uint256",
          "name": "_fromTime",
          "type": "uint256"
        },
        {
          "internalType": "uint256",
          "name": "_toTime",
          "type": "uint256"
        }
      ],
      "name": "getGeneratedReward",
      "outputs": [
        {
          "internalType": "uint256",
          "name": "",
          "type": "uint256"
        }
      ],
      "stateMutability": "view",
      "type": "function"
    },
    {
      "inputs": [
        {
          "internalType": "uint256",
          "name": "_pid",
          "type": "uint256"
        },
        {
          "internalType": "address",
          "name": "_user",
          "type": "address"
        }
      ],
      "name": "pendingTOMB",
      "outputs": [
        {
          "internalType": "uint256",
          "name": "",
          "type": "uint256"
        }
      ],
      "stateMutability": "view",
      "type": "function"
    },
    {
      "inputs": [],
      "name": "massUpdatePools",
      "outputs": [],
      "stateMutability": "nonpayable",
      "type": "function"
    },
    {
      "inputs": [
        {
          "internalType": "uint256",
          "name": "_pid",
          "type": "uint256"
        }
      ],
      "name": "updatePool",
      "outputs": [],
      "stateMutability": "nonpayable",
      "type": "function"
    },
    {
      "inputs": [
        {
          "internalType": "uint256",
          "name": "_pid",
          "type": "uint256"
        },
        {
          "internalType": "uint256",
          "name": "_amount",
          "type": "uint256"
        }
      ],
      "name": "deposit",
      "outputs": [],
      "stateMutability": "nonpayable",
      "type": "function"
    },
    {
      "inputs": [
        {
          "internalType": "uint256",
          "name": "_pid",
          "type": "uint256"
        },
        {
          "internalType": "uint256",
          "name": "_amount",
          "type": "uint256"
        }
      ],
      "name": "withdraw",
      "outputs": [],
      "stateMutability": "nonpayable",
      "type": "function"
    },
    {
      "inputs": [
        {
          "internalType": "uint256",
          "name": "_pid",
          "type": "uint256"
        }
      ],
      "name": "emergencyWithdraw",
      "outputs": [],
      "stateMutability": "nonpayable",
      "type": "function"
    },
    {
      "inputs": [
        {
          "internalType": "address",
          "name": "_operator",
          "type": "address"
        }
      ],
      "name": "setOperator",
      "outputs": [],
      "stateMutability": "nonpayable",
      "type": "function"
    },
    {
      "inputs": [
        {
          "internalType": "address",
          "name": "_feeAddress",
          "type": "address"
        }
      ],
      "name": "setFeeAddress",
      "outputs": [],
      "stateMutability": "nonpayable",
      "type": "function"
    },
    {
      "inputs": [
        {
          "internalType": "contract IERC20",
          "name": "_token",
          "type": "address"
        },
        {
          "internalType": "uint256",
          "name": "amount",
          "type": "uint256"
        },
        {
          "internalType": "address",
          "name": "to",
          "type": "address"
        }
      ],
      "name": "governanceRecoverUnsupported",
      "outputs": [],
      "stateMutability": "nonpayable",
      "type": "function"
    }
  ],
  "bytecode": "0x608060405260006006556671144e8e8e500060095562054600600a553480156200002857600080fd5b5060405162002cf338038062002cf3833981810160405260808110156200004e57600080fd5b8101908080519060200190929190805190602001909291908051906020019092919080519060200190929190505050804210620000f3576040517f08c379a00000000000000000000000000000000000000000000000000000000081526004018080602001828103825260048152602001807f6c6174650000000000000000000000000000000000000000000000000000000081525060200191505060405180910390fd5b600073ffffffffffffffffffffffffffffffffffffffff168273ffffffffffffffffffffffffffffffffffffffff16141562000197576040517f08c379a00000000000000000000000000000000000000000000000000000000081526004018080602001828103825260138152602001807f5f66656541646472657373206973205a45524f0000000000000000000000000081525060200191505060405180910390fd5b600073ffffffffffffffffffffffffffffffffffffffff168473ffffffffffffffffffffffffffffffffffffffff16146200020e5783600160006101000a81548173ffffffffffffffffffffffffffffffffffffffff021916908373ffffffffffffffffffffffffffffffffffffffff1602179055505b600073ffffffffffffffffffffffffffffffffffffffff168373ffffffffffffffffffffffffffffffffffffffff1614620002855782600360006101000a81548173ffffffffffffffffffffffffffffffffffffffff021916908373ffffffffffffffffffffffffffffffffffffffff1602179055505b80600781905550600a5460075401600881905550336000806101000a81548173ffffffffffffffffffffffffffffffffffffffff021916908373ffffffffffffffffffffffffffffffffffffffff16021790555081600260006101000a81548173ffffffffffffffffffffffffffffffffffffffff021916908373ffffffffffffffffffffffffffffffffffffffff160217905550505050506129c5806200032e6000396000f3fe608060405234801561001057600080fd5b50600436106101585760003560e01c806362e006c7116100c3578063943f013d1161007c578063943f013d146105d1578063a2b123a8146105ef578063b3ab15fb1461060d578063c040f23a14610651578063d763914714610685578063e2bbb158146106b957610158565b806362e006c71461042c578063630b5ba11461049a5780636e271dd5146104a45780638705fcd4146104c257806389744bb41461050657806393f1a40b1461056857610158565b8063441a3e7011610115578063441a3e70146102d857806351eb05a6146103105780635312ea8e1461033e57806354575af41461036c578063570ca735146103da5780635f96dc111461040e57610158565b806309cf60911461015d5780631526fe271461017b57806317caf6f1146101f8578063231f0c6a14610216578063412753581461026257806343b0e8df14610296575b600080fd5b6101656106f1565b6040518082815260200191505060405180910390f35b6101a76004803603602081101561019157600080fd5b81019080803590602001909291905050506106ff565b604051808773ffffffffffffffffffffffffffffffffffffffff1681526020018681526020018581526020018481526020018381526020018215158152602001965050505050505060405180910390f35b610200610775565b6040518082815260200191505060405180910390f35b61024c6004803603604081101561022c57600080fd5b81019080803590602001909291908035906020019092919050505061077b565b6040518082815260200191505060405180910390f35b61026a61088e565b604051808273ffffffffffffffffffffffffffffffffffffffff16815260200191505060405180910390f35b6102d6600480360360608110156102ac57600080fd5b810190808035906020019092919080359060200190929190803590602001909291905050506108b4565b005b61030e600480360360408110156102ee57600080fd5b810190808035906020019092919080359060200190929190505050610a3a565b005b61033c6004803603602081101561032657600080fd5b8101908080359060200190929190505050610cf2565b005b61036a6004803603602081101561035457600080fd5b8101908080359060200190929190505050610f01565b005b6103d86004803603606081101561038257600080fd5b81019080803573ffffffffffffffffffffffffffffffffffffffff16906020019092919080359060200190929190803573ffffffffffffffffffffffffffffffffffffffff169060200190929190505050611035565b005b6103e26112e5565b604051808273ffffffffffffffffffffffffffffffffffffffff16815260200191505060405180910390f35b610416611309565b6040518082815260200191505060405180910390f35b610498600480360360a081101561044257600080fd5b8101908080359060200190929190803573ffffffffffffffffffffffffffffffffffffffff169060200190929190803515159060200190929190803590602001909291908035906020019092919050505061130f565b005b6104a26115b1565b005b6104ac6115de565b6040518082815260200191505060405180910390f35b610504600480360360208110156104d857600080fd5b81019080803573ffffffffffffffffffffffffffffffffffffffff1690602001909291905050506115e4565b005b6105526004803603604081101561051c57600080fd5b8101908080359060200190929190803573ffffffffffffffffffffffffffffffffffffffff16906020019092919050505061178e565b6040518082815260200191505060405180910390f35b6105b46004803603604081101561057e57600080fd5b8101908080359060200190929190803573ffffffffffffffffffffffffffffffffffffffff1690602001909291905050506119c6565b604051808381526020018281526020019250505060405180910390f35b6105d96119f7565b6040518082815260200191505060405180910390f35b6105f76119fd565b6040518082815260200191505060405180910390f35b61064f6004803603602081101561062357600080fd5b81019080803573ffffffffffffffffffffffffffffffffffffffff169060200190929190505050611a03565b005b610659611aea565b604051808273ffffffffffffffffffffffffffffffffffffffff16815260200191505060405180910390f35b61068d611b10565b604051808273ffffffffffffffffffffffffffffffffffffffff16815260200191505060405180910390f35b6106ef600480360360408110156106cf57600080fd5b810190808035906020019092919080359060200190929190505050611b36565b005b6902544faa778090e0000081565b6004818154811061070c57fe5b90600052602060002090600602016000915090508060000160009054906101000a900473ffffffffffffffffffffffffffffffffffffffff16908060010154908060020154908060030154908060040154908060050160009054906101000a900460ff16905086565b60065481565b600081831061078d5760009050610888565b60085482106108135760085483106107a85760009050610888565b60075483116107e3576107dc6009546107ce600754600854611f1990919063ffffffff16565b611f9c90919063ffffffff16565b9050610888565b61080c6009546107fe85600854611f1990919063ffffffff16565b611f9c90919063ffffffff16565b9050610888565b60075482116108255760009050610888565b600754831161085e5761085760095461084960075485611f1990919063ffffffff16565b611f9c90919063ffffffff16565b9050610888565b6108856009546108778585611f1990919063ffffffff16565b611f9c90919063ffffffff16565b90505b92915050565b600260009054906101000a900473ffffffffffffffffffffffffffffffffffffffff1681565b3373ffffffffffffffffffffffffffffffffffffffff1660008054906101000a900473ffffffffffffffffffffffffffffffffffffffff1673ffffffffffffffffffffffffffffffffffffffff1614610958576040517f08c379a000000000000000000000000000000000000000000000000000000000815260040180806020018281038252602b815260200180612965602b913960400191505060405180910390fd5b60648111156109b2576040517f08c379a00000000000000000000000000000000000000000000000000000000081526004018080602001828103825260258152602001806129166025913960400191505060405180910390fd5b6109ba6115b1565b6000600484815481106109c957fe5b906000526020600020906006020190508060050160009054906101000a900460ff1615610a2257610a1b83610a0d8360010154600654611f1990919063ffffffff16565b61202290919063ffffffff16565b6006819055505b82816001018190555081816004018190555050505050565b6000339050600060048481548110610a4e57fe5b9060005260206000209060060201905060006005600086815260200190815260200160002060008473ffffffffffffffffffffffffffffffffffffffff1673ffffffffffffffffffffffffffffffffffffffff16815260200190815260200160002090508381600001541015610b2c576040517f08c379a00000000000000000000000000000000000000000000000000000000081526004018080602001828103825260128152602001807f77697468647261773a206e6f7420676f6f64000000000000000000000000000081525060200191505060405180910390fd5b610b3585610cf2565b6000610b828260010154610b74670de0b6b3a7640000610b6687600301548760000154611f9c90919063ffffffff16565b6120aa90919063ffffffff16565b611f1990919063ffffffff16565b90506000811115610be657610b978482612133565b8373ffffffffffffffffffffffffffffffffffffffff167fe2403640ba68fed3a2f88b7557551d1993f84b99bb10ff833f0cf8db0c5e0486826040518082815260200191505060405180910390a25b6000851115610c5e57610c06858360000154611f1990919063ffffffff16565b8260000181905550610c5d84868560000160009054906101000a900473ffffffffffffffffffffffffffffffffffffffff1673ffffffffffffffffffffffffffffffffffffffff166122b29092919063ffffffff16565b5b610c93670de0b6b3a7640000610c8585600301548560000154611f9c90919063ffffffff16565b6120aa90919063ffffffff16565b8260010181905550858473ffffffffffffffffffffffffffffffffffffffff167ff279e6a1f5e320cca91135676d9cb6e44ca8a08c0b88342bcdb1144f6511b568876040518082815260200191505060405180910390a3505050505050565b600060048281548110610d0157fe5b9060005260206000209060060201905080600201544211610d225750610efe565b60008160000160009054906101000a900473ffffffffffffffffffffffffffffffffffffffff1673ffffffffffffffffffffffffffffffffffffffff166370a08231306040518263ffffffff1660e01b8152600401808273ffffffffffffffffffffffffffffffffffffffff16815260200191505060206040518083038186803b158015610daf57600080fd5b505afa158015610dc3573d6000803e3d6000fd5b505050506040513d6020811015610dd957600080fd5b810190808051906020019092919050505090506000811415610e05574282600201819055505050610efe565b8160050160009054906101000a900460ff16610e585760018260050160006101000a81548160ff021916908315150217905550610e51826001015460065461202290919063ffffffff16565b6006819055505b60006006541115610ef2576000610e7383600201544261077b565b90506000610ea2600654610e94866001015485611f9c90919063ffffffff16565b6120aa90919063ffffffff16565b9050610ee7610ed484610ec6670de0b6b3a764000085611f9c90919063ffffffff16565b6120aa90919063ffffffff16565b856003015461202290919063ffffffff16565b846003018190555050505b42826002018190555050505b50565b600060048281548110610f1057fe5b9060005260206000209060060201905060006005600084815260200190815260200160002060003373ffffffffffffffffffffffffffffffffffffffff1673ffffffffffffffffffffffffffffffffffffffff16815260200190815260200160002090506000816000015490506000826000018190555060008260010181905550610fe033828560000160009054906101000a900473ffffffffffffffffffffffffffffffffffffffff1673ffffffffffffffffffffffffffffffffffffffff166122b29092919063ffffffff16565b833373ffffffffffffffffffffffffffffffffffffffff167fbb757047c2b5f3974fe26b7c10f732e7bce710b0952a71082702781e62ae0595836040518082815260200191505060405180910390a350505050565b3373ffffffffffffffffffffffffffffffffffffffff1660008054906101000a900473ffffffffffffffffffffffffffffffffffffffff1673ffffffffffffffffffffffffffffffffffffffff16146110d9576040517f08c379a000000000000000000000000000000000000000000000000000000000815260040180806020018281038252602b815260200180612965602b913960400191505060405180910390fd5b6276a700600854014210156112b557600160009054906101000a900473ffffffffffffffffffffffffffffffffffffffff1673ffffffffffffffffffffffffffffffffffffffff168373ffffffffffffffffffffffffffffffffffffffff1614156111ac576040517f08c379a00000000000000000000000000000000000000000000000000000000081526004018080602001828103825260048152602001807f746f6d620000000000000000000000000000000000000000000000000000000081525060200191505060405180910390fd5b6000600480549050905060005b818110156112b2576000600482815481106111d057fe5b906000526020600020906006020190508060000160009054906101000a900473ffffffffffffffffffffffffffffffffffffffff1673ffffffffffffffffffffffffffffffffffffffff168673ffffffffffffffffffffffffffffffffffffffff1614156112a6576040517f08c379a000000000000000000000000000000000000000000000000000000000815260040180806020018281038252600a8152602001807f706f6f6c2e746f6b656e0000000000000000000000000000000000000000000081525060200191505060405180910390fd5b508060010190506111b9565b50505b6112e081838573ffffffffffffffffffffffffffffffffffffffff166122b29092919063ffffffff16565b505050565b60008054906101000a900473ffffffffffffffffffffffffffffffffffffffff1681565b60075481565b3373ffffffffffffffffffffffffffffffffffffffff1660008054906101000a900473ffffffffffffffffffffffffffffffffffffffff1673ffffffffffffffffffffffffffffffffffffffff16146113b3576040517f08c379a000000000000000000000000000000000000000000000000000000000815260040180806020018281038252602b815260200180612965602b913960400191505060405180910390fd5b606481111561140d576040517f08c379a00000000000000000000000000000000000000000000000000000000081526004018080602001828103825260258152602001806128aa6025913960400191505060405180910390fd5b61141684612354565b8215611425576114246115b1565b5b600754421015611458576000821415611442576007549150611453565b6007548210156114525760075491505b5b611470565b600082148061146657504282105b1561146f574291505b5b6000600754831115806114835750428311155b905060046040518060c001604052808773ffffffffffffffffffffffffffffffffffffffff16815260200188815260200185815260200160008152602001848152602001831515815250908060018154018082558091505060019003906000526020600020906006020160009091909190915060008201518160000160006101000a81548173ffffffffffffffffffffffffffffffffffffffff021916908373ffffffffffffffffffffffffffffffffffffffff1602179055506020820151816001015560408201518160020155606082015181600301556080820151816004015560a08201518160050160006101000a81548160ff021916908315150217905550505080156115a9576115a28660065461202290919063ffffffff16565b6006819055505b505050505050565b6000600480549050905060005b818110156115da576115cf81610cf2565b8060010190506115be565b5050565b60085481565b600260009054906101000a900473ffffffffffffffffffffffffffffffffffffffff1673ffffffffffffffffffffffffffffffffffffffff163373ffffffffffffffffffffffffffffffffffffffff16146116a7576040517f08c379a00000000000000000000000000000000000000000000000000000000081526004018080602001828103825260188152602001807f736574466565416464726573733a20464f5242494444454e000000000000000081525060200191505060405180910390fd5b600073ffffffffffffffffffffffffffffffffffffffff168173ffffffffffffffffffffffffffffffffffffffff16141561174a576040517f08c379a00000000000000000000000000000000000000000000000000000000081526004018080602001828103825260138152602001807f736574466565416464726573733a205a45524f0000000000000000000000000081525060200191505060405180910390fd5b80600260006101000a81548173ffffffffffffffffffffffffffffffffffffffff021916908373ffffffffffffffffffffffffffffffffffffffff16021790555050565b6000806004848154811061179e57fe5b9060005260206000209060060201905060006005600086815260200190815260200160002060008573ffffffffffffffffffffffffffffffffffffffff1673ffffffffffffffffffffffffffffffffffffffff168152602001908152602001600020905060008260030154905060008360000160009054906101000a900473ffffffffffffffffffffffffffffffffffffffff1673ffffffffffffffffffffffffffffffffffffffff166370a08231306040518263ffffffff1660e01b8152600401808273ffffffffffffffffffffffffffffffffffffffff16815260200191505060206040518083038186803b15801561189857600080fd5b505afa1580156118ac573d6000803e3d6000fd5b505050506040513d60208110156118c257600080fd5b810190808051906020019092919050505090508360020154421180156118e9575060008114155b156119735760006118fe85600201544261077b565b9050600061192d60065461191f886001015485611f9c90919063ffffffff16565b6120aa90919063ffffffff16565b905061196e61195f84611951670de0b6b3a764000085611f9c90919063ffffffff16565b6120aa90919063ffffffff16565b8561202290919063ffffffff16565b935050505b6119ba83600101546119ac670de0b6b3a764000061199e868860000154611f9c90919063ffffffff16565b6120aa90919063ffffffff16565b611f1990919063ffffffff16565b94505050505092915050565b6005602052816000526040600020602052806000526040600020600091509150508060000154908060010154905082565b600a5481565b60095481565b3373ffffffffffffffffffffffffffffffffffffffff1660008054906101000a900473ffffffffffffffffffffffffffffffffffffffff1673ffffffffffffffffffffffffffffffffffffffff1614611aa7576040517f08c379a000000000000000000000000000000000000000000000000000000000815260040180806020018281038252602b815260200180612965602b913960400191505060405180910390fd5b806000806101000a81548173ffffffffffffffffffffffffffffffffffffffff021916908373ffffffffffffffffffffffffffffffffffffffff16021790555050565b600160009054906101000a900473ffffffffffffffffffffffffffffffffffffffff1681565b600360009054906101000a900473ffffffffffffffffffffffffffffffffffffffff1681565b6000339050600060048481548110611b4a57fe5b9060005260206000209060060201905060006005600086815260200190815260200160002060008473ffffffffffffffffffffffffffffffffffffffff1673ffffffffffffffffffffffffffffffffffffffff1681526020019081526020016000209050611bb785610cf2565b600081600001541115611c77576000611c118260010154611c03670de0b6b3a7640000611bf587600301548760000154611f9c90919063ffffffff16565b6120aa90919063ffffffff16565b611f1990919063ffffffff16565b90506000811115611c7557611c268482612133565b8373ffffffffffffffffffffffffffffffffffffffff167fe2403640ba68fed3a2f88b7557551d1993f84b99bb10ff833f0cf8db0c5e0486826040518082815260200191505060405180910390a25b505b6000841115611e8657611cd18330868560000160009054906101000a900473ffffffffffffffffffffffffffffffffffffffff1673ffffffffffffffffffffffffffffffffffffffff16612459909392919063ffffffff16565b600360009054906101000a900473ffffffffffffffffffffffffffffffffffffffff1673ffffffffffffffffffffffffffffffffffffffff168260000160009054906101000a900473ffffffffffffffffffffffffffffffffffffffff1673ffffffffffffffffffffffffffffffffffffffff161415611d9757611d8a611d77612710611d696126ac88611f9c90919063ffffffff16565b6120aa90919063ffffffff16565b826000015461202290919063ffffffff16565b8160000181905550611db7565b611dae84826000015461202290919063ffffffff16565b81600001819055505b600082600401541115611e85576000611df1612710611de3856004015488611f9c90919063ffffffff16565b6120aa90919063ffffffff16565b9050611e64600260009054906101000a900473ffffffffffffffffffffffffffffffffffffffff16828560000160009054906101000a900473ffffffffffffffffffffffffffffffffffffffff1673ffffffffffffffffffffffffffffffffffffffff166122b29092919063ffffffff16565b611e7b818360000154611f1990919063ffffffff16565b8260000181905550505b5b611ebb670de0b6b3a7640000611ead84600301548460000154611f9c90919063ffffffff16565b6120aa90919063ffffffff16565b8160010181905550848373ffffffffffffffffffffffffffffffffffffffff167f90890809c654f11d6e72a28fa60149770a0d11ec6c92319d6ceb2bb0a4ea1a15866040518082815260200191505060405180910390a35050505050565b600082821115611f91576040517f08c379a000000000000000000000000000000000000000000000000000000000815260040180806020018281038252601e8152602001807f536166654d6174683a207375627472616374696f6e206f766572666c6f77000081525060200191505060405180910390fd5b818303905092915050565b600080831415611faf576000905061201c565b6000828402905082848281611fc057fe5b0414612017576040517f08c379a00000000000000000000000000000000000000000000000000000000081526004018080602001828103825260218152602001806128f56021913960400191505060405180910390fd5b809150505b92915050565b6000808284019050838110156120a0576040517f08c379a000000000000000000000000000000000000000000000000000000000815260040180806020018281038252601b8152602001807f536166654d6174683a206164646974696f6e206f766572666c6f77000000000081525060200191505060405180910390fd5b8091505092915050565b6000808211612121576040517f08c379a000000000000000000000000000000000000000000000000000000000815260040180806020018281038252601a8152602001807f536166654d6174683a206469766973696f6e206279207a65726f00000000000081525060200191505060405180910390fd5b81838161212a57fe5b04905092915050565b6000600160009054906101000a900473ffffffffffffffffffffffffffffffffffffffff1673ffffffffffffffffffffffffffffffffffffffff166370a08231306040518263ffffffff1660e01b8152600401808273ffffffffffffffffffffffffffffffffffffffff16815260200191505060206040518083038186803b1580156121be57600080fd5b505afa1580156121d2573d6000803e3d6000fd5b505050506040513d60208110156121e857600080fd5b8101908080519060200190929190505050905060008111156122ad578082111561225e576122598382600160009054906101000a900473ffffffffffffffffffffffffffffffffffffffff1673ffffffffffffffffffffffffffffffffffffffff166122b29092919063ffffffff16565b6122ac565b6122ab8383600160009054906101000a900473ffffffffffffffffffffffffffffffffffffffff1673ffffffffffffffffffffffffffffffffffffffff166122b29092919063ffffffff16565b5b5b505050565b61234f8363a9059cbb60e01b8484604051602401808373ffffffffffffffffffffffffffffffffffffffff16815260200182815260200192505050604051602081830303815290604052907bffffffffffffffffffffffffffffffffffffffffffffffffffffffff19166020820180517bffffffffffffffffffffffffffffffffffffffffffffffffffffffff838183161783525050505061251a565b505050565b6000600480549050905060005b81811015612454578273ffffffffffffffffffffffffffffffffffffffff166004828154811061238d57fe5b906000526020600020906006020160000160009054906101000a900473ffffffffffffffffffffffffffffffffffffffff1673ffffffffffffffffffffffffffffffffffffffff161415612449576040517f08c379a000000000000000000000000000000000000000000000000000000000815260040180806020018281038252601f8152602001807f546f6d6247656e65736973506f6f6c3a206578697374696e6720706f6f6c3f0081525060200191505060405180910390fd5b806001019050612361565b505050565b612514846323b872dd60e01b858585604051602401808473ffffffffffffffffffffffffffffffffffffffff1681526020018373ffffffffffffffffffffffffffffffffffffffff1681526020018281526020019350505050604051602081830303815290604052907bffffffffffffffffffffffffffffffffffffffffffffffffffffffff19166020820180517bffffffffffffffffffffffffffffffffffffffffffffffffffffffff838183161783525050505061251a565b50505050565b606061257c826040518060400160405280602081526020017f5361666545524332303a206c6f772d6c6576656c2063616c6c206661696c65648152508573ffffffffffffffffffffffffffffffffffffffff166126099092919063ffffffff16565b90506000815111156126045780806020019051602081101561259d57600080fd5b8101908080519060200190929190505050612603576040517f08c379a000000000000000000000000000000000000000000000000000000000815260040180806020018281038252602a81526020018061293b602a913960400191505060405180910390fd5b5b505050565b60606126188484600085612621565b90509392505050565b60608247101561267c576040517f08c379a00000000000000000000000000000000000000000000000000000000081526004018080602001828103825260268152602001806128cf6026913960400191505060405180910390fd5b612685856127ca565b6126f7576040517f08c379a000000000000000000000000000000000000000000000000000000000815260040180806020018281038252601d8152602001807f416464726573733a2063616c6c20746f206e6f6e2d636f6e747261637400000081525060200191505060405180910390fd5b600060608673ffffffffffffffffffffffffffffffffffffffff1685876040518082805190602001908083835b602083106127475780518252602082019150602081019050602083039250612724565b6001836020036101000a03801982511681845116808217855250505050505090500191505060006040518083038185875af1925050503d80600081146127a9576040519150601f19603f3d011682016040523d82523d6000602084013e6127ae565b606091505b50915091506127be8282866127dd565b92505050949350505050565b600080823b905060008111915050919050565b606083156127ed578290506128a2565b6000835111156128005782518084602001fd5b816040517f08c379a00000000000000000000000000000000000000000000000000000000081526004018080602001828103825283818151815260200191508051906020019080838360005b8381101561286757808201518184015260208101905061284c565b50505050905090810190601f1680156128945780820380516001836020036101000a031916815260200191505b509250505060405180910390fd5b939250505056fe6164643a20696e76616c6964206465706f7369742066656520626173697320706f696e7473416464726573733a20696e73756666696369656e742062616c616e636520666f722063616c6c536166654d6174683a206d756c7469706c69636174696f6e206f766572666c6f777365743a20696e76616c6964206465706f7369742066656520626173697320706f696e74735361666545524332303a204552433230206f7065726174696f6e20646964206e6f742073756363656564546f6d6247656e65736973506f6f6c3a2063616c6c6572206973206e6f7420746865206f70657261746f72a2646970667358221220aef1cffa664c1871eb859ab8513ee4d7fb5d48c3ad9d277ddfdd68ff3976101e64736f6c634300060c0033",
  "immutableReferences": {},
  "source": "// SPDX-License-Identifier: MIT\n\npragma solidity 0.6.12;\n\nimport \"@openzeppelin/contracts/token/ERC20/IERC20.sol\";\nimport \"@openzeppelin/contracts/token/ERC20/SafeERC20.sol\";\nimport \"@openzeppelin/contracts/math/SafeMath.sol\";\n\n// Note that this pool has no minter key of TOMB (rewards).\n// Instead, the governance will call TOMB distributeReward method and send reward to this pool at the beginning.\ncontract ZombGenesisRewardPool {\n    using SafeMath for uint256;\n    using SafeERC20 for IERC20;\n\n    // governance\n    address public operator;\n\n    // Info of each user.\n    struct UserInfo {\n        uint256 amount; // How many tokens the user has provided.\n        uint256 rewardDebt; // Reward debt. See explanation below.\n    }\n\n    // Info of each pool.\n    struct PoolInfo {\n        IERC20 token; // Address of LP token contract.\n        uint256 allocPoint; // How many allocation points assigned to this pool. TOMB to distribute.\n        uint256 lastRewardTime; // Last time that TOMB distribution occurs.\n        uint256 accTombPerShare; // Accumulated TOMB per share, times 1e18. See below.\n        uint256 depositFeeBP;\n        bool isStarted; // if lastRewardBlock has passed\n    }\n\n    IERC20 public tomb;\n    address public feeAddress;\n\n    address public shiba;\n\n    // Info of each pool.\n    PoolInfo[] public poolInfo;\n\n    // Info of each user that stakes LP tokens.\n    mapping(uint256 => mapping(address => UserInfo)) public userInfo;\n\n    // Total allocation points. Must be the sum of all allocation points in all pools.\n    uint256 public totalAllocPoint = 0;\n\n    // The time when TOMB mining starts.\n    uint256 public poolStartTime;\n\n    // The time when TOMB mining ends.\n    uint256 public poolEndTime;\n\n    // MAINNET\n    uint256 public tombPerSecond = 0.031829 ether; // 11000 ZOMB / (4 day * 24h * 60min * 60s)\n    uint256 public runningTime = 96 hours; // 4 days\n    uint256 public constant TOTAL_REWARDS = 11000 ether;\n    // END MAINNET\n\n    // TESTNET\n    //uint256 public tombPerSecond = 0.254629 ether; // 11000 ZOMB / (12h * 60min * 60s)\n    //uint256 public runningTime = 12 hours; // 12 hours\n    //uint256 public constant TOTAL_REWARDS = 11000 ether;\n    // END TESTNET\n\n    event Deposit(address indexed user, uint256 indexed pid, uint256 amount);\n    event Withdraw(address indexed user, uint256 indexed pid, uint256 amount);\n    event EmergencyWithdraw(address indexed user, uint256 indexed pid, uint256 amount);\n    event RewardPaid(address indexed user, uint256 amount);\n\n    constructor(\n        address _tomb,\n        address _shiba,\n        address _feeAddress,\n        uint256 _poolStartTime\n    ) public {\n        require(block.timestamp < _poolStartTime, \"late\");\n        require(_feeAddress != address(0), \"_feeAddress is ZERO\");\n        if (_tomb != address(0)) tomb = IERC20(_tomb);\n        if (_shiba != address(0)) shiba = _shiba;\n        poolStartTime = _poolStartTime;\n        poolEndTime = poolStartTime + runningTime;\n        operator = msg.sender;\n        feeAddress = _feeAddress;\n    }\n\n    modifier onlyOperator() {\n        require(operator == msg.sender, \"TombGenesisPool: caller is not the operator\");\n        _;\n    }\n\n    function checkPoolDuplicate(IERC20 _token) internal view {\n        uint256 length = poolInfo.length;\n        for (uint256 pid = 0; pid < length; ++pid) {\n            require(poolInfo[pid].token != _token, \"TombGenesisPool: existing pool?\");\n        }\n    }\n\n    // Add a new token to the pool. Can only be called by the owner.\n    function add(\n        uint256 _allocPoint,\n        IERC20 _token,\n        bool _withUpdate,\n        uint256 _lastRewardTime,\n        uint256 _depositFeeBP\n    ) public onlyOperator {\n        require(_depositFeeBP <= 100, \"add: invalid deposit fee basis points\");\n        checkPoolDuplicate(_token);\n        if (_withUpdate) {\n            massUpdatePools();\n        }\n        if (block.timestamp < poolStartTime) {\n            // chef is sleeping\n            if (_lastRewardTime == 0) {\n                _lastRewardTime = poolStartTime;\n            } else {\n                if (_lastRewardTime < poolStartTime) {\n                    _lastRewardTime = poolStartTime;\n                }\n            }\n        } else {\n            // chef is cooking\n            if (_lastRewardTime == 0 || _lastRewardTime < block.timestamp) {\n                _lastRewardTime = block.timestamp;\n            }\n        }\n        bool _isStarted =\n        (_lastRewardTime <= poolStartTime) ||\n        (_lastRewardTime <= block.timestamp);\n        poolInfo.push(PoolInfo({\n            token : _token,\n            allocPoint : _allocPoint,\n            lastRewardTime : _lastRewardTime,\n            accTombPerShare : 0,\n            isStarted : _isStarted,\n            depositFeeBP: _depositFeeBP\n            }));\n        if (_isStarted) {\n            totalAllocPoint = totalAllocPoint.add(_allocPoint);\n        }\n    }\n\n    // Update the given pool's TOMB allocation point. Can only be called by the owner.\n    function set(uint256 _pid, uint256 _allocPoint, uint256 _depositFeeBP) public onlyOperator {\n        require(_depositFeeBP <= 100, \"set: invalid deposit fee basis points\");\n        massUpdatePools();\n        PoolInfo storage pool = poolInfo[_pid];\n        if (pool.isStarted) {\n            totalAllocPoint = totalAllocPoint.sub(pool.allocPoint).add(\n                _allocPoint\n            );\n        }\n        pool.allocPoint = _allocPoint;\n        pool.depositFeeBP = _depositFeeBP;\n    }\n\n    // Return accumulate rewards over the given _from to _to block.\n    function getGeneratedReward(uint256 _fromTime, uint256 _toTime) public view returns (uint256) {\n        if (_fromTime >= _toTime) return 0;\n        if (_toTime >= poolEndTime) {\n            if (_fromTime >= poolEndTime) return 0;\n            if (_fromTime <= poolStartTime) return poolEndTime.sub(poolStartTime).mul(tombPerSecond);\n            return poolEndTime.sub(_fromTime).mul(tombPerSecond);\n        } else {\n            if (_toTime <= poolStartTime) return 0;\n            if (_fromTime <= poolStartTime) return _toTime.sub(poolStartTime).mul(tombPerSecond);\n            return _toTime.sub(_fromTime).mul(tombPerSecond);\n        }\n    }\n\n    // View function to see pending TOMB on frontend.\n    function pendingTOMB(uint256 _pid, address _user) external view returns (uint256) {\n        PoolInfo storage pool = poolInfo[_pid];\n        UserInfo storage user = userInfo[_pid][_user];\n        uint256 accTombPerShare = pool.accTombPerShare;\n        uint256 tokenSupply = pool.token.balanceOf(address(this));\n        if (block.timestamp > pool.lastRewardTime && tokenSupply != 0) {\n            uint256 _generatedReward = getGeneratedReward(pool.lastRewardTime, block.timestamp);\n            uint256 _tombReward = _generatedReward.mul(pool.allocPoint).div(totalAllocPoint);\n            accTombPerShare = accTombPerShare.add(_tombReward.mul(1e18).div(tokenSupply));\n        }\n        return user.amount.mul(accTombPerShare).div(1e18).sub(user.rewardDebt);\n    }\n\n    // Update reward variables for all pools. Be careful of gas spending!\n    function massUpdatePools() public {\n        uint256 length = poolInfo.length;\n        for (uint256 pid = 0; pid < length; ++pid) {\n            updatePool(pid);\n        }\n    }\n\n    // Update reward variables of the given pool to be up-to-date.\n    function updatePool(uint256 _pid) public {\n        PoolInfo storage pool = poolInfo[_pid];\n        if (block.timestamp <= pool.lastRewardTime) {\n            return;\n        }\n        uint256 tokenSupply = pool.token.balanceOf(address(this));\n        if (tokenSupply == 0) {\n            pool.lastRewardTime = block.timestamp;\n            return;\n        }\n        if (!pool.isStarted) {\n            pool.isStarted = true;\n            totalAllocPoint = totalAllocPoint.add(pool.allocPoint);\n        }\n        if (totalAllocPoint > 0) {\n            uint256 _generatedReward = getGeneratedReward(pool.lastRewardTime, block.timestamp);\n            uint256 _tombReward = _generatedReward.mul(pool.allocPoint).div(totalAllocPoint);\n            pool.accTombPerShare = pool.accTombPerShare.add(_tombReward.mul(1e18).div(tokenSupply));\n        }\n        pool.lastRewardTime = block.timestamp;\n    }\n\n    // Deposit LP tokens.\n    function deposit(uint256 _pid, uint256 _amount) public {\n        address _sender = msg.sender;\n        PoolInfo storage pool = poolInfo[_pid];\n        UserInfo storage user = userInfo[_pid][_sender];\n        updatePool(_pid);\n        if (user.amount > 0) {\n            uint256 _pending = user.amount.mul(pool.accTombPerShare).div(1e18).sub(user.rewardDebt);\n            if (_pending > 0) {\n                safeTombTransfer(_sender, _pending);\n                emit RewardPaid(_sender, _pending);\n            }\n        }\n        if (_amount > 0) {\n            pool.token.safeTransferFrom(_sender, address(this), _amount);\n            if(address(pool.token) == shiba) {\n                user.amount = user.amount.add(_amount.mul(9900).div(10000));\n            } else {\n                user.amount = user.amount.add(_amount);\n            }\n\n            if(pool.depositFeeBP > 0){\n                uint256 depositFee = _amount.mul(pool.depositFeeBP).div(10000);\n                pool.token.safeTransfer(feeAddress, depositFee);\n                user.amount = user.amount.sub(depositFee);\n            }\n        }\n\n        user.rewardDebt = user.amount.mul(pool.accTombPerShare).div(1e18);\n        emit Deposit(_sender, _pid, _amount);\n    }\n\n    // Withdraw LP tokens.\n    function withdraw(uint256 _pid, uint256 _amount) public {\n        address _sender = msg.sender;\n        PoolInfo storage pool = poolInfo[_pid];\n        UserInfo storage user = userInfo[_pid][_sender];\n        require(user.amount >= _amount, \"withdraw: not good\");\n        updatePool(_pid);\n        uint256 _pending = user.amount.mul(pool.accTombPerShare).div(1e18).sub(user.rewardDebt);\n        if (_pending > 0) {\n            safeTombTransfer(_sender, _pending);\n            emit RewardPaid(_sender, _pending);\n        }\n        if (_amount > 0) {\n            user.amount = user.amount.sub(_amount);\n            pool.token.safeTransfer(_sender, _amount);\n        }\n        user.rewardDebt = user.amount.mul(pool.accTombPerShare).div(1e18);\n        emit Withdraw(_sender, _pid, _amount);\n    }\n\n    // Withdraw without caring about rewards. EMERGENCY ONLY.\n    function emergencyWithdraw(uint256 _pid) public {\n        PoolInfo storage pool = poolInfo[_pid];\n        UserInfo storage user = userInfo[_pid][msg.sender];\n        uint256 _amount = user.amount;\n        user.amount = 0;\n        user.rewardDebt = 0;\n        pool.token.safeTransfer(msg.sender, _amount);\n        emit EmergencyWithdraw(msg.sender, _pid, _amount);\n    }\n\n    // Safe TOMB transfer function, just in case if rounding error causes pool to not have enough TOMBs.\n    function safeTombTransfer(address _to, uint256 _amount) internal {\n        uint256 _tombBalance = tomb.balanceOf(address(this));\n        if (_tombBalance > 0) {\n            if (_amount > _tombBalance) {\n                tomb.safeTransfer(_to, _tombBalance);\n            } else {\n                tomb.safeTransfer(_to, _amount);\n            }\n        }\n    }\n\n    function setOperator(address _operator) external onlyOperator {\n        operator = _operator;\n    }\n\n    function setFeeAddress(address _feeAddress) public{\n        require(msg.sender == feeAddress, \"setFeeAddress: FORBIDDEN\");\n        require(_feeAddress != address(0), \"setFeeAddress: ZERO\");\n        feeAddress = _feeAddress;\n    }\n\n    function governanceRecoverUnsupported(IERC20 _token, uint256 amount, address to) external onlyOperator {\n        if (block.timestamp < poolEndTime + 90 days) {\n            // do not allow to drain core token (TOMB or lps) if less than 90 days after pool ends\n            require(_token != tomb, \"tomb\");\n            uint256 length = poolInfo.length;\n            for (uint256 pid = 0; pid < length; ++pid) {\n                PoolInfo storage pool = poolInfo[pid];\n                require(_token != pool.token, \"pool.token\");\n            }\n        }\n        _token.safeTransfer(to, amount);\n    }\n}\n",
  "sourcePath": "D:\\5xDEFI\\tomb-contract\\contracts\\distribution\\ZombGenesisRewardPool.sol",
  "compiler": {
    "name": "solc",
    "version": "0.6.12+commit.27d51765.Emscripten.clang"
  },
  "schemaVersion": "3.4.3",
  "updatedAt": "2022-03-04T03:11:57.584Z",
  "devdoc": {
    "kind": "dev",
    "methods": {},
    "version": 1
  },
  "userdoc": {
    "kind": "user",
    "methods": {},
    "version": 1
  }
}